S021000054414C5F504552464F524D414E43455F414E414C595A4552352E7372656397
S1130000D0280020A5490000A1490000A149000012
S113001000000000000000000000000000000000DC
S1130020000000000000000000000000A1490000E2
S11300300000000000000000A1490000A1490000E8
S1130040A1490000A1490000A1490000212C0000A1
S1130050A1490000A1490000A1490000A1490000F4
S11300605932000069320000793200008932000000
S113007099320000A9320000A1490000A149000002
S1130080A1490000B1450000C14500000000000086
S113009000000000D1450000A1490000A149000072
S11300A000000000A1490000000000000000000062
S11300B00000000010B5064C2378002B07D1054B37
S11300C0002B02D0044800E000BF0123237010BDC0
S11300D09C00002000000000A8730000084B10B52D
S11300E0002B03D00749084800E000BF0748036815
S11300F0002B00D110BD064B002BFBD09847F9E72D
S113010000000000A0000020A8730000A8730000F5
S113011000000000F0B583B06B46DF1DD8710B4EB4
S11301200B4C0122310020000A4DA8478022920185
S1130130094B5A61012239002000084B98470022DC
S113014031002000A84703B0F0BDC046A40400203D
S1130150980400208135000000280040713600001A
S113016030B591B05D4B98475D4C23232370002339
S11301706370A37002A901224A708B700A70232055
S1130180584B98472378DA090021002A04D15909E9
S1130190C901554A944661441F2213401E3A100077
S11301A09840886102AC2270002303930493237463
S11301B06374A274E27423752332A354183A0021A1
S11301C008A84A4B984780235B02E360484BA3622C
S11301D001235B42E362474B2363474B6363474B13
S11301E0A361474D220047492800474B98472A6896
S11301F0D369002BFCD1116802330B43136001ACAB
S1130200012363700022A270237021000D20354D5C
S1130210A84721001720A84700203C4B984737499E
S11302203B4B9847830018184000802212042E4B41
S11302305A6100284BD0374B586000229A6019004D
S1130240802252020B681342FCD034E00B68134244
S1130250FCD080221204244B9A61A8202E4CA04783
S11302601F20A047D320A0470020A0474020A0473C
S1130270A120A047C820A047DA20A0470220A04719
S11302808120A0478F20A047A420A047A620A047F4
S1130290D520A0478020A0478D20A0471420A04748
S11302A0DB20A0474020A047D920A047F120A04749
S11302B0AF20A04710E0802212040B4B9A61154B2B
S11302C0586000229A60190080225202BEE7802200
S11302D01204054B9A61BCE711B030BD75290000CA
S11302E0A4040020CD2D000000280040575E00002B
S11302F003002200030036000300370040420F00D1
S11303009804002000040043B93200001D4300009B
S1130310B55A000010E000E015010000F0B583B00C
S11303206B46DF1DD8710B4E0B4C012231002000AF
S11303300A4DA84780229201094B9A610122390093
S11303402000084B9847002231002000A84703B042
S1130350F0BDC046A40400209804002081350000AC
S11303600028004071360000014B18607047C046F9
S1130370B8000020024B1B68C00118184254704793
S1130380B8000020024B1B68C0011818405C70477D
S1130390B8000020F0B557464E464546E0B482B05A
S11303A08418802C03DD80246442241AE2B2002ADB
S11303B055D0CD08EC00091B01248C40A146211C1A
S11303C06C46E171E1798846012B04D0002B19D0E9
S11303D0022B2ED043E01400471E244B9A46244B94
S11303E09946E619F6B231002800D047434618432F
S11303F0C2B2002331002800C847013CE4B2002CFB
S1130400EFD12CE01400471E184B9A46184B98461F
S1130410E619F6B231002800D0474B469843C2B2E1
S1130420002331002800C047013CE4B2002CEFD186
S113043015E01400471E0D4B9A460D4B9946E619DC
S1130440F6B231002800D04743465840C2B20023D8
S113045031002800C847013CE4B2002CEFD102B0BF
S11304601CBC90469946A246F0BDC046C906000091
S1130470BD050000F0B583B00090019208AA17787A
S1130480002B0CD01C004E1E064DA119C9B23B0016
S1130490019A0098A847013CE4B2002CF5D103B0BE
S11304A0F0BDC04695030000F0B55F4656464D4684
S11304B04446F0B485B00400884615009B465B7A38
S11304C05A46127A0021009129004046254EB04731
S11304D05B461B78002B3DD15B461B7ADE085B072D
S11304E000D001365B465B7A9A465B469B7AE41AF7
S11304F053465C436643B6B25B465B689C466644BF
S11305000395072399465B461F7A002F18D047446A
S1130510FFB2444600254346E31A4A461A4201D133
S1130520357801366BB2002B04DA012203992000DE
S11305300D4B98470134E4B26D00EDB2A742EAD105
S1130540039B0133DBB203935346013BDBB29A4670
S1130550002BD8D105B03CBC90469946A246AB4688
S1130560F0BDC0467504000061060000F0B54746C2
S113057080B482B00400019190461F000D002078E1
S11305800A2806D17A7A01324244D3B29846019DB0
S113059009E00D2807D03B0042462900064EB0472B
S11305A03B7AEB18DDB201342378002BE7D102B09B
S11305B004BC9046F0BDC046A9040000F8B505008F
S11305C00C001600002B03D10D4B9847B04215D0F8
S11305D03200210028000B4B98470F273D40B020E4
S11305E02843094DA8476006400F10231843A84725
S11305F038002040A8473000044B9847F8BDC04657
S11306008503000075030000150100001D030000B0
S1130610F8B50E480E4B98470E4B984740200E4BAA
S11306209847002500260D4F0CE0012332002100DD
S11306302800B8470134E4B2802CF6D10135EDB27C
S1130640042D01D03400F0E7F8BDC046BC00002002
S1130650690300006101000015010000BD050000F0
S1130660F0B5474680B40400150043B2002B23DBE9
S11306701F2921D8CF08FB00C91A01268E40F3B2E6
S11306809846010038000E4B98470200012D04D013
S1130690002D06D0022D07D009E043460343DAB209
S11306A005E0B043C2B202E043464340DAB200235D
S11306B021003800034CA04704BC9046F0BDC0465E
S11306C085030000BD05000010B5014B984710BD1F
S11306D08503000070B53A4A116A80235B050B401C
S11306E01800411E884137490870106A8021C903E7
S11306F001400C00601E844133480470106A402499
S1130700204005006C1EA541304C2570126A8024DF
S1130710224015006C1EA5412D4C2570002B0CD1D8
S11307202C4B1B78002B08D101222A4B1A702A4B20
S113073098472A4B1860012041E000290CD1254B31
S11307401B78002B38D10122224B1A70224B984778
S1130750224B1860022032E000280CD11D4B1B787C
S1130760002B25D101221B4B1A701B4B98471B4BA6
S11307701860032023E0002A0CD1164B1B78002BB1
S113078014D10132134B1A70134B9847134B186052
S1130790042014E0104B9847104B1B68C01A012822
S11307A002D900220B4B1A70002008E0002006E05A
S11307B00020002A03D0EDE70028F9D0DBE770BD64
S11307C000280040B0040020A9040020AA0400204E
S11307D0B1040020A804002061290000B404002012
S11307E070B5441C0078002806D0044DA847013495
S11307F0631E18780028F9D170BDC046394D000039
S113080070B50400044E0309F05C044DA8470F239F
S11308101C40305DA84770BD0C000020394D00001D
S113082070B5214B1B781B0702D52048204B9847F5
S11308301D4B1B789B0703D01E481D4B984702E0B5
S11308401D481B4B9847184B1B785B0618D51B4853
S1130850174B9847144B1B78DB090724002B08D04F
S1130860114D6B685878164CA0476B681878A047F0
S113087006E00D4E124D7368185DA847013CFAD28C
S113088010480B4B9847084B1B7B002B0AD00024C5
S1130890054D0D4EAB68185DB0470134E4B22B7BB7
S11308A0A342F7D870BDC046D8070020C47000002A
S11308B0E1070000D0700000E4700000F470000054
S11308C001080000FC700000394D000010B5012241
S11308D0044B1A70A032044B1A700021034B984742
S11308E010BDC04655070020B0070020691B00005A
S11308F0F8B50E4E8027FF027761FA256D002800B7
S11309000B4CA047B7612800A04780273F037761BD
S11309102800A047B7612800A04780277F0577619A
S11309202800A047B7612800A047F8BD0028004070
S1130930E1290000F0B55F464E464546E0B482B07A
S11309400190894600291BD000250024104B9846AD
S1130950104E114B9B4602273378424613705B4678
S11309601F7073785370002101980C4B984700282E
S113097001D10135EDB20134E4B2A145ECD100E07E
S11309800025280002B01CBC90469946A346F0BD41
S1130990B00700201C00002055070020691B000040
S11309A0F8B504000B4F0C4E1F2503210220B84755
S11309B00120B04728400828F7D1064F064E1F25CE
S11309C021000220B8470120B04728408442F7D1D3
S11309D0F8BDC046B54F0000B94E000010B5082060
S11309E0064B98470F20064B9847064B1B78002B65
S11309F002D01620014B984710BDC046A109000043
S1130A00B94E00004003002010B5040019200C4B1F
S1130A1098470F200B4B984761788B1C637001310A
S1130A20C9B2601C084B98470322084B1A70084B44
S1130A30802252039A61C046C0465A6110BDC04626
S1130A40A1090000B94E0000E55100003C0300205C
S1130A5000280040F0B5474680B406200D4B984767
S1130A60002400250C4F0D4E032398460120B8475F
S1130A700620B047400943461840A040284385B2A9
S1130A800234102CF2D1064B9847280004BC90463F
S1130A90F0BDC046A1090000B5290000B94E000010
S1130AA0DD09000070B50F4B98470F4B98470022A3
S1130AB00E4B1A70FF210E200D4B98470C4E0D4D16
S1130AC01F2408210220B0470120A84720400828FD
S1130AD0F7D12E210438064CA047A0210C20A047B2
S1130AE070BDC0466D4D0000894E000040030020DB
S1130AF0B54F0000B94E000010B504000820064BA5
S1130B0098471F230100994320000843C1B20820DD
S1130B10024B984710BDC046B94E0000B54F0000C7
S1130B2030B583B06B469D1DD880C1B22220034CE2
S1130B30A04769782320A04703B030BDB54F00001B
S1130B4070B582B06B469C1DD880C5B229002020A8
S1130B50054EB047647821002120B0472C19E1B23A
S1130B602D20B04702B070BDB54F000010B5040091
S1130B70080000220021054B984700212000044B67
S1130B8098472000034B984710BDC04665270000D6
S1130B90F92600009D28000010B50278084B1A7051
S1130BA042785A700A78074B1A704A785A700120B2
S1130BB0054B98470548064B9847012010BDC04691
S1130BC0BC040020B0050020410B000034120000DA
S1130BD0210B0000F0B5474680B4A6B006000C0017
S1130BE09C462C992509230700D001354920424B06
S1130BF01870002302A803700D3343708270002222
S1130C003D4B8F5CD0184770100002AFB84640448B
S1130C108F5CC7710132082AF3D163466A46D371E7
S1130C20D379354843724246D37063461B041B0E86
S1130C308372137163461B021B0EC37253716346A6
S1130C401B0E037393710023D373042242738373C3
S1130C50C4732A492A4B9847002302AA995C06AA1E
S1130C6099540133102BF8D127001037102F0ADDC7
S1130C701021F218103A107806AA50540133DBB24E
S1130C80191EB942F5DB23001033DBB21A0001351B
S1130C902801834207DA002406A98C540133DBB20D
S1130CA01A1E8242F8DB00230027002D14DC17E013
S1130CB0991906AA1219D05C0A7842400A700133C5
S1130CC0102BF5D10D490C480D4B98470137FFB255
S1130CD03B1EAB4201DB03E0074E1C010023E7E7A8
S1130CE0002308480449CA5CC2540133102BFAD1CA
S1130CF026B004BC9046F0BDCC0400200071000076
S1130D006D0B00009C050020F0B55F4656464D462D
S1130D104446F0B48BB00400894615001A000978E3
S1130D200E090B0700D00136384B5B6800932B008B
S1130D302000374FB8474B461B78370032019342A7
S1130D4005DA0021E1540133DBB29342FADB0122DC
S1130D5002AB1A702D4B5868002302AAD218C15C4A
S1130D6051700133082BF8D102AB5D722A0A9A72D2
S1130D702A0CDA722D0E1D7304225A7300229A7300
S1130D80DA737B1C984600239A469B464346002B05
S1130D902FDC33E002AA995C06AA99540133102B84
S1130DA0F8D11C491000C84702ABD87B5346013B1D
S1130DB01F010023184A9446002806D106AA995C0C
S1130DC06246D25C4A40F25405E0E11906AA9A5CF4
S1130DD0CD5C6A40CA540133102BEDD1013002AB13
S1130DE0D8735F460137FBB29B469A46434503DB03
S1130DF004E00A4B99460A4E0023CBE701200BB0CE
S1130E003CBC90469946A246AB46F0BDC4040020C3
S1130E10D50B0000007100009C0500206D0B000044
S1130E20EC040020074B1A78074B1B7800209A42E9
S1130E3007D1044B5B78044A5078181A434258414E
S1130E40C0B27047EC040020AC050020F0B55F464A
S1130E5056464D464446F0B48FB004000491914682
S1130E609A4618AB1B7805930B781A09190700D01A
S1130E70013217001201934205DA0021E1540133D3
S1130E80DBB29342FADB012206AB1A700023484618
S1130E9006AAD218C15C51700133082BF8D18146DF
S1130EA006AB52465A725246120A9A725246120CB3
S1130EB0DA725246120E1A7304225A7300229A737B
S1130EC0DA737B1C191E039229DC2FE006AA995CB5
S1130ED00AAA99540133102BF8D124491000C047B1
S1130EE006ABD87B7B1E1F010023002803D10AAA6E
S1130EF09A5CEA5405E0E2190AA95E5CD15C71408F
S1130F00D1540133102BF0D1013006ABD873039EBA
S1130F100136F3B203931F1E5F4505DB06E0144B55
S1130F209846144D17008B460023CFE7049B19788D
S1130F300439C9B219704B4600935346059A2000F0
S1130F400D4CA04700230D4D0A4C0D48E15CC25CDA
S1130F504A40EA540133102BF8D10A4B98470FB09A
S1130F603CBC90469946A246AB46F0BD00710000D9
S1130F706D0B0000DC040020D50B0000EC04002005
S1130F809C050020250E000010B502000B3A00233A
S1130F900F2A04D8034B1870034B984701231800F9
S1130FA010BDC046B2050020F90A0000F0B55F4646
S1130FB056464D464446F0B4A7B0041C03900800BE
S1130FC004911600360A05920293E3B29C06E40FDC
S1130FD08146D1B2F6B25A0700D5012108221A403F
S1130FE01000424242415242164003221A40012A52
S1130FF004D0002A04D10120824601E00320824665
S113100003A84089B24D2D8885420BD1B14DA84229
S11310100CD0402055460543E8B282460120834661
S1131020043006E000208346073002E000208346B7
S11310300730884607000837002900D0871C002E97
S113104003D00237F9B2019102E00837F9B20191F5
S113105024210B40202B03D151461943CBB29A468D
S1131060032A06D10126002400239B469A4607330F
S1131070019303AA6301157820218D431D43157044
S11310802B0700D405E1082352461A43D3B29A46EB
S1131090914B1A68534630A90298904FB84706AA54
S11310A00199117030AB1B780933CF18577006AB18
S11310B052469A70EB439B0709D106AB8022DA7043
S11310C087490A78501C08701A71052240E043468B
S11310D0002B0BD0002E03D0882206ABDA70E0E0A0
S11310E0002E09D1C82206ABDA70DAE0002E03D054
S11310F08C2206ABDA7002E0CC2206ABDA70784BB5
S11311001A78511C197006AB1A7103AA917A597195
S1131110D27A9A716B0705D506ABFF22DA711A727F
S1131120F63A15E0002342464846002A08D006ABAA
S11311304A461278DA714A4652781A72092207E04E
S113114006AAD218C15CD1710133082BF8D10F2241
S11311505B46002B09D1531CDBB206A95C48057819
S11311608D540232D2B24078C854002E0AD006A957
S11311705C4803788B54931CDBB20132D2B24078C2
S113118088540CE0584B596813000833DBB2501CE8
S11311900E7806ADAE540131C2B29342F7D103A921
S11311A062010C782020844314430C70220714D568
S11311B019000022484F481CBE5C06AD6E54013233
S11311C0C1B2042AF7D11A1DD2B2434801680131D1
S11311D001600533DBB20020A85430AA117800293D
S11311E00BD0029A5918C9B2581C167806ADEE54A1
S11311F00132C3B29942F7D100E0190006AA3B4B71
S113120018785054481CC0B25D781554881CC0B27C
S11312109D7815540331C9B2DB785354344A11789C
S113122001230B43137024231C40202C04D1117878
S113123002230B43137004E02D4A137802218B43DD
S1131240137006A82B4B98472B4B98470600284C45
S1131250294D2378DB070BD4254B1B7801205B0732
S11312602ED5234A137804218B431370002027E0E2
S1131270A847801B0528ECD9204B984714491948E6
S11312801F4B98471A4A137801218B43137000208F
S113129016E006AA0199117030AB1B78CF1857706D
S11312A005E70F4B1A78511C197006AB1A7103AA83
S11312B0917A5971D27A9A716B0700D52CE736E787
S11312C027B03CBC90469946A246AB46F0BDC0460A
S11312D0B0050020FFFF000098050020090D000064
S11312E0B8040020BC040020C4040020EC04002046
S11312F0B4050020090A000061290000A50A0000C5
S1131300990B000070B505002424054E29782000AF
S1131310B04701350134E4B22C2CF7D170BDC0467E
S1131320B54F000030B583B06C4600900191104B6E
S11313309847104B06CC06C30F4B98470500012471
S11313400E4B1C700E4B98470E4B1D700B220E4B10
S11313501A700E480E4B984700230E4A13700E4A1B
S113136013704E2153540D4B1C60012003B030BD4B
S1131370A50A0000C4040020550A00004003002010
S1131380DD090000B8040020B20500202000002080
S113139005130000B4050020FC040020980500207B
S11313A0044B1B78012B04D84E2253430021024ADC
S11313B0995470471E000020FC040020F0B55746E5
S11313C04646C0B483B0D24B1B78DB0712D5D14B51
S11313D01B889BB2052B08D90022CE4B1A80CC4A1D
S11313E0137801218B43137004E0CA4A1388013334
S11313F09BB21380FF22C84B1A70C84B1B78002B7A
S113140000D019E24E33C54AD35C0020002B00D132
S113141017E20122C04B1A70012528004E236B43AA
S1131420BE4AD3185A7840241440BD4A0021117092
S1131430D1739B7833229343DAB2882A00D197E0A0
S113144005D8082B00D106E1802A75D020E1DAB254
S1131450C82A05D0CC2A42D08C2A00D018E1CAE090
S11314604E236B43AD4AD3189B79FF2B0AD1B13B72
S11314706B43D318DB79FF2B04D1A94A11780423D9
S11314800B431370A64A1378802149420B4313700F
S1131490002C11D0A1494E2358430B181C79147405
S11314A05B7953740B1808335360435C133B137319
S11314B0081810309060B4E1994A98494E23584373
S11314C00B181C7A14745B7A53740B180A33536028
S11314D0435C153B1373081812309060A1E1904AE5
S11314E01378802149420B431370002C11D08B498F
S11314F04E2358430B181C7914745B7953740B18DE
S11315000E335360435C193B137308181630906014
S113151087E1834A81494E2358430B189C7B1474FA
S1131520DB7B53740B1810335360435C1B3B137306
S113153008181830906074E1794A117804230B4339
S1131540802149420B4313700123D37373494D33F4
S113155058430B181C7914745B7953740B180633B5
S11315605360435C0B3B13730818083090604EE1E2
S11315704E235D43694B5D19AB79FF2B0BD1B13B16
S11315804343664AD318DB79FF2B04D1644A1178AC
S113159004230B431370624B1A78802149420A4397
S11315A01A700122DA73002C12D11A005B494E23FF
S11315B058430B181C7A14745B7A53740B180A334F
S11315C05360435C0F3B137308180C3090601EE1AA
S11315D0534A52494E2358430B181C7914745B79AF
S11315E053740B1808335360435C0D3B1373081892
S11315F00A3090600BE14A4B1A78802149420A4331
S11316001A700122DA73002C12D01A0043494E23B7
S113161058430B181C7914745B7953740B180D33ED
S11316205360435C133B1373081810309060EEE072
S11316303B4A3A494E2358430B185C7B14749B7BFA
S113164053740B180F335360435C153B1373081822
S113165012309060DBE04E236B43304AD3189B7901
S1131660FF2B0AD1B13B6B43D318DB79FF2B04D199
S11316702B4A117804230B431370294A27494E231C
S11316805843435C0A3B1373081808309060BEE06B
S1131690244B98470020D4E0224B98477EE0204B0F
S11316A09B685A7812021978114388469A78120472
S11316B01D49404601401143DB781B060A02120A09
S11316C01A439046194D0024194F154B9A46E6B219
S11316D0E3001B1B5B00FB181B7BDB0906D0534696
S11316E059682800134B9847002804D101340E355B
S11316F0142CECD126E0132E24D8FF231C40A20086
S11317000D4BD358434519D9064B984746E0C0467C
S1131710B40500203E0300201E000020FC0400202D
S1131720E0060020A1130000FFFF00FFC405002015
S1131730C0050020F11D000000070020A400434B59
S11317404246E25042490B7B053BDBB20B7388688F
S1131750C3185C783F4A14709C785470DC78947099
S11317601B79D3704A680C3105303B4B1C784E23EF
S113177063433A4CE3185B7800934346384CA047E4
S1131780002802D1374B984708E0314B9A6805325C
S11317909A60197808220A431A7001E0002050E088
S11317A02D4B19784E234B432C4AD3185A780723D0
S11317B01A40012A04D0002A10D0032A06D013E0CC
S11317C0234A137803208343137011E020480378DD
S11317D00322934301221343037009E01C4A107847
S11317E003230343137003E01E4B9847002028E0B3
S11317F01A4C4E2213004B43185D1549E3181A186E
S1131800013A12788A731B5C4B73012019E0124B66
S11318101A784E235343114AD3185B781B07BFD55C
S11318203AE70D4B1A784E2353430C4AD3185B788E
S11318301B0700D533E7B3E70022074B1A700025D6
S1131840EBE503B00CBC90469A46F0BD00070020BF
S1131850E0060020AC0500201E000020FC0400204F
S11318604D0E0000A113000070B582B0394B1B78F7
S1131870022B6DD00F20384B9847030768D5354BA2
S11318801B78012B41D1354B1B78002B06D04E23FE
S1131890324AD35C002B03D0FF2402E0002400E092
S11318A0012407202C4B98476B46DD1D012128009D
S11318B02B4EB04729780231C9B22A48B0472100DB
S11318C02878831CDBB24E225443244AA3544C2B65
S11318D013D8254A1478202323431370023001229D
S11318E001234E244C431D490C191E4DA95CA154DF
S11318F00133DBB21A1E8242F8DD174D1F2401208A
S1131900A84720401628FAD122E0032B20D1022038
S1131910114B98474009C0B2002809D1124B1A78DC
S113192001218A431A701A7803318A431A700AE033
S1131930052808D10C4B1A7801218A431A701978AA
S113194004220A431A70094B98470122014B1A706A
S113195002B070BD3C030020B94E0000FC0400201E
S1131960B5500000BC020020B4050020DD090000D1
S113197010B50A4B1C001934FF3400201A78002AD1
S113198005D15A78002A02D19A78002A01D0013070
S1131990C0B20E33A342F1D110BDC046C40500202D
S11319A0F0B583B00600164B1C78002C24D01549E2
S11319B000220020144DD3009B1A5B00EB181B7B04
S11319C0DB090DD0019177780B789F4208D1B77865
S11319D04B789F4204D1F3789C468B789C4507D082
S11319E00130C0B201320E31A042E4D1FF2004E044
S11319F0844202D1FF2000E0FF2003B0F0BDC046C6
S1131A00FB060020C4050020C0050020F0B5124BE1
S1131A101B78012B1FD1114B1D780135104B1F78FA
S1131A2058780022002400230E4E9100895DB942AB
S1131A3007D192000B498C4662445278824200D10D
S1131A4001240133DBB21A1EAA42EEDB002C02D1C0
S1131A500122054B1A70F0BDA807002042030020A4
S1131A60200000205807002043030020F8B5021D81
S1131A7004230326301A0C4F1E420CD18118272947
S1131A8009DCD578AC003919CD701578E555547852
S1131A904C7094788C700133DBB20132282BEBD17B
S1131AA0024B9847F8BDC046580700200D1A0000A5
S1131AB0F0B54F464646C0B489B0039210AC2778BF
S1131AC005AD0024A046013444400126B14634400B
S1131AD0620102361E404B4603409B0032434E4691
S1131AE03740FF00134346466E722872A0013B4301
S1131AF01C00044380235B421C432C706981074C07
S1131B0023780093064B05980399079A054DA84737
S1131B10267009B00CBC90469946F0BD55070020CC
S1131B20B0070020AD0F000010B582B0044B198837
S1131B300090002300220120024CA04702B010BDF7
S1131B40F8060020B11A000010B582B0044B1988C1
S1131B500092002302000020024CA04702B010BDF6
S1131B60F8060020B11A000010B5C3001B1A5B0070
S1131B70094AD3181B7BDB090022002B0AD0C300BF
S1131B80181A4000044BC01804300A000121034B0A
S1131B9098470200100010BDC0050020491B00003A
S1131BA070B50D000D4901230B7014780C4B1C709B
S1131BB054785C7003240C7092789A70C31C28309B
S1131BC0074E0A78541C0C701C78B45401338342B9
S1131BD0F7D101212800034B984770BD5507002019
S1131BE0B0070020691B0000F0B55F4656464D461D
S1131BF04446F0B489B0684B1C780134A400272C07
S1131C0014DD28212000654B9847C3B21D000693BC
S1131C10002C07D028212000614B9847AC46614432
S1131C20CBB20693069B002B02D1ADE001230693B1
S1131C300923049300239A4604236A46D377534620
S1131C400593584B77221A70534B1E78554B5E7090
S1131C50059AD30094466344DBB2524A9370524AC5
S1131C606946C97F11704F4A0498D0701A1E844681
S1131C70824263DA0024042104204C4DA846494DD5
S1131C80A946FF25AA46654602959E4249D9D40035
S1131C90A41A64004444247BE4092BD0D4000394A4
S1131CA0A71A7F00BC46414FBB46DC4467463F79D8
S1131CB03C4D6F544F1CFFB2BB4667467F79BC4610
S1131CC05F466446EC55CC1C6D46AC77AC7F270070
S1131CD08C1CAC77AC7FA346039CA21A5200334CF5
S1131CE0A446624492795C462E4D2A550431C9B209
S1131CF0EB5513E04A46544654544A1CD2B24C465F
S1131D005746A754CA1CD2B294468C1CE4B24F4620
S1131D1052463A550431C9B264463B550430C0B208
S1131D2001240133DBB21A1E029DAA42ADDB002C52
S1131D3001D01D4B1970272801D911E004201A4B3A
S1131D401B781900174D1124C01AC0B24B1CDBB20A
S1131D506C541900C218D2B2272AF7D9124A137048
S1131D60134B198800230093013300220120114CE6
S1131D70A047059F0137FBB20593049A09320492E8
S1131D80069A934200D25CE709B03CBC904699465F
S1131D90A246AB46F0BDC046FB060020C95B00006E
S1131DA0955D0000B007002055070020C005002005
S1131DB0F8060020B11A000010B582B0020001211B
S1131DC0074B1970D931074B1970074B1988002339
S1131DD0009301330020054CA04702B010BDC0465B
S1131DE055070020B0070020F8060020B11A0000B3
S1131DF010B502780B789A420CD1431C013108309B
S1131E001C780A78944207D1013301318342F7D117
S1131E10012002E0002000E0002010BD10B582B0D7
S1131E2000220D4B1A70002812D10C490C4B0B8068
S1131E306B46981D01235B4203800A4B98470A4C6A
S1131E40A0470A4B1860A047094B1860012000E026
S1131E50002002B010BDC046A8070020F8060020EC
S1131E6034120000990B000061290000AC07002027
S1131E70D806002010B5044A137808218B43137048
S1131E80024B984710BDC04654070020A113000020
S1131E9010B504000021034B9847002801D0024BE1
S1131EA01C7010BD890F00004103002070B584B080
S1131EB00022364B1A70364B1D68364B1C68364B65
S1131EC01968364B1A68364B2E0A76191E702E0C7A
S1131ED02D0E75195D70250A2D199D70250C240E83
S1131EE02C19DC700C0A64181C710C0C090E611896
S1131EF05971110A89189971110C120E8A18DA7124
S1131F0000280BD1274B19001931FF3100221A7216
S1131F101A705A709A700E338B42F8D10022224BF9
S1131F201A70224B1900503104C39942FCD1204C41
S1131F30204B238002AA157802231D4387231D40CA
S1131F4040231D43012318408300C3212800084077
S1131F50184301239843107002981149164B98476F
S1131F606B46981D01235B4203802100134B984765
S1131F70134B1878134B9847134B1B781B010922FA
S1131F801343124A1370012004B070BD540700209B
S1131F900CA0800040A0800044A0800048A08000E5
S1131FA020000020C4050020550700200007002061
S1131FB0F80600203412000025130000990B0000DD
S1131FC041030020911E00001F000020F5060020A0
S1131FD0F0B557464E46C0B483B0324B5B680193AC
S1131FE0314D0024FF26314B9946314B9A46E7B2D6
S1131FF0E3001B1B5B004B441B7BDB0905D0290062
S11320000198D047002803D008E0FF2E00D13E00FD
S113201001340E35142CEAD1002401E03E000124E1
S1132020F120FF2E39D0234B1B782000002B34D114
S1132030214B1E70019D2B00F200921B5200111DBA
S11320401A4A8A1808351978117001330132AB42E3
S1132050F9D1F3009B1B5B00144AD3181A7B80212F
S113206049420A431A730F4A9268927881311140A7
S11320701A7B0125AA430A431A73B00000220F4BAE
S1132080C2500F4B1E700F4A137810218B431370EC
S11320900D4B98470D4B1870200003B00CBC9146B3
S11320A09A46F0BDD8070020C4050020C0050020D2
S11320B0F11D00001F000020500700200007002031
S11320C0BD0500205407002071190000FB06002004
S11320D0F0B5474680B486B0C84CA047C84B1860DA
S11320E0A047C84B1860C84B1B781B0700D512E2E9
S11320F0C64B9847002800D10DE2C54B19784A0712
S1132100D20FC44B1A700323CC0801252C40E400E1
S1132110100018400B401A00013A53425A412A4019
S1132120520103002343C809284080011343034399
S1132130B94A1370C90903D0B54B5A68B64B5A60F3
S1132140B34A108AB44B5880117B197394689C600D
S1132150957B9D73527B5A731B789B0600D4ACE12C
S11321602378DAB2912A00D1DAE00DD8812A1CD082
S113217003D8772B00D130E199E1DAB2822A00D179
S113218086E0872A5ED092E1DAB2972A00D1E4E0B1
S113219003D8922A00D1ECE089E1DAB2CC2A00D14A
S11321A066E1DA2A00D10BE181E19C4B1B78002B1C
S11321B000D087E162789A4B1B789A4202D0994BFF
S11321C098477FE1984B1B78032B02D1954B984796
S11321D078E1964B984206D0954B1B88834202D0F7
S11321E0022900D98EE1934B984702008E4B1B784D
S11321F0012B04D10138C0B2012800D976E18E4BFD
S1132200912119705A7003208C4908708C490978FF
S11322109970012A06D80422884B1A70894B1A78BF
S1132220854BDA707F4B98477B4B5A6859881B78EB
S11322301B07DB0F009301230020834CA047834B33
S113224098473FE1784B1B78022B02D9754B98478E
S113225038E16278724B1B789A4202D0714B9847EE
S113226030E1754B97221A700221744A1170754A35
S113227012785A706B4B9847674B5A6859881B7889
S11322801B07DB0F0093012300206F4CA04719E1CB
S113229001226A4B1A709132674B1A705E4B5B686D
S11322A003936B4E002400276A4D6B4B98460294AF
S11322B0E3001B1B5B00EB181B7BDB0916D0310012
S11322C00398C047002811D0029AD3009D1A6D00CC
S11322D0604B5D1900232B730221584A1170564A32
S11322E05370504B9847142F0ED106E00137FFB2BC
S11322F001340E36142FDAD10AE1504A1378591CEE
S11323001170F0214C4AD154434B5A6859881B78B8
S11323101B07DB0F0093012300204B4CA047D1E0A7
S11323206378012B16D8424B1A88404B9A420AD143
S11323303F4908800E2002AB9C46604401235B4267
S11323400380464B98473B4B9847334B9B689A789E
S1132350434B1A70334B9847B4E02B4B1B789B06C6
S113236004D5294A137820218B4313702D4B9847A9
S1132370A8E06378002B20D1274B5B680393344F8C
S11323800026344C344D0296F3009B1B5B00E3188B
S11323901B7BDB090DD039000398A847002808D01F
S11323A0029AD3009C1A64002A4B1B1900221A7348
S11323B003E001360E37142EE5D11A4B984781E01D
S11323C0164B1B78012B05D10122264B1A70154B95
S11323D0984777E0134B984774E0104B1B78012B18
S11323E009D16378013B204A137020001F4B9847A2
S11323F00C4B984766E00B4B984763E0612900005B
S1132400DC060020B805002054070020BD1300009E
S1132410E0060020FA060020D8070020A8070020C4
S113242041030020A11300001F000020FFFF000053
S1132430F8060020D11F0000B00700205507002037
S113244050070020F5060020B11A0000E91B000027
S1132450C4050020C0050020F11D0000990B0000F8
S1132460F4060020BC050020420300206D1A000081
S11324702B4B1B78002B17D120002A4B9847FF28A1
S113248007D0294B5A6801002000284B9847284B55
S11324901870274B1B78002B03D0234B5868254B0F
S11324A09847254B98470DE0234B98470AE0234A69
S11324B0117808230B43137004E0204A1178082391
S11324C00B431370184B1B7B002B07D01B4B1B7843
S11324D0DB0603D4194B1B789B061CD5174A1378CB
S11324E008218B431370144B984714E0144B91222A
S11324F01A7062325A700321124A1170124A127809
S11325009A708FE6114B1B78012BEFD0F22276E6FE
S1132510094B9847F1E606B004BC9046F0BDC046AE
S1132520A8070020A1190000D8070020A11B000063
S1132530FC060020B91D0000A11300005407002070
S1132540B007002055070020500700201F0000207E
S113255010B5034B9847034B18780007C00F10BD04
S1132560D120000054070020F0B55F4656464D4682
S11325704446F0B483B00C00344B1B789B46344B78
S11325809847344B1860FF20012C58D0304B9847A3
S11325901F38060000222D4B1A702F4A1178102381
S11325A00B431370002503279046294B99462B4B68
S11325B09A4632E0C8470400831B1F2B28D9002DFC
S11325C003D0013DEDB2060027E07D1EEDB2002FE1
S11325D006D1214A137810218B431370FF202EE07B
S11325E01F4B81221A701F4A12785A7003211E4A07
S11325F011701E4A12789A701D4B1988002300939B
S11326000133002201201B4EB04726002F00012574
S1132610D047002801D0184B984743461B78DB0667
S1132620C8D40A4B5A461A70144B1878FF2803D0A2
S11326300122134B1A7002E00022114B1A7003B0EE
S11326403CBC90469946A246AB46F0BD1F00002014
S113265061290000AC070020540700205125000028
S1132660B00700204103002055070020F506002094
S1132670F8060020B11A0000751E0000BD050020F8
S1132680A8070020032808D8044B1870044A1378BC
S11326900F210B4000011843107070471F000020E9
S11326A0F506002010B5034B05220A210248034C0D
S11326B0A04710BD00000020107100006D0500004F
S11326C010B5012806D1084B05220A210748084CF9
S11326D0A04707E0022805D1034B05220A2105483B
S11326E0034CA04710BDC04600000020307100001C
S11326F06D0500005071000070B503000D00144C0E
S1132700601C10221900134B9847647C124B1B78F1
S1132710002B08D012220E498320104B9847002228
S11327200D4B1A7005E011220949013184200B4B2D
S11327309847002D05D01022054901312800054B8A
S11327409847034B5C741820054B984770BDC046EE
S113275068030020455E00007A030020F155000064
S1132760B5290000F0B5474680B484B006000D00DA
S11327701400002817D000223E4B1A7002323E4B40
S11327801A700E3201003D483D4B984698473D4F24
S113279010233B70781C10223100C04711223900ED
S11327A08320394B9847002C02D0012C12D05AE0D8
S11327B0314B1B78012B3DD1324E0F333370701CDB
S11327C010222E492E4B98471122310083202E4B84
S11327D098472FE0284B1B78012B2BD01022294B34
S11327E01A70244B1B78002B16D1264E337080337D
S11327F073740F3A254B1A7000216846244B98478E
S1132800102333700122310083201F4B984710227C
S113281020498420204B98471A4E701C10221D49D1
S1132820174B9847112231008320174B9847114BBF
S113283001221A70104B1C70002D02D00020022DB2
S113284013D12D0170231D40E30008241C402C43A8
S11328500C4B1C708022524214435C7481320B4B2B
S11328601A70012001E00020FFE704B004BC904688
S1132870F0BDC04644030020280000205803002077
S1132880455E000068030020015300007A03002025
S1132890F9260000480300206954000010B5010027
S11328A010228420014B984710BDC0466954000093
S11328B010B58EB0254C2000254B984700236A465E
S11328C09371D37153709370137253729372D37262
S11328D013739373537313740593069313770893C5
S11328E0099313859385343300226946CA542C3BDB
S11328F0CB70073B0B70E023DB008B80FF22292386
S1132900CA54CD3A0133CA5404320133CA546A4614
S113291010492000104B984722681369002BFCD102
S1132920116802330B431360084C002120000B4B49
S1132930984723681A69002AFCD11A711A69002A77
S1132940FCD120325A710EB010BDC046E8070020F9
S1132950654900000008004319460000F1480000E2
S113296010B50248024B984710BDC046E807002046
S11329702549000070B50020084B98470500084C15
S1132980FA218900A047074B186007492800A0478F
S1132990064B18600522064B1A6070BD1D430000EB
S11329A0B55A00003000002040420F002C000020E7
S11329B010E000E030B5084B1C68084A002580216F
S11329C0490206E0002C04D05460956013680B4261
S11329D0FCD00138F6D230BD2C00002010E000E01D
S11329E030B5084B1C68084A00258021490206E0DE
S11329F0002C04D05460956013680B42FCD001385D
S1132A00F6D230BD3000002010E000E00C4B1B6813
S1132A10002B10D1EFF31083002B09D172B6BFF352
S1132A205F8F0022074B1A700132074B1A7002E0C5
S1132A300022054B1A70024A136801331360704771
S1132A407C0300203400002080030020084B1A6817
S1132A50013A1A601B68002B09D1064B1B78002B26
S1132A6005D00122044B1A70BFF35F8F62B6704722
S1132A707C0300208003002034000020F0B557467A
S1132A804E464546E0B482B001AC0126667000278C
S1132A90A770267021001320404DA847404B98464C
S1132AA080231B039A46434652469A6126702100AE
S1132AB01220A8478023DB02994643464A469A617E
S1132AC0267021001220A84743464A469A61267080
S1132AD021001320A847434652469A6126702100DC
S1132AE01C20A84780235B054246936127706670CB
S1132AF021001C20A8472770667021001620A847D3
S1132B002770667021000620A84727706670210090
S1132B100720A8476670A770267021005220A84796
S1132B2021003E20A84721003F20A84721002F2054
S1132B30A84721001420A8471A4B4A469A61803BB3
S1132B408022D2059A61802212069A6180221202A2
S1132B5091469A6180235B0342469361277021006A
S1132B605320A847104AD36949460B43D361042232
S1132B700E4B1A806B469E70DF7005236A461370F5
S1132B805670694609200A4CA04769460C20A047A4
S1132B9002B01CBC90469946A246F0BDCD2D000063
S1132BA0002800400029004000040040003C00428E
S1132BB0F54400001723002A0DD18B00074A9B58C7
S1132BC0002B03D189008850002304E0834201D004
S1132BD01D2300E0002318007047C04608080020A9
S1132BE01723002907D100221F2800D8034A0123F4
S1132BF083401361002318007047C046002400403E
S1132C001723002907D100221F2800D8034A0123D3
S1132C108340D360002318007047C046002400405E
S1132C2070B50022154B1A7000231F25144E134C47
S1132C301F2B19D90FE0002100E012494A619B00C3
S1132C409B59002B00D0984723780133DBB22370C3
S1132C500F2BEDD911E02900194001228A400021EF
S1132C6049691142E7D1EFE72900194001228A405E
S1132C70044949691142E0D1E6E770BD0408002027
S1132C800808002000240040064A117802230B4360
S1132C9013700221012053681942FCD15368184271
S1132CA0F9D1704700240040064A137802218B436F
S1132CB01370012053681942FCD153681842F9D1AA
S1132CC07047C0460024004010B5144A536980215F
S1132CD089000B435361124A117801230B4313708B
S1132CE00221012053681942FCD15368184209D0CB
S1132CF0F8E704C38B42FCD108220A4B1A600A4B42
S1132D00984709E0064A117810230B431370074BC8
S1132D10190040310022ECE710BDC0460004004019
S1132D200024004000E100E0892C00000808002095
S1132D300023036043600122027283720132C27273
S1132D4043727047F0B583B005000C001B4B9847E5
S1132D5001A900234B70CB7023790B70237A8B70FD
S1132D602078174B984700201F2D00D815480721BD
S1132D7029408900E27AA37A002B01D008231A4360
S1132D80EB089B00C318DE690F278F40BE438A40BF
S1132D903243DA61637A002B05D082690123AB40A8
S1132DA01343836106E083690122AA401B041B0CC0
S1132DB093438361044B984703B0F0BDA92C0000F2
S1132DC0F544000000240040892C000000B583B0C5
S1132DD001AB80221A700A785A704A789A708A78FD
S1132DE0DA701900014B984703B000BDF5440000A8
S1132DF010B5490840230024814201D20AE01C0096
S1132E00091A631C9BB28842F9D94023FF2C01D8CC
S1132E1014800023180010BDF0B55F4656464D4699
S1132E204446F0B489B00C00059212AA117802004D
S1132E304A434025A24200D9C6E0002B51D10200EA
S1132E4008000021644DA84783462600002700237C
S1132E50002400930194002200233F2020218C466B
S1132E601F390296039720246442041903D40D00E9
S1132E70A540A84604E06446241A0D00E540A8468F
S1132E800C008440A14614001D00A4185D412200DA
S1132E902B0046465F463E4203D00E0026433200D6
S1132EA02B00029C039D9D420FD801D194420CD863
S1132EB0029C039D121BAB414D46009E019F35436E
S1132EC03C0046463443009501940138CBD200229D
S1132ED0012300980199121A8B41120C1B041A4306
S1132EE06FE00022012B6CD1630F0493E30098463A
S1132EF00A0000230021384CA04704000D000023E1
S1132F009C46069320339B46012663460793002381
S1132F100293002200233F21009401950F002021F9
S1132F204942791803D430008840844604E0594665
S1132F30C91B3000C84084463100B940894610009E
S1132F4019008018594102000B0044464D462C409C
S1132F50A2466446049D2C40A446544665462C4330
S1132F6003D03400044322000B00009801999942D5
S1132F700AD801D1904207D800980199121A8B41BE
S1132F800299484601430291013FC8D2009C019D29
S1132F900299079A8B1ADB0810498B420BD9069BBE
S1132FA00133DBB219000693130001330793082998
S1132FB0ADD1402508E04025069A082A04D05203E2
S1132FC01A43059B1A800025280009B03CBC904692
S1132FD09946A246AB46F0BDA15D0000FF1F00006C
S1132FE010B582B004000E4B1B78002B01D00029D1
S1132FF00DD001A90C7011200A4B984711200A4BDF
S11330009847074B5C7001221A70002006E0044BBD
S11330105B78834201D01D2000E0002002B010BD87
S113302084030020F943000089430000444B984284
S113303034D007D88423DB0598420DD0414B984205
S11330401BD06FE0404B98424AD0404B984258D036
S11330503F4B984266D132E0012906D0002963D063
S1133060022906D0032906D001E03A4867E000208F
S113307065E0394863E0394861E0012906D0002958
S113308054D0022906D0032906D001E0344856E082
S1133090002054E0334852E0334850E0012906D080
S11330A0002945D0022906D0032906D001E02F4883
S11330B045E0002043E02E4841E02E483FE001294E
S11330C006D0002936D0022906D0032906D001E013
S11330D0294834E0002032E0284830E028482EE037
S11330E0012906D0002927D0022906D0032906D0B9
S11330F001E0244823E0002021E023481FE0234886
S11331001DE0012906D0002918D0022906D0032980
S113311006D001E01E4812E0002010E01D480EE039
S11331201D480CE000200AE01C4808E0032006E0EB
S11331301B4804E01B4802E01B4800E01B487047A2
S11331400008004200040042001000420004004352
S1133150000C004203000500030006000300070002
S11331600300010003001E0003001F000300090008
S113317003000A0003000B00030011000300120007
S11331800300130003000D0003000E0003000F00F2
S113319003001700030018000300190003000400D3
S11331A0030008000300100003000C0003001600D5
S11331B030B587B00C4B6A4632CB32C232CB32C206
S11331C0009B834206D001239A00694652588242EA
S11331D003D100E00023D8B203E00133062BF3D17E
S11331E0002007B030BDC046707100007047C04673
S11331F0F0B50A4B1B78002B0CD1094F094E0A4D30
S11332000024DE515A1914600433182BF9D1012219
S1133210024B1A708000024BC150F0BD860300209F
S113322088030020ED3100004808002010B582B06A
S11332300400062205496846054B98472000054BC3
S113324098476B46185602B010BDC04688710000FE
S1133250455E0000B131000010B5024B1B68002030
S1133260984710BD8803002010B5024B5B6801200D
S1133270984710BD8803002010B5024B9B680220BC
S1133280984710BD8803002010B5024BDB6803206B
S1133290984710BD8803002010B5024B1B69042019
S11332A0984710BD8803002010B5024B5B690520C8
S11332B0984710BD88030020F0B557464E46454652
S11332C0E0B488B080460E001400030019600B6857
S11332D09B0700D48CE0936A0393D36A0493136B23
S11332E00593536B069300271F239946F9B2BB003D
S11332F003AA9858002802D13000964B9847431CE3
S113330027D00204130C9C46000CC1B2002503060E
S113331003D44B09DB01904A9D184B460B40E81837
S113332040300078824680205246D2070AD55B0896
S1133330EB1830331878C0B2CB0701D5000901E08F
S11333400F231840844504D00023424613601C20F8
S1133350F9E00137042FC9D11120804B9847227816
S11333600025012A12D102AA0100A0697C4B9847CA
S113337003001720002B00D0E5E0337BDBB202AA68
S1133380127805309A4200D0DDE00C356368A268FB
S11333901343E26813432B43217C627C002A01D04F
S11333A080221343A27C002A02D08022920211437D
S11333B0E27C002A02D0802292001143227D002A5E
S11333C002D08022920111433068022213438342C7
S11333D009D173688B4206D1237842465371237C0A
S11333E093710020AFE00023424613601C20AAE042
S11333F00B680520DB0700D5A5E00800594B98476A
S1133400052800D198E003001233574DE9690122E1
S113341082400A43EA6107A92427E25D0A70DDB20B
S11334202800524B98472800514B9847E05D0021F3
S1133430504B98472378012B03D132680B33134345
S1133440336043461E6802AB80221A7000225A7011
S113345001219970DA702378002B01D102AB9A70A4
S1133460A36A0393E36A0493236B0593636B069344
S1133470002702ADF9B2BB0003AA9858002802D174
S11334803000344B9847431C05D02870000CC0B260
S11334902900394B98470137042FEBD12378424652
S11334A05371237C9371A37CD371237D1372002207
S11334B06B46DA802378012B15D143461868294BD3
S11334C098471230C0B2254B984701006B469A1DAD
S11334D0A069234B984703001720002B33D16B4678
S11334E006331B7833736368A2681343E26813439B
S11334F0227C617C002903D120498978890701D580
S113350080210B43A17C002902D0802189020A4337
S1133510E17C002902D0802189000A43217D002911
S113352002D0802189010A4331680B4333607368F8
S113353013437360002006E00B4A116A02230B4315
S11335401362182367E708B01CBC90469946A2464C
S1133550F0BDC0462D300000002800401D4400008E
S1133560F12D0000B131000000040040F9430000D7
S113357089430000E12F0000F544000000200041D1
S113358010B544791523012C6ED1047A0023002C44
S11335906AD1002A58D04B78002B44D003681B7E94
S11335A0DB0710D40B78D9090022002904D15A0969
S11335B0D2012E498C4662441F210B401E3999408A
S11335C09161052350E00B78DC090022002C04D122
S11335D05A09D201254CA44662441F2423401E3CB0
S11335E09C40546103681A7ED20701D58A789A6296
S11335F0C2790023002A37D102680421137E0B42CA
S1133600FCD0117E002349072ED5538B5B0701D5CF
S1133610042353838379012B02D1936A002323E08B
S1133620936A002320E00B78D9090022002904D1F1
S11336305A09D2010D498C4662441F210B401E39A0
S11336409940516100230FE00B78D9090022002929
S113365004D15A09D20105498C4662441F210B400A
S11336601E39994091610023180010BD00280040C4
S1133670F0B55F4656464D464446F0B483B08A469C
S11336801723002A4BD042E00268137E2342FCD069
S11336907B1C9BB298465346DB5D9B46817901298E
S11336A004D06946CB80CB88474607E00237BFB2D7
S11336B041465346595C09025B460B43117E214245
S11336C002D0DB05DB0D9362C379002B10D00268B6
S11336D0137E2B42FCD0137E2B4209D0538B2B42FA
S11336E000D055838379012B01D1936A00E0936A5A
S11336F0013EB6B26645C7D142790023012A0ED1F4
S1133700016801320B7E1342FCD0002307E0013A2A
S113371096B2002701240425054B9C46B4E7180003
S113372003B03CBC90469946A246AB46F0BDC046A9
S1133730FFFF0000F0B55F4656464D464446F0B4E0
S113374091B005000C00160029600800C44B98478E
S1133750021E052A03D007001237030001E01827D0
S1133760012321680520C90700D571E121681730BC
S1133770890700D56CE1052A07D1BA48026A0121FC
S113378099400B001343036206E0B648C269012165
S113379099400B001343C3610FA92D239846F35C92
S11337A00B70FFB23800B04B98473800AF4B9847C6
S11337B04346F05C0021AE4B9847F37A6B712423A7
S11337C0F35CAB712523F35CEB71F37E2B72337FD7
S11337D06B722B6899461800A14B9847123000224F
S11337E00E2306A98C4663441A80328A02928023EF
S11337F0DB019A421AD004D880239B019A420BD051
S113380007E1C023DB01029A9A420AD080231B02FB
S11338109A4200D102E1FCE0102306930F3B079388
S113382000E108230693073B0793FBE03368049306
S1133830F3689B4673690393337E98462623F35CAF
S1133840059373689A46002B16D080235B059A452E
S113385039D12723F35C002B39D1336A1F00C0B25E
S1133860844B984701000E2206AB9C466244380004
S1133870814B9847030027E008230693002307930E
S11338802723F35C002B0CD0069B0093079B0E228E
S113389006A98C466244B16A306A784FB84703007F
S11338A012E0336A1F00C0B2724B98470100069BB6
S11338B00093079B0E2206A88446624438006F4F8B
S11338C0B847030000E00023181E00D0C0E0737E58
S11338D0002B02D0B37E4A4693732A68029FD369B1
S11338E0002BFCD10E3306AA944663441B884A4637
S11338F09381049B5A461343039A1343524613433A
S11339003B43424612021343059A57071F4327239A
S1133910F35C002B01D104331F43717E8902337F92
S11339205B021943737F1B0219432423F35C5B047A
S113393019432523F25C12041143F37A19433389A2
S1133940FF2B04D0802252041743194305E0F37E71
S1133950002B02D08023DB041F432C23F35C002BB9
S113396003D1474B9B789B0701D580231F432A68CB
S1133970D369002BFCD14B4659602A68D369002BCC
S1133980FCD14B461F600EAB80221A7000225A7085
S1133990DA709A70336B0A93736B0B93B36B0C935B
S11339A0F36B02930D9300270EAEF9B2BB000AAA83
S11339B09858002802D12000324B9847431C05D068
S11339C03070000CC0B231002F4B98470137042FE0
S11339D0EBD10023EB602B616B61AB61EB612B627C
S11339E0AB626B620022EB85AB853033EA54013362
S11339F0EA540133EA540133EA542868184B9847CF
S1133A0004002249224B9847A400224BE550002091
S1133A101EE0102306930023079303E00323069379
S1133A200023079333680493F3689B4673690393F5
S1133A30337E98462623F35C059373689A46002BDD
S1133A4000D11DE780235B059A4500D101E73EE7DD
S1133A5011B03CBC90469946A246AB46F0BDC04668
S1133A60B131000000040040F94300008943000024
S1133A70E12F00001D440000F12D0000192E00006C
S1133A80002000412D300000F5440000813C00007E
S1133A90F131000048080020C2791C23002A0ED00E
S1133AA0C28D92B2173B002A09D10368DA69002A51
S1133AB0FCD1198502211A7E0A42FCD00023180089
S1133AC07047C04682791C23002A30D0828D92B27E
S1133AD0173B002A2BD10268107E400727D5D369F3
S1133AE0002BFCD1538BDBB298061DD0980703D56D
S1133AF00223538318331AE0580703D5042353834E
S1133B001A3314E0D80703D50123538312330EE08C
S1133B10D80603D510235383323308E09B0603D51C
S1133B2020235383213302E0138D0B8000231800DC
S1133B307047C046F0B54F4680B482B0040001918E
S1133B401720002A49D0E3790530002B45D0276897
S1133B50FB69002BFCD191460025012620E03A7E2A
S1133B60324204D1012B2AD0013B002BF7D16A1C2D
S1133B7092B2019B5B5D6179012902D099B2150073
S1133B8005E0A91C8DB20199895C09021943200042
S1133B90144B98474A46013A93B29946002B16D0E3
S1133BA03B7E3342E3D1104BD9E73A7E0A4208D137
S1133BB0012B08D0013B002BF7D100200DE012208F
S1133BC00BE0002009E0122007E0002005E03B7E26
S1133BD09B07FAD4044B0221E7E702B004BC9146E8
S1133BE0F0BDC046993A0000FFFF0000F0B557460B
S1133BF080B484B0040001911720002A38D0A3793E
S1133C000530002B34D026689246002504272AE08C
S1133C10327E3A4204D1012B23D0013B002BF7D151
S1133C20002302AAD380911D2000134B984700283B
S1133C301ED16B1C9BB202AAD28801994A556179A4
S1133C40012905D1A91C8DB2120A0199CA5400E0B8
S1133C501D005246013A93B29A46002B03D100202C
S1133C6006E0122004E0337E3B42D9D1034BCFE778
S1133C7004B004BC9246F0BDC53A0000FFFF00004A
S1133C80F8B58000604BC5582C68E369002BFCD163
S1133C90237EA67D1E403023EB5C3122AF5C1F40A7
S1133CA0F30722D5EB8D9BB2002B1CD0AA6A1378A4
S1133CB0DBB2511CA9626979012901D09BB204E0ED
S1133CC0517809020B430232AA62DB05DB0D23851E
S1133CD0EB8D013B9BB2EB85002B06D101332375A1
S1133CE00133A37501E001232375B30709D502232A
S1133CF0237500223133EA54FB0702D52800EB6810
S1133D009847730760D5AB8D9BB2002B5AD0638B59
S1133D10DBB21A0702D43F22134001E037221340DA
S1133D20002B2DD09A0705D51A223223EA54303BB2
S1133D3063831FE05A0705D51E223223EA542E3B23
S1133D40638317E0DA0705D513223223EA54313BA3
S1133D5063830FE0DA0605D542223223EA54223B7C
S1133D60638307E020221A4204D021323223EA542A
S1133D70123B63837B0727D528006B69984723E0B0
S1133D80238DDB05DB0DDAB2696A0A706A6A511C9D
S1133D9069626979012904D11B0A53706B6A013382
S1133DA06B62AB8D013B9BB2AB85002B0CD1043312
S1133DB0237500222E33EA54BB0705D528002B694E
S1133DC0984701E004232375F30607D510232375D0
S1133DD02376FB0602D52800EB699847B30607D57E
S1133DE02023237523763B0702D52800AB69984727
S1133DF0330707D5082323752376BB0602D52B6A20
S1133E0028009847F8BDC0464808002010B5082887
S1133E1003D880001C4B1B589F46002032E01B4BEC
S1133E2018692FE01A4B187D0007800F0130194BD9
S1133E30584327E0154B586924E0144B1B680220B3
S1133E4018401FD0124980225200CB681342FCD084
S1133E500E4B1B685B0714D500200F4B98470B4B88
S1133E609B681B041B0C58430CE02823084AD35CB2
S1133E7000209B0706D5054BD86803E0802000028C
S1133E8000E0064810BDC04690710000A003002069
S1133E90000C004000093D001D440000006CDC02E1
S1133EA030B50C4C237D857841780078032210408E
S1133EB080000932934303430B3A114089013F3296
S1133EC093430B431A00E9017F2313400B432375EB
S1133ED030BDC046000C0040F0B557464E4645463E
S1133EE0E0B41C4EB3699C46417805780779C378E1
S1133EF0994644798378012003409B009A46042222
S1133F009046624643469A43130052461A431300AE
S1133F100140C900082293430B434A4602409201E0
S1133F2040218B4313430740FF01802293433B43CB
S1133F30793A15402D02084F3B402B43044020039F
S1133F40064C1C400443B4611CBC90469946A246EE
S1133F50F0BDC04600100040FFF8FFFFFFEFFFFF79
S1133F60082803D88000294B1B589F4617204BE094
S1133F70274A117D02230B431375002044E0254A90
S1133F80916902230B43936100203DE0204A118A8A
S1133F9002230B431382002036E01E4A5169022398
S1133FA00B43536100202FE01B490B68022213438B
S1133FB00B60174B1A831900FE32CB681342FCD0F6
S1133FC0154A9168124B19625268DA6100221A8309
S1133FD019000132FF32CB681342FCD00E4B1B6830
S1133FE09BB20B4A138300200EE009492822885C07
S1133FF0022303438B5408003821263A435C1342BE
S1134000FCD1002000E000207047C046B4710000DD
S1134010000C004000100040A0030020082832D803
S113402080001A4B1B589F46194A137D02218B436B
S11340301375002028E0174A936902218B4393618A
S1134040002021E0124A138A02218B4313820020AC
S11340501AE0104A536902218B435361002013E094
S11340600D4B1A6802218A431A601B689BB2084AE6
S11340701383002008E0064928228B5C0220834336
S11340808B54002000E017207047C046D871000010
S1134090000C004000100040A0030020F0B557467B
S11340A04E464546E0B486B080225200494B9A60A1
S11340B0FD3A494B9A60494A53681E218B43536029
S11340C08023DB059B78022B09D08023DB050122AA
S11340D09A7101329A701A009379002BFCD004A8CB
S11340E00125457085700024C47005710723037091
S11340F044713B4B984704203A4EB04701A94D60A8
S11341004C700C724C7203230B700020364B984792
S11341100620364B98476B465C701D709C70684651
S1134120334B98470620B0472A491022CB681A42DD
S1134130FCD001AC01266660002565700623994613
S113414023702572657221000020274B98469847FA
S1134150204A117D80230B431375264B98476660D4
S11341606570257265720423237021000120C04705
S11341700120214B9A469847204FBE717E713E71B3
S1134180666065704B4623702572657221000020BD
S1134190C0470020D0470020194B98473979C9B24D
S11341A0184B9847184B98420ED88023DB059B7810
S11341B0002B09D08023DB0501229A7100229A701A
S11341C01A009379002BFCD006B01CBC904699468B
S11341D0A246F0BD000C0040001400400040004125
S11341E0D93E0000613F0000314200001D40000044
S11341F0A13E00000D420000DD420000000400402A
S11342001D430000B55A0000001BB700064A51695F
S113421040230B4353610122044B1A7019000B789D
S11342201342FCD17047C04600040040001800400F
S113423070B505000C784B78002B02D08023DB008E
S11342401C434B7A002B02D080231B011C434A6879
S1134250012A17D9531E1A420FD1022A06D9022362
S1134260002001305B009A42FBD800E0002080234C
S11342705B011C430004044304E0120480239B00FC
S11342801A4314430B7A002B02D080239B011C4356
S11342900426AE400D490E4A4B6813401E42FBD122
S11342A00C4B9847AD00094B9C466544286A802313
S11342B05B001840204328626146054A4B6813405E
S11342C01E42FBD1044B984770BDC0460018004005
S11342D0FC0700000D2A00004D2A000010B5040060
S11342E00422824009480A4943680B401A42FBD120
S11342F0084B9847A400054B9C466444236A8022DB
S1134300520013432362044B984710BD0018004029
S1134310FC0700000D2A00004D2A0000F8B5040037
S1134320042282401248134943680B401A42FBD1CD
S1134330114B98470E4F0834A400E0590007000FB2
S11343400E4B98470600E559ED04ED0FE459240C93
S11343500B4B9847002D07D1012C07D921003000C1
S1134360084B9847060001E00134E6403000F8BDF0
S113437000180040FC0700000D2A00000D3E00005C
S11343804D2A0000B55A000010B50400094B9847A7
S1134390A000094B9C4660448022815840230B4373
S11343A083508021403A43581A42FCD0034B98472B
S11343B010BDC0460D2A0000001800404D2A000020
S11343C010B50400094B9847A000094B9C46604473
S11343D08022835840218B4383504031403A4358D4
S11343E01A42FCD1034B984710BDC0460D2A000069
S11343F0001800404D2A000070B504000D00054B64
S113440098472B780F2213402034A400024AA3506B
S113441070BDC046C14300000018004010B5040040
S1134420064B98472034A400054BE4582407240F76
S1134430044B98472000044B984710BD0D2A0000F8
S1134440001800404D2A00001D43000030B5D37809
S1134450002B1ED11378802B04D01B068024640209
S1134460234300E0002354780225AC430AD1947816
S1134470002C03D18024A402234302E0C024E402DC
S1134480234341605478013C012C12D8184C23403A
S11344900FE041600B041B0CA024E405234383625A
S11344A00B0CD024240623438362D378002B18D02A
S11344B01CE00C04240CA025ED052C431C43846251
S11344C00C0CD0252D062C431C438462D478002C7C
S11344D00CD15B0305D59378012B01D1816100E0F8
S11344E041615378013B012B00D8816030BDC04647
S11344F0FFFFFBFF10B503000A00C10900200029DB
S113450004D15809C00105498C4660441F210B4061
S11345101E399940024B984710BDC0460028004000
S11345204D4400007047C04610B5054B9847054BF5
S11345309847054B9847054B9847054B984710BD3E
S11345409D4000007D2A000025450000C92C000084
S11345502545000070B58000144BC5582B689C7A23
S11345602B7E1C406B7E1C40E30705D52800AB68FE
S1134570984701232A689372A30705D52800EB689E
S1134580984702232A689372E30605D528002B690D
S1134590984710232A689372A30605D528006B69EF
S11345A098472B6820229A7270BDC046600800208C
S11345B010B50020014B984710BDC046554500007A
S11345C010B50120014B984710BDC0465545000069
S11345D010B50220014B984710BDC0465545000058
S11345E030B585B001AA0B4B32CB32C2019B984245
S11345F00AD0029B984205D00023039A824205D137
S1134600023302E0012300E00023DBB2180005B00E
S113461030BDC04624720000F0B5474680B48AB06D
S113462005000E0017000800A74B98478046A74CCA
S113463021000C31032209A8A54B984703A92300A4
S113464010330A0013CB13C213CB13C20023AB6085
S1134650EB602B616B612B766B7643469A009D4B26
S1134660D5502E603423FB5CAB76FB78082B04D149
S113467017204246D20700D522E12B71336805206A
S1134680DB0700D51CE1F37A17309B0700D517E14F
S113469033689B0700D513E13B7C002B0AD002A9A9
S11346A001238B700022CA703A7E0A704B70387DE9
S11346B0894B98473B7F002B0BD002A901238B70B9
S11346C00022CA707A6A0A704B703B6AD8B2824B75
S11346D0984743465A0003A9531C9B005858434625
S11346E0DB005B58D9B204291BD88B007B49CB581B
S11346F09F467B494B691843486112E078498B69AE
S1134700184388610DE07649CB691843C86108E015
S113471073490B6A1843086203E071494B6A1843F2
S11347204862FB78082B29D143460133022B25DC50
S113473003A9D31C9B005858931C9B005B58DAB206
S1134740042A1BD89300674AD3589F46644A536986
S11347501843506112E0624A9369184390610DE076
S11347605F4AD3691843D06108E05D4A136A18436D
S1134770106203E05A4A536A1843506201A93B7815
S11347800B7009AB42469C5C2000574B98472000B5
S1134790564B9847FA78FB791343BA8813437A7ACD
S11347A0002A02D0802252021343BA7A002A02D08D
S11347B0802292021343FA7A002A02D08022520302
S11347C013433A7B002A02D0802292031343797860
S11347D08901BA78D201114319432A681369002B5D
S11347E0FCD131602A681369002BFCD1BB79337387
S11347F0797B4B1E99418900BB7B002B01D001239F
S113480019432A681369002BFCD1FF333371002943
S113481004D02A681369002BFCD171713B7A73733D
S11348202A681369002BFCD12B79042B05D0082BA3
S113483033D01720002B43D11CE01369002BFCD18B
S11348402833FB5C33752A681369002BFCD12933A8
S1134850FB5CF3762A681369002BFCD12A33FB5CDA
S113486033772A681369002BFCD12B33FB5C7377F5
S1134870002025E01369002BFCD13B8DB3822A680C
S11348801369002BFCD17B8DB3832A681369002B39
S1134890FCD1BB8DF383002012E01369002BFCD103
S11348A0BB6A73612A681369002BFCD1FB6AF3614C
S11348B02A681369002BFCD13B6B33620020FFE7AD
S11348C00AB004BC9046F0BDE1450000247200002B
S11348D0455E000060080020F5440000FC71000003
S11348E00004004010720000F943000089430000F6
S11348F002681369002BFCD10379042B05D0082B23
S11349000BD01720002B0BD103E0C9B21175002086
S113491006E089B29182002002E051610020FFE7A5
S11349207047C04602681369002BFCD113710168FB
S11349300B69002BFCD18033537102681369002B7F
S1134940FCD10179042904D0082908D0002907D111
S113495002E0137DDBB203E0938A9BB200E053696B
S1134960180070470368D97A1522890715D41A6884
S113497092070DD51A69002AFCD133321A729A7241
S11349801A6802218A431A6001680A69002AFCD164
S1134990196801220A431A60002210007047C046B9
S11349A0FEE7C04610B51D4B1D4A9A4203D01D4B6D
S11349B01A4A9A4204D31C4B1C4A9A4210D31EE052
S11349C01B4A184B03339B1A9B0801339B0000229C
S11349D0124813498C58845004329A42FAD1EAE7B7
S11349E0144A114B03339B1A9B0801339B0000228A
S11349F00E4800211418216004329A42FAD10E4A5A
S1134A00FF210E4B8B4393600D4A516880230B4367
S1134A1053600C4B98470C4B9847FEE7000000206E
S1134A20A87300009C000020CC0800209C000020FB
S1134A3004000020A000002000ED00E000000000C1
S1134A4000400041F95D0000F9570000F0B5474609
S1134A5080B40C00904600280DD1002A0EDD8F187A
S1134A60084E094D306821002B6898470134A7424D
S1134A70F8D1404603E00120404200E0002004BC9D
S1134A809046F0BD740800206C080020F0B547463D
S1134A9080B40E0015000138022811D8002A12D063
S1134AA000240C4B98460C4F43461868315D3B6814
S1134AB09847002809DB0134A542F5D1200006E01F
S1134AC00120404203E0002001E00120404204BCF8
S1134AD09046F0BD74080020700800200300064AC8
S1134AE01268002A02D10549034A1160024A10687B
S1134AF0C31813607047C046B8030020D0280020B4
S1134B00012040427047C04680239B014B60002037
S1134B107047C046012070470020704770B582B0CE
S1134B2005000E0000226B46DA80064C6B46991D88
S1134B302800A0470028F9D16B4606331B88337040
S1134B4002B070BDC53A000070B505008CB2034ECA
S1134B5021002800B0470028FAD170BD993A00001E
S1134B6010B582B06B46DC1D012221000F48104BAA
S1134B70984772B6BFF35F8F00220E4B1A700E4B2C
S1134B801B7821780D4AD1549B2B03D100220A4B68
S1134B901A7002E00133084A13700122054B1A709F
S1134BA0BFF35F8F62B602B010BDC0465804002048
S1134BB0ED3B0000340000208C040020BC030020E6
S1134BC0F0B591B08023DB05009300230193FF220D
S1134BD069460A8100228B72CB7296218901089161
S1134BE0012424216846445401314454013143547E
S1134BF0013143540A93053143540131435405931D
S1134C000382C37602760277427613238376427751
S1134C1080235B0303932E4B0C932E4B0D930123A4
S1134C205B420E930F932C4D2C4B1D602C4A2D4B45
S1134C301A602D4A2D4B1A606A468421C905280042
S1134C402B4B98472B4F3B68986800212A4EB0475E
S1134C503B6858680021B0472E683000274B9847BE
S1134C601F2318408440264B1C602A68D369002BFC
S1134C70FCD13268023313433360174B1B68DA6983
S1134C80002AFCD15A68802149020A435A60012152
S1134C90114AD171DA69002AFCD1DA69002AFCD1FF
S1134CA05A68802189020A435A6001210A4A917193
S1134CB0DA69002AFCD113490020134B98470422D7
S1134CC08423DB059A75FC320D4B1A6011B0F0BDDC
S1134CD003000400030005005804002074080020A9
S1134CE0494B0000700800201D4B00006C08002098
S1134CF035370000980000209D5E00002D32000032
S1134D0000E100E0614B0000F1310000F0B583B038
S1134D10060001916B469D88054C064F2A00310020
S1134D202000B8470028F9D1019803B0F0BDC0466F
S1134D3058040020353B000000B583B06B46D871A1
S1134D40073301211800024B984703B000BDC04649
S1134D500D4D000010B50122024B5A61024B9847D9
S1134D6010BDC046002400406918000030B585B06D
S1134D70344A0023537093703F211170324C2170D8
S1134D806370A370012269464A708B700A703F20D9
S1134D902E4B98472378DA090021002A04D15909B7
S1134DA0C9012B4A944661441F2213401E3A100045
S1134DB098408861274C227000236360A3602374A9
S1134DC06374A274E27423752332A3542000183050
S1134DD0183A0021204B984780235B02E3601F4B65
S1134DE0A3611F4BA36201235B42E3621D4B236358
S1134DF01D4B63631D4D22001D4928001D4B984720
S1134E002A68D369002BFCD1136802252B43136055
S1134E1001AC2000184B98472023019380239B0367
S1134E206360257200236372A3720133E37221006D
S1134E300020124B9847002200211148114B98473B
S1134E4005B030BD7C08002080080020CD2D000076
S1134E500028004084080020575E000000093D003F
S1134E600500530005003E0005005200BC08002068
S1134E7000100042B9320000312D0000452D000021
S1134E80554D0000B52B000070B5094B1C00803453
S1134E9080252D02A561802252035A61A52040007D
S1134EA0044EB04765610A20B047A56170BDC04695
S1134EB000280040B529000070B582B00500EFF36A
S1134EC010835A425341019372B6BFF35F8F00229D
S1134ED0334B1A70019C334E013233493000334B4B
S1134EE09847336801211A7E0A42FCD01A7ED20701
S1134EF002D5802215439D6202211A7E0A42FCD00B
S1134F0004211A7E0A42FCD01A7E520712D55A8B0B
S1134F10520701D504225A83224A9279012A05D1E3
S1134F209A6AD205D20D22490A8003E09A6AD2B263
S1134F301F490A8001211A7E0A42FCD01A7ED20738
S1134F4001D500229A6202211A7E0A42FCD0042171
S1134F501A7E0A42FCD01A7E002552070ED55A8BBF
S1134F60520701D504225A830E4A9279012A03D1A9
S1134F709D6AED05ED0D01E09D6AEDB200220A493E
S1134F8008480A4B9847FF23234205D00122044BCB
S1134F901A70BFF35F8F62B6E8B202B070BDC0464C
S1134FA034000020BC080020800800208135000067
S1134FB078080020F0B583B006000C00EFF31083EE
S1134FC05A425341019372B6BFF35F8F0022344BB0
S1134FD01A70019D334F013233493800334B9847DF
S1134FE03B6801211A7E0A42FCD01A7ED20702D500
S1134FF0C02216439E6202211A7E0A42FCD004217A
S11350001A7E0A42FCD01A7E520712D55A8B5207D6
S113501001D504225A83234A9279012A05D19A6A36
S1135020D205D20D22490A8003E09A6AD2B22049FD
S11350300A8001211A7E0A42FCD01A7ED20700D5CA
S11350409C6202211A7E0A42FCD004211A7E0A4282
S1135050FCD01A7E520712D55A8B520701D504226E
S11350605A83104A9279012A05D19B6ADB05DB0D2C
S11350700F4A138003E09B6ADBB20D4A13800022BF
S113508009490848094B9847FF232B4205D00122C0
S1135090034B1A70BFF35F8F62B603B0F0BDC04616
S11350A034000020BC080020800800208135000066
S11350B078080020F0B557464E464546E0B482B025
S11350C005000C00EFF310835A425341019372B66A
S11350D0BFF35F8F00223E4B1A70019B98463D4FF1
S11350E001323D4938003D4B98473B6801211A7E07
S11350F00A42FCD01A7ED20701D520229A620221EC
S11351001A7E0A42FCD004211A7E0A42FCD01A7E7E
S1135110520712D55A8B520701D504225A832D4ABD
S11351209279012A05D19B6ADB05DB0D2C4A138099
S113513003E09B6ADBB22A4A1380631EDBB2002CB5
S113514030D001339C46AC442027224E012000235A
S11351509A4602240421B14622E01A7E0242FCD07F
S11351601A7E024201D052469A621A7E2242FCD032
S11351701A7E0A42FCD01A7E0A420DD05A8B0A4289
S113518000D059834A469279012A03D19F6AFF05C8
S1135190FF0D01E09F6AFFB22F700135AC4501D0CD
S11351A03368DAE700220C490A480C4B9847FF237E
S11351B04246134205D00122054B1A70BFF35F8F9C
S11351C062B602B01CBC90469946A246F0BDC046E9
S11351D034000020BC080020800800208135000035
S11351E078080020F0B5474680B482B004000D0072
S11351F0EFF310835A425341019372B6BFF35F8FAA
S113520000223A4B1A70019B9846394F01323949B2
S11352103800394B98473B6801211A7E0A42FCD07A
S11352201A7ED20701D560229A6202211A7E0A42AE
S1135230FCD004211A7E0A42FCD01A7E520712D5F1
S11352405A8B520701D504225A83294A9279012A9A
S113525005D19A6AD205D20D28490A8003E09A6AD8
S1135260D2B226490A80224A927994462100012723
S11352700220042422E01A7E3A42FCD01A7E3A42EA
S113528001D00A789A621A7E0242FCD01A7E224227
S1135290FCD01A7E224210D05A8B224200D05C836A
S11352A06246012A05D19A6AD205D20D134E328084
S11352B003E09A6AD2B2114E32800131013DEDB25F
S11352C0FF2DD8D100220B4909480B4B9847FF23E7
S11352D04246134205D00122044B1A70BFF35F8F7C
S11352E062B602B004BC9046F0BDC0463400002053
S11352F0BC080020800800208135000078080020C8
S1135300F0B5474680B482B006000D001400EFF3F8
S113531010835A425341019372B6BFF35F8F002248
S11353204C4B1A70019B98464B4F01324B49380045
S11353304B4B98473B6801211A7E0A42FCD01A7EE7
S1135340D20701D540229A6202211A7E0A42FCD079
S113535004211A7E0A42FCD01A7E520712D55A8BB7
S1135360520701D504225A833B4A9279012A05D176
S11353709A6AD205D20D3B490A8003E09A6AD2B2F6
S113538038490A8001211A7E0A42FCD01A7ED207CB
S113539000D59E6202211A7E0A42FCD004211A7EA4
S11353A00A42FCD01A7E520712D55A8B520701D5F5
S11353B004225A83284A9279012A05D19A6AD2058D
S11353C0D20D28490A8003E09A6AD2B225490A809C
S11353D0214A92799446280001260225042122E0DC
S11353E01A7E3242FCD01A7E324201D002789A628E
S11353F01A7E2A42FCD01A7E0A42FCD01A7E0A4245
S113540010D05A8B0A4200D059836246012A05D132
S11354109A6AD205D20D134F3A8003E09A6AD2B247
S1135420104F3A800130013CE4B2FF2CD8D1002265
S11354300A4909480A4B9847FF234246134205D0BC
S11354400122044B1A70BFF35F8F62B602B004BC32
S11354509046F0BD34000020BC08002080080020E5
S11354608135000078080020F0B557464E46454681
S1135470E0B482B004000D0017000120564B984799
S1135480EFF310835A425341019372B6BFF35F8F17
S11354900022524B1A70019B9846514E01325149D9
S11354A03000514B9847336801211A7E0A42FCD0E0
S11354B01A7ED20701D500229A6202211A7E0A427C
S11354C0FCD004211A7E0A42FCD01A7E520712D55F
S11354D05A8B520701D504225A83414A9279012AF0
S11354E005D19A6AD205D20D40490A8003E09A6A2E
S11354F0D2B23E490A8001211A7E0A42FCD01A7EA9
S1135500D20700D59C6202211A7E0A42FCD00421F3
S11355101A7E0A42FCD01A7E520712D55A8B5207C1
S113552001D504225A832E4A9279012A05D19B6A15
S1135530DB05DB0D2D4A138003E09B6ADBB22B4AAB
S113554013807B1EDBB2002F30D001339C46AC4469
S11355500027234E012000239A4602240421B14649
S113556022E01A7E0242FCD01A7E024201D0524648
S11355709A621A7E2242FCD01A7E0A42FCD01A7E1B
S11355800A420DD05A8B0A4200D059834A46927976
S1135590012A03D19F6AFF05FF0D01E09F6AFFB254
S11355A02F700135AC4501D03368DAE700220D498C
S11355B00B480D4B9847FF234246134205D0012266
S11355C0064B1A70BFF35F8F62B602B01CBC9046E4
S11355D09946A246F0BDC046B5290000340000201B
S11355E0BC080020800800208135000078080020D5
S11355F0F0B557464E464546E0B406008A461400C8
S11356000120764B984700210020754B9847754F31
S1135610012275493800754B98473B6801211A7E71
S11356200A42FCD01A7ED20701D540229A62022196
S11356301A7E0A42FCD004211A7E0A42FCD01A7E49
S1135640520712D55A8B520701D504225A83654A50
S11356509279012A05D19A6AD205D20D64490A8049
S113566003E09A6AD2B262490A8001211A7E0A4290
S1135670FCD01A7ED20700D59E6202211A7E0A420D
S1135680FCD004211A7E0A42FCD01A7E520712D59D
S11356905A8B520701D504225A83524A9279012A1D
S11356A005D19A6AD205D20D51490A8003E09A6A5B
S11356B0D2B24F490A8001211A7E0A42FCD01A7ED6
S11356C0D20702D5524612789A6202211A7E0A4201
S11356D0FCD004211A7E0A42FCD01A7E520712D54D
S11356E05A8B520701D504225A833E4A9279012AE1
S11356F005D19B6ADB05DB0D3D4A138003E09B6A01
S1135700DBB23B4A1380002C31D05646013CE4B254
S11357100134A244D0460027324D01200224042142
S1135720A94622E01A7E0242FCD01A7E024201D02F
S113573072789A621A7E2242FCD01A7E0A42FCD007
S11357401A7E0A420DD05A8B0A4200D059834A4627
S11357509279012A03D19F6AFF05FF0D01E09F6A38
S1135760FFB237700136464502D02B68DAE70027CE
S11357701C4B1B6801211A7E0A42FCD01A7ED207F8
S113578001D500229A6202211A7E0A42FCD0042129
S11357901A7E0A42FCD01A7E52070ED55A8B520743
S11357A001D504225A830F4A9279012A03D19F6AB0
S11357B0FF05FF0D01E09F6AFFB253461F700022F0
S11357C009490848094B984700210020094B98478C
S11357D01CBC90469946A246F0BDC046B5290000BF
S11357E0012C0000BC080020800800208135000046
S11357F078080020E12B0000F0B55F4656464D4680
S11358004446F0B489B08A4B98478A4B98478A4BF0
S113581098478A4B98478A4B9847002207AB9A705F
S1135820884B1878C3099A46470900235246002A30
S113583003D1FB01844A944663441F22024001269B
S113584096409E617F4B5B789946DB099B464B46AD
S11358505B091A00019300235946002903D1D3019F
S1135860794A944663441F2249460A4001219140E3
S113587002919961734B9B789846DB091A00039354
S113588043465B09190004930023002A03D1CB018A
S11358906D4A944663441F2241460A4001219140C7
S11358A00591996107AC02232370002363702100E2
S11358B0664DA84721004846A84721004046A8470E
S11358C000232370012363705E4B9846D87821002F
S11358D0A847434618792100A84743465879210030
S11358E0A84700235246002A02D1FF01564BFB1859
S11358F09E6100235A46002A04D1019BDB01524ACF
S113590094466344029A9A610023039A002A04D1BC
S1135910049BDB014C4A94466344059A9A614C4BC0
S1135920984700204B4B984719204B4B9847002031
S11359304A4B984700210020494B98470122494B84
S11359401A70BFF35F8F62B60021FF20464B984761
S1135950FF2804D100220A210020444B9847444BDD
S113596098470500434F444B9946444B9846B847E3
S1135970002810D08022D202334BDA614B469B6858
S11359801B78A12B04D102203D4B98473D4B9847EF
S1135990C0473D4B9847364B984704003B4B9847CC
S11359A003280AD10238364B98470020384EB047B6
S11359B00120B0470220B04716E0042814D1642126
S11359C00020344B9B46984701003348334EB04780
S11359D064210120D84701002F48B04764210220E8
S11359E0D84701002C48B0472600641B9B2CBED925
S11359F0062100982A4B9847C9B24A005218D00091
S1135A00831A284AD218002327481178C154013335
S1135A10DBB20132152BF8D11522244B1A70009BEE
S1135A200133DBB200930120214B984735009EE7F8
S1135A30294500001106000075290000C14B000033
S1135A40B1280000AC04002000280040CD2D000047
S1135A50A5260000AD1E0000911E00008526000052
S1135A60E12B000034000020692500001D1E000009
S1135A706129000051250000D807002021080000FA
S1135A80C1260000F1080000751E0000D5060000C4
S1135A90CD080000350900004C720000695E00006A
S1135AA0C15B000070720000B007002055070020A1
S1135AB0291B0000002243088B4274D303098B4244
S1135AC05FD3030A8B4244D3030B8B4228D3030CCA
S1135AD08B420DD3FF22090212BA030C8B4202D36C
S1135AE01212090265D0030B8B4219D300E0090A94
S1135AF0C30B8B4201D3CB03C01A5241830B8B429D
S1135B0001D38B03C01A5241430B8B4201D34B0385
S1135B10C01A5241030B8B4201D30B03C01A5241EA
S1135B20C30A8B4201D3CB02C01A5241830A8B426F
S1135B3001D38B02C01A5241430A8B4201D34B0258
S1135B40C01A5241030A8B4201D30B02C01A5241BC
S1135B50CDD2C3098B4201D3CB01C01A5241830970
S1135B608B4201D38B01C01A524143098B4201D3AA
S1135B704B01C01A524103098B4201D30B01C01AD5
S1135B805241C3088B4201D3CB00C01A524183084F
S1135B908B4201D38B00C01A524143088B4201D37C
S1135BA04B00C01A5241411A00D2014652411046DC
S1135BB07047FFE701B5002000F0F0F802BDC046D1
S1135BC00029F7D076E7704703460B437FD40022C1
S1135BD043088B4274D303098B425FD3030A8B427D
S1135BE044D3030B8B4228D3030C8B420DD3FF22E7
S1135BF0090212BA030C8B4202D31212090265D0B5
S1135C00030B8B4219D300E0090AC30B8B4201D367
S1135C10CB03C01A5241830B8B4201D38B03C01AAE
S1135C205241430B8B4201D34B03C01A5241030B25
S1135C308B4201D30B03C01A5241C30A8B4201D3D6
S1135C40CB02C01A5241830A8B4201D38B02C01A81
S1135C505241430A8B4201D34B02C01A5241030AF8
S1135C608B4201D30B02C01A5241CDD2C3098B42DD
S1135C7001D3CB01C01A524183098B4201D38B015A
S1135C80C01A524143098B4201D34B01C01A5241FD
S1135C9003098B4201D30B01C01A5241C3088B4242
S1135CA001D3CB00C01A524183088B4201D38B002D
S1135CB0C01A524143088B4201D34B00C01A5241CF
S1135CC0411A00D201465241104670475DE0CA0FA6
S1135CD000D04942031000D34042534000229C4666
