:10000000B8230020050700009907000099070000A9
:1000100000000000000000000000000000000000E0
:100020000000000000000000000000009907000030
:100030000000000000000000990700009907000080
:10004000990700009907000099070000710400005B
:100050009907000099070000990700009907000020
:10006000A9690000C1690000D9690000F1690000B8
:10007000096A0000216A0000F95600000D570000CF
:1000800021570000990700009907000000000000B8
:100090000000000099070000990700009907000080
:1000A00000000000990700000000000000000000B0
:1000B0000000000010B5064C2378002B07D1054B3B
:1000C000002B02D0044800E000BF0123237010BDC4
:1000D000080100200000000044B60000084B10B5E5
:1000E000002B03D00749084800E000BF0748036819
:1000F000002B00D110BD064B002BFBD09847F9E731
:10010000000000000C01002044B6000044B60000CE
:100110000000000080B582B000AF78607B680022EC
:100120001A70C046BD4602B080BD000080B582B0E6
:1001300000AF02003960FB1D1A70FB1D1B78042BF9
:1001400027D89A00164BD3181B689F46154B154AA3
:1001500051693A680A435A611DE0124B114A91698C
:100160003A680A439A6116E00E4B0E4AD1693A6822
:100170000A43DA610FE00B4B0A4A116A3A680A43F4
:100180001A6208E0074B074A516A3A680A435A6202
:1001900001E0172300E000231800BD4602B080BD37
:1001A000E0AD00000004004080B582B000AF020066
:1001B000FB1D1A70064BFA1D127811001F220A400F
:1001C000012191400A001A60C046BD4602B080BDC0
:1001D00000E100E080B582B000AF154B3B6000232A
:1001E0007B601CE07B689B0008229446BC4463440F
:1001F000083B1B685B68022213400BD17B689B00A5
:1002000008229446BC446344083B1B685B68012297
:10021000134001D0012306E07B6801337B607B68DB
:10022000002BDFD000231800BD4602B080BDC046C1
:100230000024004080B586B000AF384BBB608023FF
:100240009B0019000020364B98473B1D1800354B8A
:1002500098473B1D00221A703B1D19000320324BAA
:1002600098470320314B984700237B6118E07B6956
:100270009B0018229446BC446344103B1A687B6977
:100280009B0018218C46BC446344103B1B681B78C0
:10029000DBB201210B43DBB213707B6901337B615D
:1002A0007B69002BE3D0C046214B9847031EFBD14E
:1002B00000233B610EE03B699B0018229446BC443E
:1002C0006344103B1A68137810218B4313703B6909
:1002D00001333B613B69002BEDD00F23FB1800225B
:1002E0001A700DE00F23FB181A78124B92000021B0
:1002F000D1500F23FB181A780F23FB1801321A7004
:100300000F23FB181B780F2BECD903200A4B9847BF
:100310000A4B9847C046BD4606B080BD0024004049
:100320002D01000015010000097A0000497A000043
:10033000D5010000E8020020A901000041030000EF
:1003400080B582B000AF154B3B6000237B6018E0A6
:100350007B689B0008229446BC446344083B1A68AF
:100360007B689B0008218C46BC446344083B1B68A7
:100370001B78DBB202210B43DBB213707B680133C5
:100380007B607B68002BE3D0C046054B9847031E7B
:10039000FBD1C046BD4602B080BDC046002400402F
:1003A000D501000080B584B000AF0200FB1D1A70BB
:1003B0000F23FB18FA1D127852091A700F23FB182D
:1003C0001B78002B0CD1094BBB600F23FB181B784B
:1003D0009B0010229446BC446344083B1B6800E029
:1003E00000231800BD4604B080BDC0460024004074
:1003F00080B584B000AF0200FB1D1A70FB1D1B7896
:1004000018000B4B98470300FB60FB1D1B781F2255
:10041000134001229A401300BB60FB685B69BA6815
:1004200013405A1E9341DBB21800BD4604B080BD94
:10043000A503000080B584B000AF0200FB1D1A7058
:10044000FB1D1B781800094B98470300FB60FB1D40
:100450001B781F22134001229A401300BB60FB68E7
:10046000BA685A61C046BD4604B080BDA50300000D
:1004700080B500AF154B00221A7020E0134B1B789B
:100480001800134B9847031E13D0104B1B7818000D
:10049000104B98470D4B1B781A000F4B9200D35806
:1004A000002B06D0094B1B781A000B4B9200D35837
:1004B0009847064B1B780133DAB2044B1A70034B92
:1004C0001B780F2BDAD9C046BD4680BD280300201B
:1004D000F103000035040000E802002080B584B07C
:1004E00000AF0200FB1D1A700F23FB18FA1D1278D3
:1004F000D2091A700E23FB18FA1D127852091A70CD
:100500000D4BBB600F23FB181B78002B0FD10F2363
:10051000FB181B789B0010229446BC446344083BA4
:100520001A680E23FB181B78DB01D31800E00023A8
:100530001800BD4604B080BD0028004080B582B0E0
:1005400000AF0200FB1D1A70FB1D1B781800034B47
:10055000984703001800BD4602B080BDDD040000CE
:1005600080B582B000AF78607B6800221A707B682B
:1005700001225A707B6800229A70C046BD4602B0C4
:1005800080BD000080B584B000AF0200FB1D1A7072
:10059000BB1D0A1C1A70FB1D1B7818000D4B9847D9
:1005A0000300FB60FB1D1B781F22134001229A40B1
:1005B0001300BB60BB1D1B78002B03D0FB68BA681F
:1005C0009A6102E0FB68BA685A61C046BD4604B051
:1005D00080BDC0463D05000080B500AF044B012240
:1005E0001A70BFF35F8F62B6C046BD4680BDC0467D
:1005F000A200002080B582B000AF3B1D1800104B58
:1006000098473B1D01221A703B1D19000D200D4B10
:1006100098473B1D190017200A4B98473B1D1900AE
:100620001C20084B984700211720074B98470021B2
:100630000D20054B9847C046BD4602B080BDC04660
:1006400061050000616A00008505000080B500AF0B
:100650000C4B00221A600C4B98470C4B1B68012274
:10066000134004D0094B1B680222134001D1084BF0
:100670009847084B9847084B984700231800BD46F9
:1006800080BDC04624010020F505000010E000E018
:10069000710B00009D060000D905000080B500AF79
:1006A000002117200B4B984700210D20094B98473C
:1006B0000120094B984701211720064B98470A2033
:1006C000054B984701210D20024B9847C046BD4677
:1006D00080BDC04685050000DD06000080B582B003
:1006E00000AF786002E00120054B98477B685A1EF6
:1006F0007A60002BF7D1C046BD4602B080BDC0462F
:10070000F90B000080B582B000AF194B7B60194B2C
:100710003B607A683B689A420CD007E03B681A1D40
:100720003A607A68111D796012681A603A68124B53
:100730009A42F3D3114B3B6004E03B681A1D3A60C8
:1007400000221A603A680E4B9A42F6D30D4B7B603A
:100750000D4B7A68FF218A439A600C4A53688021C6
:100760000B4353600A4B98470A4B9847FEE7C04635
:1007700044B600000000002008010020080100200D
:10078000B80300200000000000ED00E00040004140
:100790008D9C00007981000080B500AFFEE700006D
:1007A00080B584B000AF786039607B68FB603B68DF
:1007B0005B00FF2B01D9184B29E00023BB601CE034
:1007C000BB685B00FA6812781209D2B21100134AB2
:1007D000515C134AD154BB685B000133FA6812784C
:1007E00011000F220A400D49895C0D4AD154FB6863
:1007F0000133FB60BB680133BB60BA683B689A4257
:10080000DED33B685B00064A0021D154044B18003C
:10081000BD4604B080BDC04640AF000000000020CF
:100820002801002090B585B000AF0F23FC183B1DB8
:100830001800264B9847030023700F23FB181B78E2
:10084000002B0BD00F23FB181A78214B1100180036
:10085000204B98470F23FB181B7833E00F23FC181D
:100860003B0018001C4B9847030023700F23FB1814
:100870001B78002B0BD00F23FB181A78174B110095
:100880001800144B98470F23FB181B781AE0144BE1
:100890001800144B98473B1D09211800124B98472C
:1008A0000200124B110018000A4B98473B0004212C
:1008B00018000D4B984702000D4B11001800054B16
:1008C000984700231800BD4605B090BD593A000076
:1008D00050AF00008D9E00007133000084AF000017
:1008E000ACAF0000819F0000A1070000BCAF00007A
:1008F000D0AF000090B583B000AFFB1DF9221A7095
:10090000BB1D00221A701F4BB0221A71FC1D1D4B1B
:1009100018001D4B984703002370FB1D1B78002B0C
:1009200004D01A4B18001A4B984725E0194B9847EA
:10093000194B9847FC1DBB1D19000020174B984709
:1009400003002370FB1D1B78002B04D0144B1800F0
:100950000F4B984710E0BB1D1B7801225340DBB2C0
:10096000002B04D00F4B18000F4B984704E00F4B9F
:100970009847FB1D00221A70FB1D1B781800BD460E
:1009800003B090BD1C00002029320000F4AF00002D
:100990008D9E0000CD3200002D330000C93B0000C9
:1009A00024B0000058B00000819F0000250800001E
:1009B00090B583B000AFFB1CD5221A701B4B4022B0
:1009C000002118001A4B9847FC1C184B19000020F6
:1009D000184B984703002370FB1C1B78002B1BD17E
:1009E000154B1800154B984700237B600CE00F4A0D
:1009F0007B68D3181B781A00114B11001800114B9B
:100A000098477B6801337B607B683F2BEFDD0E4BA3
:100A100018000A4B984703E00C4B1800074B984707
:100A2000C0461800BD4603B090BDC0462C03002050
:100A30002D9D0000AD3800008CB00000819F0000AB
:100A4000A4B000008D9E0000A8B00000D8B0000047
:100A500080B52E4FBD4400AF2D4BFB18D5221A7028
:100A600000233B602B4B3B603A00391D2A4B18009A
:100A70002A4B98470200264BFB181A70244BFB1890
:100A80001B78002B35D13A68254B11001800254BF7
:100A900098470023BC22D200BA18136019E0224BF9
:100AA000BD22D200BA18D218BC23DB00FB181B6889
:100AB000D3181B781A001D4B11001800194B9847CA
:100AC000BC23DB00FB181B680133BC22D200BA1820
:100AD0001360BC23DB00FB181A683B689A42DED324
:100AE000134B1800134B9847094BFB1800221A7040
:100AF00003E0114B18000F4B9847054BFB181B7870
:100B00001800BD46BD23DB009D4480BD18FAFFFFE1
:100B1000E7050000DC050000F4AE0000ED1E00005B
:100B2000F8B000008D9E00001CFAFFFF14B1000019
:100B30001CB10000819F000028B1000080B582B088
:100B400000AF78607B68002B0CD0084B7A685A6045
:100B5000064B00229A60C046044B1A6880235B0251
:100B60001340F9D0C046BD4602B080BD10E000E0A1
:100B700080B500AF00200F4B984702000E4B1A6063
:100B80000D4B18680D4BFA229100984703001A008C
:100B9000094B1A60084B1868084BFA2291009847D5
:100BA00003001A00064B1A60064B05221A60C04665
:100BB000BD4680BD49790000140000205982000024
:100BC0001800002010E000E080B582B000AF78602F
:100BD00004E0074B1B681800064B98477B685A1EB9
:100BE0007A60002BF5D1C046BD4602B080BDC0463C
:100BF000180000203D0B000080B582B000AF786087
:100C000004E0074B1B681800064B98477B685A1E88
:100C10007A60002BF5D1C046BD4602B080BDC0460B
:100C2000140000203D0B000080B582B000AF78605A
:100C30007B6800221A70C046BD4602B080BD00002D
:100C400080B582B000AF02003960FB1D1A70FB1D39
:100C50001B78042B27D89A00164BD3181B689F4685
:100C6000154B154A51693A680A435A611DE0124B07
:100C7000114A91693A680A439A6116E00E4B0E4A8E
:100C8000D1693A680A43DA610FE00B4B0A4A116AEC
:100C90003A680A431A6208E0074B074A516A3A6801
:100CA0000A435A6201E0172300E000231800BD4602
:100CB00002B080BD48B100000004004080B582B0A1
:100CC00000AF78607B6880221A707B6800225A70BF
:100CD0007B6801229A707B680022DA70C046BD46AC
:100CE00002B080BD80B500AF054B9B78DBB21A0027
:100CF000022313405A1E9341DBB21800BD4680BD4B
:100D00000020004180B500AF024B9847C046BD4669
:100D100080BDC046CD6A000080B500AF024B984749
:100D2000C046BD4680BDC046216B000080B582B084
:100D300000AF0200FB1D1A70074AFB1D1B7819004B
:100D40001F230B40012199400B0019008023D15033
:100D5000C046BD4602B080BD00E100E080B584B071
:100D600000AF78607B681B68FB60FB68DB6907226B
:100D700013405A1E9341DBB21800BD4604B080BD3B
:100D800080B582B000AF7860C0467B681800044B25
:100D90009847031EF9D1C046BD4602B080BDC0468B
:100DA0005D0D000080B584B000AF78607B681B6883
:100DB000FB607B681B6818000D4B98470300180008
:100DC0000C4B98477B6818000B4B9847FB688322B5
:100DD0001A75FB6883221A76FB681B68022293430C
:100DE0001A00FB681A60C046BD4604B080BDC0460C
:100DF000656900002D0D0000810D0000F0B597B071
:100E000000AF786139610023FB6300233B65002359
:100E1000FB643B2310229446BC44634400221A70B6
:100E20007B691B68BB637B691B687B632323102280
:100E3000BA18D4187B6B1800C04B98470300237076
:100E40000C2310229446BC4463441800BC4B9847C2
:100E50003B69DB697B643B691B6A3B647B6C002BF1
:100E600006D17B6B00211800B64B984703007B64CA
:100E70007B6CDAB20C2310218C46BC4463441A709C
:100E80000C2310229446BC44634402225A707B6CAB
:100E90001B0CDBB20C2210218C46BC4462441100B6
:100EA0001800A94B98473B6C002B06D17B6B0121A6
:100EB0001800A44B984703003B643B6CDAB20C2348
:100EC00010218C46BC4463441A700C2310229446B3
:100ED000BC44634402225A703B6C1B0CDBB20C22F4
:100EE00010218C46BC44624411001800964B984770
:100EF0003B699A8A7B69DA803B69DA8A7B691A8165
:100F00003B691B7E002B03D1904B9847031E02D0F8
:100F100080237B6501E000237B653B691B69002B17
:100F200004D03B691B697A6D13437B653B699B6801
:100F30007A6D13437B653B6924229B5C002B04D0B4
:100F40007B6D8022D20513437B653B699B6A002B36
:100F500004D03B699B6A7A6D13437B653B692C2205
:100F60009B5C002B05D13B699A6880239B049A42C5
:100F700004D17B6D8022120513437B653B692D22D2
:100F80009B5C002B04D07B6D8022120413437B6595
:100F90003B692E229B5C002B04D07B6D8022D20308
:100FA00013437B65BB6B1A687B6D1A43BB6B1A607E
:100FB000BB6B802252005A60232310229446BC440B
:100FC00063441B781233DBB21800614B984703006F
:100FD000FB623B691B68FA2292005343BB623B6988
:100FE0005B68FA22920053437B623B691B8E3B6233
:100FF000584BF86A984705000E00564BB86A984758
:10100000B860F960534BF86A9847534C534A544BB5
:10101000A04703000C003B607C604E4B386A984749
:1010200002000B004C4C38687968A04703000C00A4
:10103000180021004B4C00224B4BA04703000C0032
:101040001A002300444CB868F968A04703000C005C
:101050001A002300454C28003100A04703000C0073
:101060001D002600BB6A5A003A4B10009847020048
:101070000B003C4C28003100A04703000C00180076
:1010800021003A4C00223A4BA04703000C001D00FF
:101090002600BB6A5A002F4B1000984702000B0035
:1010A000344C28003100A04703000C001900220036
:1010B000314B0800110098470300FB633B699A68B5
:1010C00080239B049A426AD1224BF86A9847254CA8
:1010D00002000B00A04703000C001D0026001D4B62
:1010E000786A98471C4C0022244BA04703000C0050
:1010F0001A0023001F4C28003100A04703000C00F9
:1011000018002100194C0022194BA04703000C00C5
:1011100019002200184B0800110098470300FB64D7
:10112000FB6C002B2ED0164B796AF86A98470300A7
:101130009A1EFB6CD31A3B6531E0C04695680000EF
:10114000BD0C0000D9660000317D0000E50C0000F8
:10115000F97A0000E19B00004D90000095D626E84A
:101160000B2E113EC5830000000024404D95000069
:101170000000F03FE5890000799B00000000084076
:10118000598200007B6A5A00FB6AD3185A1E7B6A98
:1011900059001D4B100098470300013B3B65FB6B5A
:1011A000FF2B08DCFB6B002B05DB3B6DFF2B02DC10
:1011B0003B6D002B06DA3B2310229446BC4463446B
:1011C00040221A703B2310229446BC4463441B788F
:1011D000402B0ED0FB6BFF221A403B6D1B04190005
:1011E000FF231B040B401343FA6C12061A43BB6B1C
:1011F000DA603B2310229446BC4463441B781800F9
:10120000BD4617B0F0BDC0465982000090B58BB006
:1012100000AFF860B9607A60FB68BA681A60FB6872
:101220001B68FB61FB681B681800444B9847030070
:10123000BB61BB69052B04D101237B6218233B6290
:1012400004E0BB697B62BB6912333B62BB69052B5F
:1012500008D101227B6A9A40130019000320384B01
:10126000984707E001227B6A9A4013001900022088
:10127000334B98471423FB181800324B98477B6870
:101280001A7B1423FB181A703B6ADBB21422BA18BB
:10129000110018002C4B98473B6ADBB218002B4B0F
:1012A00098477B681B7B00211800294B9847FB69F6
:1012B0001B680222134001D01C233BE0FB691B6822
:1012C0000122134001D0052334E0FB681B6817227C
:1012D000BC181800194B9847030023701D4A1723A8
:1012E000FB181B78110018001B4B98471723FB189D
:1012F0001A781A4B9200F968D150FB6800221A76CE
:10130000FB6800225A76FB6800225A83FB680022A1
:101310009A83FB68252200219954FB6800221A62F7
:10132000FB6914221A607A68FB68110018000C4BE4
:10133000984703001800BD460BB090BD95680000AB
:10134000410C0000290C0000097A0000497A0000D5
:101350004D660000B91B0000F96800009C030020E6
:10136000FD0D000080B584B000AF78607B681B681D
:10137000FB607B6818000F4B98477B6818000E4B8A
:1013800098470E4B98477B681B6818000C4B984792
:10139000030018000B4B98470B4B98477B681800CD
:1013A000044B9847FB6801221A60C046BD4604B052
:1013B00080BDC046810D0000A50D0000050D000098
:1013C000656900004D7B0000190D000080B584B0F8
:1013D00000AF78607B681B68FB60FB681B7EDBB23C
:1013E0001A00022313400BD0FB6802221A76FB6816
:1013F0005B8B9BB21A000223134011D0412310E0F3
:10140000FB685B8B9BB21A000423134008D0FB6877
:101410005B68C02292021A43FB685A60182300E0FE
:1014200000231800BD4604B080BD80B584B000AF75
:1014300078607B681B68BB600E23FB1800221A8053
:101440000FE00E23FB180E22BA18128801321A8000
:101450007B681B890E22BA1812889A4201D3122384
:101460000EE0BB681B7EDBB21A000123134006D1DD
:10147000BB681B7EDBB21A0002231340E1D00023BD
:101480001800BD4604B080BD90B585B000AF78604F
:101490000A00FB1C1A707B681B68FB60FB685B68BA
:1014A0008022D2021A43FB685A60FB1C1A78FB6840
:1014B0005A620B23FC187B681800074B98470300FF
:1014C0002370FB6801221A760B23FB181B78180087
:1014D000BD4605B090BDC0462B14000090B587B046
:1014E00000AF786039607B681B68FB601423FB18D1
:1014F0003A6852881A801223FB1800221A80FB686F
:101500001B681B01DB0FDBB21A000B23FB18511EFB
:101510008A411A703B685B7A002B06D03B689A7A46
:101520007B6811001800854B9847FB685B68844A0C
:101530001A40FB685A603B681B7A002B42D03B681C
:101540001B885A003B685B7A9B0313431A00802375
:101550001B021A43FB685A621723FC187B681800A9
:10156000784B984703002370FB685B68744A1A4005
:10157000FB685A601723FB181B78002B07D1172331
:10158000FC187B681800704B9847030023701723E2
:10159000FB181B78002B11D13B681B881B0A9BB2E0
:1015A000782213439BB25A003B685B7A9B03134338
:1015B000012213431A00FB685A620FE01723FB183D
:1015C0001B78B6E03B681B885B0001221A433B682E
:1015D0005B7A9B0313431A00FB685A621723FC18BB
:1015E0007B681800574B9847030023700B23FB18A8
:1015F0001B78002B0BD03B685B88012B07D1FB6865
:101600005B688022D2021A43FB685A6005E0FB68DF
:101610005B684B4A1A40FB685A601723FB181B781B
:10162000002B07D11723FC187B681800464B9847FE
:10163000030023701723FB181B78002B00D075E0E4
:101640004BE0FB685B8B9BB21A002023134001D157
:1016500041236EE07B68DB7A002B1ED00B23FB1846
:101660001B7801225340DBB2002B04D01423FB185B
:101670001B88002B09D00B23FB181B78002B0CD0E8
:101680001423FB181B88012B07D1FB685B688022A1
:10169000D2021A43FB685A601AE07B6818002B4B91
:1016A00098473B685A681223FB181B881221791847
:1016B000581C0880D318FA682821525CD2B21A70DC
:1016C0001723FC187B6818001E4B984703002370F3
:1016D0001723FB181B78002B09D11423FB181B8838
:1016E0001422BA18591E1180002BAAD100E0C0465E
:1016F0007B689B7A002B0AD07B681800134B9847B5
:10170000FB685B68C02292021A43FB685A607B68E0
:1017100018000E4B98473B685A681223FB181B8829
:10172000D318FA682821525CD2B21A701723FB181A
:101730001B781800BD4607B090BDC0468914000054
:10174000FFFFFBFF2B140000CD130000810D0000F4
:1017500080B582B000AF786039607B689B8B9BB2AC
:10176000002B01D005230CE07B6801229A727B6874
:101770000122DA723A687B6811001800034B98471F
:1017800003001800BD4602B080BDC046DD14000055
:1017900090B587B000AF786039607B681B68FB60EC
:1017A0001423FB183A6852881A807B681800514B42
:1017B00098473B685B7A002B06D03B689A7A7B6837
:1017C000110018004C4B9847FB685B684B4A1A4065
:1017D000FB685A603B681B7A002B0DD03B681B8866
:1017E0005A003B685B7A9B0313431A0080231B0259
:1017F0001A43FB685A6209E03B681B885A003B6841
:101800005B7A9B0313431A00FB685A621723FC1888
:101810007B6818003A4B9847030023701723FB1886
:101820001B78002B07D11723FC187B681800354B59
:101830009847030023701723FB181B78002B52D105
:101840001223FB1800221A8033E0FB685B8B9BB2EB
:101850001A002023134001D1412347E07B68180080
:10186000244B98473B685A681223FB181B881221A7
:101870007918581C0880D3181978FB6828229954C5
:101880001723FC187B6818001D4B98470300237032
:101890001723FB181B78002B15D1FB685B8B9BB2C1
:1018A0001A000423134004D01723FB181E221A70B9
:1018B0000AE01423FB181B881422BA18591E118041
:1018C000002BC2D100E0C0467B689B7A002B0AD077
:1018D0007B681800074B9847FB685B68C022920240
:1018E0001A43FB685A601723FB181B781800BD4683
:1018F00007B090BD810D000089140000FFFFFBFFC1
:101900002B140000CD13000080B582B000AF7860CA
:1019100039607B689B8B9BB2002B01D005230CE0C8
:101920007B6801229A727B680122DA723A687B68CE
:1019300011001800034B984703001800BD4602B081
:1019400080BDC0469117000080B584B000AF7860BC
:101950007B681B68FB60FB68DB69072213405A1E2B
:101960009341DBB21800BD4604B080BD80B582B0A3
:1019700000AF7860C0467B681800044B9847031E90
:10198000F9D1C046BD4602B080BDC046491900002D
:1019900080B584B000AF78607B681B68FB60FB6833
:1019A0001B681B01DB0FDBB21A000B23FB18511E57
:1019B0008A411A700823FB187A68528B1A807B6858
:1019C0009B8B9AB20823FB180821791809888A1A78
:1019D0001A807B689B8B9BB2013B9AB27B689A838F
:1019E0000B23FB181B78002B10D07B68DB7A002BB5
:1019F0001CD07B689B8B9BB2012B17D1FB685B686B
:101A00008022D2021A43FB685A600FE07B68DB7ABF
:101A1000002B0BD07B689B8B9BB2002B06D1FB6805
:101A20005B688022D2021A43FB685A607B689B8BFA
:101A30009BB2002B0ED17B689B7A002B0AD07B686F
:101A400018000E4B9847FB685B68C02292021A434D
:101A5000FB685A607B681800084B98477B681A6AD5
:101A60000823FB181B88D318FA682821525CD2B2CD
:101A70001A70C046BD4604B080BDC0466D19000056
:101A800080B584B000AF78607B681B68FB60FB6842
:101A90005B8B9BB21A000423134004D07B68252281
:101AA0001E21995424E00A23FB187A68528B1A806D
:101AB0007B689B8B9AB20A23FB180A217918098844
:101AC0008A1A1A807B689B8B9BB2013B9AB27B6817
:101AD0009A837B681800084B98477B681A6A0A2328
:101AE000FB181B88D3181B78D9B2FB68282299549D
:101AF000BD4604B080BDC0466D19000080B584B0FD
:101B000000AF78607B681B68FB60FB681B7EDBB204
:101B10001A00012313402BD0FB6801221A76FB68C0
:101B20005B8B9BB21A000223134004D07B682522F2
:101B3000412199541CE0FB685B8B9BB21A00042383
:101B4000134015D07B682522182199547B68002208
:101B50009A837B689B7A002B0AD07B681800134B12
:101B60009847FB685B68C02292021A43FB685A6080
:101B70007B689B8B9AB27B685A837B6825229B5C2F
:101B8000DBB2052B0ED17B6824229B5CDBB2002BE1
:101B900004D17B681800064B984703E07B68180067
:101BA000044B9847C046BD4604B080BD6D19000087
:101BB000811A00009119000080B586B000AF0200C4
:101BC000FB1D1A70FB1D1A78934B9200D3587B6152
:101BD0007B691B683B613B691B681B01DB0FDBB248
:101BE0001A000F23FB18511E8A411A700E23FB188E
:101BF0007A69527E1A707B691B7EDAB20E23FB185B
:101C00000E21791809780A401A707B695B8B9BB2A8
:101C1000002B09D17B699B8B9BB2002B04D07B6985
:101C200018007E4B984770E07B695B8B9BB2002B62
:101C300039D07B699B8B9BB2002B34D17B692522E9
:101C40009B5CDBB2052B2ED17B6924229B5CDBB233
:101C5000002B28D13B6903221A757B6900225A8325
:101C60007B692522002199547B699B7A002B0BD03C
:101C70007B6918006A4B98473B695B68C0229202F7
:101C80001A433B695A6002E03B6901221A760E232F
:101C9000FB181B780122134037D07B69DB687A6917
:101CA0001000984731E07B695B8B9BB2002B2CD0F6
:101CB0007B699B8B9BB2002B27D03B695B8B9BB2D4
:101CC0001A002023134011D10F23FB181B78012287
:101CD0005340DBB2002B04D17B699B8B9BB2012B61
:101CE00004D07B692522412199540EE07B6924228E
:101CF0009B5CDBB2002B04D17B691800494B9847F1
:101D000003E07B691800484B98477B695B8B9BB26B
:101D1000002B47D07B699B8B9BB2002B42D17B6908
:101D200025229B5CDBB2052B3CD17B6924229B5C8A
:101D3000DBB2012B36D13B691B7EDBB21A000223DA
:101D4000134002D03B6902221A763B6903221A75BE
:101D50007B6900225A837B692522002199540E2336
:101D6000FB181B78022213400BD07B6924229B5C5A
:101D7000DBB2012B05D17B691B697A69100098479A
:101D800010E00E23FB181B78012213400AD07B6958
:101D900024229B5CDBB2002B04D17B69DB687A696F
:101DA000100098477B6925229B5CDBB2052B2ED067
:101DB0007B6925229B5CDBB2002B28D03B69032288
:101DC0001A757B6900225A837B6900229A837B699A
:101DD00025229B5CDBB2412B0ED07B699B7A002BCA
:101DE0000AD07B6918000E4B98473B695B68E0227C
:101DF000D2021A433B695A600E23FB181B78042257
:101E0000134004D07B695B697A6910009847C0462B
:101E1000BD4606B080BDC0469C030020FD1A0000F0
:101E20006D190000811A00009119000080B586B07C
:101E300000AFF860B9607A6000237B61FB68002B1B
:101E400012D001235B4213E00B4B1A680B4B1B684B
:101E5000B96818009047BB680133BB607B690133E8
:101E60007B617B68013B7B607B68002BECDC7B69E2
:101E70001800BD4606B080BD6C030020740300202E
:101E800080B586B000AFF860B9607A6000237B61EE
:101E9000FB68012B1DD0FB68022B1AD0FB68032BBB
:101EA00017D001235B4218E00E4B1A680E4B1868DE
:101EB000BB68591CB9601B7819009047031E02DAF1
:101EC00001235B4209E07B6901337B617B68013B55
:101ED0007B607B68002BE7D17B691800BD4606B0AC
:101EE00080BDC046700300207403002090B5B5B0DB
:101EF00002AFF860B9607A60C723FB1800221A703D
:101F00007423FB18180040231A0000218A4B9847BD
:101F10003423FB18180040231A000021864B9847F1
:101F20000023C022BA1813600023BC22BA18136021
:101F3000BB23FB1800221A70BA23FB1800221A7068
:101F40001423FB18180020231A0000217A4B98470D
:101F50000023B422BA181360FB68002B08D0BB68BA
:101F6000002B05D0BB68002B02D07B68002B04D16E
:101F7000C723FB1802221A70D6E07B681A68FB6838
:101F80004A21595C4B201B5C1B020B439BB29A42BB
:101F900004D2C723FB1802221A70C5E0FB68462250
:101FA0009A5C4721595C09020A434821595C09049B
:101FB0000A4349215B5C1B0613431800FB684A2255
:101FC0009A5C4B215B5C1B0213439BB21A00BB68FB
:101FD00001001800594B98477B681B68B422BA1857
:101FE0001360FB684A229A5C4B215B5C1B02134323
:101FF0009BB21A007B681A60FB682133BC22BA18B6
:102000001360FB681333C022BA181360BB23FB189C
:10201000C022BA18126852781A70BA23FB18FA68EC
:10202000D2781A70C023FB181B689B78002B13D042
:10203000BB23FB181B789BB2C722BC187422BA18AA
:10204000110018003E4B984703002370C723FB186C
:102050001B78002B13D067E0BB23FB181B789BB2C7
:10206000C722BC187422BA1811001800354B9847C3
:1020700003002370C723FB181B78002B4DD17B680E
:102080001C68BA68BC23FB181968F86840230193E0
:102090007423FB18009323002B4CA0470200C72396
:1020A000FB181A70C723FB181B78002B37D17B68ED
:1020B0001A681423FB18B968F868244CA04702007A
:1020C000C723FB181A70C723FB181B78002B28D1D5
:1020D000BA23FB181B789BB2C722BC183422BA184B
:1020E0001421791818001A4B984703002370C7234E
:1020F000FB181B78002B16D1B423FB181C687A68D8
:10210000B968F8683423FB1800932300114CA047EA
:102110000200C723FB181A7006E0C04604E0C04660
:1021200002E0C04600E0C046C723FB181B78180039
:10213000BD4633B090BDC0462D9D00001B9D0000E4
:10214000C9400000F54000007D240000FD23000090
:1021500041400000D521000080B586B000AFF86096
:10216000B9607A6000237B61FB681B78002B03D188
:10217000FB681B79072B01D0002327E0FB68352281
:102180009A5C36215B5C1B0213439BB27B617A68CD
:102190007B699A4201D8002318E0BA687B69D3189A
:1021A0001B781800FB6846229A5C4721595C09029B
:1021B0000A434821595C09040A4349215B5C1B0618
:1021C00013431A007B69D3181B78C31A1800BD4645
:1021D00006B080BD90B58DB002AFF860B9607A608E
:1021E0003B6000237B62FB68002B08D0BB68002BA0
:1021F00005D07B68002B02D0BB6B002B01D10223E2
:102200008DE02223FA18FB682521595C26201B5CEF
:102210001B020B4313802223FB181A88B968FB6842
:102220001800414B9847030099B22223FB18222241
:10223000BA1812888A181A80FB681B78002B0FD0F6
:10224000FB68253319007B681C68BA68F86840236E
:102250000193BB6B00932300344CA04703005EE066
:102260002223FB181A887B681B689A4201D3092332
:1022700055E07B681A682223FB181B88D31AFB6180
:102280002223FB181B883A68D31ABB612223FB1850
:102290001B88BA68D1181823FA18BB6B1800244B96
:1022A000984703007B627B6A002B0DD07B6A032B6F
:1022B00008D17B681B68BA691100FA698A1A9A18F2
:1022C0007B681A607B6A2AE07B681B68BA69110028
:1022D000FA698A1A9A187B681A607B681B68013B46
:1022E0007B61BB68581CBB691A00FB69D21A1023BA
:1022F000FB18142179180F4CA04703007B627B6AFE
:10230000002B01D07B6A0AE07A693B69D3185A1C1A
:102310007B681B689A4201D00A2300E00023180062
:10232000BD460BB090BDC046592100007D24000081
:10233000152900000527000080B586B000AFF860C1
:10234000B9607A603B6000237B61FB68002B08D09A
:10235000BB68002B05D03B68002B02D03B6A002BEA
:1023600001D1022343E0FB689A7BDB7B1B02134312
:102370009BB21900FB681A7C5B7C1B0213439BB267
:10238000CB181A00B968FB6818001B4B984703006C
:102390007B61FB689A7BDB7B1B0213439BB21900BA
:1023A000FB681A7C5B7C1B0213439BB2CA187B69D7
:1023B000D3181A007B689A4201D90A2317E0FB68F8
:1023C0009A7BDB7B1B0213439BB21A00BB689A18F3
:1023D0003B681A60FB681A7C5B7C1B0213439BB250
:1023E0001A007B69D3181A003B6A1A600023180090
:1023F000BD4606B080BDC0465921000090B58BB0E7
:1024000002AFF860B9607A603B600023FB61002393
:10241000BB6100237B61FB68002B05D0BB68002BF0
:1024200002D03B68002B01D102231FE01823FC18C7
:102430007A68B968F8681423FB18009323000D4CE0
:10244000A0470300FB61FB69002B01D0FB690DE095
:10245000BB6979693A681800074B98470300FB612C
:10246000FB69002B01D0FB6900E0FB691800BD4649
:1024700009B090BD39230000A543000080B586B0A7
:1024800000AFF860B9607A603B6000237B61FB6855
:10249000002B05D0BB68002B02D07B68002B01D13C
:1024A000022362E0BB689A78DB781B0213439BB27D
:1024B000002B01D1002358E03B6A002B01D10223FD
:1024C00053E0FB681B78002B13D1FB681B79072BAB
:1024D0000FD1BB681A785B781B0213439AB2FB6872
:1024E0003521595C36201B5C1B020B439BB29A4280
:1024F0000BD0BB689A78DB781B0213439BB21A009F
:102500007B6A9A4201D007232FE0BB681A785B7878
:102510001B0213439BB21A007968FB681800154B25
:10252000984703007B61BB681A785B781B021343F2
:102530009BB21A007B6AD2187B69D2183B689A4218
:1025400001D9092311E0BB681A785B781B02134399
:102550009BB21A007B69D3181A007B689B187A6AB1
:10256000396A1800044B984700231800BD4606B08E
:1025700080BDC046592100001B9D000080B586B07B
:1025800000AFF860B9607A6000237B6103233B6190
:102590007B68002B01D1022349E0FB687F2B07D821
:1025A00001237B6100233B610BE03B69013B3B6105
:1025B0003B69DB00FA68DA40131EF6D03B69023350
:1025C0007B61BB68002B09D07B681A687B699A42E3
:1025D00004D27B687A691A60032328E07B687A69F1
:1025E0001A60BB68002B11D1002320E03B697A6997
:1025F000D31A013BBA68D3183A69D200F968D140BE
:102600000A00D2B21A703B69013B3B613B69002B67
:10261000ECDA7B69012B09D97B69DBB2013BDBB2C8
:10262000802252421343DAB2BB681A7000231800AA
:10263000BD4606B080BD80B586B000AFF860B96019
:102640007A60FB68002B02D0BB68002B01D102230B
:1026500053E0BB681B68002B01D104234DE0FB68ED
:102660001B785BB2002B3CDAFB681B781A007F23D7
:1026700013403B61BB681A683B6901339A4201D23F
:1026800004233AE03B69002B01D1042335E03B6988
:10269000042B01D9042330E07B68002B1CD07B681D
:1026A00000221A6001237B6112E07B681A68F968D6
:1026B0007B69CB181B78180039697B69CB1ADB0062
:1026C00098400300D2187B681A607B6901337B61F4
:1026D0007A693B699A42E8D93B695A1CBB681A601F
:1026E0000AE07B68002B04D0FB681B781A007B682B
:1026F0001A60BB6801221A6000231800BD4606B0AC
:1027000080BD000080B58AB000AFF860B9607A6023
:102710003B6000237B620023FB610023BB6100233D
:102720003B621823FA18B968FB681800204B9847D9
:1027300003007B627B6A002B01D07B6A34E07B68FC
:10274000002B07DA7B685B421A00BB699A4201D909
:10275000012329E0BA697B68D3183B623B68002BF0
:1027600002D03B683A6A1A600523FB611C23FA1801
:102770001023F9183B6A18000E4B984703007B6240
:102780007B6A002B01D07B6A0EE0BB681A68FB698C
:102790009A4201D00A2307E0FA691023F918FB686E
:1027A0001800054B984700231800BD460AB080BDAD
:1027B000372600007D2500001B9D000080B58CB0F1
:1027C00000AFF860B9603B60FB1D1A7005237B61A8
:1027D00000237B620023FB620023BB62FB68002BAB
:1027E00005D0BB6B002B02D0BB68002B01D10223AC
:1027F00087E0FB1D1B78002B08D0FB681B785BB2C1
:10280000002B25DB02E0FB6A0133FB62BA68FB6A3E
:10281000D31A012B1FD9FA68FB6AD3181B78002B37
:1028200007D1FB6A0133FA68D3181B785BB2002B1F
:10283000E9DAFA68FB6AD3181B78FF2B0BD1FB6A25
:102840000133FA68D3181B785BB2002BDBDB02E0A4
:102850000123BB6200E0C046BA68BB6AD218FB6ABB
:10286000D31A1422BA18182179181800274B984740
:1028700003003B623B6A002B01D03B6A41E07A696E
:10288000BB68D218BB6AD218FB6AD31A01337B62C9
:102890003B68002B09D0BB6B1A687B6A9A4204D252
:1028A000BB6B7A6A1A6003232BE0BB6B7A6A1A60EF
:1028B0003B68002B01D1002323E03B6802221A7001
:1028C0003B6801337A69182179181800104B984732
:1028D000BB6A002B05D07B6901333A68D31800220C
:1028E0001A707A69BB6AD31801333A68D018FA684B
:1028F000FB6AD118BA68FB6AD31A1A00044B9847CE
:1029000000231800BD460CB080BDC0467D250000E8
:102910001B9D000090B58BB002AFF860B9607A6083
:102920000023FB6100237B6100233B610023BB612B
:10293000FB68002B02D07B68002B01D102237DE0D5
:10294000F8681423FB1800930023012220213D4C3A
:10295000A0470300FB61FB69002B01D0FB696DE020
:10296000FB68203318001023FB180093002301227A
:102970002021344CA0470300FB61FB69002B01D0F0
:10298000FB695BE07A693B69D3180533BB61BB68BF
:10299000002B09D07B681A68BB699A4204D27B6815
:1029A000BA691A60032349E07B68BA691A60BB6898
:1029B000002B01D1002341E0BB6803221A70BB68E1
:1029C0000133BA69D2B2023AD2B21A70BB6802338A
:1029D00000221A70BB68033330221A70BB680433BC
:1029E000BA69D2B2053AD2B21A70BB685A1DF868F9
:1029F0001423FB180093130001222021114CA0473F
:102A00000300FB61FB69002B01D0FB6916E0FB684A
:102A1000203318007B690533BA68D2181023FB18DD
:102A20000093130001222021064CA0470300FB6104
:102A3000FB69002B01D0FB6900E000231800BD46B4
:102A400009B090BDBD27000090B585B000AF020071
:102A5000FB1D1A700B23FB1800221A700820114B63
:102A600098470300FB60FB68FA1D12781A700B236D
:102A7000FC18FB1D1A78FB68110018000A4B9847D8
:102A8000030023700B23FB181B78002B05D0FB6879
:102A90001800064B98470023FB60FB681800BD46F2
:102AA00005B090BDD59C0000792C0000E99C000089
:102AB00080B582B000AF786039603B6840229A7080
:102AC0003B68DB781A001023134007D03B680A22CA
:102AD0005A703B688A220421995206E03B6807221B
:102AE0005A703B688A224B2199523B681800034B6D
:102AF000984700231800BD4602B080BDBD2D0000E0
:102B000080B582B000AF786039603B6830229A703F
:102B10003B6807225A703B688A22072199523B681A
:102B20001800034B984700231800BD4602B080BD33
:102B3000BD2D000080B584B000AF786039603B687F
:102B4000DB781A0003231340FB603B6816229A705F
:102B5000FB68002B02D0FB68012B07D13B681B22CE
:102B60005A703B688A22232199520CE0FB68032BA0
:102B700007D13B6827225A703B688A220421995268
:102B800001E0E22304E03B681800034B9847002370
:102B90001800BD4604B080BDBD2D000080B582B0D8
:102BA00000AF786039603B681B229A703B6807224F
:102BB0005A703B688A22232199523B681800034BC4
:102BC000984700231800BD4602B080BDBD2D00000F
:102BD00080B582B000AF786039603B6802229A709D
:102BE0003B6807225A703B68DB785BB2002B04DB42
:102BF0003B688A220721995203E03B688A222321FD
:102C000099523B681800034B984700231800BD46B3
:102C100002B080BDBD2D000080B582B000AF7860ED
:102C200039603B6841229A703B6807225A703B68C2
:102C30008A22432199523B681800034B984700238E
:102C40001800BD4602B080BDBD2D000080B582B029
:102C500000AF78607B681B68002B04D07B681B6822
:102C60001800044B98477B6800221A60C046BD4696
:102C700002B080BDE99C000080B582B000AF7860F2
:102C80000A00FB1C1A70FB1C1B78002B06D009DB0A
:102C9000022B07DC7B68074A5A6005E07B68064A1E
:102CA0005A6001E0E22300E000231800BD4602B0B4
:102CB00080BDC0464C0000207800002080B582B066
:102CC00000AF78600A00FB1C1A707B685A68FB1C16
:102CD0001B785B00D3181B881800BD4602B080BD6E
:102CE00080B588B000AFF860B9607A601A23FB182D
:102CF00000221A801623FB182F4A1A800023FB613A
:102D000043E01923FB1801221A7036E0BA68FB6908
:102D1000D3181B781922BA1812781340DBB25A1E46
:102D20009341DAB21523FB181A701A23FB181B887B
:102D3000DB0B9AB21423FB181A701A23FA181A2301
:102D4000FB181B88DB1813801523FA181423FB18B3
:102D500012781B789A4209D01A23FB181A22B91844
:102D60001622BA18098812884A401A801923FA18BC
:102D70001923FB181B78DB1813701923FB181B7819
:102D8000002BC3D1FB690133FB61FA69FB689A42EE
:102D9000B7D31A23FB181B88DAB27B681A707B68DA
:102DA00001331A22BA181288120A92B2D2B21A70D9
:102DB000C046BD4608B080BD0580FFFF80B584B029
:102DC00000AF78607B685A780F23FB18023A1A70BC
:102DD0007B685A1C0F23FB181B78D318BB600F238A
:102DE000FB1818787B680133BA681900024B9847C2
:102DF000C046BD4604B080BDE12C000080B584B063
:102E000000AF78600F23FB187A6812781A700F23CE
:102E1000FB181B78012B01D8E22329E00F23FB18B4
:102E20000F22BA181278023A1A700F23FB181B7877
:102E30000C22BA18796818000F4B98470C23FB181E
:102E40001A780F23FB181B787968CB181B789A42E5
:102E50000DD10C23FB185A780F23FB181B78013374
:102E60007968CB181B789A4201D1002300E0E52352
:102E70001800BD4604B080BDE12C000080B584B0D0
:102E800000AF78600C23FB18194A12681A600C23F3
:102E9000F9187B6804221800164B9847031E01D1CD
:102EA000002320E07B681B78042B1BD17B68013357
:102EB0001B780F2B0ED004DC012B07D0032B07D07F
:102EC0000EE0112B08D0FF2B08D009E0D1230AE037
:102ED000D22308E0F42306E0F32304E0D42302E045
:102EE000E12300E000231800BD4604B080BDC046C9
:102EF0005CB10000FD9C000080B584B000AF78603C
:102F00000023FB607B68002B01D1002322E0082016
:102F1000124B98470300FB607B685B781800104BEE
:102F200098470200FB681A607B6818000D4B9847B1
:102F30000200FB685A60FB681B68002B03D0FB682B
:102F40005B68002B05D1FB681800074B98470023EE
:102F5000FB60FB681800BD4604B080BDD59C000036
:102F6000492A0000E12F0000E99C000080B582B0F2
:102F700000AF78607B681B681800BD4602B080BD5A
:102F800080B582B000AF78607B685B681800BD4692
:102F900002B080BD80B584B000AF78607B681B68EC
:102FA000FB607B681B68002B0DD0FB681800094B89
:102FB0009847FB6804331800074B98477B681B68E9
:102FC0001800064B98477B6800221A60C046BD4631
:102FD00004B080BD4D2C00007D310000E99C000054
:102FE00080B584B000AF786028200E4B984703006E
:102FF000FB607B681A78FB681A70FB687A685A6015
:10300000FB681800084B9847031E05D0FB681800A2
:10301000064B98470023FB60FB681800BD4604B0D0
:1030200080BDC046D59C000031300000E99C000006
:1030300090B58DB000AF78602F23FB18F0221A7086
:103040000823FA187B6811001800144B98477B6816
:103050009A687B6859682F23FC180823FB1818000E
:103060009047030023702F23FB181B78002B0DD1F2
:103070000823FB181A6A7B685A627B68DB682F2278
:10308000BC187A6810009847030023702F23FB18A0
:103090001B781800BD460DB090BDC046C131000080
:1030A00080B584B000AFF860B9607A60FB681B69D6
:1030B0007A68B968F868984703001800BD4604B0FC
:1030C00080BD80B584B000AFF860B9607A60FB68FD
:1030D0005B697A68B968F868984703001800BD46CC
:1030E00004B080BD80B582B000AF78607B689B691A
:1030F0007A681000984703001800BD4602B080BDF2
:1031000090B585B000AF78607B68DB690F22BC1892
:103110007A6810009847030023700120044B9847F9
:103120000F23FB181B781800BD4605B090BDC046A4
:10313000C956000090B585B000AF78607B681B6A07
:103140000F22BC187A6810009847030023700120F2
:10315000044B98470F23FB181B781800BD4605B099
:1031600090BDC046C956000080B582B000AF7860FF
:103170007B685B681800BD4602B080BD80B582B038
:1031800000AF78607B681B68002B0ED07B681B68E3
:103190001A787B681B685B6A19001000064B984719
:1031A0007B681B681800054B98477B6800221A60F3
:1031B000C046BD4602B080BD2D4D0000E99C000018
:1031C00080B582B000AF786039607B685B683A6830
:1031D00011001800134B98473B681A687B689A6087
:1031E0003B685A687B68DA603B689A687B681A615A
:1031F0003B68DA687B685A613B681A697B689A6148
:103200003B689A697B681A623B685A697B68DA6135
:103210003B681A6A7B685A6200231800BD4602B0F8
:1032200080BDC046914C000080B582B000AF786090
:10323000184B1B68002B01D0174B98477B68180070
:10324000164B98470200134B1A60124B1B68002B59
:1032500001D1E1231AE00F4B1B681800104B98476F
:103260000200104B1A600B4B1B6818000E4B98475E
:1032700002000E4B1A600B4B1B68002B03D00B4B4C
:103280001B68002B01D1E12300E000231800BD469C
:1032900002B080BD28020020B1320000F92E0000EB
:1032A0006D2F00002C020020812F00003002002032
:1032B00080B500AF034B1800034B9847002318005C
:1032C000BD4680BD28020020952F000080B500AFCC
:1032D000074B1B68002B01D1E12305E0054B1B6860
:1032E0001800054B984703001800BD4680BDC04636
:1032F0002802002030020020E530000080B500AF39
:10330000074B1B68002B01D1E12305E0054B1B682F
:103310001800054B984703001800BD4680BDC04605
:1033200028020020300200200131000080B500AFEB
:10333000074B1B68002B01D1E12305E0054B1B68FF
:103340001800054B984703001800BD4680BDC046D5
:1033500028020020300200203531000080B500AF87
:10336000024B984703001800BD4680BDFD320000A7
:1033700090B5A9B000AF78609F23FB18E1221A70C6
:10338000584B1B68002B01D1E123A6E00C23FB184E
:103390000022DA700C23FB1800229A807B68002B35
:1033A00004D19F23FB18E2221A708CE04E4B1B685D
:1033B0009F22BC180C22BA18110018004B4B9847DA
:1033C000030023709F23FB181B78002B00D071E0B3
:1033D000454B1B6808211800454B9847030098226D
:1033E000BA1813609F23FC18424B984703002370C0
:1033F0009F23FB181B78002B5ED13F4B18680C23D2
:10340000FB185B781A009F23FC180C23FB1819008B
:103410003A4B9847030023709F23FB181B78002B1F
:103420004CD19823FB181B681800354B9847324B3A
:1034300018689F23FC180C23FB188A331A000C23EE
:10344000FB18063319002F4B9847030023709F2366
:10345000FB181B78002B33D10C23FB188A229B5AB4
:10346000032B0FD80C23FB188A229B5A002B04D065
:103470009F23FB18E6221A7025E09F23FB18E72202
:103480001A7020E09F23FC180C23FB180633180049
:103490001D4B9847030023709F23FB181B78002BBC
:1034A00010D10C23FB18D91D7B6804221800174B80
:1034B000984708E0C04606E0C04604E0C04602E087
:1034C000C04600E0C0469F23FB181B78F02B01D0BC
:1034D0000F4B98479F23FB181B781800BD4629B057
:1034E00090BDC046280200202C020020012B0000C5
:1034F000BD2C0000CD32000030020020A1300000C1
:10350000C9560000C33000007D2E00001B9D000046
:103510005D33000090B5A7B000AF78609723FB182B
:10352000E1221A709423FB1800221A805D4B1B685D
:10353000002B01D1E123B1E00823FB180022DA704F
:103540000823FB1800229A80574B1B689722BC184F
:103550000822BA1811001800544B98470300237032
:103560009723FB181B78002B00D089E04E4B1B687B
:103570009422BC180E2118004D4B9847030023805D
:103580009723FC184B4B9847030023709723FB1895
:103590001B78002B00D075E0474B18680823FB18F8
:1035A0005B781A009723FC180823FB181900434B7B
:1035B0009847030023709723FB181B78002B63D1D7
:1035C0009423FB181B8818003D4B98473A4B18680A
:1035D0009723FC180823FB188A331A000823FB18CA
:1035E00006331900374B9847030023709723FB18C5
:1035F0001B78002B4AD10823FB188A229B5A032BE5
:103600000FD80823FB188A229B5A002B04D097233B
:10361000FB18E6221A703CE09723FB18E7221A7089
:1036200037E09723FC180823FB1806331800264BB5
:103630009847030023709723FB181B78002B27D192
:103640000823FB188A229A5A0823FB189B799BB2FD
:103650009A4204D30823FB189B79232B04D0972389
:10366000FB18E6221A7014E07B68002B11D00823A7
:10367000FB18D91D7B6820221800144B984708E0DE
:10368000C04606E0C04604E0C04602E0C04600E096
:10369000C0460F4B98479723FB181B781800BD4670
:1036A00027B090BD280200202C0200209D2B000096
:1036B000BD2C0000CD32000030020020A1300000FF
:1036C000C9560000C33000007D2E00001B9D000085
:1036D0005D33000090B5A9B000AFBA607B600F23E6
:1036E000FB18021C1A700C23FB180A1C1A809C235E
:1036F000FB1800221A809F23FB18E1221A705F4BEF
:103700001B68002B01D1E123B4E01023FB180F222A
:10371000BA181278DA701023FB180C22BA18128823
:103720009A80BB68002B07D0B9681023FB180633BA
:1037300003221800524B9847524B1B689F22BC181B
:103740001022BA18110018004F4B9847030023703D
:103750009F23FB181B78002B00D07DE0494B1B6892
:103760009C22BC1806211800484B98470300238070
:103770009F23FC18464B9847030023709F23FB1898
:103780001B78002B6AD1434B18681023FB185B7819
:103790001A009F23FC181023FB1819003E4B984772
:1037A000030023709F23FB181B78002B58D19C2308
:1037B000FB181B881800394B9847364B18689F2315
:1037C000FC181023FB188A331A001023FB18063349
:1037D0001900334B9847030023709F23FB181B7875
:1037E000002B3FD11023FB188A229B5A032B0FD8A2
:1037F0001023FB188A229B5A002B04D09F23FB180E
:10380000E6221A7031E09F23FB18E7221A702CE0A1
:103810009F23FC181023FB1806331800214B9847F0
:10382000030023709F23FB181B78002B1CD17B689F
:10383000002B1AD01023FB189B79042B15D91023C9
:10384000FB189B79033B1A001023FB18D91D7B68DA
:1038500018000B4B984708E0C04606E0C04604E05D
:10386000C04602E0C04600E0C0460F4B98479F2389
:10387000FB181B781800BD4629B090BD2802002017
:103880001B9D00002C020020B12A0000BD2C00006E
:10389000CD32000030020020A1300000C9560000E7
:1038A000C33000007D2E00005D33000090B583B072
:1038B00000AF02003960BB1D1A803A68BB1D198831
:1038C000130000220420034CA04703001800BD464B
:1038D00003B090BDD536000090B5A7B000AF7860BA
:1038E0009723FB18E1221A709423FB1800221A80F8
:1038F0007B68002B04D19723FB18E2221A708CE01E
:103900000823FB180322DA700823FB1800229A8090
:1039100079680823FB18063320221800434B984788
:10392000434B1B689722BC180822BA1811001800D4
:10393000404B9847030023709723FB181B78002BFC
:1039400064D13B4B1B689422BC180B2118003A4BE6
:103950009847030023809723FC18384B98470300AF
:1039600023709723FB181B78002B51D1344B186818
:103970000823FB185B781A009723FC180823FB1810
:103980001900304B9847030023709723FB181B78CE
:10399000002B3FD19423FB181B8818002A4B984713
:1039A000274B18689723FC180823FB188A331A0042
:1039B0000823FB1806331900244B98470300237093
:1039C0009723FB181B78002B26D10823FB188A228B
:1039D0009B5A032B0FD80823FB188A229B5A002BD3
:1039E00004D09723FB18E6221A7016E09723FB18E1
:1039F000E7221A7011E09723FC180823FB180633FE
:103A00001800134B98470300237006E0C04604E0FB
:103A1000C04602E0C04600E0C0460E4B98479723E0
:103A2000FB181B781800BD4627B090BD1B9D0000F9
:103A30002C020020352B0000BD2C0000CD320000F0
:103A400030020020A1300000C9560000C330000041
:103A50007D2E00005D330000B0B58EB002AF7860FF
:103A60002F23FB18E1221A707B68002B01D1E2237F
:103A700028E02F23FC18202301930C23FB1800932C
:103A80000023002200210020104DA84703002370CE
:103A90002F23FB181B78002B10D10C23F9187B68FF
:103AA000042218000A4B98477B68181D0C23FB184A
:103AB000083305221900064B984700E0C0462F2323
:103AC000FB181B781800BD460CB0B0BD653C00006B
:103AD0001B9D0000B0B584B000AF05000C001000C5
:103AE0001900FB1D2A1C1A703B1D221C1A80BB1DCD
:103AF000021C1A70FB1C0A1C1A700F23FB180022F0
:103B00001A700E23FB18FA1D127803210A401A704E
:103B10003B6A002B01D1E22352E00E23FB181B78F5
:103B2000002B0BD00E23FB181B78022B06D00E2384
:103B3000FB181B78012B01D0E22341E03B6A0022F5
:103B40001A80FB1CFA1C127807210A401A700E23F7
:103B5000FB181B78002B04D00E23FB181B78012BBD
:103B600010D1BB1D1B789BB2DB009AB23B6A1A8056
:103B70003B6A1A88FB1C1B789BB213439AB23B6AC0
:103B80001A801AE03B1D1B88DB009AB23B6A1A8040
:103B90003B6A1A88FB1C1B789BB213439AB23B6AA0
:103BA0001A803B6A1B881AB2BB1D1B781B021BB212
:103BB00013431BB29AB23B6A1A800F23FB181B787F
:103BC0001800BD4604B0B0BDB0B586B002AF02006B
:103BD0003960FB1D1A700F23FB18E1221A703B6835
:103BE000002B01D1E22337E00F23FC1804230193BB
:103BF0000823FB1800930523022200210020184D02
:103C0000A847030023700F23FB181B78002B1FD13C
:103C1000FB1D1B78002B02D0012B0AD013E00823D8
:103C2000FB18DB78553B5A1E9341DAB23B681A7099
:103C30000FE00823FB189B78553B5A1E9341DAB2DC
:103C40003B681A7005E00F23FB18E2221A7000E0AF
:103C5000C0460F23FB181B781800BD4604B0B0BD4A
:103C6000653C0000B0B5AAB002AF05000C00100022
:103C70001900FB1D2A1C1A703B1D221C1A80BB1D3B
:103C8000021C1A70FB1C0A1C1A709F23FB180022CE
:103C90001A709C23FB1800221A80B023FB181B68A3
:103CA000002B01D1E223D2E0B423FB181B78042BB4
:103CB00006D0B423FB181B78202B01D0E223C6E0EA
:103CC0009F23FC18FB1C1D78BB1D1A783B1D19880F
:103CD000FB1D18780E23FB1800932B005E4DA847A0
:103CE000030023709F23FB181B78002B00D09EE05D
:103CF000B423FB181B78202B06D1FB1DFA1D12786C
:103D0000802149420A431A701023FB18FA1D1278C9
:103D1000DA700E23FB181A881023FB189A804F4B79
:103D20001B689F22BC181022BA18110018004C4BB7
:103D30009847030023709F23FB181B78002B00D0AB
:103D400077E0464B1B689C22BC180F211800454B9E
:103D50009847030023809F23FC18434B9847030098
:103D600023709F23FB181B78002B64D13F4B1868EE
:103D70001023FB185B781A009F23FC181023FB18F4
:103D800019003B4B9847030023709F23FB181B78B7
:103D9000002B52D19C23FB181B881800354B9847E9
:103DA000324B18689F23FC181023FB188A331A0023
:103DB0001023FB18063319002F4B9847030023707C
:103DC0009F23FB181B78002B39D11023FB188A2264
:103DD0009B5A032B0FD81023FB188A229B5A002BC7
:103DE00004D09F23FB18E6221A702BE09F23FB18B8
:103DF000E7221A7026E09F23FC181023FB180633D5
:103E000018001E4B9847030023709F23FB181B7854
:103E1000002B16D1B423FB181A781023FB18D91DD8
:103E2000B023FB181B681800154B98470AE0C046E2
:103E300008E0C04606E0C04604E0C04602E0C046D6
:103E400000E0C0460F4B98479F23FB181B781800D3
:103E5000BD4628B0B0BDC046D53A00002C020020B7
:103E6000D12B0000BD2C0000CD320000300200201C
:103E7000A1300000C9560000C33000007D2E0000B4
:103E80001B9D00005D33000090B5A7B000AF3A6005
:103E9000FB1D021C1A703B1D0A1C1A809723FB187D
:103EA000E1221A709423FB1800221A803B68002B31
:103EB00001D1E223A8E0564B1B68002B01D1E1237E
:103EC000A2E00823FB18FA1D1278DA700823FB1809
:103ED0003A1D12889A804F4B1B689722BC18082203
:103EE000BA18110018004C4B984703002370972311
:103EF000FB181B78002B00D078E0464B1B689422FF
:103F0000BC1811211800454B984703002380444BEF
:103F1000984703001A009723FB181B78934267D138
:103F2000404B18680823FB185B781A009723FC188D
:103F30000823FB1819003C4B984703002370972374
:103F4000FB181B78002B55D19423FB181B881800F5
:103F5000364B9847334B18689723FC180823FB18F7
:103F60008A331A000823FB1806331900304B984790
:103F7000030023709723FB181B78002B3CD10823E8
:103F8000FB188A229B5A032B0FD80823FB188A227E
:103F90009B5A002B04D09723FB18E6221A702EE0C0
:103FA0009723FB18E7221A7029E09723FC180823AF
:103FB000FB18063318001F4B984703002370972304
:103FC000FB181B78002B19D10823FB189B79042BB5
:103FD00015D90823FB189B79033B1A000823FB180B
:103FE000D91D3B681800144B984708E0C04606E00E
:103FF000C04604E0C04602E0C04600E0C0460F4BA9
:1040000098479723FB181B781800BD4627B090BD32
:10401000280200202C020020192C0000BD2C0000DA
:10402000CD32000030020020A1300000C95600004F
:10403000C33000007D2E00001B9D00005D3300009A
:1040400090B587B000AFB9607A600E23FB18021CF0
:104050001A801723FB18E1221A701723FC1800207E
:10406000164B9847030023701723FB181B78002B6F
:1040700019D11723FC18BB681800114B984703008F
:1040800023701723FB181B78002B0ED11723FC1865
:104090007A680E23FB181B8819008020094B98476B
:1040A0000300237002E0C04600E0C0461723FB185F
:1040B0001B781800BD4607B090BDC04615350000FE
:1040C000D9380000893E000090B583B000AF0200EF
:1040D0003960BB1D1A803A68BB1D19881300002285
:1040E0000020034CA04703001800BD4603B090BD5C
:1040F000D5360000B0B58EB002AF02003960BB1DEE
:104100001A802F23FB18E1221A702E23FB1800229D
:104110001A702D23FB1800221A702C23FB18002282
:104120001A702B23FB1800221A702A23FB18002276
:104130001A703B68002B01D1E223F4E0BB1D1B8801
:10414000072B03D9BB1D1B880F2B01D9E223EAE003
:104150002E23FB1800221A702F23FC182D23FB1886
:1041600018782E23FB181A78BB1D19882023019379
:104170000823FB180093030002206D4DA84703009D
:1041800023702F23FB181B78002B00D0C3E02B23B8
:10419000FB181C221A702A23FB1804221A702C23E5
:1041A000FB181B783A68D0182A23FB181B780822C2
:1041B000BA18D1182B23FB181B781A005D4B9847AF
:1041C0002C23FB182C22B9182B22BA180978127844
:1041D0008A181A702E23FB1801221A702F23FC183C
:1041E0002D23FB1818782E23FB181A78BB1D19886D
:1041F000202301930823FB180093030002204C4D59
:10420000A847030023702F23FB181B78002B00D036
:1042100083E02B23FB1804221A702A23FB180022A8
:104220001A702C23FB181B783A68D0182A23FB1825
:104230001B780822BA18D1182B23FB181B781A00F8
:104240003C4B98472C23FB182C22B9182B22BA1868
:10425000097812788A181A702A23FB1808221A7013
:104260002B23FB182A22BA18127820218A1A1A70D6
:104270002C23FB181B783A68D0182A23FB181B78CC
:104280000822BA18D1182B23FB181B781A00294BC7
:1042900098472C23FB182C22B9182B22BA1809781E
:1042A00012788A181A702E23FB1802221A702F23F4
:1042B000FC182D23FB1818782E23FB181A78BB1D29
:1042C0001988202301930823FB1800930300022080
:1042D000174DA847030023702F23FB181B78002BD2
:1042E0001DD12B23FB1808221A702A23FB18002249
:1042F0001A702C23FB181B783A68D0182A23FB1855
:104300001B780822BA18D1182B23FB181B781A0027
:10431000084B984704E0C04602E0C04600E0C046B3
:104320002F23FB181B781800BD460CB0B0BDC0464B
:10433000653C00001B9D000080B582B000AF786036
:104340007B681800034B984700231800BD4602B055
:1043500080BDC046494A000080B584B000AFF86017
:10436000B9607A607A68B968FB681800034B9847AF
:1043700000231800BD4604B080BDC046914A00002D
:1043800080B582B000AF786039603A687B68110010
:104390001800034B984700231800BD4602B080BDAB
:1043A000554B000080B5B6B000AFF860B9607A60D8
:1043B0001423FB1818001E4B98470300D422BA1888
:1043C0001360D423FB181B68002B03D0D423FB18E5
:1043D0001B6828E0BA68F9681423FB181800154B0D
:1043E00098470300D422BA181360D423FB181B6823
:1043F000002B03D0D423FB181B6814E07A68142325
:10440000FB18110018000C4B98470300D422BA186F
:104410001360D423FB181B68002B03D0D423FB1894
:104420001B6800E000231800BD4636B080BDC046C2
:1044300039430000594300008143000080B5D8B0E3
:1044400000AFF860B9607A600023AE225200BA185B
:1044500013600023AC225200BA1813600023AC2270
:104460005200BA181360DDE2AC235B00FB181B6836
:104470009B01BA68D318A8225200BA18136000230F
:10448000AE225200BA18136063E0AE235B00FB1843
:104490001B680333AE225200BA181268A8214900E3
:1044A000791809688A181178924AB0204000844629
:1044B000BC446244D154AE235B00FB181B6802333A
:1044C000AE225200BA1812680132A82149007918A8
:1044D00009688A181178874AB02040008446BC4495
:1044E0006244D154AE235B00FB181B680133AE223B
:1044F0005200BA1812680232A821490079180968D6
:104500008A1811787B4AB02040008446BC4462443B
:10451000D154AE235B00FB181B680333A822520062
:10452000BA181268D3181978724BB0225200BA1810
:10453000D218AE235B00FB181B68D3180A1C1A7034
:10454000AE235B00FB181B680433AE225200BA187E
:104550001360AE235B00FB181B683F2B95DD102317
:10456000AA225200BA1813608DE0AA235B00FB1840
:104570001B680F3B1A005F4BB02149008C46BC44BE
:1045800063449200D358A6225200BA181360A6239F
:104590005B00FB181B680722D3411A00A6235B00AF
:1045A000FB181B681221CB415A40A6235B00FB1865
:1045B0001B68DB085340A4225200BA181360AA23D8
:1045C0005B00FB181B689A1E4A4BB02149008C46C1
:1045D000BC4463449200D358A6225200BA18136018
:1045E000A6235B00FB181B681122D3411A00A623E7
:1045F0005B00FB181B681321CB415A40A6235B00CC
:10460000FB181B689B0A5340A2225200BA18136081
:10461000AA235B00FB181B68103B1A00354BB02126
:1046200049008C46BC4463449200D258A4235B00EA
:10463000FB181B68D218AA235B00FB181B68D91F44
:104640002C4BB02040008446BC4463448900CB58C6
:10465000D218A2235B00FB181B68D118254BB0228F
:1046600052009446BC446344AA225200BA1812680D
:104670009200D150AA235B00FB181B680133AA22C9
:104680005200BA181360AA235B00FB181B683F2B6B
:1046900000D86AE70023AE225200BA1813601CE06B
:1046A000FB68AE225200BA18126822329200D1582A
:1046B000114BB02252009446BC446344AE225200D7
:1046C000BA1812689200D150AE235B00FB181B6829
:1046D0000133AE225200BA181360AE235B00FB1800
:1046E0001B68072BDCDD0023AE225200BA181360D2
:1046F00056E1C046D4FEFFFFB4FEFFFFCF4BB02211
:1047000052009446BC4463441B680222D3411A0001
:10471000CA4BB02149008C46BC4463441B680D2140
:10472000CB415A40C54BB02149008C46BC44634440
:104730001B681621CB415340A4225200BA181360C3
:10474000BE4BB02252009446BC4463441A68BB4B33
:10475000B02149008C46BC4463445B681A40B74BA7
:10476000B02149008C46BC4463441968B34BB02067
:1047700040008446BC4463449B680B405A40AF4BA6
:10478000B02149008C46BC4463445968AB4BB0200F
:1047900040008446BC4463449B680B405340A022C5
:1047A0005200BA181360A4235B00FB181A68A023F8
:1047B0005B00FB181B68D3189E225200BA181360C6
:1047C0009E4BB02252009446BC4463441B690622AF
:1047D000D3411A00994BB02149008C46BC44634434
:1047E0001B690B21CB415A40944BB02149008C46A8
:1047F000BC4463441B691921CB415340A22252009F
:10480000BA1813608D4BB02252009446BC446344E6
:104810001A698A4BB02149008C46BC4463445B69E9
:104820001A40864BB02149008C46BC4463441B6946
:10483000D943824BB02040008446BC4463449B690A
:104840000B4053409C225200BA1813607B4BB0229D
:1048500052009446BC446344DA69A2235B00FB180F
:104860001B68D2189C235B00FB181B68D218744B82
:10487000AE214900791809688900CB58D218714BCC
:10488000B02149008C46BC446344AE2149007918EC
:1048900009688900CB58D3189A225200BA181360BD
:1048A000664BB02252009446BC4463449A69634B01
:1048B000B02149008C46BC446344DA615F4BB022AE
:1048C00052009446BC4463445A695C4BB021490091
:1048D0008C46BC4463449A61584BB02252009446C3
:1048E000BC4463441A69554BB02149008C46BC4412
:1048F00063445A61514BB02252009446BC44634415
:10490000DA689A235B00FB181B68D2184B4BB02166
:1049100049008C46BC4463441A61484BB0225200A3
:104920009446BC4463449A68444BB02149008C4689
:10493000BC446344DA60414BB02252009446BC440C
:1049400063445A683D4BB02149008C46BC446344E3
:104950009A603A4BB02252009446BC4463441A68B1
:10496000364BB02149008C46BC4463445A609A23BC
:104970005B00FB181A689E235B00FB181B68D218AB
:104980002E4BB02149008C46BC4463441A60AE23D0
:104990005B00FB181B680133AE225200BA1813608B
:1049A000AE235B00FB181B683F2B00DCA6E6002350
:1049B000AE225200BA18136025E0FB68AE22520006
:1049C000BA18126822329200D2581C4BB02149000A
:1049D0008C46BC446344AE214900791809688900BB
:1049E000CB58D118FB68AE225200BA181268223296
:1049F0009200D150AE235B00FB181B680133AE223E
:104A00005200BA181360AE235B00FB181B68072B1B
:104A1000D3DDAC235B00FB181B680133AC225200D2
:104A2000BA181360AC235B00FB181A687B689A42C3
:104A300000D219E5C046BD4658B080BDB4FEFFFFA8
:104A400060B10000D4FEFFFF80B584B000AF786095
:104A50007B68A822002118000B4B98470023FB60BD
:104A60000BE00A4BFA689200D1587B68FA68223250
:104A70009200D150FB680133FB60FB68072BF0DD2F
:104A8000C046BD4604B080BD2D9D000060B2000050
:104A900080B588B000AFF860B9607A60FB685B6889
:104AA0004022D31AFB61FA697B68934200D9130054
:104AB000BB61FB685B680833FA68D318BA69B968E8
:104AC0001800224B9847FB685A687B68D3183F2B25
:104AD00006D8FB685A687B68D218FB685A6031E0D8
:104AE000FB6808331900FB6801221800184B98472F
:104AF0007A68BB69D31A7B607B689B097B61BA6863
:104B0000BB69D1187A69FB681800114B9847FB689C
:104B10001A687B6901339B01D218FB681A607B68B5
:104B20003F221A40FB685A60FB68083318007B6913
:104B30009A01BB69D318BA68D118FB685B681A0080
:104B4000024B9847BD4608B080BDC0461B9D000083
:104B50003D44000080B586B000AF786039607B6866
:104B60001A687B685B68D2187B681A607B681B6870
:104B7000DB00FB607B685B6809225242D31A3F224C
:104B80001340BB607B685B68591C7A6851607A6827
:104B9000D31880221A727B685B6808337A68D01851
:104BA000BB6804331A000021374B98477B685A686A
:104BB000BB68D3181A1D7B685A607B685B68591CF8
:104BC0007A685160FA68120ED1B27A68D3180A1C5A
:104BD0001A727B685B68591C7A685160FA68120C1B
:104BE000D1B27A68D3180A1C1A727B685B68591CA8
:104BF0007A685160FA68120AD1B27A68D3180A1C2E
:104C00001A727B685B68591C7A685160FA68D1B285
:104C10007A68D3180A1C1A727B68083319007B68FB
:104C20005B689A097B681800184B984700237B61E2
:104C300023E003233B611AE07B699A003B69D318A8
:104C40003A68D3187A687969223189008A58D2B2D1
:104C50001A703B69013B3B617B687A6922329200A2
:104C6000D358190A7B687A6922329200D1503B6985
:104C7000002BE1DA7B6901337B617B69072BD8DD8F
:104C8000C046BD4606B080BD2D9D00003D440000DD
:104C900080B584B000AF786039600F23FB18F02234
:104CA0001A707B681B78052B24D89A00164BD318F2
:104CB0001B689F463B68154A1A603B68144A5A6055
:104CC0003B68144ADA603B68134A9A603B68134AAF
:104CD0009A613B68124A1A613B68124A5A613B6802
:104CE000114ADA613B6800221A620F23FB18002286
:104CF0001A7002E0C04600E0C0460F23FB181B7884
:104D00001800BD4604B080BD80B20000794F00009D
:104D10003D510000F551000051510000BD5500000B
:104D2000E55300002D5500004D56000090B585B0AC
:104D300000AF02003960FB1D1A700F23FB18E1223F
:104D40001A70FB1D1B78052B0DD89A000B4BD3183E
:104D50001B689F460F23FC183B681800084B9847B8
:104D60000300237002E0C04600E0C0460F23FB189A
:104D70001B781800BD4605B090BDC04698B2000033
:104D80004D56000080B582B000AF0200FB1D1A70C6
:104D9000064BFA1D127811001F220A400121914092
:104DA0000A001A60C046BD4602B080BD00E100E0C6
:104DB00080B582B000AF0200FB1D1A70074AFB1DD0
:104DC0001B7819001F230B40012199400B0019008B
:104DD0008023D150C046BD4602B080BD00E100E056
:104DE00080B584B000AF78607B681B68FB60FB68AF
:104DF000DB69072213405A1E9341DBB21800BD46FF
:104E000004B080BD80B582B000AF7860C0467B68DA
:104E10001800044B9847031EF9D1C046BD4602B0A6
:104E200080BDC046E14D000080B582B000AF786023
:104E30007B6864221A607B681B4A5A607B68002288
:104E40009A607B6800221A737B6800221A767B685E
:104E5000802292031A617B6801225242DA827B68C7
:104E6000012252429A827B680022DA617B6800222A
:104E70001A627B682422002199547B6800229A627E
:104E80007B682C22002199547B682D2200219954A3
:104E90007B682E22002199547B68D7221A86C0464F
:104EA000BD4602B080BDC046480D000080B584B04C
:104EB00000AF78607B681B68BB600023FB607B6889
:104EC0001800144B9847BB681B6802221A43BB6842
:104ED0001A607B681B6818000F4B98470300180086
:104EE0000E4B98470CE0FB680133FB607B68DB8866
:104EF0001A00FB689A4203D8BB6810225A8306E066
:104F0000BB685B8B9BB21A0010231340EBD0BD46ED
:104F100004B080BD054E000065690000854D0000AD
:104F200080B584B000AF78607B681B68FB607B68ED
:104F30001B6818000D4B9847030018000C4B98474E
:104F40007B6818000B4B9847FB6883221A75FB6837
:104F500083221A76FB681B68022293431A00FB68BF
:104F60001A60C046BD4604B080BDC04665690000F9
:104F7000B14D0000054E000080B586B000AF7860EE
:104F800039603B685B793B617B68FB605B4B1B680E
:104F9000002B0DD100237B6107E0594B7A69920009
:104FA0000021D1507B6901337B617B69052BF4DDE6
:104FB000524B1B685A1C514B1A603B69002B00DA9C
:104FC00096E03B69052B00DD92E04D4B3A6992007B
:104FD000D358002B00D07CE030204A4B9847030088
:104FE0001900474B3A699200D150454B3A699200FB
:104FF000D35801229A62444B1800444B9847424BC5
:10500000434ADA61404B434A1A623B689868424B14
:10501000FA229100984703001A003B4B1A603B6943
:10502000052B48D83B699A003C4BD3181B689F4618
:10503000334B3A699200D3581800334A8423DB0576
:105040001900374B984736E02D4B3A699200D358F8
:1050500018002D4B33491A00314B98472BE0284B51
:105060003A699200D3581800274B2F491A002C4B4D
:10507000984720E0224B3A699200D3581800224BFF
:105080002A491A00264B984715E01D4B3A699200B1
:10509000D35818001C4B26491A00214B98470AE0A8
:1050A000174B3A699200D3581800174B21491A0040
:1050B0001B4B9847C046124B3A699200D3583A6945
:1050C000DA620F4B3A699200D35818001A4B98478E
:1050D00006E00B4B3A699200D3589A6A01329A6201
:1050E000074B3A699200D258FB681A62002300E02D
:1050F000F0231800BD4606B080BDC0463402002033
:1051000078030020D59C000038020020294E0000C2
:10511000020010000200110059820000F0B20000ED
:105120000D1200000004004200080042000C004282
:105130000010004200040043AD4E000080B582B074
:1051400000AF786000231800BD4602B080BD0000AB
:1051500080B58AB000AFF860B9607A60FB6818006B
:10516000214B984703007B627B6A5B793B627B6AD9
:105170001B795B08DBB29AB21423FB181A807B6898
:105180009AB21423FB185A801423FB18BA685A6089
:105190001423FB1800221A721423FB1800225A72DF
:1051A0001423FB1800229A72BB6803221A707B68D2
:1051B00001337B607B689AB21423FB185A800B4B37
:1051C0003A6A9200D3581A001423FB1819001000F1
:1051D000074B9847031E01D0F02300E0002318007E
:1051E000BD460AB080BDC04669310000780300208A
:1051F0000919000080B58CB000AFF860B9607A6022
:10520000FB681800294B984703007B627B6A5B7937
:105210003B627B6A9B6AFB620123BB627B6A1B79F0
:105220005B08DBB29AB21423FB181A807B681A88D9
:105230001423FB185A801423FB18BA685A601423ED
:10524000FB1800221A721423FB1800225A7214232E
:10525000FB1800229A720CE0154B3A6A9200D35860
:105260001A001423FB1819001000124B9847030072
:10527000BB62FB6A5A1EFA62002B02DDBB6A002B7E
:10528000EAD1BB6A002B01D0F0230AE01423FB18FB
:105290005B681800084B9847031E01D0F02300E01C
:1052A00000231800BD460CB080BDC0466931000027
:1052B0007803002051170000FD2D000080B584B058
:1052C00000AF786039607B681800384B984703005E
:1052D000FB60FB685B79BB60354B364ADA82386825
:1052E000354BFA229100984703001A00304B1A60A0
:1052F000324BBA689200D3581800314B9847BB68BC
:10530000052B48D8BB689A002E4BD3181B689F46C4
:105310002A4BBA689200D3581800254A8423DB052B
:105320001900294B984736E0244BBA689200D358AD
:1053300018001F4B25491A00234B98472BE01F4BA1
:10534000BA689200D3581800194B21491A001E4B15
:10535000984720E0194BBA689200D3581800144BB4
:105360001C491A00184B984715E0144BBA68920074
:10537000D35818000E4B18491A00134B98470AE0EF
:105380000E4BBA689200D3581800094B13491A0003
:105390000D4B9847C046094BBA689200D358180085
:1053A0000F4B9847C046BD4604B080BD6931000030
:1053B00038020020102700005982000078030020E6
:1053C000214F000008B300000D120000000400424D
:1053D00000080042000C004200100042000400439C
:1053E000AD4E000080B58CB000AF78607B681800CF
:1053F000454B984703007B627B6A5B793B627B6A23
:105400009B6AFB627B6A9B68FB610123BB6214237E
:10541000FB183E4A12681A60FB693D4A934205D068
:105420003B4A7B68110018003A4B98470823FB1849
:1054300000221A800823FB1800225A800823FB1838
:105440001822BA185A600823FB1800221A7208237F
:10545000FB1800225A720823FB1800229A722E4B66
:105460003A6A9200D3581A000823FB18190010005A
:105470002A4B984701202A4B98477B6A1B795B0887
:10548000DBB29AB20823FB181A800823FB18042207
:105490005A800823FB181822BA185A600CE01E4BD9
:1054A0003A6A9200D3581A000823FB18190010001A
:1054B0001C4B98470300BB62FB6A5A1EFA62002B22
:1054C00002DDBB6A002BEAD1FB69114A934205D089
:1054D000FA697B68110018000E4B9847BB6A002BD5
:1054E00001D0F0230CE01423F9181823FB18042230
:1054F00018000D4B9847031E01D1002300E0F02354
:105500001800BD460CB080BD69310000ECB200004F
:10551000A0860100BD520000780300200919000098
:10552000C956000051170000FD9C000080B588B0EE
:1055300000AF78607B6818001D4B98470300FB6143
:10554000FB695B79BB61FB691B795B08DBB29AB2D3
:105550000823FB181A800823FB1801225A8008230D
:10556000FB181422BA185A600823FB1800221A727A
:105570000823FB1800225A720823FB1800229A7293
:105580001423FB1802221A700A4BBA699200D358EE
:105590001A000823FB1819001000074B9847031E38
:1055A00001D0F02300E000231800BD4608B080BD04
:1055B00069310000780300200919000080B588B027
:1055C00000AF78607B6818001D4B98470300FB61B3
:1055D000FB695B79BB61FB691B795B08DBB29AB243
:1055E0000823FB181A800823FB1801225A8008237D
:1055F000FB181422BA185A600823FB1800221A72EA
:105600000823FB1800225A720823FB1800229A7202
:105610001423FB1801221A700A4BBA699200D3585E
:105620001A000823FB1819001000074B9847031EA7
:1056300001D0F02300E000231800BD4608B080BD73
:1056400069310000780300200919000080B584B09A
:1056500000AF78607B68FB60174B1B685A1E164BC7
:105660001A60FB68002B21D0FB689B6A5A1EFB68FE
:105670009A62FB689B6A002B18DCFB68DA6A0F4BA6
:105680009200D358002B11D0FB6818000C4B9847A0
:10569000FB68DA6A094B9200D3581800094B984707
:1056A000FB68DA6A054B92000021D15000231800F4
:1056B000BD4604B080BDC0463402002078030020FF
:1056C00065130000E99C000080B582B000AF7860EF
:1056D0007B68002B04D07B681800054B984702E0DC
:1056E0000120044B9847C046BD4602B080BDC0466D
:1056F000F90B0000C90B000080B500AF0020024B81
:105700009847C046BD4680BD3557000080B500AF04
:105710000120024B9847C046BD4680BD355700006A
:1057200080B500AF0220024B9847C046BD4680BD01
:105730003557000080B586B000AF0200FB1D1A701F
:10574000FB1D1A78184B9200D3583B613B691B68CC
:10575000DA6A3B695B6B1A403B699B6B1340FB60E9
:1057600000237B6119E0114B7A699200D358FA68E3
:1057700013400FD03A697B699B00D31804331B6830
:105780003A69100098473B691B68084A79698900A3
:105790008A58DA627B6901337B617B690B2BE2DD1E
:1057A000C046BD4606B080BD9003002020B3000077
:1057B00080B582B000AF78607B6800221A70C04666
:1057C000BD4602B080BD000080B582B000AF0200CF
:1057D0003960FB1D1A70FB1D1B78042B27D89A001B
:1057E000164BD3181B689F46154B154A51693A68EA
:1057F0000A435A611DE0124B114A91693A680A4303
:105800009A6116E00E4B0E4AD1693A680A43DA6192
:105810000FE00B4B0A4A116A3A680A431A6208E021
:10582000074B074A516A3A680A435A6201E0172354
:1058300000E000231800BD4602B080BD50B3000058
:105840000004004080B582B000AF78607B688022A1
:105850001A707B6800225A707B6801229A707B68FC
:105860000022DA70C046BD4602B080BD80B500AFF0
:10587000054B9B78DBB21A00022313405A1E93415A
:10588000DBB21800BD4680BD0020004180B584B069
:1058900000AF78607B681B68FB60FB68DB695A1EA1
:1058A0009341DBB21800BD4604B080BD80B582B024
:1058B00000AF7860C0467B681800044B9847031E11
:1058C000F9D1C046BD4602B080BDC0468D5800002B
:1058D000B0B58CB002AF786039607B681B68BB6183
:1058E0007B681B681800AB4B984703007B617B69A2
:1058F00012333B6100237B6200233B620A23FB18C7
:1059000000221A801F23FB1800221A701E23FB1886
:1059100010221A703B681B8A8022D20193421CD04D
:105920008022D201934206DC002B0DD0802292010E
:10593000934224D035E0C022D201934228D0802265
:105940001202934212D02CE01F23FB1800221A707F
:105950001E23FB1810221A7023E01F23FB180022BD
:105960001A701E23FB1808221A701AE01F23FB1856
:1059700000221A701E23FB1803221A7011E01F2345
:10598000FB1801221A701E23FB1810221A7008E05F
:105990001F23FB1801221A701E23FB1808221A70FD
:1059A000C0463B681A683B68DB681A433B685B6922
:1059B00013433A68128A13433A68127E1202134361
:1059C0003A682621525C520713437B621D23FB1861
:1059D00000221A703B685B68FB60FB68002B1ED0DE
:1059E0008022520593424FD13B6827229B5C0122C3
:1059F0005340DBB2002B46D03B681D6A3B69DBB2EB
:105A00001800654B984701001D23FC180A23FB185A
:105A10001A002800614B98470300237033E03B686D
:105A200027229B5C002B14D03B68186A3B68996A5C
:105A30001D23FC181F23FB181D780A23FA181E23A8
:105A4000FB181B7800932B00554DA84703002370CB
:105A50001AE03B681D6A3B69DBB218004E4B984761
:105A60001D23FC181F23FB1819780A23FA181E237C
:105A7000FB181B7800930B0001002800484DA84735
:105A80000300237000E0C0461D23FB181B78002B89
:105A900003D01D23FB181B7877E03B685B7E002B4F
:105AA00003D03B689A7EBB699A737B6818003D4BB4
:105AB00098470A23FB181A88BB699A817A6AFB689F
:105AC00013437B623B6827229B5C01225340DBB27D
:105AD000002B03D07B6A042213437B623B685B7E0E
