S0160000415050535F57534E5F44454D4F392E73726563C6
S1130000F037002019A3000015A3000015A3000079
S113001000000000000000000000000000000000DC
S113002000000000000000000000000015A3000014
S1130030000000000000000015A3000015A300004C
S113004015A3000015A3000015A3000021810000E2
S113005015A3000015A3000015A3000015A30000BC
S1130060558F0000658F0000758F0000858F00009C
S1130070958F0000A58F000015A3000015A30000B4
S113008015A30000F5A1000055A200000000000027
S113009000000000B5A2000015A3000015A3000095
S11300A00000000015A30000000000000000000094
S11300B00000000010B5064C2378002B07D1054B37
S11300C0002B02D0044800E000BF0123237010BDC0
S11300D0700200200000000098F90000084B10B5E1
S11300E0002B03D00749084800E000BF0748036815
S11300F0002B00D110BD064B002BFBD09847F9E72D
S1130100000000007402002098F9000098F9000033
S11301100000000010B5034B1B68002B00D098476B
S113012010BDC0468C02002000221F4B30B51A605F
S1130130012383B001AC1D4D21000D206370A2701A
S11301402370A84721001720A84721001C20A84796
S11301508022174B12045A61802264249201154DA7
S11301605A610120013CA847002CFAD18022104B8F
S113017012049A610A340120013CA847002CFAD1E8
S113018080220B4B92019A610A340120013CA8475A
S1130190002CFAD10122084B1A70BFF35F8F62B6AC
S11301A0002003B030BDC0468C020020AD820000A8
S11301B0002800403D7F0000A00100208022114B58
S11301C0120470B55A618022642492010E4D5A6162
S11301D00120013CA847002CFAD18022094B1204CB
S11301E09A610A340120013CA847002CFAD18022EC
S11301F0044B92019A610A340120013CA847002C67
S1130200FAD170BD002800403D7F000070B5441E47
S1130210002804D0024D0120A847013CFBD270BD48
S11302203D7F000000B5104B85B0186068460F4B49
S1130230984716220023009201936A460123137201
S11302400023537293720233D37269460620084B1B
S1130250984700220621074B074898470021074B7F
S11302600620984705B000BD8C020020F1810000F3
S113027005820000B180000015010000D980000053
S113028010B50021002803D10620034B984710BD68
S1130290024B06209847FAE7FD800000D980000051
S11302A0232370B52C4E8EB00025337001246B4689
S11302B023205C709D701C706946284B7570B57066
S11302C0984730784209C30940D11F2101402000DA
S11302D0884001002248D2018446624491616A4602
S11302E069461470137453749474D474137524226B
S11302F001938B540293183A00211A4B06A898478D
S113030080235B020393184B184C0A9301235B422E
S11303100B93174B6A460C93164B17490D93174BC7
S113032020000693164B9847002811D12268D36900
S1130330002BFCD1022113680B431360114B984727
S11303400120114B984700200EB070BDAD61FFDE57
S113035006204042F8E7C04670140020AD82000039
S11303600028004029CB0000030022007414002060
S11303700300360003003700000400438096980011
S1130380B58F0000BD0100000D020000F0B5DE468F
S113039057464E464546E0B585B003286BD100224A
S11303A00B890F68019302AB07334D681A70002F55
S11303B05BD0002D56D10132934600221D00924697
S11303C0344B354E19009946344B0122300098467F
S11303D09847019B002B31D05846434258418346ED
S11303E050464342584101210422824638783368FA
S11303F01C7E2142FCD01C7E2142FCD09862187ED7
S11304000242FCD0B0791C7E2242FCD05C8B22429A
S113041007D05A839C6A1C7E2242F4D05C8B224211
S1130420F7D19B6A01281AD0DBB2019C2B70013CE6
S1130430A3B201935D445744002BD7D10222316803
S11304400B7E1A42FCD0002249463000C0470020EF
S113045005B03CBC90469946A246AB46F0BDDB05D0
S1130460DB0DE2E706204042F2E700229346013228
S113047092461F00A4E70E220949FF32094B0A489D
S113048098470A4B0A4898470D200A4B9847012081
S11304904042DDE77014002074140020E193000052
S11304A00CE0000089CC00001CE00000A5CD000099
S11304B030E00000BDCC0000064B1A68D369002B65
S11304C0FCD102218F3313751376136800208B43FC
S11304D01360704774140020F0B5002A2ED0002356
S11304E01D00041DA1425D412C000D1DA8425B416D
S11304F0234309249442A44164421C421FD00300B4
S11305000B439B071BD100240025131F9B080133B9
S11305109E000F59013507510434AB42F9D88019B4
S11305208919931BB24209D00A780270012B05D0B5
S11305304A784270022B01D08B788370F0BD821808
S11305400B780131037001309042F9D1F6E7C046CF
S113055010B5002A01D0014B984710BD29CB0000EB
S1130560027803000020002A05D001331A780130F4
S113057080B2002AF9D17047024AD3780133DBB242
S1130580D3707047801400207047C04610B5064CE5
S1130590282200212000054B98470548054B984721
S11305A0054B0020E36110BD8014002051050000BC
S11305B0790500002502000089050000F0B5DE463B
S11305C057464E464546E0B58BB0019314AB0292B4
S11305D004CB06AC1B8891469A4616AB1B8883460F
S11305E01A0003937F230B406370082320706380F9
S11305F04B460D00002B00D17CE0944663885344A5
S113060063449BB26380854FBB78002B2AD00023C0
S113061004AA961D5A46089333800793079B2D021C
S11306201A430792079B7E481D4307956388079AE0
S11306301B04134307937B4B07999B4698478046BB
S113064000281BD07B78002B07D140460BB03CBC64
S113065090469946A246AB46F0BD7B78013BDBB29F
S11306607B70F2E77B78002B03D13B78002B00D022
S1130670A2E07B780133DBB27B70C8E702220790EB
S1130680079B6948134307930799D8478046002876
S1130690D8D1089030803288644B9A4231D8644B68
S11306A098460FE00120634B98470225079B1D40A5
S11306B000D194E0338801339BB2338032885B4BA2
S11306C09A421ED807A95848C047002819D1F423D4
S11306D03288FF339A42E8D9328801339A42E1D80A
S11306E0554B56489847564B56489847564B0D20FD
S11306F09847D7E7019A6388944663449BB2638022
S113070081E7089B002B72D0089B21000993638822
S113071008229BB2638009984C4CA047804600286D
S113072000D08FE7099B08330993029B002B0CD060
S1130730019D09982A001900A0478046002800D08E
S113074080E7AC46099B634409934B46002B10D0C9
S11307500199039B099A5B1A9B18099309985246BD
S11307604946A0478046002800D06BE7099B5344C4
S113077009930222089B36489B000793079B134367
S113078007930799D8478046002800D05AE77B781A
S1130790002B03D07B78013BDBB27B7000227B789B
S11307A09046002B00D050E73B78002B00D14CE75B
S11307B0284B9847804648E7274B984780460028AF
S11307C000D156E798222549FF321B4B244898470D
S11307D01B4B244898471C4B0D20984735E708A924
S11307E02148C047804600288BD008952AE77B78AB
S11307F0002B03D07B78013BDBB27B707B78002B32
S113080002D13B78002B03D103235B4298461CE7BB
S1130810104B984703235B42984616E78014002048
S11308208C100000E91A000078100000E7030000B3
S1130830DD1A00000D02000089CC00004CE300002A
S1130840A5CD000058E30000BDCC0000591B0000FA
S11308506C100000251700008917000064E00000F8
S11308601CE0000068E3000000041500F0B55746E2
S1130870DE464E464546E0B5BD4B87B09A46DB782A
S1130880002B00D19DE0BB4B03AF9946BA4B9B466E
S113089053465246DB78013BDBB2D37034E001258A
S11308A0029B2B4200D1E4E00020D8470299B348D0
S11308B0A943B34B02919847002838D153469D7001
S11308C0029B9E04360D00D1EAE0049004A9AD48D1
S11308D0C847041E31D0E422AB4B5200AB49180088
S11308E0AB4D9846A847AB48AB4B98470D20AB4E51
S11308F0B0470120D847AA4AAA494046A847210040
S1130900A948A8470D20B04702A99C48C847041E1F
S1130910C5D09D4BA54A9D4918009D4D9846A847B2
S11309209D4BA34898479D4E0D20B047E3E7964B57
S113093004009846964D994EDDE75346049A3900D3
S11309405A6004989E6004229A4B98477B8804005E
S11309509BB27B8000283CD17B889E4203D07B885D
S1130960F31A042B6CDC3B78012B62D03B78022B0E
S113097000D18EE03B78042B00D1A1E03B78062B1C
S113098000D1A4E03B78072B00D1B8E03B78052BDD
S113099000D0A3E053465B6A002B09D053465B6A40
S11309A078787988049A0839C0B2083289B29847AD
S11309B053469B78002B16D15346DB78002B00D08E
S11309C066E7002007B03CBC90469946A246AB4679
S11309D0F0BDE9226C4B52006C4918006C4D9846EE
S11309E0A847754880E7684B744A18006749684D02
S11309F09846A84739787A78C9B2D2B27048A847DD
S1130A000D20664EB0470023524601209370D8470C
S1130A1005A95A48C847041E00D06CE70221059B6B
S1130A2056481943564B059198470028C4D00400F2
S1130A3061E75346DB68002B68D05346DB68AFE7B9
S1130A40DC220624504BFF3250491800504D984682
S1130A50A8477A883B78797892B2DBB200915948FA
S1130A603100A8470D204D4EB0470120D8476442BD
S1130A7041E70C24444B544A18004449444D9846D9
S1130A80A84702995148A8470D20444EB0476442F4
S1130A9031E753461B69002B46D053461B697FE759
S1130AA00224394B4A4A39491800394D9846A84717
S1130AB0394B484898470D20384EB04764421AE7EE
S1130AC053465B69002B38D053465B6968E753464D
S1130AD01B6A002B3AD053461B6A61E78422062422
S1130AE0294B920029491800294D9846A8472A4BBA
S1130AF0394898470D20294EB0476442FBE65346D7
S1130B009B69002B2BD053469B6949E7E8221E4B77
S1130B10FF321E4918001E4DA84730481E4B984707
S1130B201E4E0D20B04743E7F022174BFF32174902
S1130B301800174DA8472A48F0E7F822124BFF3255
S1130B4012491800124DA8472648E7E780220E4BA9
S1130B5092000E4918000E4DA8472348DEE70A4BC1
S1130B60224A0A4918000A4DA8472148D6E7C04638
S1130B7080140020DD1A00008102000070100000C3
S1130B80E91A0000841000001CE0000070E000007E
S1130B9089CC0000A4E00000A5CD0000BDCC00007D
S1130BA04B02000078E0000064E200002E02000026
S1130BB040E20000F51A0000C8E000001602000040
S1130BC0E4E10000E0E000002502000024E200006F
S1130BD01D02000010E20000CCE1000020E1000052
S1130BE040E1000064E1000084E10000070200002D
S1130BF0A8E10000F0B5140083B01D0000281FD048
S1130C0000291DD0002A1BD0294EB3689A4244D82B
S1130C10736898422BD373688718B2689B189F42F5
S1130C2025D82200234B984700281ED17368B26848
S1130C309B189F4201D0002D17D00023B37004E00D
S1130C40002D22D000221A4B9A7001201A4B98478B
S1130C5001A91A481A4B9847002806D10221019B82
S1130C60164819430191174B984703B0F0BD164A33
S1130C7016491748174B98471748184B98470D20A3
S1130C80174B98470C204042EFE79B220F499200F4
S1130C900F48104B98471348EFE79D220B499200E9
S1130CA00C4D0B48A847B26821000F48A847E6E757
S1130CB080140020F51A000081020000701000006A
S1130CC0DD1A0000E91A00007A02000088E0000042
S1130CD01CE0000089CC0000FCE20000A5CD00006F
S1130CE0BDCC000094E20000B4E2000070B5040042
S1130CF007281FD8164A8300D3589F460020154B57
S1130D00996170BD134B0020D960FAE7114B0020A4
S1130D101961F6E70F4B0020D961F2E70D4B002073
S1130D205961EEE70B4B00205962EAE7094B0020BA
S1130D301962E6E7084A0949094D0A48A84721000B
S1130D400948A8470D20094B98470C204042D8E792
S1130D5044E0000080140020B202000094E000008F
S1130D6089CC00001CE0000040E30000BDCC000082
S1130D7030B514009DB0012812D006280ED12000F1
S1130D80002304226946164CA047002810D1154BB5
S1130D901B68002B02D06946063098471DB030BD51
S1130DA000237022694620000D4DA84700280BD06F
S1130DB06B220D490D4B0E4898470E4B0E48984731
S1130DC00E4B0D209847E9E7064B1B68002BE5D036
S1130DD00B4A70341460694601309847DEE7C04618
S1130DE0F50B00009002002084E3000089CC000091
S1130DF01CE00000A5CD0000A0E30000BDCC000075
S1130E0094020020702310B584B001920091020076
S1130E1002938221024C0520A04704B010BDC046B5
S1130E20BD050000F0B54746CE4680B53F4D0600EF
S1130E30286883B0894690461F0000280BD0002301
S1130E40022231003A4CA04700280BD00123002293
S1130E5000210020A0470C20404203B00CBC904667
S1130E609946F0BD69462B680222981C063100237E
S1130E702860A0470028E9D169462B680222981C03
S1130E80023100232860A0470028DFD12B6802220A
S1130E90981C01A900232860A0470028D6D12B68FC
S1130EA0981C338828601A021B0A134333806B464C
S1130EB0DB8840261A021B0A1A436B465B8892B2EF
S1130EC019021B0A0B4369464B808B88BA531902DB
S1130ED01B0A0B43694652008B8092B200233900EF
S1130EE0A0470028B2D12B68B85B9C466B464000F3
S1130EF060445A88494600232860A0470028A5D1A9
S1130F006B4658882B6841469C466B4660449A88D9
S1130F1000232860A047002800D097E72A686B4682
S1130F2094469B8863442B6097E7C0469402002054
S1130F30F50B000010B50A4B1C68002C0CD00A00FD
S1130F40002301002000074CA047002806D00123FD
S1130F50002200210020A0470C20404210BDC046C2
S1130F6094020020F50B00000022014B1A60704728
S1130F7094020020002310B586B0059002930193DB
S1130F80009305AA04330521024C0520A04706B0AE
S1130F9010BDC046BD05000000220C4B70B51860A2
S1130FA00B4B0C491A6005200B4B9847041E0BD0C1
S1130FB030220A49FF320A4D0A48A84721000A484C
S1130FC0A8470D20094B9847200070BD90020020CF
S1130FD094020020710D0000ED0C000090E300006D
S1130FE089CC00001CE00000C4E30000BDCC00007C
S1130FF030B504009DB015002C283FD01B284DD0DF
S113100006285BD00E2827D0322827D02F2865D079
S1131010342800D177E0112800D1A8E0132800D1AA
S1131020BEE0042800D1EAE0652800D18DE009285B
S113103000D1F6E02A2800D105E1202800D1C2E041
S113104092228A4952008A4D8A48A84721008A4838
S1131050A8470D20894B98471DB030BD00231422AA
S113106003A92800864CA0470028F5D1854B1B68AE
S1131070002BF1D003A932309847EDE70023042276
S113108003A928007E4CA0470028E5D17D4B1B68AE
S1131090002BE1D003A92C309847DDE70023082278
S11310A003A92800764CA0470028D5D1754B1B68AE
S11310B0002BD1D003A91B309847CDE7012333225D
S11310C003A928006E4CA0470028C5D16D4B1B68AE
S11310D0002BC1D003A906309847BDE76422002144
S11310E003A8694B98470023642203A92800644C91
S11310F0A0470028B0D1634B1B68002BACD003A9D8
S11311002F309847A8E70023042203A928005C4C49
S1131110A0470028A0D1564D5C48A847FF20039C57
S1131120230A220C034002402040210E009058481C
S1131130A847524B0D209847524B1B68002B00D1F7
S11311408AE700213420984786E70023042203A974
S113115028004B4CA047002800D07DE7494B1B6872
S1131160002B00D178E703A96530984774E7002283
S1131170484B03AC1A702800002304322100404D70
S1131180A847002800D067E7434B22781A703D4BEC
S11311901B68002B00D15FE72100113098475BE703
S11311A003AC280000232C222100354DA847002839
S11311B000D051E7334B1B68002B00D14CE72100D2
S11311C01330984748E70023082203A928002C4C31
S11311D0A047002800D03FE76B4628001A8A083051
S11311E001230399A047002800D035E7254B1B684D
S11311F0002B00D130E703A9203098472CE70023C7
S1131200042203A928001E4CA047002800D023E78D
S11312101C4B1B68002B00D11EE703A90430984720
S11312201AE70123642203A92800154CA0470028CB
S113123000D011E7134B1B68002B00D10CE703A966
S11312400930984708E70123042203A928000C4C1D
S1131250A047002800D0FFE60A4B1B68002B00D1F2
S1131260FAE603A92A309847F6E6C046ECE3000004
S113127089CC00001CE000003CE40000BDCC000070
S1131280F50B000098020020510500004CE300001B
S11312901CE400009D0200209C020020F0B5C6461C
S11312A00F23012200B58EB06B441A70002862D05F
S11312B00168324A180011600021314A314B117023
S11312C09847041E04D020000EB004BC9046F0BD24
S11312D000202D4B9847041E03D02C4B0020984728
S11312E0F1E704AE2A492B4B012098472A4B3000E2
S11312F098472A4B2A4D984604001800A847308C7A
S1131300B3797279317900902648A847264F0D2089
S1131310B8474046A84726221A216A44694423480C
S1131320A8470D20B8474046A847737A327AF17926
S11313301F48A8470D20B8474046A8470423052264
S113134013211C48A8470D20B8474046A8471A4A0D
S11313501A491B48A8470D20B84723000D33B2D1C2
S1131360E8221849FF321848A847184B18489847EC
S11313700D20B847A7E70C246442A4E79802002094
S11313809D020020851C00008D050000611D0000E9
S1131390F10F0000ED0C0000BD1B00004CE3000049
S11313A089CC0000F8E40000BDCC000020E500007A
S11313B03CE5000060E5000078E5000084E50000FD
S11313C090E50000F8E300001CE00000A5CD00005B
S11313D0A8E5000010B5014B984710BD6D0800004A
S11313E0F0B54F464646D646C0B5A0B0984628ABA1
S11313F081460C0016001F88012A05D04346002BA5
S113140000D1B9E0022A64D0631E1F2B00D99CE0EE
S11314107B1E0D2B02D9FF2F00D087E05A205A4B98
S11314202200494668449946984700239A4605ADE8
S11314302C194634237044235246EF522333EA5482
S1131440263BEE54032E16D0022E63D0042E3BD03E
S1131450012E00D072E000232A000293019300932E
S113146028216C330120494CA04720B01CBC904675
S11314709946A246F0BD43461B78013BDBB22B7074
S1131480032B69D843465A78531E6B7011001023FE
S113149099430B290DD03E493E4A3F483F4CA04753
S11314A069783F48A0470D203E4B98470C204042A6
S11314B0DBE743461620991C6844C8474346524616
S11314C05B78EB189A70C6E73E2241462800C8476D
S11314D0C1E74046344B9847402895D140464246A0
S11314E0403009E00A3906290BD9473B192B08D9A2
S11314F00132904200D187E7137819003039362938
S1131500F0D92A4A22492448244B98472848294B91
S11315109847C8E7244B40469847431E9BB23F2B4D
S113152023D8421C41462800C84794E78D22184915
S113153092001948194B98471F48E8E71F4A144975
S11315401548164B98471E48E1E71E4A10491248B1
S1131550124B98471C48DAE71C4A0D490F4C0E48B9
S1131560A04729781A48A0479DE71A4A08490A481B
S11315700A4B98471848CAE7184A05490648074BD2
S113158098471748C3E7C046D9040000BD050000CA
S113159008E40000520200001CE0000089CC0000B6
S11315A0ACE40000BDCC0000610500002102000095
S11315B064E40000A5CD000084E400007102000092
S11315C0E4E400002B02000070E400004B02000081
S11315D090E4000061020000C8E40000150200006D
S11315E050E4000000207047002310B584B002933B
S11315F00193009300221A21024C0120A04704B059
S113160010BDC046BD050000002330B583B001A95C
S11316101048114C0193A047002801D003B030BDFD
S11316208021019B490019430A480C4D0191A847A8
S11316300028F3D1D02001A94001A0470028EDD112
S11316408021D020019B4902194340010191A84700
S1131650E4E7C04608140000DD1A0000E91A00009F
S113166070B5264D82B02C68002C02D0200002B048
S113167070BD802029004001214EB047002802D0CF
S113168000232B60F2E701A91E48B0470028F7D1D8
S11316902B681D4A93420CD01C4A934212D01C4A18
S11316A093421AD01B4C2340A024E4021C432C6018
S11316B0DCE7019B5C1E631E9C41174B9C46644403
S11316C02C60D3E7019C032C15D0043C631E9C4181
S11316D0124B9C4664442C60C8E7EC20290080032C
S11316E0B0470028CCD1A0242A680A4BE402134056
S11316F01C432C60BAE70A4C2C60B7E7A002002018
S1131700DD1A0000F4130000A0021000B002100063
S1131710F0001000FFFFF0FFA0021500B102150059
S1131720B002150030B5164C83B0012502E0019BD0
S11317302B4206D001A91020A0470028F7D003B0FF
S113174030BD01A90130A0470028F8D10223019936
S11317500B4206D0994301200A4B01919847002877
S1131760EDD101A90B20A0470028E8D1012301995C
S11317700B42E4D099430B20024B01919847DEE7DA
S1131780DD1A0000E91A0000F0B5C646002300B5D2
S113179082B069460B202B4D00930193A847041E89
S11317A02BD1012300990B422CD069460120A84774
S11317B0041E22D1022300990B422AD0224B052673
S11317C00427984601A90F20A847041E28D1019B8D
S11317D03B4233D10220013EC047002EF2D1AF225A
S11317E01A4952001A4B1B4898471B4B1B489847F1
S11317F004240D201A4B98476442200002B004BC14
S11318009046F0BD19430B20164B9847041ECCD0CC
S1131810F3E719430120134B9847041ECED0ECE79D
S1131820AA220B4D520009490A48A847019A2100EF
S11318300D48A8470A4B0D209847DEE70B4B984705
S1131840DBE7C046DD1A00000D020000C4E500001D
S113185089CC00001CE00000A5CD00000CE60000CF
S1131860BDCC0000E91A0000F4E50000C51A000030
S1131870F0B5C64600B5070082B03D4C3D4D01E0D1
S11318800120A8473C48A0470028F9DA3B48A04774
S1131890C30707D4374E3A4D0120B0473948A04713
S11318A0A842F9D1022F4ED0032F54D036493748DD
S11318B0374C042F40D0A047812380275B009846F3
S11318C07F00344B9847344B0005000D01AE334D77
S11318D0984221D800239846A52039004001A0470A
S11318E0A5204346310040010193A8470028F3D1C5
S11318F0019BBB42F0D12A4D2A48A84722492A48D5
S1131900A8472A4B0D20984729491E48A047002084
S113191002B004BC9046F0BD0027A520414640011A
S1131920A047A520310040010197A8470028F4D121
S1131930019B9845F1D1DEE7A047C1237D375B00C9
S1131940FF379846BDE71B491B48114CA04780212F
S11319500E484903AFE717490D4C1748A04700212B
S11319600A48A04781235B00FD379846A9E7C04693
S1131970D11A00000D02000014100000BC07020080
S11319809ED0AD100C000C00541354138C100000A6
S1131990E91A0000611600009F030000DD1A000030
S11319A089CC00004CE3000028E60000BDCC000018
S11319B0612F52EF7DD51C3CAC07020070B5164B6D
S11319C082B00093154B02380193012817D90124E2
S11319D000206442124E134D06E00220B047013C41
S11319E00098A847002C0FD0019B9842F5D1019A8A
S11319F00A4B00249A420AD0200002B070BD0A4B60
S1131A0000930A4B0193E2E705246442F4E70021C2
S1131A10074B01489847EFE78C1000003626530225
S1131A200D020000D11A0000AC070200C3C15DD74B
S1131A30E91A00000023A02010B582B0019301A987
S1131A4040010F4B9847041E18D1A020019B0D495B
S1131A50400119400C4B01919847041E02D120000B
S1131A6002B010BD094A0A490A4B0B4898470B4B70
S1131A700B4898470B4B0D209847F0E70A4AF2E7CA
S1131A80DD1A0000FFFBFFFFE91A00000B02000053
S1131A90D0E5000089CC00001CE00000A5CD0000CA
S1131AA0DCE50000BDCC00000502000010B5014BD0
S1131AB0984710BDA102000010B5014B984710BD16
S1131AC0B904000010B5014B984710BD4D2D00001E
S1131AD010B5014B984710BD392D000010B5014BCE
S1131AE0984710BD292F000010B5014B984710BD31
S1131AF0412F0000F0B546464F46D646C0B5144BBC
S1131B0007001D888846083DADB216000400AA42AD
S1131B1016D9104B99462B1A9A4605E05346761B64
S1131B2019196419AE420ED9E11B41442A00200060
S1131B30C8470028F2D01CBC90469946A246F0BD86
S1131B40044B00219946B2B241442000C847F2E751
S1131B5000000020592F0000F0B546464F46D646F7
S1131B60C0B5144B07001D888846083DADB2160069
S1131B700400AA4216D9104B99462B1A9A4605E03E
S1131B805346761B19196419AE420ED9E11B414420
S1131B902A002000C8470028F2D01CBC9046994671
S1131BA0A246F0BD044B00219946B2B24144200044
S1131BB0C847F2E700000020712F0000002370B531
S1131BC084B0040001930822002102A8264B984700
S1131BD0002C3FD000212000244B2822984701A943
S1131BE02348244B9847002835D10198002834D045
S1131BF0C025AD022843082202A91F4EB047002881
S1131C0029D16B4698890190002826D028432822A0
S1131C102100B04700281ED10F232179A27909029F
S1131C201A400A436179FF30090101400A43657A89
S1131C30E1792B4009020B43217A0901084003434F
S1131C40002A0AD0002B08D00C498B4208D80C4B30
S1131C509A4205D9002004B070BD0C204042FAE736
S1131C600D204042F7E7C04629CB00005105000093
S1131C7008000C00DD1A0000F51A000054130000DF
S1131C8053130000F8B500281ED005786B1E032BF3
S1131C901AD80020224B9847041E1BD1214E2248FB
S1131CA0B047224B984701002148B0470D20214FEF
S1131CB0B847214B98472800204B9847041E16D05C
S1131CC01F4B98472000F8BD0020154B984701256D
S1131CD0041EE3D028221B49FF32124B1A489847AE
S1131CE01A4B1B489847134B0D209847EAE72800E6
S1131CF0184B9847041EE3D1023D012DE2D9164B3F
S1131D009847051EDED056220E49FF320E48B047D2
S1131D100E4B124898470D20B8472C00D0E7C04618
S1131D20AD1A000089CC00004CE3000061160000ED
S1131D30F8E60000BDCC0000E52D0000711800009D
S1131D40B91A000040E600001CE00000A5CD000028
S1131D50DCE60000BD19000009160000BCE6000026
S1131D6010B5174B9847041E19D10020154B9847FE
S1131D70041E07D1144B9847041E18D1134B9847DF
S1131D80200010BD74221249FF321248124B9847AA
S1131D901248134B9847134B0D209847F0E7B6228F
S1131DA00B4952000B480C4B98470F48F1E77A2235
S1131DB00749FF320748084B98470C48E9E7C046F3
S1131DC0351A000065380000B91A0000192F000008
S1131DD04CE600001CE0000089CC00007CE600001A
S1131DE0A5CD0000BDCC00005CE60000A0E600002C
S1131DF0F0B5D6464F4646460023C0B584B001939D
S1131E006B46DE1C012301AC210003202C4F2381EF
S1131E106660B8478246031E33D101330B258146E1
S1131E2098464B4623604346210003206660238185
S1131E30B847002828D13378CF2B03D0013DEDB229
S1131E40002DEED10023994601330B2598464B46CD
S1131E50236043462100032066602381B84700289D
S1131E601FD13378002B03D0013DEDB2002DEED10C
S1131E7001239A46504604B01CBC90469946A2469B
S1131E80F0BD00239A46F5E762220E49FF320E4B5D
S1131E900E4898470E4B0F4898470F4B0D20984714
S1131EA0E8E770220749FF32074B08489847084B78
S1131EB008489847084B0D20984700239A46D9E7CD
S1131EC08D03000064E7000089CC00001CE00000E2
S1131ED0A5CD000014EB0000BDCC000070B586B0A9
S1131EE00AAC25786C4620703F30C0B20E2800D969
S1131EF0A4E0534C80002058874600236A46537060
S1131F009370052604250320D37004334D4A1278B8
S1131F10002A1BD06A460392002203A90B810320E6
S1131F20494B4A60984703000120002B0CD028221B
S1131F304649FF32464B47489847474B47489847DE
S1131F400D20474B9847002006B070BD7F23454CB9
S1131F5001306946895C5B004B400132E35C90428E
S1131F60F7D16A465B0053553300D3E70B0ADBB263
S1131F70002D02D08022524213436A46537091705E
S1131F8000236A46BDE7FF236A4605265370937013
S1131F90D3700425FB3B0320B8E768460A0C427063
S1131FA00A0A82701A0C02711A0A8371C170427192
S1131FB00826072307250620A8E768460B0C43706C
S1131FC00B0A8370130E0371130C4371130A83718C
S1131FD0C170C271092608230825072096E76A46BE
S1131FE00B0C53700B0A9370D1700526042304253F
S1131FF003208BE768460A0C42700A0A82701A0AA8
S11320004371C170027107260623062505207DE76A
S11320100B0ADBB2002D02D0802040420343684605
S11320204370130EC370130C0371130A4371817050
S11320308271082607230725062067E7002083E727
S113204008E70000A40200208D0300004CE7000014
S113205089CC00001CE00000A5CD0000E8EA0000E7
S1132060BDCC0000D8E70000F0B54E46DE4657462A
S11320704546E0B585B08146030001ACCF283CD08D
S11320803B33DBB2012B38D96B46DE1C304B984610
S113209000239B4601330B259A465B462360534637
S11320A02100032066602381C047071E35D13378A1
S11320B04B4503D0013DEDB2002DEED100239A46ED
S11320C001330B259946534623604B4621000320D8
S11320D066602381C04700282DD13378002B03D0BC
S11320E0013DEDB2002DEED10127380005B03CBC16
S11320F090469946A246AB46F0BD002301936B4639
S1132100DE1C01232381124B2100032066609846C4
S1132110984700270028BBD0E7E762220D49FF3229
S11321200D4B0E4898470E4B0E4898470D200E4B0A
S113213098470027D9E770220649FF32064B074823
S11321409847074B07489847074B0D209847CCE71B
S11321508D03000064E7000089CC00001CE000004F
S1132160A5CD000014EB0000BDCC0000F0B5454641
S113217057464E46DE460023E0B58BB0009304ABD1
S1132180DF1D454B884699460390029207AD802295
S113219043469201904501D9404B1B889BB2019361
S11321A000239B4601330A249A465B462B60534620
S11321B0290003206F602B81C847002841D13B7858
S11321C01B090F2B17D0013C24B2631CEDD1060070
S11321D0334A3449344C3548A04739783448A04709
S11321E00D20344B984730000BB03CBC90469946C8
S11321F0A246AB46F0BD0600002CE9D0009A039B32
S1132200944663446B606B469B88290003202E60D0
S11322102B81C847002833D1029B002B03D1264BC6
S11322201B78002B1AD00199009B8C4663441BB287
S1132230009343465B1A9BB29846002BA7D1012614
S1132240D1E71E4A17491948174B98471C481D4B9C
S113225098470D20174B98470026C4E7029B290096
S11322602B6006AB6B60022303202B81C847002838
S1132270D9D0154A0B490D480B4B98471348E6E74C
S1132280134A0849084B094898470E4B1148984788
S1132290084B0D209847A6E78D03000044E7000093
S11322A00A03000070E7000089CC00001CE0000075
S11322B07CEB0000BDCC0000A4020020FE02000064
S11322C048EB0000A5CD00001E030000DCEB00007D
S11322D013030000ACEB0000F0B55746DE464E4653
S11322E045460023E0B589B002AA138198463B4BCA
S11322F001909A4680239B010C00D71D05AE9B4696
S113230025E0F1335C4500D802333B7000233100F3
S113231073600320013337603381D047814600283E
S113232037D1019B70604344310003203360358111
S1132330D047002842D12A4B1B78002B17D04346A4
S1132340641BEB181BB2A4B29846002C43D0251C86
S11323505C4501D9234B1D884346ADB2002BD0D038
S1132360002300225946A1425341F233CDE704AB86
S113237033604B4673600223310003203381D0471E
S11323800028DCD0184A194919481A4B98471A48AA
S11323901BE01A4A1549174B15489847184B19481A
S11323A09847194B0D20984700239946484609B091
S11323B03CBC90469946A246AB46F0BDD6220B499A
S11323C092000B480B4B984710480D4B98470E4B07
S11323D00D209847EAE701239946E7E78D030000BB
S11323E0A402002044E700006203000080E700002C
S11323F01CE0000089CC0000CCEC00004F0300007E
S1132400A5CD000060EC0000BDCC000098EC0000FD
S1132410F0B54E46DE4657464546E0B58DB006005B
S11324200391302800D97AE03E4B1B78DBB2049349
S113243030220023B2425B41DBB205930A25B14648
S113244027E0042206AB0993002309A94B6003206B
S1132450354B0A819847002809D028223349FF3296
S11324603800A0473248334B98470D20B047324BD1
S11324709847324A59463800A0472900039B4A46E8
S11324802F48A0470D20B047013D0120C047002D33
S11324903DD0059B039A0093494604230498294C94
S11324A0A047824601281DD0274B284F1900284AEF
S11324B0284C38009B46A04749462748A0470D2092
S11324C0264EB047264B01209846984731235B425D
S11324D00693244B1B78002BB3D1AA2206AB1A71A6
S11324E0A53AB0E70498204B9847824601280ED0BD
S11324F0154B164F19001D4A164C38009B46A04731
S113250049461B48A047154E0D20B047DAE7504610
S11325100DB03CBC90469946A246AB46F0BD154B67
S11325201B7883E746E700008D0300004CE70000BA
S1132530E8EA0000A5CD0000F11D0000AE03000094
S113254000EE0000DD1E000090E700001CE000002B
S11325509503000089CC00009CED0000BDCC000078
S11325600D020000A4020020692000009B0300006B
S1132570C8ED000047E70000F0B5DE4657464E467A
S11325804546E0B5C3B291B006930A239A46B44BCC
S1132590002599469346020C0892D2B20592020A8B
S11325A00792D2B20090099104920DAC5B46012BC4
S11325B000D1E2E01E0A69465B460B710879F2B26B
S11325C0C7230AA90B700B006946097D5A7159701B
S11325D06946097C1D7199706946097E9871D970A4
S11325E0A04B1A780723002A1CD1D4270899FF325C
S11325F09D4B11407940595C079F49001740794031
S1132600595C009F49003A404A409A5C52009A5CE7
S1132610520056409A5D520050401B5C0AAA5B006F
S1132620D37108230AAA2100032022606560238154
S1132630C8470B2601900127002800D07BE00AAB95
S113264021000320256063602781C847002800D04B
S113265099E00AAB1B78C72B03D0013EF6B2002EDB
S1132660EDD10B2601270AAB21000320256063600E
S11326702781C847002800D0A0E00AAB1B78002BB4
S113268003D0013EF6B2002EEDD159460998774B9E
S113269098470190012800D193E0754B754F1900BC
S11326A0754A3800754E0293B047754B75480393CD
S11326B09847754B0D2098469847744B01209847CE
S11326C031235B420A93674B1B78002B50D00423C1
S11326D00AAA21000320226065602381C8470028DC
S11326E009D028226A49FF323800B0476948039B61
S11326F098470D20C047684B9847684A02993800AC
S1132700B04751465B46009A6548B0470D20C04724
S11327105E4B0120984701235B429C46E2445346AA
S1132720002B00D042E7019811B03CBC904699467A
S1132730A246AB46F0BD28224E4FFF3254494F4EBD
S11327403800B0474E4B5348039398474E4B0D20E7
S113275098469847464B534A190038000293B047AD
S113276000995148B0470D20C04700230193A4E7C6
S1132770AA230AAA1371A53BAAE702230220002276
S113278000269B461CE762223A4FFF3247493B4EE4
S11327903800B0473A4B4648039398473A4B0D20CC
S11327A098469847324B434A190038000293B04781
S11327B000994148B0470D20C0477EE72D4F702255
S11327C0E3E7284B1B78002B36D100270126023380
S11327D00AAA21000320256062602381C8470028DB
S11327E02ED10AAB9B5D002B03D10AABDB5DC32B5F
S11327F099D042221F4FFF323049204E3800B04753
S11328000AAB0AAA0AA99B78527809782C48B047DF
S11328101D4B0D2098469847194B0393144B294A96
S1132820190038000293B047039B164898470D20BF
S1132830C0470023019340E7012702260323C7E78B
S11328409D220C4F52001D4938000C4EB0470C4BD2
S11328501D48039398470C4B0D2098469847DDE795
S11328608D030000A4020020D8E70000D922000054
S1132870A0E700001CE00000DF03000089CC00009A
S1132880A5CD00006CEA0000BDCC00000D020000E4
S11328904CE70000E8EA0000F11D0000F10300002D
S11328A094EA0000C90300003CEA000064E7000069
S11328B014EB0000CF030000B0EA000054E700006E
S11328C030EC0000E703000010EC0000F0B54E46C9
S11328D0DE4657464546E0B58FB006000591FF2811
S11328E000D984E04B4B1B78DBB20393FF22002317
S11328F0B2425B41DBB204930A25B14626E00422CE
S113290008AB0B9300230BA94B600320424B0A81B5
S11329109847002809D028224049FF323800A047B0
S11329203F48404B98470D20B0473F4B98473F4A9C
S113293051463800A04729004A463D48A0470D208B
S1132940B047013D0120C047002D48D0049B002220
S11329500093494604230398364CA0478346012834
S11329601DD0354B354F1900354A364C38009A4640
S1132970A04749463448A0470D20344EB047344B55
S113298001209846984731235B420893314B1B78CA
S1132990002BB4D1AA2208AB1A71A53AB1E7039867
S11329A02D4B9847834601280ED0234B234F190003
S11329B02A4A244C38009A46A04749462848A0474A
S11329C0224E0D20B047DAE7049A042107A8254BCC
S11329D09847834601280DD1059B079A1A605846EB
S11329E00FB03CBC90469946A246AB46F0BD1E4B88
S11329F01B7879E7104B114F19001C4A3800114C11
S1132A009A46A047074B1A489847104E0D20B047E6
S1132A10B5E7C04648E700008D0300004CE700001E
S1132A20E8EA0000A5CD0000F11D00003A04000012
S1132A3084ED0000DD1E0000B0E700001CE0000093
S1132A401504000089CC000004ED0000BDCC00009A
S1132A500D020000A4020020692000001B040000F5
S1132A6030ED00006D21000049E700002204000061
S1132A7064ED0000F0B5DE4657464E464546E0B5E7
S1132A80C3B295B006930A239B4600230A93934B43
S1132A900092994600239A46020C0992D2B20792F8
S1132AA0020A0892D2B201900B9105920EAD11ACBC
S1132AB0009B012B00D1E3E01E0AF2B2D8B2C82376
S1132AC02B706B461B7F6A716B706B461B7DA87104
S1132AD0AB706B461B7EEB7053462B71804B1A78A0
S1132AE00723002A1BD13A270999FF327D4B114055
S1132AF07940595C089F490017407940595C019F0F
S1132B0049003A404A409A5C52009A5C520056404E
S1132B109A5D520050401B5C5B00EB7108235246E7
S1132B2021000320256062602381C8470B260290A0
S1132B300127002800D082E05346210003202360AF
S1132B4065602781C847002800D0A9E02B78C82BEE
S1132B5003D0013EF6B2002EEED10B2601275346D8
S1132B6021000320236065602781C847002800D026
S1132B70B1E02B78002B03D0013EF6B2002EEED14B
S1132B800A9B002B00D183E00DAE0022564B009926
S1132B903000984733780B9A029013700300012B8E
S1132BA045D0524B524F1900524A3800524E0393AB
S1132BB0B047524B524804939847524B0D209846C5
S1132BC09847514B0120984731235B420E93444B65
S1132BD01B78002B50D0042352462100032025608B
S1132BE062602381C847002809D028224749FF3260
S1132BF03800B0474648049B98470D20C047454BD2
S1132C009847454A03993800B0475946009B019AB2
S1132C104248B0470D20C0473B4B01209847012351
S1132C205B429C46E3445B46002B00D040E702989D
S1132C3015B03CBC90469946A246AB46F0BD28224E
S1132C402B4FFF3231492C4E3800B0472B4B3048C4
S1132C50049398472B4B0D2098469847234B304AB2
S1132C60190038000393B04701992E48B0470D204E
S1132C70C04700230293A4E7AA232B71A53BABE72B
S1132C8001230A930133022000220026009316E751
S1132C90154B002200990B989847029003007EE799
S1132CA06222134FFF322049134E3800B047134BB2
S1132CB01E4804939847134B0D20984698470B4B96
S1132CC01B4A190038000393B04701991948B047CB
S1132CD00D20C04775E7064F7022E3E78D0300001F
S1132CE0A4020020D8E700006D210000C0E7000026
S1132CF01CE000007104000089CC0000A5CD000098
S1132D00DCE90000BDCC00000D0200004CE700002F
S1132D10E8EA0000F11D00008204000094EA0000CB
S1132D205B040000ACE9000064E7000014EB000061
S1132D306104000004EA000000B583B001A9024B5D
S1132D409847019803B000BDCD280000312300B599
S1132D505B4287B00093194B1B78002B2BD16B4639
S1132D6044205A78164942408A5C9878520042407E
S1132D708A5CD878520042408A5C52001A7105225B
S1132D800393002303A94B6003200E4B0A81984749
S1132D9000280BD028220C49FF320C4B0C489847D2
S1132DA00C4B0D4898470D200C4B98470C4B9847FB
S1132DB0002007B000BD04226B46E1E7A402002016
S1132DC0D8E700008D0300004CE7000089CC000028
S1132DD01CE00000A5CD0000E8EA0000BDCC000026
S1132DE0F11D0000F0B54546DE4657464E46002329
S1132DF0E0B5384D85B002A93748384C02932B70A2
S1132E00A04700282AD02B78002B19D0802001A9B4
S1132E104001A04700284ED003A92F48A0477023A3
S1132E2003992D489943203B19432D4B984700267D
S1132E30300005B03CBC90469946A246AB46F0BD76
S1132E4002997C3399432C3B19432348244B029128
S1132E509847061E23D001232B70D7E701232B703C
S1132E60204B214A9B46214B594618009A46204B39
S1132E70994698471F4B2048984698470D201F4F66
S1132E80B84702A91448A047061EBCD11C4A59469B
S1132E905046C8471B48C0470D20B847C8E71A4AE0
S1132EA01049134B11489847124B18489847134B35
S1132EB00D209847BCE70626154A0A490C4B0B48D7
S1132EC098470C4B134898470D200C4B9847764273
S1132ED0AEE7C046A402002024E80000CD2800008C
S1132EE011240000CCE70000CC0400001CE000002A
S1132EF089CC0000A5CD0000D8E80000BDCC0000BE
S1132F00CF04000028E90000D904000054E90000BF
S1132F10E304000088E900000022024B00201A703C
S1132F207047C046A4020020044B10B59847002304
S1132F30012801D1180010BD063BFBE7CD28000095
S1132F40044B10B598470023012801D1180010BD87
S1132F50063BFBE711240000044B10B598470023FF
S1132F60012801D1180010BD063BFBE7752A0000BB
S1132F70044B10B598470023012801D1180010BD57
S1132F80063BFBE779250000F0B557464546DE468B
S1132F904E46E0B50D0099B01700412842D05428A0
S1132FA040D0422800D1E6E0432852D0442800D142
S1132FB0BCE04B2800D1B9E04A2800D118E14628EA
S1132FC000D185E0482800D1EEE04D2800D17FE013
S1132FD0452800D121E1472800D1E8E04C2800D160
S1132FE01BE1522817D10123142207A93800C54C2C
S1132FF0A04700280FD1089B0093009AC24B1A6087
S11330001A68002A07D0242102AA52181B681278D1
S113301009990798984719B03CBC90469946A2462E
S1133020AB46F0BD0023042207A93800B54CA047E5
S11330300028F0D102AB5B7D03AA1370B34B19686F
S11330400029E8D0142002A908561B6801219847DA
S1133050E1E703AC00230C2221003800A94DA84766
S11330600028D8D10921615600291FDB0823E35623
S1133070A74E1B01F318DB7A08013218DBB2D372B6
S1133080012393726389083B9BB21381A14B1A8875
S1133090013292B21A801A88002A03D11A880132A6
S11330A092B21A801B8836189BB2F380022307AAB7
S11330B0117093806388D38063689360934B19681D
S11330C00029A8D008201B68205604219847A2E7AD
S11330D00623994603AC0023102221003800894EB0
S11330E0B047002800D096E70C23E356884E984654
S11330F01B019B46F318E18918730822A05E6289BC
S113310082469446628802A8C283626800920A9248
S1133110DA88914200D182E0102D00D87BE70123A8
S113312000220021774C0020A04774E700230422EA
S113313007A93800734CA047002800D06BE714207F
S113314002AB185603AC20705B7D5BB26370002B3E
S113315007D102ABDB8A6E4A083B01019BB25218CD
S113316013816A4B1A68002A00D154E71B682200B5
S1133170052198474FE70023042207A93800614C32
S1133180A047002800D046E702AB5B7D03AA13707A
S11331905E4B1968002900D13DE7142002A90856A6
S11331A01B680221984736E70923994692E70825C8
S11331B00023082207A93800524CA047002800D059
S11331C029E7142002AB1856198BDB8A03AA138053
S11331D04F4B04011B19DB88994200D01BE74B4B72
S11331E01968002900D116E71B682900984712E7DF
S11331F00023442207A93800424CA047002800D0ED
S113320009E7454B1A68002A00D104E7179A1B689E
S1133210110007A800929847FDE60725C8E7524623
S1133220002A4EDDAA454CDA5A46B258002A00D18B
S1133230F1E69A88002A00D1EDE69A7A012A00D0B4
S1133240E9E6524669463D000A800A2265449446EE
S1133250019363449A460C8800954483019A9388A9
S1133260E31A1BB2002B3FDD00239788BFB25A46F6
S11332700098B158234D3A00A847002837D15B463F
S1133280F35802AA079302AB1F835B8BDB1B5383A8
S11332901E4B1B68002B05D01C4B07AA1B68494614
S11332A040469847009BE41B9C46BC4463460093FD
S11332B053461B78A4B2002B13D1002C00D1AAE6EC
S11332C02DE7524602AB1A83002307930F4B1A686B
S11332D0002A00D19FE61B6807AA49464046984742
S11332E099E6002CBAD196E627000123BFE70B4DDF
S11332F00B48A84721000B48A8470B4B0D209847C3
S113330089E6C046F50B0000601500205C1500201E
S1133310AC140020A60200206415002089CC000013
S11333204CE3000034EE0000BDCC000070B5094D44
S11333302C78E4B2002C0CD1B02200210648074BB3
S11333409847074B07490220984701232B70064BE7
S11333501C8070BDA5020020AC14002051050000A3
S1133360ED0C0000892F0000A6020020024B18601B
S1133370024B19607047C0465C150020641500209C
S1133380F0B54746CE4680B5170087B0022804D171
S113339001290AD0022900D1B4E0012464422000AA
S11333A007B00CBC90469946F0BD724E724B34780F
S11333B0357830780631013099469847EDB26F4B35
S11333C0C9B22D0131705A19927AE4B29846002A92
S11333D060D034783578307807210130C8474346C7
S11333E0EDB2C9B22D0131705A19927AE4B2002AB1
S11333F050D034783578307807210130C8474346B7
S1133400EDB2C9B22D0131705A19927AE4B2002A90
S113341040D034783578307807210130C8474346A6
S1133420EDB2C9B22D0131705A19927AE4B2002A70
S113343030D034783578307807210130C847434696
S1133440EDB2C9B22D0131705A19927AE4B2002A50
S113345020D034783578307807210130C847434686
S1133460EDB2C9B22D0131705A19927AE4B2002A30
S113347010D034783578307807210130C847434676
S1133480EDB2C9B22D0131705A19927AE4B2002A10
S113349000D082E7454464B2002C00DA7FE7384B61
S11334A010220021280098470123364EAB7233883E
S11334B001339BB233803388002B03D1338801332B
S11334C09BB23380338830489BB2EB802F4B9846B5
S11334D098473288210092B22D48C0472D4B0D20C9
S11334E09847FB0700D45AE72123EB72002305AA6F
S11334F014705021029301930093274D043302204A
S1133500A8474CE7254A26481478137801311B0153
S11335101D181378E4B201330B401370AB7A002BFF
S113352024D014781378E4B21B011D1813780133E6
S11335300B401370AB7A002B18D014781378E4B2D4
S11335401B011D18137801330B401370AB7A002B49
S11335500CD014781378E4B21B011D1813780133CE
S113356019401170AB7A002B00D016E7073464B20F
S113357092E7C046A80200203DB10000AC14002030
S113358051050000A60200204CE3000089CC000095
S113359048EE0000BDCC0000BD050000A9020020DB
S11335A01C150020F0B589B0002928D0002826DB9E
S11335B0144C0701E519AB7ADBB2012B1FD1002AA9
S11335C01DD0EA7A4126134200D0133605AD287285
S11335D0082228000C4BE4199847E3882A006B81E1
S11335E00023310002930193009302200C33074C13
S11335F0A047002801D00920404209B0F0BD0620B0
S11336004042FAE7AC140020D9040000BD050000D4
S1133610002807DB054B00011818837A012B01D120
S11336200020704706204042FBE7C046AC1400204F
S1133630F0B589B000282CDB00292AD0164D0601EC
S1133640AC19A37ADBB2012B23D1002A21D0E27A70
S1133650134219D1442705AC2072082220000F4BD5
S1133660AD199847EB882200638100233900029347
S11336700193009302200C33094CA047002801D089
S11336800920404209B0F0BDE37A05AC63724B27D0
S1133690E2E706204042F5E7AC140020D90400001C
S11336A0BD05000070B588B0002832DB002930D099
S11336B0AF23DB009A422CD8174B06019D19AC7A34
S11336C0012C26D1ED8804ACA581207062804425AC
S11336D0062817DD9B19DE7AC520F60702D51D8959
S11336E00730ADB20192009110232200010002952F
S11336F002200A4CA04703000020002B00D00E3803
S113370008B070BD9B19DE7A0C35C520F607E9D5E3
S1133710E5E706204042F3E7AC140020BD050000B5
S1133720F0B587B0002830DB00292ED0002A2CD039
S1133730174E0701F519AC7AE4B2012C25D1F151E9
S1133740AA80297B0022002919D12C73EA7A4631F8
S1133750144200D00731002B00D1013BF619049329
S1133760F38804AAD380002310710A4C02930193B6
S1133770009302200833A0470022002802D1100041
S113378007B0F0BD0E225242F9E706225242F6E794
S1133790AC140020BD050000F0B5040087B01B4D3B
S11337A01B48A84721001B48A8470D201A4B9847DF
S11337B0002C27DB194E2701F3199D7AEDB2012D58
S11337C020D1D98805AA518000219972D980DB7A49
S11337D0147049311D4200D005310023104C02936E
S11337E00193009302200433A047041E07D1F0196B
S11337F0102200210B4B9847200007B0F0BD09248C
S11338006442F4E706246442F6E7C04689CC00002B
S11338104CE300001CEE0000BDCC0000AC14002002
S1133820BD0500005105000010B50C4B84B0040028
S11338309847C3B2402B0DD8FF23002203400292C5
S113384001920092013322004A210220044CA04735
S113385004B010BD06204042FAE7C04661050000EE
S1133860BD05000070B5274B82B005009847264B74
S11338700005000D0024984202D8200002B070BD5B
S113388001A92248224B9847041EF6D1019A214BE4
S11338902149134019431D48204E0191B04700218E
S11338A01F48002D1BD0B047AB211E48B047012153
S11338B01D48B04700211D48B04781211C48B0472E
S11338C01C4D1D48A8470128FBD18021019A114BAA
S11338D04902134019430D480191B047CDE7B04761
S11338E0B9211048B04701210F48B04700210F48C3
S11338F0B04781210E48B0470E4D0F48A847012814
S1133900FBD1E2E7611600009F03000010140000E1
S1133910DD1A0000FF8F88F800101101E91A000079
S1133920080201000C020100140201001C02010043
S113393004020100D11A00001802010010B5034B63
S11339401B68002B00D0984710BDC046CC03002054
S113395070B50400A2B0002800D173E08369002B85
S113396000D16FE04368002B00D16BE0028909931A
S113397003690A92079343696A460893C36830212E
S11339800693C36B52180B934023C35C1370282314
S1133990C35C002B03D12E4B1B78002B4DD080230E
S11339A006AA04922B4A2C4E03922278DB00029240
S11339B02A4A01930092A16B294A3000294DA84755
S11339C000283CD1224B18700DAD274B54222749B7
S11339D0280098472923E35CEB752423E35C032B3D
S11339E029D02349234B30009847234B626C29008C
S11339F01A60A3693000AB60E369EB63236AAB64CC
S1133A00E36A2B62236BEB623523E25C0433EA54F2
S1133A10053BE25C0433EA54E38CAB822823E35C89
S1133A20AB75164B98470300421D0ED00020002BA7
S1133A3005D122B070BD6B71D3E7074EC4E70320F4
S1133A404042F6E702204042F3E71A204042F0E702
S1133A5002000020A93E0000AC020020D003002098
S1133A60D00700200D3F0000F3CA000064EE000000
S1133A703D390000DD490000CC0300203145000041
S1133A8010B50F480F4B984701280ED0831D0ED058
S1133A90031D0FD0030008330FD00530431E984197
S1133AA01A2340425B42184310BD0120FCE7022068
S1133AB04042F9E717204042F6E718204042F3E776
S1133AC0AC0200206D48000010B50100044B05480D
S1133AD09847831D01D0002010BD02204042FBE71F
S1133AE0F5490000AC02002010B5034B0348984789
S1133AF0431E9841C0B210BDD1490000AC02002061
S1133B00036802000020002B06D0044952680868AC
S1133B1080188342804140427047C04668150020A7
S1133B20054B1B68CA189A4203D300230260436002
S1133B3070475B420160FAE768150020FA229200A0
S1133B40064B51431B68CA189A4203D300230260F0
S1133B50436070475B420160FAE7C0466815002085
S1133B60044B02681B684068D31A181AC343DB1756
S1133B7018407047681500200023036043607047B5
S1133B8001207047002806D0002303608360C360CF
S1133B9003610020704702204042FBE719220C4BCE
S1133BA030B51A700B4B0400080019600B0CFF2190
S1133BB0020A83B00B400A400140000E0090064DFB
S1133BC00648A84721000648A84703B030BDC046B0
S1133BD0080000208811002089CC00005CEF000060
S1133BE078EF000010B5002805D00068002802DB3B
S1133BF040B2014B984710BD9937000084B0F0B52E
S1133C0085B00D930600234B0E980B910C920F9FD9
S1133C109847FF23204C214D23700020A847002300
S1133C20E356192BF9D11E4B1B68002B06D1092032
S1133C30404205B0F0BC08BC04B0184769460222F3
S1133C407FBA0A804F800193013A01210220154B6B
S1133C509847071EEBDB10226946134B9847002850
S1133C600FDBFF2323700020A8470023E356052B16
S1133C70F9D10E4B1B785BB2002BD8D137600020F2
S1133C80D7E701235B4233603800094B984709208A
S1133C904042CEE72938000008000020D513000078
S1133CA0881100208133000031360000D00B002041
S1133CB099370000F8B54746CE46884680B51400CB
S1133CC0002836D0002934D00068002831DB002BCE
S1133CD031D0254F40B23A68002A30D12349244AD2
S1133CE089464D4623492960234DA847002837DBE0
S1133CF0FF23224D224E2B700020B0470023EB56A9
S1133D00062BF9D11F4B1B785BB2013328D04B46ED
S1133D101D68220029001C4B404698473B68200040
S1133D201B1B3B604B462D191D600CBC90469946ED
S1133D30F8BD002B11D10C4F3B68002B0DD00B4E5E
S1133D40114B356822002900404698473B682D19DD
S1133D501B1B3B6035602000E7E702204042E4E79C
S1133D6014204042E1E7C0468C11002004000020EA
S1133D70B4050000D40B0020213700000800002007
S1133D80D5130000D00B0020F3CA000010B506299B
S1133D901FD0072911D0052900D010BD0123D35607
S1133DA0002A24D0002B22DB00221C4B1C48197053
S1133DB01C4B1A701C4B9847EFE70023D35E174A3D
S1133DC01170002B22DB0021164A1170174A136070
S1133DD0E3E7124B1970002A14D00423D35E002B9E
S1133DE010DD134A136000220E4B1A70D5E705212B
S1133DF00A4A104811700B4AFA31117019000E4B1F
S1133E009847CAE7FF22074B1A70C6E7FF21054A05
S1133E100A4811701900084B9847BEE708000020B3
S1133E208CEF0000D00B0020A5CD000090110020E5
S1133E308C110020A8EF000089CC0000C4EF000022
S1133E4070B500281FD000291DD0006800281ADB97
S1133E50002B18D092B240B200230E4CA047002889
S1133E6014DBFF230C4C0D4D23700020A8470023C6
S1133E70E356072BF9D10A4B1B785BB2002B05D113
S1133E80084B186870BD02204042FBE70C204042FA
S1133E90F8E7C046A536000008000020D51300004E
S1133EA0D00B00209011002010B5002816D001235B
S1133EB05B4203600B4B43600B4B83600B4BC36053
S1133EC00B4B03610B4B43610B4B83610B4B9847CB
S1133ED00B480C490C4B9847002010BD022040426F
S1133EE0FBE7C046FD3B0000B53C0000413E00003E
S1133EF0E53B0000813B0000853B00002D330000C2
S1133F008D3D00009D3B00006D330000F8B50400BA
S1133F1008A806780A9D002C00D177E0002D00D176
S1133F2074E0002A00D171E00698002800D16DE009
S1133F30099800286AD00020C427E0510437E051D2
S1133F400437E0510437E0550437E0510437E051B9
S1133F500437E0510437E0550437E0510437E051A9
S1133F600437E0510437E0550437E0510437E05199
S1133F700437E0510437E0550437E0510437E05189
S1133F800437E0510437E055A361069BA1606362E6
S1133F90079B2262E3618A235B002070A07060703B
S1133FA06061E670E0500433E0502300042244339F
S1133FB05A717C32D875E064A0500C32A0502200B3
S1133FC07D3260662067013A507010703C229A82FC
S1133FD03B3A9A758E23099A5B00E2502B692000C4
S1133FE0A363EB68B43063636B68E362AB68236319
S1133FF02B68A3626B69E36340232A7E054DE25478
S1134000A8472000BC30A8470020F8BD0620404245
S1134010FBE7C046793B0000F0B5DE464E46454618
S11340205746E0B5804687B08B469146002800D1BC
S11340308DE0002900D18AE0002A00D187E0002326
S11340400193464B04009A46C4342168002927D0C2
S11340505846D047002854D12668002E51D05B46DC
S1134060307899685B68CF18002848D0B94217D2D5
S11340700A7801367D1E2F2A10D02B282CD0232815
S113408050D082420CD10A0001313078002836D059
S11340908F4205D9527801362F2AEED12F28F2D03B
S11340A0019B103401330193052BCED142461033CA
S11340B0FF33D358002B4DD05A4604924A460392FC
S11340C0002203A805929847002007B03CBC904604
S11340D09946A246AB46F0BD4B1C9F4225D94A786F
S11340E02F2A05D12DE058782F2804D01900013348
S11340F01A00AB42F7D1307802310028C8D1B94256
S1134100CED16268002ACBD0594604914946019B1E
S113411003A81B014344CC331B68039105939047C8
S11341200020D2E72A003900AFE732781900002ACC
S1134130E5D0019B103401330193052B00D084E7B3
S1134140B4E730780028ABD019000136A4E7062084
S11341504042BAE701204042B7E7C046A150000000
S1134160F0B557464E464546DE460023E0B591B0CD
S11341700893C3690F00049302A9436A8C4605009F
S113418029222A2003930FAB029309AC0EAB0193AF
S113419000940DAB62440CA96044354EB04700282E
S11341A006D011B03CBC90469946A246AB46F0BD41
S11341B00CAA210028002F4B98470028F1D128226F
S11341C002AB9B181B78002BEBD0012B3DD008AB26
S11341D0019302AB9B8D05220093A9690023286AF1
S11341E0254CA0470028DCD1089B9846002F3BD0E3
S11341F0AB69434535D943460024002B1FD01F4BE0
S11342009A46A4239B460C3B9C46AC4463460793C6
S113421011E05B46EB58380099462B6A1E19184B7F
S113422098474246030031000798C847002806DB38
S11342302418444503D23800D0470028E9D0434627
S1134240E41A601E84416042ABE708AB019302AB01
S11342509B8D243A0093A9690023286A064CA04741
S1134260C0E7092040429CE70620404299E7C04647
S1134270D54C0000194000002D520000013B000005
S1134280613B0000F0B5DE4657464E464546E0B574
S11342908BB0041E039100D137E1002A00D134E130
S11342A0012700237F421D00B846160002E0039B4D
S11342B0AB424FD03000964B9847002853D1A023EF
S11342C0E35827009846636A30009946914B984713
S11342D098370300012249463800C0470023984616
S11342E00128E4D18B4B30009847042399460023DE
S11342F09B46013398465A469F3306979A4647464B
S1134300B346A0464C46A9460790059245465646F4
S1134310079B012209A90698AD59A847012829D16C
S11343207F22059906AB8C461B7B1A407A43944442
S113433062465BB20592FF01002B22DA013C002C9D
S1134340E4D10A234D465B4244469846039B5E46AD
S1134350AB42AFD1474638000BB03CBC90469946BF
S1134360A246AB46F0BD039B4746AB42F3D00127C0
S11343707F42F0E74D4644465E4601235B42984641
S113438095E74446E3695E46069F93464D4663457A
S113439025D8984600230597AA461F002500B14654
S11343A04446A023EE586B6A48469846594B9847B2
S11343B02200030041460598B047002808DD5A460C
S11343C0EB693F18D41B9C4200D91C005F45E8D31D
S11343D009235B422C004E465546984667E7636ABC
S11343E05946581C4C4B98475B46002B75D1FF210E
S11343F00498636A884301001A7811430D060491F6
S11344002D0F0D2D2CD84549AA008A589746002314
S113441098464CE700232000A370E168404BB43079
S1134420984700230D25984641E7E26906A98C4682
S1134430009209200A2208A962446044394DA84721
S11344408046002810D0052505E031002000364BB9
S11344509847032580464346043300D027E779E78D
S113446012235B42984622E709AB019306AB5B89B2
S113447006220093A1690023206A2C4DA847804698
S11344800028E0D1099B9A46A3699A4538D253463D
S11344900025B946002B12D118E0A423E3583000BC
S11344A09B46236A5F191B4B984752460300390009
S11344B04846D847002807DB2D18AA4504D9300000
S11344C0134B98470028E8D0AA4501D10525EEE60C
S11344D001235B4205259846E9E65346E35801303B
S11344E09946636A98460B4B8044300098475A4675
S11344F0030041463800C847834500D177E73CE7CD
S113450009235B4205259846D1E606277F4222E728
S1134510013B0000613B0000194E0000DCEF00008D
S11345203D3B0000954D0000614100002D5200000C
S1134530F0B54546DE4657464E46E0B5040089B020
S11345400D00002800D1ABE06A46FF2393740023DA
S113455006A8D3740593544B9847544BA16806A8F6
S113456098472378002B00D094E0002D1FD023001F
S1134570EA7D4433DA756A795A71AA68E264802262
S1134580E96BA150A96C0C32A1502A6A6266EA6AEE
S113459022673922A95C22007D3211703822A95C7D
S11345A022007C321170AA8A9A82AA7D9A75982375
S11345B099468433A144E3584846984723006A4601
S11345C0343323CB23C29C201B6813602558A16A73
S11345D0E26A236B4846A84740B200283DD15823DD
S11345E02200E35A4432E360A16905AB206A304DEE
S11345F0A847002831D1059F002F2ED0A3699F42E0
S11346004BD22C4B00259A46A4239B4611E05B46D3
S1134610E35806A89846236A5E19274B98473A0040
S1134620030031004846C047002806DB2D18AF427E
S113463003D906A8D0470028E9D0AF420DD106AA75
S1134640022120001D4B9847002809D009B03CBC2A
S113465090469946A246AB46F0BD01204042F5E79C
S113466012211320E369626A69446844144DA8471F
S1134670031EEBD16A46122010560428E6D101220B
S113468020006370A370B4302270E1680D4B98472A
S11346900020DBE705204042D8E709204042D5E767
S11346A006204042D2E7C046793B0000213B00008F
S11346B0854A0000013B0000613B00008542000088
S11346C0214C00003D3B0000F0B54E46DE46574607
S11346D04546E0B5060093B0002800D1B3E0037866
S11346E0002B00D1ACE0002304AA0B930C931376A7
S11346F053769376C433C358002B00D187E0D42378
S1134700C358002B00D195E0E423C358002B00D1FB
S113471093E0F423C358002B00D188E082235B008C
S1134720C3585A1E934104330793D0239C46B44480
S11347306346049300230693002310931193049B70
S11347400DA80C3B1B6805930F93404B9847B16829
S11347500DA83F4B9847B3883E4A306AB1699342EB
S11347605DD001339BB20BAA0392049AB3800292E8
S11347700FAA01920122384C00920022A04700287F
S113478046D10B9FB3699F424ED2002F20D0334BAA
S113479000249946A4239B460C3B9A46B24411E05C
S11347A05B46F3580DA89846336A1D192C4B98475D
S11347B03A00030029005046C047002806DB2418AD
S11347C0A74203D90DA8C8470028E9D0A74228D199
S11347D00DAA09213000234B9847002818D104ACB6
S11347E0A4461620F3690CAA0193736A012100936D
S11347F060440AAB1C4CA047002809D1049A069BCC
S113480010320492079A01330693934294D3002002
S113481013B03CBC90469946A246AB46F0BD01237A
S1134820A1E701204042F3E709204042F0E70323D7
S113483007937AE70123079377E70223079374E743
S113484004204042E4E706204042E1E7793B0000CF
S1134850213B0000FFFF0000B1520000013B0000BB
S1134860613B000085420000B1530000F0B5DE4614
S113487057464E464546E0B5040089B0002800D1AD
S113488091E00378012B00D18AE06A46FF239374F8
S1134890002306A8D3740593444B9847444BA1685E
S11348A006A898472378002B00D072E098339946E5
S11348B08433A144E3584846984723006A46343376
S11348C023CB23C29C201B6813602558A16AE26A8B
S11348D0236B4846A84740B2002836D1582322000B
S11348E0E35A4432E360A16905AB206A314DA8471D
S11348F000282AD1059F002F27D0A3699F4224D2E4
S11349002D4B00259A46A4239B4611E05B46E358B1
S113491006A89846236A5E19284B98473A00030074
S113492031004846C047002806DB2D18AF4203D9A2
S113493006A8D0470028E9D0AF4206D106AA022132
S113494020001F4B984700280AD023780320002B0F
S11349501FD109B03CBC90469946A246AB46F0BD77
S113496012211320E369626A69446844154DA8471B
S11349700028EAD16B469B7C5BB2042BE5D16070C6
S1134980A0702000033B2370E168B4300E4B9847BD
S1134990DBE720000D4B98470028DAD10120D8E747
S11349A005204042D5E706204042D2E7793B00008B
S11349B0213B0000854A0000013B0000613B0000F0
S11349C085420000214C00003D3B0000C946000028
S11349D0002801D0C07870470020FCE7002806D0EA
S11349E0002904D08C235B00C150002070470620AE
S11349F04042FBE7002802D0C1700020704701202C
S1134A004042FBE7F8B543790400032B34D000257A
S1134A10042B33D0A068E1682269194EB047E37DC6
S1134A202D18002B1BD10235E36B002B0FD0E06B4C
S1134A30216C626CB04702354519A36C002B0AD077
S1134A40483407CCB047023545192800F8BD636CDB
S1134A50002BECD1F1E7236D002BF1D1F5E7616A6E
S1134A60A26A206AB047216B0700626BE06AB04714
S1134A700635ED192D18D7E70C25CBE70A35C9E71C
S1134A8085500000F0B546464F46D646C0B51400E2
S1134A9086B006000F009846002800D1A8E0002A3E
S1134AA000D1A5E0002B00D1A2E000250490524BD8
S1134AB0100005959847514B82469847B84200D953
S1134AC085E0009500230022012105A84C4DA8474C
S1134AD0071E06D0380006B01CBC90469946A24674
S1134AE0F0BD02AB197B474B04A899469847464B47
S1134AF0514604989847049B9C466379604404900B
S1134B00042B5CD0414904A8414B9847032104A8D5
S1134B10C847A17D4B1E9941E37D49005A1E93412C
S1134B209B001943002B2BD1E36B002B56D0802321
S1134B301943A36C002B4DD040231943CBB2190069
S1134B4004A89A46C847A18A04A8324B9847236907
S1134B50314DA168E26804A8A847E37DA946002B6B
S1134B6022D153466A46D373D37B5BB2002B39DB25
S1134B7053465B0613D4049B9E1B43461E60A9E761
S1134B8039230322E35C1A403823E05CD200431E3D
S1134B909841012303405B0111431943C4E748349E
S1134BA00ECC04A8C847E6E7216A626AA36A04A88F
S1134BB0A847E16A226B636B04A8A847D1E704A85D
S1134BC01649134B9847042104A8C847A1E70927AD
S1134BD07F427FE7236D002BAED1AFE7636C002BE0
S1134BE0A5D1A6E7E16B226C636C04A8C847BFE7B4
S1134BF006277F426EE7C046054A00004D4E00007E
S1134C00E5500000354F0000194E000034F000005C
S1134C10854F0000594F0000C14F00002CF00000E8
S1134C20F0B5060085B00F00002849D0002947D010
S1134C30002A45D0032B3DD9002301A8224D02931D
S1134C4003930192A847F0231840202820D103AAF7
S1134C5002A901981D4B9847041E16D1039A019B83
S1134C60944663440193029B012B11DD01A8A847DC
S1134C700006C00F307001A8A84705281DD8144BA2
S1134C8080001B589F4604233B70200005B0F0BDF4
S1134C9001246442F9E7F0233B70F6E7F1233B700B
S1134CA0F3E7F2233B70F0E7F3233B70EDE7EF23E8
S1134CB03B70EAE709246442E7E7F4233B70E4E746
S1134CC006246442E1E7C046294F0000794E000003
S1134CD014F00000F0B5070085B00C0015001E00AC
S1134CE0002842D0002940D0002A3ED0002B3CD0DE
S1134CF00E9B032B43D90D9B01A801930023029320
S1134D000393204B9847F0230340302B2DD1030706
S1134D10DB0F3B704307C0079B0FC00F237003AA30
S1134D20287002A90198184B9847051E02D0280044
S1134D3005B0F0BD039A019B944663441F000193A0
S1134D40029B01A99C4667443A000A980F4B984776
S1134D50051E0AD1019BFA1A07D42178002907D12C
S1134D600C990A600B9A1360E1E701256D42DEE7B6
S1134D70074B01A89847019B3080FA1AF0E70925F0
S1134D806D42D4E7294F0000794E000049500000DD
S1134D90154F000070B5040084B00E001500002803
S1134DA02ED000292CD0002A2AD0002B28D0089AF3
S1134DB0032A22D90193002301A802930393134BDE
S1134DC0984703070006DB0F000F337003AA207017
S1134DD002A901980E4B9847041E0BD1039A019B1C
S1134DE0944663440193029B012B0CDD01A8094BFB
S1134DF098472880200004B070BD09246442F9E774
S1134E0006246442F6E701246442F3E7294F0000D4
S1134E10794E0000154F00007F23F0B50B400700CA
S1134E20C9090FD0012502002D1A7F2680200343D3
S1134E3013703300AC180B400132C909F7D1601C60
S1134E403B55F0BD01200024FAE7C046431C7F2BEC
S1134E500BD9074A934206D9064A9A429B415B42C0
S1134E601B18181D70470330FCE70230FAE7C046F0
S1134E70FF3F0000FEFF1F00F0B57F25C64600235C
S1134E802E0000B50B600378214C1E405BB282B04B
S1134E902060471C0E60002B33DA4378871C9C4645
S1134EA02B40DB019846B04443466E460B60634694
S1134EB0F371F3795BB2002B1EDA8378C71C9C462E
S1134EC02B409B03984443460B606346F371F3798C
S1134ED05BB2002B19DA2B00071DC07803405B0579
S1134EE0434440B20B6000280DDA0A202760404298
S1134EF002B004BC9046F0BD02232760136000207A
S1134F00F6E70123F9E70423F7E70323F5E7C046AF
S1134F109411002002681178537809025B189BB23F
S1134F2002320260180070470200036818780133E7
S1134F301360704703681970036801330360704796
S1134F4002680B0A137003685A1C026059700368E4
S1134F50013303607047C046FF2330B51C00CA17F5
S1134F6014400568641824122C70120E0468891801
S1134F700B40651C9B1A0560637003680133036072
S1134F8030BDC04670B50C4B040008000E009847B5
S1134F9005002268030A1370236831005A1C22603A
S1134FA0587023682A00581C2060044B98472368D3
S1134FB09C466544256070BD25D00000F3CA0000FE
S1134FC070B584B0040001910393151E24D1019D92
S1134FD0002D17D01A4B2800984706002268030AB0
S1134FE01370236829005A1C226058702368320009
S1134FF0581C2060134B984723689C4666442660DF
S113500004B070BD03681D7003685A1C02605D70B3
S1135010036801330360F3E7130A0268039913700A
S113502003685A1C02605D7003682A00581C2060E3
S1135030044B984723689C4665442560E0E7C046D6
S113504025D00000F3CA000030B50C68131B012BF7
S113505014DD237865781B025B1902340C6043600D
S11350600C68E518AA4209D384600A6894460022B1
S113507063440B6000230360100030BD01225242E0
S1135080F8E7C04600B585B00291002803D0034B71
S1135090984705B000BD0298FBE7C04625D0000044
S11350A0F8B504680E00002C13D020000B4DA8475F
S11350B007003000A847030000209F4200D0F8BD3D
S11350C0074B3A0031002000984743425841C0B290
S11350D0F5E784684768014DEBE7C04625D000003A
S11350E033D0000030B503AC2478002800D197E019
S11350F00025C9B205700E2903D84B4D89006958A3
S11351008F460320404230BD0F21057829401025E9
S113511029430170013B59424B4108250178DB00CA
S1135120A9430B430370012A73D0002A6CD0022ACE
S11351306AD1062203789343042213430370013C8B
S1135140012263425C41037893431C4304700020B2
S1135150D9E70F2105782940202529430170D9E793
S11351600F2105782940302529430170D2E70F210A
S113517005782940402529430170CBE70F210578A4
S11351802940502529430170C4E70F21057829409F
S1135190602529430170BDE70F210578294070255A
S11351A029430170B6E70F2105780D408F39294353
S11351B00170AFE70F2105780D407F392943017055
S11351C0A8E70F2105780D406F3929430170A1E745
S11351D00F2105780D405F39294301709AE70F21AB
S11351E005780D404F392943017093E70F21057865
S11351F00D403F39294301708CE70F2105780D409C
S11352002F392943017085E70622037893430370FD
S113521095E70622037893430222134303708EE733
S1135220062040426FE7C0463CF0000070B584B0F1
S1135230040008A80688002C2ED0099800282BD03A
S1135240002503940295032923D9901F4142484124
S1135250C0B251B200950200114D02A8A847051E24
S113526014D16B4603A8197A0E4B984702210E4BB2
S113527003989847039B31009C46604403900B4B72
S113528003A89847039B1C1B099B1C60280004B0BF
S113529070BD09256D42F9E706256D42F6E7C04663
S11352A0E5500000354F0000194E0000414F00004A
S11352B0F0B55746DE464E464546E0B587B08146D2
S11352C08A4693460393109F00285ED0139B002BBD
S11352D05BD0002304900593002F54D02D4B02265D
S11352E000259846119C20686168A268C047013572
S11352F0033036180C34AF42F5D13000264B9847B2
S113530050453CD800230122009308215B4605A8A0
S1135310224CA0478046002807D0404607B03CBC3A
S113532090469946A246AB46F0BD02AB197B04A851
S11353301B4DA84731001B4B04989847049B0399C5
S11353409C4660440490184B04A89847002F10D042
S1135350164B129E9A46119CF71921686268A3683D
S113536004A8D047317804A80136A8470C34BE42BB
S1135370F3D14A46049B9B1A139A1360CDE7092381
S11353805B429846C9E70226B7E706235B42984684
S1135390C3E7C046855000004D4E0000E5500000B4
S11353A0354F0000194E0000414F0000C14F00006E
S11353B0F0B54F46D6464646C0B5040084B089468B
S11353C015001F0000284BD0002A49D0002B47D0DD
S11353D00C9B01930023029303930D9B042B3BD955
S11353E0214B01A898469847F023184090282FD1C4
S11353F003AA02A901981D4B98478246002820D190
S1135400039A019B944663441E000193029BF61881
S1135410012B1DDD164B01A89847534620802B60B5
S1135420019B00249E4203D80BE02C684C450FD806
S1135430621C2A6001A8C047019B3C1920709E424F
S1135440F3D8504604B01CBC90469946A246F0BD21
S113545001235B429A46F4E709235B429A46F0E74C
S113546006235B429A46ECE7294F0000794E000080
S1135470154F000010B50B480B4CA0470B4B984739
S1135480002809D10A48A0470A4B9847012806D0AA
S113549001000948A04710BD0848A047FBE7084899
S11354A0A047F8E7F4F0000089CC0000E93A0000D6
S11354B044F10000813A00009CF1000004F1000076
S11354C080F10000F8B52D4D2D4B280098472D4C48
S11354D02D4948222D4B200098472D4A2D4B43CB74
S11354E043C22D4A2D4B43CB43C22D491B68136045
S11354F00A002C4B43CB43C203CB03C20A23012231
S11355000421E3841E33E254043BE154264B253149
S1135510A361264B65601B68002523810023635427
S1135520E36023616361224BA363E3634023E2549A
S1135530204B6364204B1B78002B03D01F4B1B783C
S1135540002B01D12800F8BD1D481E4FB84720008C
S11355501D4B9847061E09D101201C4B9847041E79
S1135560F0D001001A48B8472500EBE70100238971
S113557062681848B8473500E4E7C0460C000020CC
S11355802938000014160020B8EE0000F3CA000009
S1135590CC15002024EF00008015002000EF00004F
S11355A06C15002010EF0000A40100200C01002065
S11355B08813000075540000641400206614002051
S11355C098F0000089CC000051390000C93A00006D
S11355D0C8F00000A8F0000010B582B00093044C9D
S11355E013000A000349A047002002B010BDC046C2
S11355F049CF000078F0000010B5094B04000820E2
S113560098470470002C08D0022C02D8054B436044
S113561010BD054B98470020FAE7044B4360F7E7B9
S1135620ADCA00006C010020C1CA00004001002086
S1135630F0B54323C64623220F0000B58B70043314
S11356404B704333CA528C464E1C463700223D48A9
S113565001254EE05A082A4090460200A1B2640097
S1135660A4B2C90B6240884569D091B2520094B289
S11356709A082A4090460200C90B624088455CD0D3
S113568091B2520094B2DA082A4090460200C90B43
S1135690624088454FD091B2520094B21A092A4010
S11356A090460200C90B6240884542D091B2520034
S11356B094B25A092A4090460200C90B62408845B8
S11356C035D091B2520094B29A092A409046020011
S11356D0C90B6240884528D091B2520094B20200AE
S11356E0C90BDB0962408B4210D0013692B2BE4234
S11356F011D0D10B8846040029003378520092B2AD
S1135700194054408845A5D1141CA3E7221C013636
S113571092B2BE42EDD161464623CA54120A013305
S11357200020CA5404BC9046F0BD221CD4E7221CBD
S1135730C7E7221CBAE7221CADE7221CA0E7221C03
S113574093E7C0460580FFFFF0B5D6464F46464670
S11357504022C0B58A70CA780B00D20600D58AE010
S11357608A224B219952833A5A705A1C0633924624
S11357709C46052700260022454C012551E090B2A5
S1135780C10B58082840894621008046520092B235
S113579051400800C1456CD082B2D20B90469A08A1
S11357A02A4091462200400080B24240C1455ED06A
S11357B090B25200C10B90B2DA082A4091462200FE
S11357C04240894551D090B25200C10B90B21A099F
S11357D02A40914622004240894544D090B252006A
S11357E0C10B90B25A092A40914622004240894591
S11357F037D090B25200C10B90B29A092A40914618
S11358002200424089452AD090B25200C10B90B286
S11358102200DB0942408B4212D0013692B2BE42D2
S113582013D2D10B53465200894691B2220028006C
S11358309B5D4A4092B218408145A0D10A1C9EE764
S1135840021C013692B2BE42EBD363461A70120AAE
S113585000205A701CBC90469946A246F0BD021C1A
S1135860D2E7021CC5E7021CB8E7021CABE7021C26
S11358709EE7101C90E78A2204219952803A5A70BC
S11358805A1C92460922944608279C4472E7C04653
S11358900580FFFF30238A228B70293B4B708B528B
S11358A0D54B30B51888D54B420092B25340000412
S11358B000D473E15800D14A80B242401B0400D4A2
S11358C074E15000CD4B80B24340120400D475E122
S11358D05800CA4A80B242401B0400D476E1012534
S11358E094B2520090B28B78C44AE40B1D404240FB
S11358F0A54200D1AEE194B2520090B2BF4A9D07D6
S1135900E40BED0F4240A54200D1A1E194B2520054
S113591090B2BA4A5D07E40BED0F4240A54200D1B4
S113592094E194B2520090B2B44A1D07E40BED0F17
S11359304240A54200D187E194B2520090B2AF4AEE
S1135940DD06E40BED0F4240A54200D17AE194B2AA
S1135950520090B2A94A9D06E40BED0F4240A542C5
S113596000D16DE194B2520090B2A44A5D06E40BFA
S1135970ED0F4240A54200D160E194B2520090B2D2
S11359809E4AE40BDB094240A34200D154E10125C5
S113599094B2520090B2CB78984AE40B1D40424036
S11359A0A54200D146E194B2520090B2934A9D07B9
S11359B0E40BED0F4240A54200D139E194B252000C
S11359C090B28E4A5D07E40BED0F4240A54200D130
S11359D02CE194B2520090B2884A1D07E40BED0FFB
S11359E04240A54200D11FE194B2520090B2834AD2
S11359F0DD06E40BED0F4240A54200D112E194B262
S1135A00520090B27D4A9D06E40BED0F4240A54240
S1135A1000D105E194B2520090B2784A5D06E40BDD
S1135A20ED0F4240A54200D1F8E094B2520090B28A
S1135A30724AE40BDB094240A34200D1ECE00125A9
S1135A4094B2520090B20B796C4AE40B1D40424070
S1135A50A54200D1DEE094B2520090B2674A9D079D
S1135A60E40BED0F4240A54200D1D1E094B25200C4
S1135A7090B2624A5D07E40BED0F4240A54200D1AB
S1135A80C4E094B2520090B25C4A1D07E40BED0FDF
S1135A904240A54200D1B7E094B2520090B2574AB6
S1135AA0DD06E40BED0F4240A54200D1AAE094B21A
S1135AB0520090B2514A9D06E40BED0F4240A542BC
S1135AC000D19DE094B2520090B24C4A5D06E40BC2
S1135AD0ED0F4240A54200D18CE094B2520090B246
S1135AE0464AE40BDB094240A34200D180E0012492
S1135AF095B2520090B24B79404AED0B1C404240A3
S1135B00A54200D172E094B2520090B23B4A9D0784
S1135B10E40BED0F4240A54266D094B2520090B21D
S1135B20364A5D07E40BED0F4240A5425AD094B2C9
S1135B30520090B2314A1D07E40BED0F4240A542DA
S1135B404ED094B2520090B22C4ADD06E40BED0F15
S1135B504240A54242D094B2520090B2274A9D06D8
S1135B60E40BED0F4240A54236D094B2520090B2FD
S1135B70224A5D06E40BED0F4240A5422AD094B2BE
S1135B801E48520092B2E40BDB095040A3421FD0DE
S1135B9083B28B711B0A0020CB7130BD131C5800DB
S1135BA0164A80B242401B0400D58AE6021C50000B
S1135BB0124B80B24340120400D589E6031C5800FE
S1135BC00E4A80B242401B0400D588E6021C86E6D9
S1135BD0101CDDE7021CD2E7021CC6E7021CBAE770
S1135BE0021CAEE7021CA2E7021C96E7021C8AE72D
S1135BF0021C7CE7021C70E7BAF10000058000007B
S1135C00021C5FE7021C52E7021C45E7021C38E74E
S1135C10021C2BE7021C1EE7021C10E7021C04E70F
S1135C20021CF7E6021CEAE6021CDDE6021CD0E6D2
S1135C30021CC3E6021CB6E6021CA8E6021C9CE693
S1135C40021C8FE6021C82E6021C75E6021C68E652
S1135C50021C5BE6021C4EE6F0B5CE464746032323
S1135C6080B5CA78134016228A70012B07D9E22026
S1135C70032B00D18CE00CBC90469946F0BD1B234D
S1135C8019274B700D326F33CA520131CB199C4620
S1135C9000260022424C012555E090B2C00B8146FB
S1135CA0520092B290465808624092B22840814510
S1135CB06CD090B2C00B80469808284081462000E2
S1135CC0520092B25040C1455ED082B2D20B90468F
S1135CD0DA082A4091462200400080B24240C14581
S1135CE050D090B2C00B5200804690B21A092A409C
