S0120000456E64204465766963652E737265638B
S1130000402B0020D1380000CD380000CD3800004E
S113001000000000000000000000000000000000DC
S1130020000000000000000000000000CD380000C7
S11300300000000000000000CD380000CD380000B2
S1130040CD380000410500007D030000A908000030
S1130050CD380000CD380000CD380000CD38000088
S1130060052B0000152B0000252B0000352B00006C
S1130070452B0000552B0000CD380000CD38000082
S1130080CD380000211500003115000000000000EB
S11300900000000041150000CD380000CD380000FC
S11300A000000000CD380000000000000000000047
S11300B00000000010B5064C2378002B07D1054B37
S11300C0002B02D0044800E000BF0123237010BDC0
S11300D084000020000000008C870000084B10B54D
S11300E0002B03D00749084800E000BF0748036815
S11300F0002B00D110BD064B002BFBD09847F9E72D
S113010000000000880000208C8700008C8700001D
S11301100000000003681869431E9841C0B270478C
S113012070B5040006680422084B1A60084D2000CC
S1130130A8470028FBD13388022213433380044D9F
S11301402000A8470028FBD170BDC04600E100E0B4
S11301501501000070B504000668042180230A4AD2
S1130160D1500A4D2000A8470028FBD1084B338109
S1130170B3813388022293433380044D2000A8477F
S11301800028FBD170BDC04600E100E0150100006D
S1130190FF81FFFF70B5040006680A4B98470023EF
S11301A0A386E386084D2000A8470028FBD13388A6
S11301B0012213433380044D2000A8470028FBD1BB
S11301C070BDC0465501000015010000F0B583B0B4
S11301D00400019115000668134F2000B847002859
S11301E0FBD12379002B0ED0012B19D11730012D0F
S11301F017D80835AD00019BAB510B4D2000A84723
S11302000028FBD10DE01720022D0AD8074B019AD4
S11302109A4206D86B469B8810356D00AB53ECE7C9
S11302201A2003B0F0BDC04615010000FFFF000016
S113023070B50400150001601F4A516980235B00FA
S11302400B43536100221D4B1A611D4B9847AB7839
S113025023711C4B1C6022682B79DB0329880B4318
S11302609BB21380AB78002B13D01720012B0FD136
S113027013889BB21380EB78002B03D01388802162
S11302800B431380A968002220000F4B98470020DD
S113029070BD138804210B431380EB781720002BC7
S11302A0F6D10022A9682000074EB047E968012270
S11302B02000B0470020EBE700040040001000409D
S11302C0950100007C020020CD010000F8B5040077
S11302D00E0003791520002B00D0F8BD2768064DC9
S11302E02000A8470028FBD1BE83034D2000A84767
S11302F00028FBD1F1E7C046150100000A2A09D005
S1130300072A07D90379002B10D0012B12D11633F9
S1130310092A09D8931C9B001950838E012191400E
S11303200B439BB2838600231800704717230A2AC5
S1130330FAD8EFE71723F7E710B502680A2911D0B6
S1130340072912D980235B000C00083CA340C02479
S1130350A40023405381C38E01228A4013439BB2DD
S1130360C38610BD044B5381F5E701248C40FF2361
S113037023405381EFE7C0460080FFFFF8B5DE4617
S113038057464E464546E0B52B4B1B689A461E68B9
S1130390DB8E5246928E1A409046B289738913407E
S11303A01AB2002A08DBFF271F402AD000240123A9
S11303B09946FE339B4614E043465B0507D41F4B26
S11303C0B3813CBC90469946A246AB46F8BD534621
S11303D01B6B9847F3E75B461D40B5810134082C3D
S11303E0EFD023004D46A5402F42F4D0424622418F
S11303F049461142EFD002339B0052469B5898471E
S1130400E9E7DA050AD54346DB0503D480235B001C
S1130410B381D6E753469B6A9847F7E79B05D0D547
S113042043469B0503D480239B00B381C9E753460D
S1130430DB6A9847F7E7C0467C0200200080FFFF94
S113044010B52B4A536980210B435361294B1B7808
S11304505BB21022002B03DB83780732002B01D11F
S1130460100010BDC1789942FAD801799942F7D8A1
S1130470204A137802218B4313709368002BFCD11C
S113048043780022002BEBD08378013BC278002A0A
S113049022D018490A78042422430A70C278013A07
S11304A0A2401343134A91680029FCD1DBB2114ADC
S11304B053700379002B02D0013BDBB293700378B5
S11304C0002B0FD00B4A137880210B431370094B78
S11304D09A68002AFCD1C3E706490A780424A24397
S11304E00A70DFE7034A137802210B431370EEE727
S11304F000040040001C0040A522034B1A731A009C
S11305009368002BFCD17047001C0040002901D0E7
S113051017207047014B18600020FAE78002002082
S1130520002801D0172070470122034B5A71013271
S1130530024B1A60F7E7C046001C004000E100E0EF
S113054010B50122034B9A71034B1B68002B00D09A
S1130550984710BD001C00408002002010B58EB0EA
S1130560214C2000214B984700236A469371D37194
S113057053709370137253729372D3721373937391
S11305805373137405930693137708930993138590
S113059053859385343300226946CA542C3B6A46FA
S11305A0CB70073B0B70A023DB008B80104920002D
S11305B0104B984722681369002BFCD11368022161
S11305C00B431360084C002120000B4B9847236811
S11305D01A69002AFCD11A711A69002AFCD1203246
S11305E05A710EB010BDC04684020020E11800000C
S11305F000080043891500006918000010B502487E
S1130600024B984710BDC046840200209918000090
S113061070B50020084B98470500084CFA21890062
S1130620A047074B186007492800A047064B1860ED
S11306300522064B1A6070BD95360000A9550000CE
S11306400000002040420F000400002010E000E001
S113065030B5084B1C68084A00258021490201383E
S113066007D3002CFBD05460956013680B42FCD078
S1130670F5E730BD0400002010E000E030B5084B81
S11306801C68084A002580214902013807D3002C40
S1130690FBD05460956013680B42FCD0F5E730BD85
S11306A00000002010E000E010B58EB001AA642321
S11306B001931D4B536000239360137313768021C1
S11306C08903116101214942918225315354936276
S11306D0083153540131535401315354D7331386E1
S11306E0124BD382124BD361124B1362124C8421EE
S11306F0C9052000114B984722680721D369194284
S1130700FCD1136802210B4313600B4BDC880023DC
S11307101020518B014204D10133A342F9D3102399
S113072053830EB010BDC046480D000010270000D2
S11307300200080002000900A0020020690A00006B
S113074070B588B007AD0843287000236B7004A906
S11307504820088001244C804D600B724B728B72D0
S113076001AC20806280029523726372A372074EEB
S11307703000074B984721003000064B98472B78F0
S11307801B026878184308B070BDC046A002002060
S11307906910000055100000D0B50222002100208D
S11307A01F4B98470300012702040CD41D4A1678F6
S11307B0012E16D0002E0AD0022E1CD0032E25D0D6
S11307C0002000210CE04004430C023FEEE7DB096B
S11307D098B27843144B98470022144B144CA0470A
S11307E0D0BD9B0998B278430F4B98470022114B18
S11307F00F4CA047F4E75B0998B278430A4B98473B
S11308000022FF239B050A4CA047E9E71B0998B285
S11308107843054B98470022074B054CA047DFE778
S113082041070000A00000206D6F00000000E03FC1
S1130830D96300000000D03F0000B03F1723002A16
S113084001D0180070478B00064A9B58002B03D038
S1130850834205D01D23F4E7890088500023F0E784
S11308600023EEE7B00200201723002901D018006E
S1130870704700221F2800D8024A012383401361D5
S11308800023F4E7002400401723002901D01800B6
S1130890704700221F2800D8024A01238340D360F6
S11308A00023F4E70024004070B50022104B1A70B6
S11308B0002310491F25104E0D4C0AE00D4908E095
S11308C023780133DBB223700F2B10D800211F2BA8
S11308D0F4D9280018400122824048691042EFD020
S11308E04A619B009B59002BEAD09847E8E770BD0A
S11308F0AC02002000240040B0020020064A137815
S113090002210B431370012053681942FCD1536830
S11309101842F9D17047C04600240040064A1378B3
S113092002218B431370012053681942FCD1536890
S11309301842F9D17047C0460024004000B583B086
S1130940174A516980239B000B43536101A900237B
S11309500B700320134B98470320134B9847134AFB
S1130960137801210B43137001310120536819429C
S1130970FCD153681842F9D10C4A137810218B43E7
S113098013700B4B19004031002204C38B42FCD17D
S11309900822084B1A60084B984703B000BDC046B4
S11309A000040040713700000137000000240040BB
S11309B0B002002000E100E0FD0800000023036015
S11309C043600122027283720132C2724372704721
S11309D0F0B583B005000C001C4B984701A9002317
S11309E04B70CB7023790B70237A8B702078184B63
S11309F0984700211F2D00D8164907222A4092004B
S1130A00E77AA37A002B01D008231F43EB089B004D
S1130A10CB18D8690F269640B04397403A0002435A
S1130A20DA61637A002B0BD18A690123AB40DB4383
S1130A301B041B0C13408B61074B984703B0F0BD9C
S1130A408A690123AB4013438B61F5E71D0900005C
S1130A506D38000000240040FD08000001680722F2
S1130A60CB691A42FCD17047F0B5D6464F4646468C
S1130A70C0B58AB007000E001400396008009C4B12
S1130A809847052800D12BE105001235994AD16910
S1130A90012383400B43D36109A9237B0B70EDB27F
S1130AA02800954B98472800944B9847207B0021B9
S1130AB0934B984733681C209B0705D50AB01CBC90
S1130AC090469946A246F0BD33681738DB07F5D443
S1130AD0142333603B6898461800854B98470500FB
S1130AE0802308AA137000235370012208A98A7076
S1130AF0CB70E069266A002800D1AEE008AB18701C
S1130B00022308AA5370000CC0B211007D4B984711
S1130B10002E00D1A6E008AB1E70022308AA537071
S1130B20360CF0B21100774B9847A38AFB80E38A16
S1130B303B81237E8022002B04D1734B9B789B073F
S1130B40DB0FDA01A16823690B4313432422A25C5F
S1130B50002A02D08022D2051343A26A13432C2216
S1130B60A25C002A03D180229204914202D1802205
S1130B70120513432D22A25C002A02D08022120403
S1130B8013432E22A25C002A02D08022D2031343F4
S1130B904246126813434246136080235B0053604D
S1130BA01235E8B2594B98470790FA239B00226804
S1130BB05A43914663689A46554DA847009001915F
S1130BC04B465800A84702900391208EA8470490F2
S1130BD00591504F504A514B00980199B847020073
S1130BE00B0004980599B8474D4E00224D4BB04771
S1130BF0049005914846A84702000B000498059903
S1130C00B84702000B00484D00980199A847029A82
S1130C10039BB0470022454BA847029A039B444DCF
S1130C20A847444B9847050080239B04A2689A4236
S1130C301ED003004020FF2D00D93FE700240020F0
S1130C40FF251D40240625430004FF231B041840F0
S1130C5005434346DD60002030E700214046364B23
S1130C6098474BE701214046334B9847060052E72B
S1130C70FA26B60053465E430098019902000B0021
S1130C80274CA047009001913000214B9847002247
S1130C902A4BB84702000B0000980199244CA04746
S1130CA00022224B204CA047224B9847041E0CD014
S1130CB031000798224B98470238001B2B00FF2D68
S1130CC00CD8FF28BCD94020F8E67100481E079BC9
S1130CD09C4660441A4B98470138EFE74020EDE604
S1130CE0044A136A02210B4313621825D4E6C04652
S1130CF05D2A000000040040713700000137000045
S1130D00112900006D3800000020004195370000D3
S1130D10F16F0000D963000095D626E80B2E113E32
S1130D205157000000002440D96800000000F03F43
S1130D30715D0000056F00005D290000000008409F
S1130D40A955000003681A7E920707D502221A7675
S1130D505B8B9B074120DB17184070475A8B520767
S1130D6006D55968C02292020A435A601820F4E753
S1130D700020F2E730B50268002301240225117E29
S1130D8021420BD1117E294206D101339BB2018944
S1130D909942F4D8122002E0002000E0002030BD87
S1130DA010B5046862688023DB02134363606162E8
S1130DB0024B98470123237610BDC046750D0000F1
S1130DC0F0B5DE4657464E464546E0B583B00600CC
S1130DD0894605684C882B681B01DB0F9A464B7AC1
S1130DE0002B2BD16B68584A13406B604B461B7A1F
S1130DF0002B27D14B461B885B004A46527A92034C
S1130E001343012213436B623000504B9847019007
S1130E105346002B03D04B465B88012B3BD06B68B9
S1130E20494A13406B60019B002B3AD0019803B0F0
S1130E303CBC90469946A246AB46F0BD897A444BE9
S1130E409847CFE74B461B885B004A46527A920389
S1130E5013438022120213436B6230003B4B9847CA
S1130E6001906B68384A13406B600028DED1300073
S1130E70384B984701900028D8D14B461B881B0A51
S1130E80782213435B004A46527A920301210A43B3
S1130E9013436B62B8E76A688023DB0213436B6019
S1130EA0C1E730002B4B984701900028BED1013C8C
S1130EB0A4B28046284B9B4615E0012C20D030007C
S1130EC0264B984743465F1CBFB22823EB5C4A4637
S1130ED052684146535430001C4B9847013CA4B21D
S1130EE0002815D1B8465C4514D06B8B9B0627D5DA
S1130EF0F37A002BE3D05346002BDED1002CDED155
S1130F006A688023DB0213436B60013CA4B2EAE706
S1130F10B8460190B37A002B09D130000F4B9847A3
S1130F202823EA5C4B465B6841465A547EE730000E
S1130F300A4B98476A68C0239B0213436B60ECE733
S1130F404123019372E7C046FFFFFBFF750D0000CC
S1130F50A10D0000450D0000FFFF00005D0A000028
S1130F60F0B5DE4657464E464546E0B583B006002A
S1130F700F0005684C88324B98477B7A002B1DD1B3
S1130F806B68304A13406B603B7A002B1BD03B8864
S1130F905B007A7A920313438022120213436B623A
S1130FA03000294B98470190002813D0019803B0D2
S1130FB03CBC90469946A246AB46F0BDB97A300097
S1130FC0224B9847DCE73B885B007A7A9203134311
S1130FD06B62E5E730001E4B9847031E0190E5D194
S1130FE0A046002420339946154B9B46164B9A463F
S1130FF0444515D06B8B4A4613421DD03000D84768
S11310007B681A5D2823EA543000D047002806D1B3
S11310106B8B01345B07EBD51E23019300E0019039
S1131020B37A002BC2D03000054B98476A68C023BE
S11310309B0213436B60B9E741230193B6E7C046B3
S11310405D0A0000FFFFFBFF750D0000A10D00000D
S1131050450D000010B501238372C372014B9847FC
S113106010BDC046C10D000010B5002383720133CA
S1131070C372014B984710BD610F0000F0B5D6460E
S11310804F464646C0B58AB006000F0014003160D2
S11310900B689B070AD40B680520DB0700D4AFE07C
S11310A00AB01CBC90469946A246F0BD936A0593CB
S11310B0D36A0693136B0793536B089300250AE0D6
S11310C03800B64B98470EE00F231840814530D1C5
S11310D00135042D31D0E9B2AB0002AA0C2012185C
S11310E0D0580028ECD0431CF2D001040B0C9946D4
S11310F0000CC3B29C460023020605D463465B0978
S1131100DB01A74A904643441F22604602409818D8
S113111040300078824680205146C907D6D552080F
S11311209B1830331878C0B26346DB07CCD500096E
S1131130CCE7002333601C20B2E71120994B984779
S113114022780025012A16D02178002927D13B686E
S1131150E27F1204A07F02431C209A42A0D1A3691B
S1131160A28B0430205C002801D0402002430820D8
S113117003431D4314E004AA0100A0698A4B984765
S113118003001720002B00D08AE73B7BDBB204AAC4
S1131190127805309A4200D082E70C35D4E7002259
S11311A06368A0680343E06803432B43207C024345
S11311B0607C002801D080200343A07C002802D05A
S11311C0802080020243E07C002802D0802080003E
S11311D00243207D002802D0802080010243386829
S11311E002252B43834203D0002333601C2057E79E
S11311F07B689342F8D17171237CB37100204FE76F
S113120008006A4B9847052800D1BFE00300123359
S11312106749CD69012282402A43CA6109A924256C
S1131220625D0A70DBB201931800624B9847019823
S1131230614B9847605D0021604B98472378012BF0
S113124020D02378002B03D13B68082213433B6052
S11312503368984604AB80221A7000225A70012128
S11312609970DA702378002B01D104AB9A70A36AC9
S11312700593E36A0693236B0793636B0893002734
S113128005AD11E03B680C2213433B60D9E74046AF
S1131290424B98470DE004A90870000CC0B2484BBB
S11312A098470137042F07D0F9B2BB0058590028DA
S11312B0EDD0431CEFD1F4E723787371237CB37131
S11312C0A37CF371237D3372002202ABDA8023788E
S11312D0012B14D02378002B29D1A069A28B43467B
S11312E05B6AE17F0904A57F294319434346596298
S11312F02023E35C002B1CD040231A4319E0306800
S11313002A4B98471230C0B2264B9847010002ABD3
S11313109A1DA069244B984703001720002B00D086
S1131320BEE602AB06331B7842461373D2E70022B3
S113133000206368A1680B43E1680B430343217CED
S11313400A43617C002903D11E498978890701D5A4
S113135080210B43A17C002902D0802189020A4309
S1131360E17C002902D0802189000A43217D0029E3
S113137002D0802189010A43414609680B43414652
S11313800B604B681A434A60002089E6084A136AD6
S113139002210B431362182340E7C0465D29000075
S11313A00028004095370000532800005D2A000003
S11313B000040040713700000137000011290000CB
S11313C06D3800000020004110B544791523012C2C
S11313D001D0180010BD047A0023002CF9D1002A92
S11313E058D04B78002B44D003681B7EDB0710D405
S11313F00A78D1090023002904D15309DB012E49BD
S11314008C4663441F21114001228A409A610523BE
S1131410DFE70A78D4090023002C04D15309DB0147
S1131420254CA44663441F2414400122A2405A615F
S113143003681A7ED20701D58A789A62C27900239A
S1131440002AC6D102680421137E0B42FCD0117E0F
S113145000234907BDD5538B5B0701D50423538370
S11314608379012B02D0936A0023B2E7936A0023A5
S1131470AFE70A78D1090023002904D15309DB011D
S11314800D498C4663441F21114001228A405A6150
S113149000239EE70A78D1090023002904D15309C7
S11314A0DB0105498C4663441F21114001228A4017
S11314B09A6100238DE7C0460028004070B5800083
S11314C0164BC45823689D7A227E637E13401D40C8
S11314D0EB0706D4AB070BD4EB0610D4AB0615D43C
S11314E070BD2000A3689847012322689372F1E736
S11314F02000E3689847022322689372ECE72000F7
S113150023699847102322689372E7E720006369F0
S11315109847236820229A72E2E7C046F00200202E
S113152010B50020014B984710BDC046BD14000003
S113153010B50120014B984710BDC046BD140000F2
S113154010B50220014B984710BDC046BD140000E1
S113155030B585B001AA0B4B32CB32C2019B984205
S11315600DD0029B984208D00023039A824202D0F5
S1131570180005B030BD023302E0012300E000236F
S1131580DBB2F5E764840000F0B5C64600B58AB066
S113159004000D0016000800AA4B9847804609ABCA
S11315A01B221A705A7002329A7003A9A64B0C338C
S11315B00A0083CB83C283CB83C20023A360E3608E
S11315C0236163612376637643469A009F4BD4502C
S11315D025603423F35CA376F378082B08D02371B9
S11315E02B680520DB0708D50AB004BC9046F0BD83
S11315F017204246D207F7D4F1E7EB7A17309B075E
S1131600F2D42B689B07EFD4337C002B12D1337FA9
S1131610002B1BD143465A0003A9531C9B00585866
S11316204346DB005B58D9B2042923D88B00884990
S1131630CB589F4602A901238B700022CA70327EC8
S11316400A704B70307D834B9847E0E702A9012371
S11316508B700022CA702432B21812780A704B7050
S11316601F33F31818787B4B9847D3E77A494B69B3
S113167018434861F378082B00D185E001A9337839
S11316800B7009AB42469F5C3800744B9847380096
S1131690734B9847F378F2791343B2881343727A01
S11316A0002A02D0802252021343B27A002A02D0C6
S11316B0802292021343F27A002A02D0802252033B
S11316C01343327B002A02D08022920313437178A1
S11316D08901B278D2011143194322681369002B9E
S11316E0FCD1296022681369002BFCD1B3792B73D8
S11316F0717B4B1E99418900B37B002B01D00123E0
S1131700194322681369002BFCD1FF332B71002984
S113171004D022681369002BFCD16971337A6B738E
S113172022681369002BFCD12379042B59D0082B90
S113173074D01720002B00D056E71369002BFCD17E
S1131740338DAB8222681369002BFCD1738DAB837C
S113175022681369002BFCD1B38DEB83002043E78F
S11317603D498B691843886184E73B49CB69184339
S1131770C8617FE738490B6A184308627AE7364B39
S1131780596A0843586275E743460133022B00DD6A
S113179074E703ABD11C8900C95802329200D358B4
S11317A0DAB2042A00D969E793002E4AD3589F4637
S11317B0294A53691943516160E7274A93691943D8
S11317C091615BE7244AD3691943D16156E7224A00
S11317D0136A1943116251E71F4B5A6A1143596244
S11317E04CE71369002BFCD12833F35C2B7522687A
S11317F01369002BFCD12933F35CEB76226813695F
S1131800002BFCD12A33F35C2B7722681369002B5D
S1131810FCD12B33F35C6B770020E5E61369002BD6
S1131820FCD1B36A6B6122681369002BFCD1F36AA3
S1131830EB6122681369002BFCD1336B2B6200200F
S1131840D2E6C0465115000064840000F002002076
S11318503C8400006D380000000400407137000033
S1131860013700005084000002681369002BFCD18A
S11318700379042B05D0082B0BD01720002B04D0A0
S11318807047C9B211750020FAE789B2918200202D
S1131890F6E751610020F3E702681369002BFCD1DD
S11318A0137101680B69002BFCD180335371537998
S11318B05BB2002BFBDB02681369002BFCD10379BC
S11318C0042B05D0082B09D00020002B03D070472F
S11318D0107DC0B2FBE7908A80B2F8E75069F6E762
S11318E00368D97A1522890701D5100070471A6850
S11318F092070DD51A69002AFCD133321A729A72F2
S11319001A6802218A431A6001680A69002AFCD114
S11319101A6801210A431A600022E6E710B5012281
S1131920024B5A61024B984710BDC0460024004048
S11319300D4B000030B585B0344A002353709370CA
S11319403F211170324C21706370A37001226946EB
S11319504A708B700A703F202E4B98472278D10929
S11319600023002904D15309DB012B498C4663442D
S11319701F2111400122100088409861274C2270D9
S113198000236360A36023746374A274E2742375F8
S11319902332A35420001830183A0021204B9847D2
S11319A080235B02E3601F4BA3611F4BA3620123EF
S11319B05B42E3621D4B23631D4B63631D4D220099
S11319C01D4928001D4B98472A68D369002BFCD178
S11319D0136802252B43136001AC2000184B984771
S11319E02023019380239B03636025720023637289
S11319F0A3720133E37221000020124B98470022A6
S1131A0000211148114B984705B030BD0003002058
S1131A10040300207527000000280040080300206C
S1131A207373000000093D000500530005003E00EB
S1131A300500520040030020001000427D10000009
S1131A40BD090000D10900001D1900003D08000077
S1131A5070B5084C80252D02A56180225203064BE7
S1131A605A61A5204000054EB04765610A20B04781
S1131A70A56170BD80280040002800405106000088
S1131A8070B582B00500EFF310835A4253410193BD
S1131A9072B6BFF35F8F0022334B1A70019C334E32
S1131AA0013233493000334B9847336801211A7EA1
S1131AB00A42FCD01A7ED20702D5802215439D62C9
S1131AC002211A7E0A42FCD004211A7E0A42FCD06A
S1131AD01A7E52070CD55A8B520701D504225A8319
S1131AE0224A9279012A34D09A6AD2B222490A80CF
S1131AF001211A7E0A42FCD01A7ED20701D50022A7
S1131B009A6202211A7E0A42FCD004211A7E0A42F9
S1131B10FCD01A7E002552070AD55A8B520701D5EC
S1131B2004225A83114A9279012A18D09D6AEDB28F
S1131B3000220F490D480F4B9847FF23234205D03D
S1131B400122094B1A70BFF35F8F62B6E8B202B08C
S1131B5070BD9A6AD205D20D07490A80C8E79D6A0A
S1131B60ED05ED0DE4E7C046090000204003002028
S1131B7004030020C9130000FC020020F0B583B068
S1131B8006000C00EFF310835A425341019372B6DE
S1131B90BFF35F8F0022344B1A70019D334F013223
S1131BA033493800334B98473B6801211A7E0A4277
S1131BB0FCD01A7ED20702D5C02216439E620221AF
S1131BC01A7E0A42FCD004211A7E0A42FCD01A7EF4
S1131BD052070CD55A8B520701D504225A83234A43
S1131BE09279012A33D09A6AD2B223490A80012118
S1131BF01A7E0A42FCD01A7ED20700D59C620221CA
S1131C001A7E0A42FCD004211A7E0A42FCD01A7EB3
S1131C1052070CD55A8B520701D504225A83134A12
S1131C209279012A19D09B6ADBB2134A13800022ED
S1131C300F490E480F4B9847FF232B4205D0012232
S1131C40094B1A70BFF35F8F62B603B0F0BD9A6A96
S1131C50D205D20D08490A80C9E79B6ADB05DB0D72
S1131C60054A1380E3E7C046090000204003002032
S1131C7004030020C9130000FC020020F0B5D6467E
S1131C804F464646C0B582B005000C00EFF3108302
S1131C905A425341019372B6BFF35F8F00223E4B09
S1131CA01A70019B98463D4F01323D4938003D4B27
S1131CB098473B6801211A7E0A42FCD01A7ED2075B
S1131CC001D520229A6202211A7E0A42FCD0042104
S1131CD01A7E0A42FCD01A7E52070CD55A8B520740
S1131CE001D504225A832D4A9279012A13D09B6A82
S1131CF0DBB22D4A1380631EDBB2002C36D00133D5
S1131D009C46AC442027254E012000239A460224F9
S1131D100421B1460FE09B6ADB05DB0D224A1380E8
S1131D20E9E74A469279012A1CD09F6AFFB22F70D4
S1131D30013565451AD033681A7E0242FCD01A7EFA
S1131D40024201D052469A621A7E2242FCD01A7E86
S1131D500A42FCD01A7E0A42E9D05A8B0A42E0D0E9
S1131D605983DEE79F6AFF05FF0DE0E700220C4977
S1131D700A480C4B9847FF234246134205D00122E0
S1131D80054B1A70BFF35F8F62B602B01CBC90465D
S1131D909946A246F0BDC046090000204003002039
S1131DA004030020C9130000FC020020F0B5C6465D
S1131DB000B582B004000D00EFF310835A42534182
S1131DC0019372B6BFF35F8F00223A4B1A70019BE6
S1131DD09846394F013239493800394B98473B68A6
S1131DE001211A7E0A42FCD01A7ED20701D5602254
S1131DF09A6202211A7E0A42FCD004211A7E0A4207
S1131E00FCD01A7E52070CD55A8B520701D50422F6
S1131E105A83294A9279012A0BD09A6AD2B2294963
S1131E200A80254A9279944621000127022004243D
S1131E300DE09A6AD205D20D22490A80F1E7624682
S1131E40012A1ED09A6AD2B21E4E32800131013D5F
S1131E50EDB2FF2D1BD01A7E3A42FCD01A7E3A42D4
S1131E6001D00A789A621A7E0242FCD01A7E22427B
S1131E70FCD01A7E2242E9D05A8B2242DFD05C8306
S1131E80DDE79A6AD205D20D0E4E3280DEE70022DB
S1131E900A4909480A4B9847FF234246134205D092
S1131EA00122044B1A70BFF35F8F62B602B004BC08
S1131EB09046F0BD090000204003002004030020E8
S1131EC0C9130000FC020020F0B5C64600B582B07C
S1131ED006000D001400EFF310835A42534101939E
S1131EE072B6BFF35F8F00224D4B1A70019B984668
S1131EF04C4F01324C4938004C4B98473B68012108
S1131F001A7E0A42FCD01A7ED20701D540229A6278
S1131F1002211A7E0A42FCD004211A7E0A42FCD015
S1131F201A7E52070CD55A8B520701D504225A83C4
S1131F303C4A9279012A2BD09A6AD2B23C490A804F
S1131F4001211A7E0A42FCD01A7ED20700D59E6275
S1131F5002211A7E0A42FCD004211A7E0A42FCD0D5
S1131F601A7E52070CD55A8B520701D504225A8384
S1131F702C4A9279012A11D09A6AD2B22C490A8049
S1131F80284A92799446280001260225042113E068
S1131F909A6AD205D20D26490A80D1E79A6AD205F7
S1131FA0D20D23490A80EBE76246012A1ED09A6AC1
S1131FB0D2B21F4F3A800130013CE4B2FF2C1BD057
S1131FC01A7E3242FCD01A7E324201D002789A62E2
S1131FD01A7E2A42FCD01A7E0A42FCD01A7E0A4299
S1131FE0E9D05A8B0A42DFD05983DDE79A6AD205D9
S1131FF0D20D0F4F3A80DEE700220B4909480B4B04
S11320009847FF234246134205D00122044B1A701D
S1132010BFF35F8F62B602B004BC9046F0BDC04609
S1132020090000204003002004030020C91300001D
S1132030FC020020F0B5D6464F464646C0B582B0F5
S113204004000D0017000120564B9847EFF310834E
S11320505A425341019372B6BFF35F8F0022524B31
S11320601A70019B9846514E013251493000514B30
S11320709847336801211A7E0A42FCD01A7ED2079F
S113208001D500229A6202211A7E0A42FCD0042160
S11320901A7E0A42FCD01A7E52070CD55A8B52077C
S11320A001D504225A83414A9279012A33D09A6A8B
S11320B0D2B241490A8001211A7E0A42FCD01A7E1A
S11320C0D20700D59C6202211A7E0A42FCD0042168
S11320D01A7E0A42FCD01A7E52070CD55A8B52073C
S11320E001D504225A83314A9279012A19D09B6A74
S11320F0DBB2314A13807B1EDBB2002F3CD00133AC
S11321009C46AC440027294E012000239A46022411
S11321100421B14615E09A6AD205D20D26490A80F7
S1132120C9E79B6ADB05DB0D234A1380E3E74A46D4
S11321309279012A1CD09F6AFFB22F700135654540
S11321401AD033681A7E0242FCD01A7E024201D0B1
S113215052469A621A7E2242FCD01A7E0A42FCD06F
S11321601A7E0A42E9D05A8B0A42E0D05983DEE74C
S11321709F6AFF05FF0DE0E700220D490B480D4B58
S11321809847FF234246134205D00122064B1A709A
S1132190BFF35F8F62B602B01CBC90469946A2465C
S11321A0F0BDC04651060000090000204003002095
S11321B004030020C9130000FC020020F0B5D64639
S11321C04F464646C0B506008A4614000120764BA9
S11321D0984700210020754B9847754F0122754997
S11321E03800754B98473B6801211A7E0A42FCD09F
S11321F01A7ED20701D540229A6202211A7E0A422F
S1132200FCD004211A7E0A42FCD01A7E52070CD557
S11322105A8B520701D504225A83654A9279012ABE
S113222055D09A6AD2B265490A8001211A7E0A42BF
S1132230FCD01A7ED20700D59E6202211A7E0A4281
S1132240FCD004211A7E0A42FCD01A7E52070CD517
S11322505A8B520701D504225A83554A9279012A8E
S11322603BD09A6AD2B255490A8001211A7E0A42A9
S1132270FCD01A7ED20702D5524612789A62022105
S11322801A7E0A42FCD004211A7E0A42FCD01A7E2D
S113229052070CD55A8B520701D504225A83444A5B
S11322A09279012A1FD09B6ADBB2444A138000272B
S11322B0002C43D05646013CE4B20134A244D0463B
S11322C000273B4D012002240421A9461BE09A6A01
S11322D0D205D20D39490A80A7E79A6AD205D20DF0
S11322E036490A80C1E79B6ADB05DB0D334A13805C
S11322F0DDE74A469279012A1CD09F6AFFB2377003
S11323000136B0451AD02B681A7E0242FCD01A7EE0
S1132310024201D072789A621A7E2242FCD01A7E5E
S11323200A42FCD01A7E0A42E9D05A8B0A42E0D013
S11323305983DEE79F6AFF05FF0DE0E71C4B1B682E
S113234001211A7E0A42FCD01A7ED20701D500224E
S11323509A6202211A7E0A42FCD004211A7E0A42A1
S1132360FCD01A7E52070AD55A8B520701D5042293
S11323705A830F4A9279012A11D09F6AFFB25346B9
S11323801F7000220B490A480B4B9847002100207C
S11323900B4B98471CBC90469946A246F0BD9F6AD9
S11323A0FF05FF0DEBE7C046510600008908000059
S11323B04003002004030020C9130000FC02002095
S11323C06908000010B50248024B984710BDC0468A
S11323D0500300205501000010B5054C0A220549A0
S11323E02000054B98470A212000044B984710BD54
S11323F050030020C5230000FD0200003903000043
S113240000B585B000236A46D370012269460A717B
S113241002930393A022D2000A806A468B70044977
S11324200448054B9847054B984705B000BDC04686
S1132430002000405003002031020000D923000096
S113244010B5FA218900414389B20A4C20000A4B95
S113245098470A4B98472000094B98470522802348
S1132460DB055A701A005378052BFCD1BFF34F8F4C
S113247030BF10BD50030020CD020000D92300005E
S11324802101000010B5014B984710BD0124000044
S113249070B503000D00144C601C10221900134B7E
S11324A09847647C124B1B78002B15D012220E49DE
S11324B08320104B984700220D4B1A70002D05D035
S11324C01022094901312800084B9847064B5C74D7
S11324D01820094B984770BD11220349013184200B
S11324E0044B9847EAE7C046A4000020617300004B
S11324F0D8000020BD21000051060000F0B5C646FA
S113250000B584B005000E001400002817D0002286
S11325103E4B1A7002323E4B1A700E3201003D4897
S11325203D4B984698473D4F10233B70781C102232
S11325302900C047112239008320394B9847002CC9
S113254003D0012C2FD000201BE0314B1B78012B32
S11325501BD02F4B1C70002E02D00020022E10D155
S1132560360170231E40E400683B1C4034432B4B6F
S11325701C708026764234435C740122294B1A7005
S1132580012004B004BC9046F0BD244D0F332B70E1
S1132590681C10221F49204B9847112229008320D0
S11325A01F4B9847D5E71A4B1B78012BD1D010222B
S11325B01A4B1A70154B1B78002B0ED0174D681C44
S11325C010221949144B9847112229008320144BD7
S11325D098470E4B01221A70BBE7104D2B708033C5
S11325E06B740F3A0F4B1A70002168460F4B9847D3
S11325F010232B70012229008320094B98471022B5
S1132600094984200A4B9847D8E7C046B600002001
S113261008000020C800002061730000A40000200E
S1132620C91E0000D8000020B8000020912400003A
S11326303520000010B5010010228420014B98477A
S113264010BDC046352000000C4B1B68002B06D182
S1132650EFF31083002B07D00022094B1A70074AAE
S1132660136801331360704772B6BFF35F8F0022A3
S1132670044B1A700132024B1A70F0E7DC000020A0
S1132680E000002009000020084B1A68013A1A6093
S11326901B68002B09D1064B1B78002B05D00122A7
S11326A0044B1A70BFF35F8F62B67047DC000020E2
S11326B0E000002009000020F0B5CE46474680B572
S11326C083B001AC012666700027A7702670210034
S11326D00E20234DA847234B98468023DB01424616
S11326E09361267021001220A8478023DB029946BB
S11326F043464A469A612770667021000720A8471E
S11327006670A770267021005220A84721003E2041
S1132710A84721003F20A84721002F20A8472100D7
S11327201420A847104B4A469A61104B8022D205C8
S11327309A61802212069A61802636029E61802365
S11327405B0342469361277021005320A847084B3E
S1132750DA691643DE6103B00CBC90469946F0BDBD
S11327607527000000280040002900408028004010
S11327700004004000B583B001AB80221A700A78CF
S11327805A704A789A708A78DA701900014B98471F
S113279003B000BD6D380000F0B5DE4657464E4626
S11327A04546E0B587B08046049116001F0000221C
S11327B0002300218B463F2401202100009601972D
S11327C05C4603944446059413E02024641A0500EF
S11327D0E540A84614E0009C019D121BAB415C46F9
S11327E04D462C43A346039C45462C430394013990
S11327F025D3202464420C19E7D40500A540A8463B
S113280004008C40A14692185B4114001D00059EF3
S11328104F463E40B446049E47463E40B246664656
S113282057463E4303D00600264332002B00009C4B
S1132830019D9D42DBD8CED19442D8D8CBE7039BEF
S11328405846190007B03CBC90469946A246AB4690
S1132850F0BD10B5490840230024814202D218007B
S113286010BD1C00091A631C9BB28842F9D940238D
S1132870FF2CF4D814800023F1E70000F0B583B0F6
S11328800F00160008AA117804004C434022BC42F1
S113289002D9100003B0F0BD002B14D102000800CF
S11328A00021194CA04701003A0000230020174CD6
S11328B0A04700220123121A8B41120C1B041A4355
S11328C032800022E5E70022012BF9D10A0000231F
S11328D000210D4CA04702000B0000920193380028
S11328E000210A4CA047050080239B014022984206
S11328F0CFD8790FF800009A019BA047EA00821A0A
S1132900D2B252032A43DBE7C156000099270000E4
S113291010B582B004000E4B1B78002B07D00029A1
S113292005D10B4B5B78834210D01D200CE001A92C
S11329300C701120074B98471120074B9847044B04
S11329405C7001221A70002002B010BD0020FBE769
S1132950E400002071370000013700002C4B98423E
S113296026D00AD92B4B98423AD02B4B984241D0CF
S11329702A4B984224D0002070478423DB059842D8
S113298008D0274B9842F6D102290DD003290DD047
S11329900020F1E7022903D0032903D00020EBE74C
S11329A02048E9E72048E7E72048E5E72048E3E74F
S11329B0012903D0002927D00020DDE71D48DBE7EB
S11329C0012907D0002921D0022905D0032905D0E7
S11329D00020D1E71848CFE71848CDE71848CBE7DF
S11329E0022903D0032903D00020C5E71548C3E713
S11329F01548C1E7022903D0032903D00020BBE70F
S1132A001248B9E71248B7E71248B5E71248B3E7E6
S1132A10000800420010004200040043000C004281
S1132A2000040042030006000300070003001E0028
S1132A3003001F000300090003001100030012003B
S1132A400300130003000E0003000F00030018002E
S1132A5003001900030008000300100030B587B01C
S1132A600B4B6A4632CB32C232CB32C2009B83421A
S1132A700BD001239A0069465258824206D0013392
S1132A80062BF7D1002007B030BD0023D8B2FAE7F7
S1132A908884000070470000F0B50A4B1B78002BB7
S1132AA00CD1094F094E0A4D0024DE515A19146005
S1132AB00433182BF9D10122024B1A708000024B07
S1132AC0C150F0BDE6000020E8000020952A000077
S1132AD0A003002000B583B008236A4613700133B5
S1132AE05370013393700133D37001331371013385
S1132AF05371034B98476B46185603B000BDC0464C
S1132B005D2A000010B5024B1B680020984710BDD9
S1132B10E800002010B5024B5B680120984710BD07
S1132B20E800002010B5024B9B680220984710BDB6
S1132B30E800002010B5024BDB680320984710BD65
S1132B40E800002010B5024B1B690420984710BD13
S1132B50E800002010B5024B5B690520984710BDC2
S1132B60E8000020F0B5DE4657464E464546E0B53F
S1132B7091B005000C00160029600800C44B98476A
S1132B80020005280DD00700123703002168052034
S1132B90C90709D511B03CBC90469946A246AB463C
S1132BA0F0BD18270123F1E7216817308907F1D414
S1132BB0052A47D0B749C86901229A401300034344
S1132BC0CB610FA92D239846F35C0B70FFB238003C
S1132BD0B14B98473800B14B98474346F05C00210D
S1132BE0AF4B9847F37A6B712423F35CAB712523C5
S1132BF0F35CEB71F37E2B72337F6B722B68984618
S1132C001800A34B9847123000220E2306A98C46C5
S1132C1063441A80328A02928023DB019A4200D1F3
S1132C20A9E017D9C023DB01029A9A4200D19DE0A2
S1132C3080231B029A4200D025E10323069300233C
S1132C40079310E09349086A043A9A401300034337
S1132C500B62B6E780239B019A4200D013E1102354
S1132C6006930F3B079333680593F36803937369E3
S1132C700493337E9B462623F35C9A4673689946F5
S1132C80002B00D19FE080235B05994504D12723C5
S1132C90F35C002B00D184E0737E002B02D0B37E62
S1132CA0424693732A68029FD369002BFCD10E33EA
S1132CB006AA944663441B8842469381059B039A63
S1132CC01343049A13434A4613431F435B461B02B0
S1132CD01F4353465B071F432723F35C002B01D19B
S1132CE004331F43737E9B02327F52021343727F6D
S1132CF0120213432422B25C520413432522B25C11
S1132D0012041343B17AF27A114319433389FF2B26
S1132D107DD080225204174319432C23F35C002BEB
S1132D2003D1604B9B789B0701D580231F432A68FE
S1132D30D369002BFCD1434659602A68D369002B20
S1132D40FCD143461F600EAB80221A7000225A70D9
S1132D50DA709A70336B0A93736B0B93B36B0C93A7
S1132D60F36B02930D9300270AAE5EE008230693EB
S1132D70073B079377E733680593F3680393736915
S1132D800493337E9B462623F35C9A4673689946E4
S1132D90002B14D080235B05994500D177E70020F0
S1132DA020E0336A1F00C0B23F4B984701000E2257
S1132DB006AB9C46624438003C4B984712E008231B
S1132DC00693002307932723F35C002B0ED0069B66
S1132DD00093079B0E2206A98C466244B16A306AAE
S1132DE0334FB847002800D0D4E655E7336A1F00B4
S1132DF0C0B22D4B98470100069B0093079B0E22FF
S1132E0006A8844662443800294FB847EAE7F37EAF
S1132E10002B82D08023DB041F437EE72000254B58
S1132E20984707E00137042F0DD0F9B2BB00985939
S1132E300028F3D0431CF5D00EA90870000CC0B2D2
S1132E401D4B9847EEE70023EB602B616B61AB6190
S1132E50EB612B62AB626B620022EB85AB85303396
S1132E60EA540133EA540133EA540133EA5428683A
S1132E70074B984704001149114B9847A400114B84
S1132E80E550002086E61023069300230793EAE624
S1132E905D2A000000040040713700000137000083
S1132EA0112900000020004195370000532800003C
S1132EB07D2800005D2900006D380000FD2F000012
S1132EC0992A0000A0030020C2791C23002A01D102
S1132ED018007047C28D92B2173B002AF8D10368DC
S1132EE0DA69002AFCD1198502211A7E0A42FCD033
S1132EF00023EDE782791C23002A01D118007047D2
S1132F00828D92B2173B002AF8D10268107E4007E6
S1132F10F4D5D369002BFCD1538BDBB298061DD0BA
S1132F20980703D5022353831833E7E7580703D5DB
S1132F30042353831A33E1E7D80703D501235383CA
S1132F401233DBE7D80603D5102353833233D5E796
S1132F509B0603D5202353832133CFE7138D0B80A6
S1132F600023CBE7F0B5D64600B584B00400019148
S1132F701720002A03D104B004BC9246F0BDA37903
S1132F800530002BF7D02668013A93B29A46002503
S1132F90042719E0002302AAD380911D2000154BB9
S1132FA098470028E7D1691C89B202ABDB88019AF3
S1132FB053556279012A14D00D005346013B9BB24C
S1132FC09A460D4B9A45D6D0337E3B42E2D10A4B0A
S1132FD0327E3A42DED1012B09D0013B002BF7D1DE
S1132FE0D8E70235ADB21B0A019A5354E5E7122023
S1132FF0C1E7C046F52E0000FFFF0000F8B58000D1
S1133000624BC5582C68E369002BFCD1237EA67D56
S11330101E403023EB5C3122AF5C1F40F30722D506
S1133020EB8D9BB2002B1CD0AA6A1378DBB2511C27
S1133030A962697901290ED09BB2DB05DB0D2385DA
S1133040EB8D013B9BB2EB85002B0CD10133237537
S11330500133A37507E0517809020B430232AA62D7
S1133060EBE701232375B30706D50223237500225A
S11330703133EA54FB071AD4730765D5AB8D9BB281
S1133080002B5FD0638BDBB21A0714D43F221340AA
S1133090002B34D09A0711D51A223223EA54303B3C
S11330A063837B0750D528006B6998474CE0280060
S11330B0EB689847E0E737221340E9E75A0705D55C
S11330C01E223223EA542E3B6383EAE7DA0705D54E
S11330D013223223EA54313B6383E2E7DA0605D54F
S11330E042223223EA54223B6383DAE720221A4243
S11330F0D7D021323223EA54123B6383D1E7238DA4
S1133100DB05DB0DDAB2696A0A706A6A511C69620E
S11331106979012910D0AB8D013B9BB2AB85002BA3
S113312012D10433237500222E33EA54BB070BD586
S113313028002B69984707E01B0A53706B6A013318
S11331406B62E8E704232375F30604D51023237583
S11331502376FB060ED4B30604D5202323752376E9
S11331603B070BD4330704D5082323752376BB060A
S113317008D4F8BD2800EB699847ECE72800AB6950
S11331809847EFE72B6A28009847F2E7A00300204E
S113319010B5082803D880001D4B1B589F460020FB
S11331A034E01C4B186931E01B4B187D0007800F7D
S11331B0431C1A48584329E0164B586926E0154B1E
S11331C01B6800209B0721D5134980225200CB683D
S11331D01342FCD00F4B1A6824231340042B01D054
S11331E00F4813E000200F4B98470A4B9B681B04C1
S11331F01B0C58430AE02823074AD35C00209B0792
S113320004D5044BD86801E08020000210BDC046FC
S1133210A084000000010020000C004000093D00D3
S1133220006CDC029537000070B50B4C237D85786B
S1133230467802780321114089000C2293430B4302
S11332400B3A3240920140218B431343ED017F221C
S113325013402B43237570BD000C0040F0B5CE46DF
S1133260474680B5194B99469B6941788C46057849
S11332700679C778447980780121084080000422C7
S11332809343034360460840C0000432934303431E
S11332903800084080014027BB4303433000084006
S11332A0C0018026B3430343072005402D0208488C
S11332B003402B4321400903064803400B434A467D
S11332C093610CBC90469946F0BDC0460010004086
S11332D0FFF8FFFFFFEFFFFF082803D88000294B0A
S11332E01B589F4617204BE0274A137D02210B43AE
S11332F01375002044E0254A936902210B4393612E
S113330000203DE0204A138A02210B43138200204F
S113331036E01E4A536902210B43536100202FE01B
S11333201B490B68022213430B60174B1A831900C5
S1133330FE32CB681342FCD0154A9168124B1962D5
S11333405268DA6100221A8319000132FF32CB6815
S11333501342FCD00E4B1B689BB20B4A1383002014
S11333600EE0094928228B5C022003438B54080099
S11333703821263A435C1342FCD1002000E00020AF
S11333807047C046C4840000000C00400010004098
S113339000010020082832D880001A4B1B589F4691
S11333A0194A137D02218B43137500207047174A75
S11333B0936902218B4393610020F7E7124A138A31
S11333C002218B4313820020F0E7104A5369022143
S11333D08B4353610020E9E70D4B1A6802218A43AD
S11333E01A601B689BB2084A13830020DEE7064973
S11333F028228B5C022083438B540020D6E71720BD
S1133400D4E7C046E8840000000C004000100040EF
S113341000010020F0B5D6464F464646C0B586B0FA
S113342080225200494B9A60FD3A494B9A60494ABE
S113343053681E218B4353608023DB059B78022B4A
S113344009D08023DB0501229A7101329A701A0097
S11334509379002BFCD004A80125457085700024C5
S1133460C47005710723037044713B4B98470420D3
S11334703A4EB04701A94D604C700C724C72032354
S11334800B700020364B98470620364B98476B4606
S11334905C701D709C706846334B98470620B0479B
S11334A02A491022CB681A42FCD001AC012666607E
S11334B000256570062399462370257265722100E4
S11334C00020274B98469847204A137D80210B43C0
S11334D01375264B984766606570257265720423E0
S11334E0237021000120C0470120214B9A469847B0
S11334F0204FBE717E713E71666065704B462370CD
S11335002572657221000020C0470020D0470020AA
S1133510194B98473979C9B2184B9847184B9842B8
S11335200ED88023DB059B78002B09D08023DB0594
S113353001229A7100229A701A009379002BFCD010
S113354006B01CBC90469946A246F0BD000C004053
S113355000140040004000415D320000D9320000F8
S1133560A93500009533000029320000853500009C
S1133570553600000004004095360000A9550000AF
S1133580001BB700064A536940210B4353610122D3
S1133590044B1A7019000B781342FCD17047C046D3
S11335A0000400400018004070B504000D784B780A
S11335B0002B02D08023DB001D434B7A002B02D06A
S11335C080231B011D43486801280FD9431E18425C
S11335D031D102282DD90223002201325B00984206
S11335E0FBD880235B011D43120415430B7A002B87
S11335F002D080239B011D430426A6401149124A90
S11336004B6813401E42FBD1104B9847A4000D4B4E
S11336109C466444226A80235B001A402A43226247
S11336206146094A4B6813401E42FBD1084B984738
S113363070BD0022D5E7000480239B001843054396
S1133640D4E7C04600180040FC07000049260000EB
S11336508926000010B504000422824009480A4962
S113366043680B401A42FBD1084B9847A400054B12
S11336709C466444226A80235B0013432362044B08
S1133680984710BD00180040FC07000049260000C0
S113369089260000F8B50400042282401248134928
S11336A043680B401A42FBD1114B98470E4F083424
S11336B0A400E0590007000F0E4B98470600E55997
S11336C0ED04ED0FE459240C0B4B9847002D07D162
S11336D0012C07D921003000084B9847060001E06F
S11336E00134E6403000F8BD00180040FC0700003B
S11336F0492600009131000089260000A9550000E8
S113370010B50400094B9847A000094B9C4660443F
S11337108022835840210B4383504031403A435820
S11337201A42FCD0034B984710BDC04649260000FE
S1133730001800408926000010B50400094B984782
S1133740A000094B9C4660448022835840218B434F
S113375083504031403A43581A42FCD1034B9847B6
S113376010BDC0464926000000180040892600000C
S113377070B504000D00054B98472A780F231340B9
S11337802034A400024AA35070BDC046393700005B
S11337900018004010B50400064B98472034A400DC
S11337A0054BE4582407240F044B98472000044B8E
S11337B0984710BD492600000018004089260000E3
S11337C09536000030B5D378002B35D11378802B93
S11337D029D01B0680246402234354780225AC4379
S11337E006D19478002C20D18024A4022343416084
S11337F05478013C012C1CD90D042D0CA024E405A3
S11338002C431C4384620D0CD02424062C431C43FB
S11338108462D478002C22D15B031CD59378012BCD
S11338201ED0416117E00023D7E7C024E4022343FC
S1133830DDE70D4C2340DFE741600C04240CA0239A
S1133840DB05234383620C0CD0231B0623438362D2
S1133850D378002B03D15378013B012B02D930BD1F
S11338608161F8E78160FAE7FFFFFBFF10B50A000A
S1133870C1090023002904D14309DB0105498C4611
S113388063441F242040012181401800024B9847C3
S113389010BDC04600280040C53700007047000036
S11338A010B5054B9847054B9847054B9847054B72
S11338B09847054B984710BD15340000B926000001
S11338C09D3800003D0900009D380000FEE700001F
S11338D010B51A4A1A4B9A4211D01A00194B9A423F
S11338E00DD2194A03339B1A9B0801339B00002213
S11338F0134812498C58845004329A42FAD1134A1C
S1133900134B9A420AD2D34311495B1803218B43C8
S113391004339B18002102C29342FCD10D4AFF21BB
S11339200D4B8B4393600D4A53687F390B435360AF
S11339300B4B98470B4B9847FEE7C0468C8700001B
S113394000000020840000200400002084000020E7
S11339503C0B002000ED00E00000000000400041AE
S11339601973000091530000F0B5C64600B50C0071
S1133970904600280FD1002A11DD8F18094E0A4DF8
S1133980306821002B6898470134BC42F8D1404686
S113399004BC9046F0BD01235B429846F7E780469D
S11339A0F5E7C046C0030020B8030020F0B5C646C2
S11339B000B50E0015000138022810D8002A11D0D5
S11339C000240C4B98460C4F43461868315D3B6805
S11339D09847002808DB0134A542F5D106E001240C
S11339E0644203E0140001E001246442200004BCAA
S11339F09046F0BDC0030020BC0300200300064A2B
S1133A001268002A04D0044A1068C318136070476F
S1133A100249014A1160F6E718010020402B0020FA
S1133A2001204042704780239B014B600020704777
S1133A30012070470020704770B582B005000E0069
S1133A4000226B46DA80064C6B46991D2800A0477D
S1133A500028F9D16B4606331B88337002B070BD61
S1133A60F52E000070B505008CB2034E210028002D
S1133A70B0470028FAD170BDC92E000010B582B03D
S1133A806B46DC1D012221000F48104B984772B68B
S1133A90BFF35F8F00220E4B1A700E4B1B782178F8
S1133AA00D4AD1549B2B0AD001330A4A13700122C8
S1133AB0074B1A70BFF35F8F62B602B010BD0022CD
S1133AC0044B1A70F3E7C0461C010020652F000068
S1133AD009000020EC01002050010020F0B591B055
S1133AE08023DB05009300230193FF2269460A81AA
S1133AF000228B72CB720124242168464454013184
S1133B00445401314354013143540A93053143541D
S1133B100131435405930382C376027602774276D9
S1133B20132383764277C4239B03039301235B42CD
S1133B300C930D932D4B0E932D4B0F93E1235B02AE
S1133B4008932C4D2C4B1D602C4A2D4B1A602D4A8A
S1133B502D4B1A606A462D4928002D4B98472D4F4E
S1133B603B68986800212C4EB0473B685868002198
S1133B70B0472E683000294B98471F2318408440D3
S1133B80274B1C602A68D369002BFCD133680222BE
S1133B9013433360174B1B68DA69002AFCD1596858
S1133BA0802252020A435A600121124AD171DA6911
S1133BB0002AFCD1DA69002AFCD1596880229202D9
S1133BC00A435A6001210B4A9171DA69002AFCD137
S1133BD014490320144B984704220C4B9A758022F5
S1133BE012010F4B1A6011B0F0BDC046020018005C
S1133BF0020019001C010020C0030020653A0000E7
S1133C00BC030020393A0000B8030020000C004235
S1133C10652B0000200000208D740000D52A0000D0
S1133C2000E100E07D3A0000992A0000F8B50400A4
S1133C300B4F0C4E1F2503210220B8470120B0472B
S1133C4028400828F7D1064F064E1F2521000220E0
S1133C50B8470120B04728408442F7D1F8BDC04698
S1133C607D1B0000811A000010B50820064B984700
S1133C700F20064B9847064B1B78002B00D110BD34
S1133C801620014B9847FAE72D3C0000811A0000EA
S1133C907002002010B5040019200C4B98470F2027
S1133CA00B4B984761788B1C63700131C9B2601C5F
S1133CB0084B98470322084B1A70084B8022520382
S1133CC09A61C046C0465A6110BDC0462D3C0000F2
S1133CD0811A0000AD1D0000710200200028004080
S1133CE0F0B5C64600B506200D4B984700240025C4
S1133CF00C4F0D4E032398460120B8470620B047C9
S1133D00400943461840A0400543ADB20234102C8C
S1133D10F2D1064B9847280004BC9046F0BDC0463B
S1133D202D3C000051060000811A0000693C00008F
S1133D3070B5104B9847104B984700220F4B1A70E0
S1133D40FF210E200E4B98470D4E0E4D1F240821C7
S1133D500220B0470120A84720400828F7D12E218F
S1133D600438074CA047A0210C20A047E1210520DE
S1133D70A04770BD35190000511A000070020020E0
S1133D807D1B0000811A000010B504000820054BBB
S1133D9098471F23010099432143C9B20820024BCD
S1133DA0984710BD811A00007D1B000030B583B018
S1133DB06B469D1DD880C1B22220034CA047697870
S1133DC02320A04703B030BD7D1B000070B582B036
S1133DD06B469E1DD880C4B221002020054DA84703
S1133DE0767831002120A847A419E1B22D20A847F4
S1133DF002B070BD7D1B000010B50820044B98472D
S1133E0080225203034B9A610222034B1A7010BDA5
S1133E102D3C0000002800407102002010B5040071
S1133E20080000220021054B984700212000044B84
S1133E3098472000034B984710BDC046FD2400005E
S1133E40912400003526000010B50278084B1A7042
S1133E5042785A700A78074B1A704A785A700120CF
S1133E60054B98470548064B9847012010BDC046AE
S1133E70C80300203C0A0020CD3D000011110000C1
S1133E80AD3D0000F0B5C64600B5A6B006000C0076
S1133E909C462C992509230700D00135404B1A7004
S1133EA0002302A803700D334370827000223C4B40
S1133EB08F5CD0184770100002AFB84640448F5C46
S1133EC0C7710132082AF3D163466A46D371D379A4
S1133ED0334843724246D37063461B041B0E8372FD
S1133EE0137163461B021B0EC372537163461B0E90
S1133EF0037393710023D373042242738373C473D3
S1133F002849294B9847002306A902AA9A5C5A54C7
S1133F100133102BF9D127001037102F0ADD1020A0
S1133F2006A9F218103A12780A540133DBB21800C9
S1133F30BB42F6DB23001033DBB21A000135290142
S1133F408B4207DA06AC0020A0540133DBB21A001E
S1133F508B42F9DB00220027002D15DD104E1201E3
S1133F60002306A98C189919E25C087842400A706B
S1133F700133102BF7D10B4909480B4B98470137F4
S1133F80FFB23A00AF42EADB002308480449CA5CA6
S1133F90C2540133102BFAD126B004BC9046F0BDB4
S1133FA0D80300200C0000201D3E0000280A002039
S1133FB0F0B5DE4657464E464546E0B58DB08046E0
S1133FC00E0014001A0009780D090B0700D0013502
S1133FD0364B5B68009323004046354FB84733782F
S1133FE02E002D01AB4207DA00214246D1540133A1
S1133FF0DBB2AB42FADB9046012204AB1A702B4BC6
S11340005868002304AAD218C15C51700133082BEC
S1134010F8D104AB5C72220A9A72220CDA72240E72
S11340201C7304225A7300229A73DA73731C994620
S113403000239B4603934B46002B2FDD08AC04ADB5
S11340401C4B9A461C4E17E01A5DCF5C7A40CA544A
S11340500133102B07D00028F6D11A5D6746FF5CA8
S11340607A40F254F4E70130E873039F0137FBB25E
S113407003939B464B4511DA00235A5D1A550133CD
S1134080102BFAD10D492000D047E87B594601395D
S11340900901002341440A4A9446DCE701200DB09B
S11340A03CBC90469946A246AB46F0BDD0030020E6
S11340B0853E00001D3E0000FC0300200C00002093
S11340C0280A00200E4B1A780E4B1B7800209A42C7
S11340D000D070470A4B5A780A4B5B789A42F8D161
S11340E0074B9A78074B9B789A42F2D1044BD878C5
S11340F0044BDB78C01A43425841C0B2E9E7C046DA
S1134100FC030020380A0020F0B5DE4657464E4630
S11341104546E0B591B081460691049205931AABE9
S11341201B7807930B781A09190700D00132100085
S11341301201934207DA00214C46E1540133DBB209
S11341409342FADBA146012208AB1A700023049CB7
S113415008AAD218E15C51700133082BF8D108ABDE
S1134160059959720A0A9A720A0CDA720A0E1A73BB
S113417004225A7300229A73DA73431C9A46002568
S1134180002398465346002B2EDD0CAC08AE264B7C
S11341909B46264F43460393A84614E01A5DE95C08
S11341A04A40EA540133102B04D00028F6D11A5D9A
S11341B0FA54F7E70130F073039D0135EBB2039332
S11341C09846534510DA00239A5D1A550133102B93
S11341D0FAD117492000D847F07B4246013A120130
S11341E000234A441500E0E7069B19780439C9B254
S11341F01970049B0093059B079A48460D4CA047F1
S113420000230D4D094C0D48E25CC15C4A40EA5460
S11342100133102BF8D10A4B984711B03CBC90469F
S11342209946A246AB46F0BD1D3E0000E8030020BF
S11342300C000020853E0000FC030020280A00201A
S1134240C540000010B500230A2801D9180010BD8C
S1134250024B1870024B98470123F7E73E0A0020EF
S1134260893D0000F0B5DE4657464E464546E0B56A
S1134270A7B00390049115002D0A05920193C0B2D2
S11342808306DB0F98468A46D7B2EDB2430700D5C2
S11342900127082303401A00534253415B421D4047
S11342A003230340012B3BD05A425A41D2B29146D8
S11342B003AA5289A7490988914234D0002293461F
S11342C00732029716000836002F00D0961C002DE6
S11342D038D00236F6B224221040202835D0032BE1
S11342E038D003AA43465B01147820218C431C4335
S11342F01470230735D406AB1E7030AA1278B61892
S11343005E7006AB4A469A70E3439B073CD0029B1F
S1134310002B5CD0002D41D0882206ABDA7040E03F
S113432003229146C4E78C498A4207D04022494679
S1134330114389463F3A93460432C2E7002293462A
S11343400732BEE70836F6B2C5E7043A49461143D8
S11343508946C4E70125002398469B4699460726CB
S1134360BFE708234A461A4391467C4B1A684B46DA
S113437030A901987A4FB84706AB1E7030AA12785C
S11343800932B6185E70BCE706AB8022DA70754954
S11343900A78501C08701A7105223FE0C82206AB47
S11343A0DA70704B1A78511C197006AB1A7103AA93
S11343B0917A5971D27A9A7163072AD406AB52461C
S11343C01278DA71524652781A72092226E0002DC8
S11343D00FD006AB8C22DA7062490A78501C087040
S11343E01A7103AA917A5971D27A9A71630710D417
S11343F08FE006ABCC22DA705A490A78501C087058
S11344001A7103AA917A5971D27A9A71630700D406
S11344107BE006ABFF22DA711A72F63A5B46002B98
S113442009D1531CDBB206A94A4804788C540232E1
S1134430D2B24078C854002D00D175E006A94A488C
S113444003788B54931CDBB20132D2B24078885487
S113445003AA414649011678202086430E4316706C
S1134460320715D51900002206AD3C4F481CBC5C30
S11344706C540132C1B2042AF8D11A1DD2B23748A1
S11344800168013101600533DBB2002006A98854BC
S113449030AA1178002956D0019A5918C9B206AD2C
S11344A0581C1478EC540132C3B28B42F8D106AADA
S11344B02E4B18785054481CC0B25C781454881C95
S11344C0C0B29C7814540331C9B2DB785354284ADF
S11344D0137801210B43137024231E40202E34D063
S11344E0234A137802218B43137006A8214B984763
S11344F01F4B18784007C00F0123584027B03CBC1D
S113450090469946A246AB46F0BD029B002B00D0D4
S113451054E70023504606AAD218C15CD171013376
S1134520082BF8D10F2279E7134B59681500083589
S1134530EDB206AC531CDBB20878A05401311A006A
S11345409D42F7D184E71900B1E7137802210B43A8
S11345501370CAE73C0A0020FFFF0000240A002071
S1134560B13F0000C4030020C8030020FC03002066
S1134570400A0020953C0000D003002070B50500DF
S11345802424054E29782000B04701350134E4B2D3
S11345902C2CF7D170BDC0467D1B000010B582B035
S11345A06C4600900191134B9847134B06CC06C3FD
S11345B0124B984704000122114B1A70114B984773
S11345C0114B1C700B22114B1A701148114B984758
S11345D00022114B1A70114BC322D20099180022E9
S11345E01A704E338B42FBD101220D4B1A6001200D
S11345F002B010BD313D0000D0030020E13C0000BA
S113460070020020693C0000C40300203E0A002020
S1134610200B00207D450000400A00200C040020EF
S1134620240A0020044B1B78132B04D84E22534336
S11346300021024A995470470A0000200C0400200B
S1134640F0B5D646474680B583B0D34B1B78DB071D
S11346500CD5D24B1B889BB2052B1FD90022CF4B04
S11346601A80CD4A137801218B431370FF22CC4B5F
S11346701A70CC4B1B78002B00D02DE2CA4A0133B0
S11346801178002910D10133DBB24E32142BF7D14B
S1134690002003B00CBC90469A46F0BDBF4A138874
S11346A001339BB21380E1E7BD4A13700020132B42
S11346B0EFD819004E205843BA4A121855784024AE
S11346C02540BA4800240470C4739278332082438E
S11346D0D0B2882800D1E2E00CD9D0B2C8284AD0A0
S11346E0CC2800D1AAE08C2800D120E1B04B984717
S11346F00020CEE7082A00D160E18028F6D1AB483B
S1134700027804242243802464422243027001225A
S1134710C273A44C4D32514365182E7906746D79D9
S1134720457453439A1D121942600A5D0B3A027391
S113473008331B1983609A4B1A784E235A43994BBA
S11347409B185B781B0700D558E1954B1A784E23CC
S11347505A43944B9B185A7807231340012B00D1DA
S11347609EE1002B00D1B1E1032B00D1A6E1904BD7
S1134770984700208DE74E2058438A4A12189279B0
S1134780FF2A39D089480478802252422243027099
S1134790002D3ED0834C4E22514365182E79067469
S11347A06D79457453431A000832121942600A5D48
S11347B0133A027310331B198360794B1A784E2312
S11347C05A43784B9B185B781B07BED5774B9B6885
S11347D05F783F021A7817439A78120475490F409C
S11347E01743DB781B063F023F0A1F43724D002428
S11347F0A8466E4B9A4609E14E205843694A12185E
S1134800D279FF2ABED16948027804242243027077
S1134810B8E76648634C4E22514365182E7A0674F5
S11348206D7A457453431A000A32121942600A5DC4
S1134830153A027312331B198360BEE75B48047890
S11348408022524222430270002D13D0554C4E2236
S1134850514365182E7906746D79457453431A00D3
S11348600E32121942600A5D193A027316331B198B
S11348708360A2E74D484B4C4E2251436518AE7BF2
S11348800674ED7B457453431A00103212194260CA
S11348900A5D1B3A027318331B1983608DE74E209F
S11348A05843404A12189279FF2A1ED03F4A14787E
S11348B080204042204310700120D073002D21D16C
S11348C01000384C4E22514365182E7A06746D7AC6
S11348D0457453431A000A32121942600A5D0F3AB2
S11348E002730C331B19836025E74E2058432D4A6D
S11348F01218D279FF2AD9D12C48027804242243F1
S11349000270D3E72948274C4E22514365182E796B
S113491006746D79457453431A00083212194260C3
S11349200A5D0D3A02730A331B19836003E71F4AB9
S1134930147880204042204310700120D073002D51
S113494014D01000174C4E22514365182E7906746A
S11349506D79457453431A000D32121942600A5D91
S1134960133A027310331B198360E4E60F480D4CAD
S11349704E22514365186E7B0674AD7B45745343D8
S11349801A000F32121942600A5D153A027312338B
S11349901B198360CFE6C046400A0020EE010020C8
S11349A00A0000200C0400205A040020AC0A002055
S11349B025460000FFFF00FF480A00204E20584310
S11349C0484A12189279FF2A0BD04748454C4E2288
S11349D05143095D0A390173534308331B1983603A
S11349E0A9E64E2058433F4A1218D279FF2AECD147
S11349F03D480278042422430270E6E73B4B984783
S1134A00002046E601340A350A2C1AD0E6B2A30087
S1134A101B195B0043445B7ADB09F3D053465968A6
S1134A202800334B98470028ECD0092E09D8FF23DF
S1134A301C40A2002F4BD358BB422BD8A4002D4BB3
S1134A40E75029490B7B053BDBB20B738868C3181D
S1134A505C78294A14709C785470DC7894701B79C3
S1134A60D3704A680C310530244B1C784E235C43C8
S1134A701C4B1B195B7800933B00214CA04700287A
S1134A800BD0194B9A6805329A601A7808210A43A8
S1134A901A705AE6154B9847B2E7144B9847AFE79C
S1134AA0114A137803218B4313700F4B154A127864
S1134AB09A73154A12785A730120EAE50A4A137860
S1134AC003218B4301210B431370EEE7064A13784D
S1134AD003210B431370E8E70022084B1A700023EC
S1134AE0E7E5C0460C040020AC0A0020254600007F
S1134AF0F54C0000C80A0020380A00200A000020F3
S1134B0009410000C5030020F8030020F0B583B07C
S1134B103C4B1B78022B0AD00F203B4B98470307D2
S1134B2005D5384B1B78012B03D0032B4ED003B093
S1134B30F0BD364B1E78002E44D0354B01241A7834
S1134B40002A41D00134E4B24E33142CF7D1FF26AD
S1134B5007202D4B98475B382E4B18706B46DD1D94
S1134B60012128002C4FB84729780531C9B22B48B8
S1134B70B84729788B1CDBB24E2046432348335474
S1134B804C2B11D826480378202423430370023188
S1134B90012301241D488019204DEA5CC2540134CC
S1134BA0E4B223008C42F8DD1C4B1C19023C227831
S1134BB01C4B1A70144D1F240120A84720401628AE
S1134BC0FAD1B4E73400C3E72600C1E702200E4B54
S1134BD09847134B1A7804218A431A701A780239B9
S1134BE08A431A704009C0B2052804D11A001B7800
S1134BF004210B4313700C4B98470122014B1A708C
S1134C0095E7C04671020020811A00000C040020C0
S1134C105A040020F80300207D1C0000F00100204D
S1134C20400A0020C5030020693C00000022002047
S1134C30074902E001320A2A09D093009B185B005D
S1134C40CB185B7ADB09F5D00130C0B2F2E77047CC
S1134C50480A0020F0B5D6464F4680B589B0039285
S1134C6010AC2478A14605AC002501274740012655
S1134C70B44637407E01B2460326334062460240C2
S1134C809200564633439A464E4663461E40F6000B
S1134C905346134365722072BF0133433B43802064
S1134CA04042034323706181074E33780093074BDE
S1134CB005980399079A064CA047357009B00CBCB7
S1134CC091469A46F0BDC046F50A0020F80A002035
S1134CD06542000010B582B0044B1988009000238F
S1134CE000220120024CA04702B010BDC40A0020DB
S1134CF0554C000010B502780B789A4209D1012373
S1134D00C45CCA5C944206D10133082BF8D101205B
S1134D1010BD0020FCE70020FAE7000010B5044AAB
S1134D20137808218B431370024B984710BDC0467B
S1134D30F40A00202546000010B504000021034BAE
S1134D409847002801D0024B1C7010BD454200005A
S1134D507202002070B584B00022374B1A70374BB2
S1134D601D68374B1C68374B1968374B1A68374B2B
S1134D702E0A76191E702E0C2D0E75195D70250ADB
S1134D802D199D70250C240E2C19DC700C0A641846
S1134D901C710C0C090E61185971110A891899714A
S1134DA0110C120E8A18DA7100280AD1284B190046
S1134DB0643100225A721A705A709A700A338B4204
S1134DC0F8D10022234B1A70234B1900283104C355
S1134DD09942FCD1214C224B238002AA1378022150
S1134DE00B4387210B4040210B43012101408900E3
S1134DF0C3201840084301239843107002981349B4
S1134E00184B98476B46981D01235B420380210091
S1134E10154B9847154B1878154B9847154B1B782D
S1134E201B0109221343144A137000210020134B61
S1134E309847012004B070BDF40A00200CA0800043
S1134E4040A0800044A0800048A08000200B0020E7
S1134E50480A0020F50A0020C80A0020C40A0020DD
S1134E60111100009D450000493E0000720200201F
S1134E70394D00001C000020C00A00206908000011
S1134E80F8B5D646474680B5314B5B689A46314DF6
S1134E900024FF26A84605E0FF2E14D001340A356D
S1134EA00A2C12D0E7B2A3001B195B0043445B7ABF
S1134EB0DB09F1D029005046274B98470028EDD054
S1134EC03E00012402E03E00E8E70024FF2E39D032
S1134ED0224B1B78002B36D1214B1E70B10089194F
S1134EE049001C4BC918002330005246D25CCA54F6
S1134EF00133082BF9D1850028184000154B1818E8
S1134F00417A80235B420B434372114B9B689C465E
S1134F10997801231940437A0127BB430B43437219
S1134F206346DB78037200220E4BEA500E4B1E7070
S1134F300E4A137810218B4313700D4B98470D4B79
S1134F40187000E0F12420000CBC90469A46F8BD8D
S1134F50280B0020480A0020F54C00001C0000200B
S1134F60F00A0020C80A0020440A0020F40A0020A5
S1134F702D4C0000C70A0020F0B587B0904B1B7879
S1134F801B0701D507B0F0BD8E4B98470028F9D018
S1134F908D4B19784B07DB0F8C4A13700322CC0816
S1134FA001200440E40013400A40013A55426A419A
S1134FB0024052012343CC092040800113430343A0
S1134FC0834A137049B2002919DB7F4A108A804B47
S1134FD05880117B197391689960947B9C73527B00
S1134FE05A731B789B0600D4BBE00B787E33DAB28D
S1134FF0152A00D9AFE09300764AD3589F46724BE6
S11350005A68734B5A60E0E7734B1B78022B07D83E
S11350104A78724B1B789A4205D0714B9847A5E0A9
S11350206F4B9847A2E06F4B97221A7002216E4A89
S113503011706E4A12785A70694B9847644B5A68DB
S113504059881B781B07DB0F009301230020684C51
S1135050A0478BE00122644B1A709132614B1A70A5
S11350605B4B5B680393634D002700262C0006E02E
S11350700136F6B201370A350A2E00D18BE00297C9
S1135080BB00DB195B00E3185B7ADB09F0D0290075
S11350900398594B98470028EAD0029A93009C1829
S11350A06400544B1C190023637202214E4A117090
S11350B04C4A53704A4B98470A2E75D16DE04B7891
S11350C0012B06D84D4B1A884D4B9A4204D04D4BB8
S11350D09847434B984749E0484908800E2002AB63
S11350E09C46604401235B420380474B9847EEE7AC
S11350F0334B1B789B0604D5314A137820218B430C
S11351001370374B984731E04B78002B20D1304B4C
S11351105B680393374E00273400374D03E00137B3
S11351200A360A2F14D00297BB00DB195B00E31880
S11351305B7ADB09F3D031000398A8470028EED04E
S1135140029A93009C1864002A4B1C190023637272
S1135150234B98470AE01A4A137808210B4313702B
S113516004E0174A137808210B431370184B1B7B78
S1135170002B08D0124B1B78DB0604D4104B1B7891
S11351809B0600D4FEE60E4A137808218B43137065
S1135190134B9847F6E6124B9847134A1378591C59
S11351A01170F0210F4AD154094B5A6859881B7861
S11351B01B07DB0F0093012300200D4CA047D5E70C
S11351C0F40A002041460000AC0A0020C60A002070
S11351D0280B00200C8500001C0000207202002017
S11351E025460000F80A0020F50A0020C00A002025
S11351F0554C0000480A0020F54C0000C40A002069
S1135200FFFF0000814E0000493E000010B5034B33
S11352109847034B18780007C00F10BD794F000062
S1135220F40A0020F0B5DE4657464E464546E0B542
S113523083B0FF20012906D103B03CBC90469946B7
S1135240A246AB46F0BD2C4C23789B462B4B98478B
S11352507C38060000232370294A137810210B435D
S11352601370002503279046244B9946254B9A46F4
S113527022E07D1EEDB2002F2DD0234B81221A7027
S1135280224A12785A70224A12789A700421214ACA
S11352901170A222DA70204B198800230093013385
S11352A0002201201D4EB04726002F000125D047C3
S11352B0134B1B781B0715D443461B78DB0614D508
S11352C0C8470400831B7C2BF1D9002DD1D0013DAC
S11352D0EDB20600F0E70A4A137810218B431370ED
S11352E0FF20A9E70E4B9847E6E7034B5A461A708E
S11352F00C4B1878A0E7C0461C000020FD050000F8
S1135300F40A0020794F0000F80A002072020020FD
S1135310C00A0020F50A0020C40A0020554C0000F1
S11353201D4D0000440A0020032808D8044B1870BF
S1135330044A11780F230B40000118431070704782
S11353401C000020C00A00208022D201014B5A61B7
S11353507047C04600280040F8B51F2303400126CB
S11353609E40C3090025002B04D14509ED01064BDD
S11353709C4665440A24054FEE616420B847013C0D
S1135380E4B2002CF8D1F8BD002800407D060000EE
S1135390F0B583B0534B9847534B9847534B9847BA
S11353A0534B9847534B98470020534B984705203D
S11353B0524B98470020524B984700210020514BF4
S11353C098470122504B1A70BFF35F8F62B64F4863
S11353D04F4DA8474F4B1C78E4B24F48A84763068B
S11353E03DD4A3063FD4E30641D4630743D4A307C3
S11353F045D4E30747D4494E494D4A4C0E20B047A3
S11354000021FF20A84707002000474B9847FF2FA3
S1135410F4D0464B9847010045483D4B98474548D2
S1135420414B9847444B98478022D201434B5A61E1
S113543000236A461370012269464A700B328A704F
S1135440CB700B330B7168463D4B984700213D48A8
S11354503D4B984700203D4B98473D4C39E03D4833
S1135460314B9847BDE73C482F4B9847BBE73B4837
S11354702D4B9847B9E73A482B4B9847B7E739483B
S1135480294B9847B5E73848274B9847B3E780221C
S1135490D2012A4BDA61354D20232B700222344B82
S11354A01A70344B9847344A344B354EB047002277
S11354B0344B354EB047354B984768700120344B18
S11354C098473220334B9847334B98473C20334B13
S11354D09847A047324B98470028D8D0314B98477B
S11354E0D5E7C046A138000011060000DD3A0000EF
S11354F05D05000085240000554D0000394D000075
S11355002953000069080000090000206485000098
S113551085730000000800406C85000059530000AA
S1135520255200000C860000797400002D4C000008
S11355302086000038860000A906000000280040EC
S113554041040000495300000D050000210500003E
S1135550F9040000848500009C850000AC850000EF
S1135560BC850000DC850000FC850000F80A0020F2
S1135570F50A002099070000CDCCCCCCCCCCFC3F64
S1135580D963000000004040515700001557000047
S1135590D54C00007D060000F93D000041240000C8
S11355A00D5200001D4D0000002243088B4274D3AD
S11355B003098B425FD3030A8B4244D3030B8B4210
S11355C028D3030C8B420DD3FF22090212BA030C19
S11355D08B4202D31212090265D0030B8B4219D3FA
S11355E000E0090AC30B8B4201D3CB03C01A52411A
S11355F0830B8B4201D38B03C01A5241430B8B4262
S113560001D34B03C01A5241030B8B4201D30B034A
S1135610C01A5241C30A8B4201D3CB02C01A524171
S1135620830A8B4201D38B02C01A5241430A8B4234
S113563001D34B02C01A5241030A8B4201D30B021D
S1135640C01A5241CDD2C3098B4201D3CB01C01A37
S1135650524183098B4201D38B01C01A5241430941
S11356608B4201D34B01C01A524103098B4201D32F
S11356700B01C01A5241C3088B4201D3CB00C01A9C
S1135680524183088B4201D38B00C01A5241430814
S11356908B4201D34B00C01A5241411A00D2014639
S11356A0524110467047FFE701B5002000F006F8AC
S11356B002BDC0460029F7D076E770477047C04660
S11356C0F0B5CE46474615042D0C2E0080B50704D0
S11356D0140C3F0C9946030C7E435D4367436343BC
S11356E07F19340CE4199C46A54203D980235B023C
S11356F09846C4444B46514343433604360C250C68
S113570024046544A4195918491920000CBC904676
S11357109946F0BD70B500220C4B04000D0001F059
S1135720D3FC002804D12000290001F0EBFB70BD5C
S1135730064B00222000290001F0CEF801F0E2FB24
S113574080231B069C466044F1E7C0460000E0410C
S1135750F8B54546DE4657464E460C03E0B54E00C6
S1135760C90F88460D00610A440F0C43C700190392
S11357705800DB0F9B464B0A510F0B43760D400D2F
S11357801900D200D84500D1AEE0351A002D00DC56
S1135790F6E000280FD1134300D1DBE06B1E002B91
S11357A000D037E1BA1A9742BF41641A7F42E41B22
S11357B00126170024E0C64B9E424DD080231B04D3
S11357C01943382D00DD07E11F2D00DD38E12020CD
S11357D0431B9A460B0050468340994613004846A3
S11357E0EB401843030050468240501E8241E9407A
S11357F01A43BA1A611A9742A441170064420C1B57
S1135800230262D56402650A002D00D1DFE028007E
S113581001F064FC0300083B1F2B00DDD2E02022D2
S11358203C00D21A9D40D4409F4025439E4200DD57
S1135830C4E09E1B731C1F2B00DDF1E02022380006
S11358402900D21AD840914097402C000143781E79
S11358508741DC4000260F437B0709D00F233B40E0
S1135860042B05D03B1DBB42BF417F42E4191F00FE
S113587023022CD5964B01369E4200D19AE0454630
S1135880944BFF081C406007760564020743240B11
S1135890760D00212403230B0C0D8F4A24051C4391
S11358A01440330523435B00ED075B082B433800AA
S11358B019003CBC90469946A246AB46F8BD6446E6
S11358C0044300D111E2040067467B07C6D1454674
S11358D06007FF080743E4087D4B9E4230D0240351
S11358E07605240B760DD4E7331A9A46002B78DD1F
S11358F0002831D076488642AED08020000401438F
S11359005346382B00DCE9E00A43511E8A4100214A
S1135910D219BA42BF4109197C4217000C1923025B
S1135920D3D56B4B01369E4200D13AE10120694B3D
S11359301C407B0807401F43E007074364088BE7CC
S113594023003B4300D1CBE1802212031443240300
S1135950240B9EE72E007FE70800104300D1B4E03B
S1135960581E002800D0DEE0BA18BA429B416418E1
S11359705B42E418170001262302A6D50226D5E7C8
S1135980002D6ED1701C4005400D012800DCF9E0AB
S1135990B81A844687428041E51A40422D1A2802EB
S11359A000D489E0D71BBA4292411C1B5242A51A6B
S11359B0D84629E74546002400276AE7454CF61AED
S11359C02C4049E73D002838854000272EE7380061
S11359D001F084FB20301DE70A43511E8A41002157
S11359E007E7002B00D0F3E0701C43055B0D012B8F
S11359F000DCADE0364B984200D1D1E0BA18BA428F
S1135A00BF4164187F42E419E7075208174364084A
S1135A10060021E72E48854200D193E01D00D0E620
S1135A2029001F3EF140202B00D18DE04022D31AE3
S1135A309D402F437D1EAF4100240F43002644E7C1
S1135A402B000800203BD8400300202D00D17DE02E
S1135A504020451BA9400A43511E8A4100211A4394
S1135A60C7E6002E50D01A4EB04257D080266B4263
S1135A709946360434434B46382B00DDD6E01F2BC1
S1135A8000DD35E12026F51A2600AE40B2463E0080
S1135A90DE40AC46350056462E436546AF407D1E7B
S1135AA0AF41DC403743D71BBA4292410C1B5242F0
S1135AB0A41A0600D846A3E6644667462C4300D0E1
S1135AC0A2E600250026002706E71E00C4E6C0461D
S1135AD0FF070000FFFF7FFFFFFF0F801F2B63DC2A
S1135AE02020C31A080098409C4683465346100061
S1135AF0D84003005846184363469A40531E9A41BF
S1135B0053460243D94003E726003E4306D0EB4305
S1135B109946002BC7D0944EB042ACD10C0017006C
S1135B200600D84698E6904B9A450BD08246E7E6A5
S1135B30002800D09EE01800104300D1E9E01C00CA
S1135B401700D846884E87E6002572E7002182E7D1
S1135B5023003B43002E00D0ABE0002B00D1E7E054
S1135B600B00134300D177E6BA18BA42BF41641858
S1135B707F42E419230200D4F2E07C4B17001C405E
S1135B80060069E620003843002ED1D100285BD1FD
S1135B901C00144300D1A8E01C001700D8465BE6A3
S1135BA006000024002797E650460B002038C34027
S1135BB099465346202B00D195E0402350461B1AAA
S1135BC099400A43511E8A414B4600211A439FE6DD
S1135BD0002E30D126003E4367D0DB439A46002B8B
S1135BE01CD0614EB04260D05346382B00DD96E0A5
S1135BF01F2B00DD9FE02026F31A26009E409C46C2
S1135C00B34653463E00DE4033005E461E436346C1
S1135C109F407B1E9F415346DC403743BF18974249
S1135C20924164185242A418060078E627437C1E69
S1135C30A741002437E74C4EB04236D080265B4261
S1135C4036049A463443CFE71800104300D103E6E4
S1135C50B81A84466745AD41E01A6D42401B0502FF
S1135C6000D42CE6D71BBA4292411C1B5242A41A00
S1135C70D846F1E51800104300D163E7F808670738
S1135C8007438020E4080003044208D0DD080542ED
S1135C9005D1D208590711430F002C00D8467B0FB9
S1135CA0E4001C43FF00304ED6E50C00170006004C
S1135CB0D2E5002B38D00B00134300D142E7F8089B
S1135CC0670707438020E40800030442E7D0CB08B9
S1135CD00342E4D1D208490711430F001C00DEE758
S1135CE000270024D5E500216BE700250027F3E514
