S01700004578616D706C655F50726F6A6563742E737265630B
S1130000482C0020395000003550000035500000C5
S113001000000000000000000000000000000000DC
S11300200000000000000000000000003550000047
S113003000000000000000003550000035500000B2
S113004035500000F90D0000C9040000A53300007C
S11300503550000035500000355000003550000088
S1130060C9390000D9390000E9390000F939000024
S1130070093A0000193A00003550000035500000DC
S113008035500000014B0000614B000000000000EF
S113009000000000C14B0000355000003550000046
S11300A000000000355000000000000000000000C7
S11300B00000000010B5064C2378002B07D1054B37
S11300C0002B02D0044800E000BF0123237010BDC0
S11300D08800002000000000AC920000084B10B51E
S11300E0002B03D00749084800E000BF0748036815
S11300F0002B00D110BD064B002BFBD09847F9E72D
S1130100000000008C000020AC920000AC920000C3
S1130110000000006423802110B58EB001931B4BB6
S113012001AA890353601161002324215354083127
S11301305354013153540131535493601373137660
S11301409362D7331386124B124C0693124B134906
S1130150D361134B20001362124B98470721226886
S1130160D3691942FCD10221136810200B43136098
S1130170E488002302E00133A34204D2518B0842F5
S1130180F9D00EB010BD5083FBE7C046480D000007
S1130190FFFF10278002002003001000000C004223
S11301A003001100E5090000002370B52E4A88B051
S11301B02E4E02922E4A01AC02A905AD0B724B726F
S11301C08B720592237063702B726B72AB7230006A
S11301D0284B4C6006949847274B290030009847D9
S11301E022786378120213431BB29AB20120002BC7
S11301F01DDB224B1C78012C20D0002C27D0022C94
S11302000BD0032C2CD1120950431D4B98470022CC
S11302101C4B1D4CA04708B070BD5209184B5043ED
S11302209847FF2300229B05174CA047F3E7134B85
S113023052041C78520C0238012CDED19209104B66
S1130240504398470022114B0F4CA047E3E7D209D3
S11302500B4B5043984700220D4B0B4CA047DAE759
S113026000200021D7E7C0464F0001008002002093
S11302704F000200E90C0000D50C0000A40000208F
S1130280B97A00000000B03F256F00000000D03FA5
S11302900000E03F0421084B0268196001680B6903
S11302A0002BFCD1022113880B43138002681369CD
S11302B0002BFCD17047C04600E100E010B580225D
S11302C00424094903688C5001680A69002AFCD196
S11302D00221064A1A819A811A888A431A8002687E
S11302E01369002BFCD110BD00E100E0FF81FFFF8A
S11302F070B5016080210300434849004469042526
S11303002143416100204149414C08618021186822
S113031065501C6821690029FCD102243D490181F2
S113032081810188A14301801C6821690029FCD1D5
S11303309986D98621690029FCD1012401882143A9
S11303400180186801690029FCD19178197132493A
S11303500B6011791488C9031868214389B201809C
S11303609178002920D0012901D0172070BD01887F
S113037089B20180D178002939D1906819680A6955
S1130380002AFCD11A79002A08D0012A04D1086273
S11303901A681369002BFCD10020E7E71F4A90423A
S11303A0FAD880B20884F3E7042401882143018049
S11303B0D17817200029D9D100201C68174E0832A3
S11303C0156821690029FCD11979002914D0012963
S11303D007D10100083189000D511C6821690029E9
S11303E0FCD1013004320228EAD10020BEE7802487
S11303F0018821430180C0E7B542F2D801001031E1
S1130400ADB249000D53E8E700040040001000407D
S113041000E100E0FF81FFFF8C020020FFFF0000ED
S1130420027903001520002A00D070471A68106969
S11304300028FCD191831A681369002BFCD1002099
S1130440F3E7C0460A2A01D0072A0BD8931C9B0065
S1130450195001239340818E0B439BB28386002362
S1130460180070470379002B05D0012B05D11633F2
S1130470092AF5D8EAE70A2AE8D91723F0E7C0469B
S113048030B504680A2917D0072910D901230A00B6
S11304901D00083A95402A02C0258B40AD002A4031
S11304A062811A00C38E13439BB2C38630BD0122FE
S11304B08A4093B26381F5E78022024BD2006381C4
S11304C0F0E7C0460080FFFFF8B53A4B1F68FB8E8B
S11304D03D68BE8E1E40AB896C891C4023B2002B44
S11304E051DBFF23234242D0FE3B234203D033425D
S11304F001D0BB6898470123AB81A20704D57210D1
S1130500134201D0FB6898470223AB81630703D5EC
S1130510730701D53B6998470423AB81230703D5AF
S1130520330701D57B6998470823AB81E30603D5DC
S1130530F30601D5BB6998471023AB81A30603D505
S1130540B30601D5FB6998472023AB81630603D525
S1130550730601D53B6A98474023AB81230603D534
S1130560330601D57B6A98478023AB81F8BD80238D
S11305705B001C420CD01E4201D0BB6A984780230A
S11305805B00AB81F2E773050CD40B4BAB81EDE759
S113059080239B001C42E9D01E4208D180239B008B
S11305A0AB81E3E73B6B9847034BAB81DEE7FB6A28
S11305B09847F3E78C0200200080FFFFF0B5454622
S11305C088464E46DE4657464346E0B55B880722DA
S11305D099460168CB691A42FCD143465B7A002BE9
S11305E000D08DE04B68554A13404B6043461B7A5C
S11305F0002B58D0434642461B88527A5B00920334
S113060013438022120213434B6202680023012524
S1130610022608E0147E264208D1013304899BB2E5
S11306209C4200D86AE0147E2542F3D00223147E53
S1130630234241D01376528B134247D100239C4668
S113064020339A4608339B46634607278C46012588
S113065002261900494500D16DE0634652465B8B82
S11306601A4233D00268D3691F42FCD14346624622
S11306705C465B685B5C13550268002307E0147EEC
S1130680264207D1013304899BB29C4226D9147EA9
S11306902542F4D0634604225B8B01311A42D9D03F
S11306A061461E221CE0434642461B88527A5B0088
S11306B0920313434B62A8E7538B5B07BED5C02359
S11306C051689B020B435360182200E04122100042
S11306D03CBC90469946A246AB46F0BD6146122208
S11306E0837A002BF3D004680720E3691842FCD115
S11306F0C02348689B0203434B60E8E71222E6E705
S113070043469A7A80234C68DB0223434B604A6257
S1130710026800230125022607E0147E264207D141
S1130720013304899BB29C4202D9147E2542F4D041
S113073001230B7656E761460022D1E7FFFFFBFF5A
S1130740F0B54E46DE4657464546E0B50368894651
S11307509C4663461B6883B01B01DB0F49880193E9
S11307604B465B7A002B00D0FCE063469B4A5B68F7
S11307701340624653604B461B7A002B3CD04B46D9
S11307804A461B88527A5B0092031343802212026A
S1130790134362465362026800230125022608E0DF
S11307A0147E264208D1013304899BB29C4200D8AE
S11307B00AE1147E2542F3D06346884A5B681340FD
S11307C062465360022203681C7E224200D1EFE09D
S11307D01A765B8B1A4200D0ADE04B4678221B8818
S11307E001241B0A13434A46527A5B0092032243B4
S11307F01343624653620AE04B464A461B88527AC8
S11308005B0092031343012213436246536202685E
S113081000230125022608E0147E264208D1013374
S113082004899BB29C4200D8BAE0147E2542F3D0DE
S113083000230093019B002B00D06FE06346674ABE
S11308405B68134062465360009B002B5ED102221A
S113085003681C7E224200D1A5E01A765B8B1A4203
S113086069D15F4A01399246202289B20023934616
S113087007270125022651452CD062465C46528B3F
S1130880144258D0C27A002A04D0019A002A55D0C2
S1130890012955D00468E2691742FCD15A1C92B26E
S11308A0282490466246125D4C466468E25402680D
S11308B0002307E0147E264207D1013304899BB24A
S11308C09C4249D9147E2542F4D04346013989B269
S11308D05145D2D19846837A0268002B0BD0072168
S11308E0D3691942FCD163465A68C0239B0213435F
S11308F06246536002680721D3691942FCD1282358
S11309006246D25C4B4641465B685A54009803B039
S11309103CBC90469946A246AB46F0BD4B465B882C
S1130920012B00D08AE763465A688023DB02134315
S11309306246536088E741230093E7E70029A9D181
S1130940624654688022D2022243984664460139A2
S1130950626089B24346BBE712230093837A002B7B
S1130960C9D0BCE74B469A7A63465C688023DB02B5
S11309702343644663606262026800230125022601
S113098007E0147E264207D1013304899BB29C42BE
S113099002D9147E2542F4D0012362461376E4E69C
S11309A01223009346E75A8B520700D459E703E019
S11309B05A8B520700D410E7C022596892020A43A6
S11309C05A6018230093A1E76346044A5B68134006
S11309D0624653601223009398E7C046FFFFFBFF73
S11309E0FFFF0000F0B5DE46574645464E46E0B5EB
S11309F00500A34B89B02960080014000F009B4632
S1130A009847A04A052800D1DCE001238340D1693E
S1130A1012300B43D361C6B2237B06AA13701100B4
S1130A203000994B98473000984B9847984B207B5F
S1130A30002198473B681C209B0706D509B03CBCA5
S1130A4090469946A246AB46F0BD01223B689246C9
S1130A501A4090461738131EF0D114333B602B68AC
S1130A6007AE18009946D847802333704346737005
S1130A705346B37043460090E069F370276A002838
S1130A8000D1B4E0022330707370000C814BC0B20B
S1130A9031009B469847002F00D1ADE00223377008
S1130AA03F0C3100F8B29A467370D847A38A80216C
S1130AB0EB80E38A2B81237E002B00D188E0A2689F
S1130AC0236913430B432421615C002902D0802154
S1130AD0C9050B43A16A0B432C21615C002900D199
S1130AE07FE08022120513432D22A25C002A02D04B
S1130AF08022120413432E22A25C002A02D08022F8
S1130B00D20313434A461268009813434A461360BB
S1130B10802312305B00FA255360C0B25E4B9847C5
S1130B202368AD005D435D4B05909B46984700905C
S1130B3001916800D84702900391208ED847584B02
S1130B4006009A460F0000980199564A564BD04722
S1130B5002000B0030003900D0470022534B544FA1
S1130B60B847060028000F00D84702000B003000E9
S1130B703900D0474F4D02000B0000980199A84757
S1130B80029E039F4A4D32003B00A84700224A4B75
S1130B90484DA84732003B00484DA847484FB84746
S1130BA08023A26806009B049A422BD04020FF2E8B
S1130BB000D943E70023424613431E434B4600201B
S1130BC0DE603BE70221136A18260B43136223E716
S1130BD052463C4B9B781A4013005A1E9341D9014C
S1130BE06DE7802189048A4200D07DE779E70021FE
S1130BF04846354B984745E701214846324B9847CC
S1130C0007004BE7FA2361689B004B430098019966
S1130C10984602000B00264CA047040040460D00F5
S1130C20D8470022294BD04702000B00200029009E
S1130C30224CA0470022204B1E4CA047B847041E5C
S1130C4013D0234B4146059898470238031B402094
S1130C50FF2E00D9F2E6FF2B00D9EFE6FF221B049A
S1130C601204134098462306A5E743465900059B02
S1130C70481E9C46164B60449847431EE7E7C0460F
S1130C80E93800000004004005490000454900001F
S1130C9045370000014A00007D4900003D7B00000B
S1130CA0256F000095D626E80B2E113E0000244047
S1130CB09D620000257400000000F03FBD68000044
S1130CC0517A0000002000418D37000000000840E8
S1130CD0F5600000012310B58372C372014B98477D
S1130CE010BDC04641070000002310B583720133D4
S1130CF0C372014B984710BDBD050000802110B59B
S1130D00294A53690B43294953610B7810225BB27A
S1130D10002B03DB83780732002B01D1100010BDB8
S1130D20C4789C42FAD804799C42F7D80B78153AD7
S1130D3093430B708B68002BFCD14378002B01D1BB
S1130D400022EBE78378C278013B002A26D00422F4
S1130D500C7822430A70C278013A12011343134AF1
S1130D6091680029FCD1DBB253700379002B02D0C7
S1130D70013BDBB2937003780C4A002B09D080212D
S1130D8013780B431370094B9A68002AFCD1002294
S1130D90C4E7022311780B431370F4E704240A78A0
S1130DA0A2430A70DBE7C04600040040001C004078
S1130DB0A522034B1A739A68002AFCD17047C046D7
S1130DC0001C0040002901D017207047014B186017
S1130DD00020FAE790020020002801D01720704775
S1130DE00122034B5A71034B01321A60F7E7C046E4
S1130DF0001C004000E100E0012210B5034B9A7191
S1130E00034B1B68002B00D0984710BD001C00400A
S1130E1090020020F8B5CE4647461F2680B52B4DDC
S1130E202B4C03210220A8470120A047304008286A
S1130E30F7D11F2606210220A8470120A0473040F1
S1130E400628F7D100239946224B0026984603270B
S1130E500120C0470620A047400938404B46B04017
S1130E60184383B202369946102EF1D10F3603216E
S1130E700220A8470120A04730400828F7D11F26A8
S1130E8008210220A8470120A04730400828F7D1B4
S1130E900730A047104B1B78002B04D148460CBCEC
S1130EA090469946F8BD1F2603210220A847012039
S1130EB0A04730400828F7D11F2616210220A84752
S1130EC00120A04730401628F7D1E7E7B5550000C8
S1130ED0B9540000853100002801002070B51F2698
S1130EE00D4C0E4D03210220A0470120A84730409D
S1130EF00828F7D11F2608210220A0470120A8476F
S1130F0030400828F7D18022054B52039A6102220F
S1130F10044B1A7070BDC046B5550000B9540000AA
S1130F20002800402901002010B50E4B02780E4C19
S1130F301A70427820205A700A780C4B1A704A783A
S1130F4001215A70A04700212120A04701212D2012
S1130F50A04711212220A04711212320A0470120CE
S1130F6010BDC04698020020B55500000C090020B1
S1130F70F0B54E46DE4657464546E0B5A9B0039364
S1130F8002900191329B0E09090700D00136674C8B
S1130F9004AF2270BA701A78002562701A780D2195
S1130FA0FA715A782000A2705A783D703A729A7891
S1130FB07970E2709A7803A97A72DA78093022712A
S1130FC0DA78BA721A7962711A79FA725A79A27154
S1130FD05A793A739A79E2719A797A73DA79227240
S1130FE0DB790422BB73524B984702AB9C460B201F
S1130FF00422604403A94E4B9847042363736B4651
S11310001B790022E3734B4B0021180098464A4B8E
S1131010FD73A57399469847484B002120009A46D2
S11310209847474B200008AD9B4698473900404BF2
S1131030102228009847019910200F3110230F29FE
S113104009D0029FFA18103A12780133DBB22A54FD
S113105018008B42F6DD019B721C1033DBB21201C7
S11310600021934204DAE9540133DBB29342FADB00
S1131070002300271B01E95C2278EB184A40227008
S113108061785A7840464A406270A1789A7801376C
S11310904A40A270E178DA78FFB24A40E2702179DE
S11310A01A794A40227161795A794A406271A17968
S11310B09A794A40A271E179DA794A40E271217A57
S11310C01A7A4A402272617A5A7A4A406272A17A42
S11310D09A7A4A40A272E17ADA7A4A40E272217B31
S11310E01A7B4A402273617B5A7B4A406273A17B1C
S11310F09A7BDB7B4A40A273E27B002153400022AF
S1131100E373C84700212000D0472000D8473B00A4
S1131110B742AFDD10222100054B0A48984729B099
S11311203CBC90469946A246AB46F0BDA8020020BE
S1131130AD7E0000040000208D2E00000930000068
S11311407D300000F8080020F0B557464E46DE46D4
S11311504546E0B50F00097891B014001A000B0958
S1131160079099460B0702D001239C46E1449D4D0C
S11311709D4E6B6800932300B0474A463B781201AA
S113118000219A4206DD079EF1540133DBB29342FB
S1131190FADB079601230CAF3B7006AB9C46192083
S11311A0696808226044914B9847230421021B0E6E
S11311B004930B0E1E00230E03937B78B8799B4691
S11311C0BB78F9799A46FB78E2B29C463B7A7C7903
S11311D00293002398465B461B029B46120206922A
S11311E0049A53461204049232060592804A012658
S11311F092465A46654632431B0413432D069B46CA
S1131200AC46240225005A4663463F7900042F4326
S11312100906074313430F439B463B0000254746FB
S11312209846079E08AC5B4608934346069A099382
S1131230029B00211343049A6E481343059AE773F3
S113124013430A936B461B7B0022237304236373AB
S11312500023A373684B984720000021674B9847ED
S11312602000D047002F47D1654A21781078654B7C
S11312704140197050786178414059709078A17854
S113128041409970D078E1784140D9701079217942
S11312904140197150796179414059719079A1792E
S11312A041409971D079E1794140D971107A217A1C
S11312B041401972507A617A41405972A17A907A08
S11312C041409972D07AE17A4140D972107B217BF6
S11312D041401973507B617B41405973907BA17BE2
S11312E041409973E17BD27B4A40DA734B46002B31
S11312F070D00125012796E7013D2D01721911785F
S1131300237801374B4013706B1CF31819786278FB
S1131310FFB24A401A70AB1CF3181978A2784A40FD
S11313201A70EB1CF3181978E2784A401A702B1DD6
S1131330F318197822794A401A706B1DF31819783A
S113134062794A401A70AB1DF3181978A2794A40A1
S11313501A70EB1DF3181978E2794A401A702B00C1
S11313600833F3181978227A4A401A702B0009338B
S1131370F3181978627A4A401A702B000A33F3186A
S11313801978A27A4A401A702B000B33F318197893
S1131390E27A4A401A702B000C33F3181978227B36
S11313A04A401A702B000D33F3181978627B4A40B7
S11313B01A702B000E33F3181978A27B0F354A40AC
S11313C01A7075192A78E37B53402B703D00B94598
S11313D000DB28E7012011B03CBC90469946A246A8
S11313E0AB46F0BDA0020020710F0000AD7E0000EE
S11313F07D300000040000208D2E00000930000024
S1131400F8080020CC020020F0B55746DE464E46D0
S11314104546E0B595B008931EAB1B7807920A9336
S11314200B7807001A09099192461A0702D0012283
S11314309446E2445246002112019A4204DDF954D2
S11314400133DBB29342FADB012398460AAB9C4694
S1131450424619201A76079908226044D04B9847CF
S1131460089920260A04120E05920A02CBB2100E25
S1131470090E069003910AA9497E0AAD8B460AA972
S1131480897EEA7FAD192D788C460AA9CC7E487FE7
S1131490897F02955D462D02AB4665462D04AC4618
S11314A01D02059B04951D04069B05951D060695C6
S11314B043465D462B439B4663465D462B439B4612
S11314C05D4624060B940B9B00022B439B460AAB00
S11314D01B7F090418430026120601431143884662
S11314E00025B146AF4E0CAC5B460C934346049AC0
S11314F00D93029B00211343059AAB481343069AAC
S113150013430E936B461B7B0022237304236373E4
S11315100023A3734B46E373A44B98470021200098
S1131520A34B9847A34B200098474B46002B26D14A
S11315302378337063787370A378B370E378F370AF
S11315402379337163797371A379B371E379F37197
S1131550237A3372637A7372A37AB372E37AF3727F
S1131560237B3373637B7373A37BB373E37BF37367
S11315705346002B73D0012301259946B4E7013D5E
S11315802D017A19117823784B4013706B1CFB18CA
S1131590197862784A401A70AB1CFB181978A27843
S11315A04A401A70EB1CFB181978E2784A401A700A
S11315B02B1DFB18197822794A401A706B1DFB18F1
S11315C0197862794A401A70AB1DFB181978A27910
S11315D04A401A70EB1DFB181978E2794A401A70D8
S11315E02B000833FB181978227A4A401A702B0012
S11315F00933FB181978627A4A401A702B000A33AF
S1131600FB181978A27A4A401A702B000B33FB1886
S11316101978E27A4A401A702B000C33FB181978B7
S1131620227B4A401A702B000D33FB181978627B19
S11316304A401A702B000E33FB181978A27B0F3521
S11316404A401A707D192A78E37B53402B704B462D
S11316500133DBB299461D009A4500DB44E7099B40
S11316600A9A197838000439C9B21970079B524C88
S11316700093089BA0473100504A514B1143194332
S1131680890700D0A0E07078317800020843B1786F
S1131690547809040843F1782402090601431078B8
S11316A00443907800040443D0780006204341406A
S11316B0080A5870080C19709870090E5079D9707E
S11316C01179000208439179747909040843D179A6
S11316D024020906014330790443B0790004044329
S11316E0F079000620434140080A5871080C19712A
S11316F09871090E507AD971117A00020843917ACF
S1131700747A09040843D17A240209060143307A21
S11317100443B07A00040443F07A000620434140B5
S1131720080A19725872080C090ED972517B987202
S1131730107B09020843917BD27B09040143120602
S1131740707B0A43317B00020843B17B09040843E0
S1131750F17B090601434A40110A1A735973110CAB
S1131760120E9973DA73174A1C78117800208C4290
S113177006D015B03CBC90469946A246AB46F0BD97
S11317805C7851788C42F4D19C7891788C42F0D179
S1131790D878D378C01A43425841C0B2E9E7C0466A
S11317A0AD7E0000B8020020040000208D2E000051
S11317B0093000007D300000710F0000F80800209F
S11317C0CC020020080900203178107841401970BB
S11317D051787078414059709178B078414099704F
S11317E0D178F0784140D97011793079414019713C
S11317F051797079414059719079B1794140997129
S1131800D079F1794140D971107A317A4140197215
S1131810507A717A41405972917AB07A4140997202
S1131820D17AF07A4140D972107B317B41401973EF
S1131830507B717B41405973917BB07B41409973DC
S1131840F17BD27B4A40DA738DE7C04610B50400C1
S113185000200A2C0DD8074B08301C70064B984703
S11318601F230100994321430820C9B2034B984721
S1131870012010BD0E090020B9540000B555000028
S1131880F0B5DE4657464E464546E0B5674B83B055
S1131890009001919847664B9847664B6F469A466D
S11318A0002352461F26FF210E20634C1370A047CD
S11318B0624D08210220A0470120A8473040082893
S11318C0F7D11F262E210438A047A0210C20A047C1
S11318D0E1210520A0475A4B06CF06C3032102206D
S11318E0A0470120A84730400828F7D11F26062129
S11318F00220A0470120A84730400628F7D1002342
S11319009B46504B00279946032398460120C8471D
S11319100620A847434646091E40BE405B461E4378
S113192036B2B3B202379B46102FEFD10F370321E3
S11319300220A0470120A84738400828F7D11F27D4
S113194008210220A0470120A84738400828F7D1E1
S11319500730A84753461B78002B40D10123524639
S11319601F27137003210220A0470120A8473840F5
S11319700828F7D11F2708210220A0470120A847E3
S113198038400828F7D10730A84753461B78002B66
S113199038D10B2224252C4B1E702C4B2C4E1A7044
S11319A0280001353178EDB2A04701362C2DF7D14E
S11319B00022284B1A70C322274BD2009918002208
S11319C01A704E338B42FBD101220120234B1A6043
S11319D003B03CBC90469946A246AB46F0BD1F27D7
S11319E003210220A0470120A84738400828F7D146
S11319F01F2716210220A0470120A8473840162897
S1131A00F7D1ABE71F2703210220A0470120A847F5
S1131A1038400828F7D11F2716210220A0470120AB
S1131A20A84738401628F7D1B3E7C0466D530000E5
S1131A308954000028010020B5550000B954000065
S1131A40A002002085310000940200200E0900202D
S1131A50F009002010090020DC020020F408002016
S1131A60F0B557464E46DE464546E0B5A9B005AF4B
S1131A700E00796011000590C0B202938306DB0F5B
S1131A80090A9946D3B2BA6004969B46CAB2430780
S1131A9001D501239B460823034019004B424B41C7
S1131AA05B421A40032301920340012B00D170E1F1
S1131AB059425941CC4DC9B28A467C892988A142F0
S1131AC000D16EE100260F21092403965E46002E04
S1131AD000D02100002A00D1DEE00231CAB29046D3
S1131AE024221040202800D1DEE0032B00D1E2E0C4
S1131AF04B4620223E785B0196431E433E703307DB
S1131B0000D5E1E0434608AC237032AB1B78434474
S1131B1063705346A370F3439B0700D1EEE05B462A
S1131B20002B00D1F5E0019B002B00D046E1C82337
S1131B30E370AE4A1378591C11702371BB7A637138
S1131B40FB7AA371730700D43BE1FF230A21092226
S1131B50E3712372F63B0398002808D12878A05437
S1131B6068789A1CD2B203336054D9B21300019836
S1131B70002800D1EAE09E4802330678DBB2A6547E
S1131B80427862544A46202051013A7882430A43FB
S1131B9016003A70320717D5964A1178E1545078F6
S1131BA0591CC9B260549078991CC9B26054D07859
S1131BB0D91CC9B260541068191D0130106000228C
S1131BC0C9B20533DBB2625432AA1178002900D1BC
S1131BD008E1C918029DCAB22878591CE054CBB256
S1131BE001359342F8D1844B1978A1545878511C8B
S1131BF0C9B260549878911CC9B26054DB7803323E
S1131C00D2B2A3547D4B012298461B78134342461B
S1131C1013702422434632401B78202A00D1DCE092
S1131C2002229343424613701F27754E754D0321BC
S1131C300220B0470120A84738400828F7D11F27C1
S1131C4019210220B0470120A84738401928F7D1AC
S1131C500F20A847617811208B1C637004AB9C464D
S1131C600131C9B26044684B98470322674B1A702C
S1131C708022674B52039A61C046C0465A6143466C
S1131C80187801234007C00F584029B03CBC904647
S1131C909946A246AB46F0BD0831CAB2904624220A
S1131CA01040202800D020E75146043A11438A46C8
S1131CB0032B00D01CE7023B0193002399460393B6
S1131CC09A460733984613E7082352461A43D3B279
S1131CD09A46484B4F4C1A6832A953460298A0477B
S1131CE0434608AC237032AB1B780933434463701A
S1131CF05346A370F3439B0700D010E780233B4A6D
S1131D00E3701378591C11702371062105220523F1
S1131D1021E7019B002B5DD1CC23E370334A137878
S1131D20591C11702371BB7A6371FB7AA371730719
S1131D3000D50AE704AB9C46172008220499364BC9
S1131D406044984710210F220F2304E7334A526856
S1131D501178E1545078591CC9B260549078991C98
S1131D60C9B26054D078D91CC9B260541079191D15
S1131D70C9B260545079591DC9B260549079991D03
S1131D80C9B26054D179DA1DD2B20833A154DBB29E
S1131D90F8E60321144D8A467C892988A14200D0A3
S1131DA090E61F4CA14200D18CE640215446012606
S1131DB00C43A24633390724039687E68823E3704D
S1131DC0B7E6049A0A211378E3715378092223723F
S1131DD00923C0E68C23E370A0E7022213434246A2
S1131DE0137021E71A00FEE60C090020940200207B
S1131DF098020020F4080020CC02002010090020E2
S1131E00B5550000B9540000FD5700002901002019
S1131E100028004049110000AD7E0000A00200200F
S1131E20FFFF0000044B1B78132B04D84E22002123
S1131E305343024A9954704700000020DC020020FA
S1131E40F0B5DE4657464E464546E0B5CC4B85B028
S1131E501A78D20709D5CB4A1188052941D900211E
S1131E6011801A7801318A431A70FF23C64FC74E76
S1131E703B70320000231178D8B21C0000290BD12A
S1131E8001334E32142BF6D1002005B03CBC9046F1
S1131E909946A246AB46F0BD4E225A433870B0185C
S1131EA08446407803928046402045460540002001
S1131EB0A946B74D2870E873604682783320824380
S1131EC0882A00D121E111D9C82A00D199E0CC2A6D
S1131ED04ED08C2A7BD04E22534300220020F25451
S1131EE0D3E7138801339BB21380BEE7082A32D0AC
S1131EF0802AF0D17C20404228707D30E87360460F
S1131F000079039A2874604640790B396874901DEF
S1131F1008323018B21868602973AA604246120762
S1131F2050D4072342461340012B00D112E1002B69
S1131F3000D10AE1032B00D085E103222B789343DF
S1131F40012213432B70934B01201B78AB73924BEC
S1131F501B786B7399E762469279FF2A00D1D3E12B
S1131F604E225A4308320A39B2182973AA60D5E7B7
S1131F7080235B422B704B46002B00D13AE1634631
S1131F801B79039A2B7463465B7916326B74039B3B
S1131F9019390E33F318B2186B602973AA604EE036
S1131FA0200069680A307D4B984700285ED00123E1
S1131FB07B4A9B009958414500D849E13B78132B53
S1131FC000D961E74E2253430022F2545CE780209B
S1131FD0404228708130E8734846002800D1F8E078
S1131FE060460079039A2874604640791032687418
S1131FF0039813390D303018B21868602973AA6039
S11320008CE762469279FF2A00D18DE180222878FC
S1132010524202432A704A46002A00D0C8E04E22A7
S11320205343F218107A527A15396A741A000A3234
S1132030B21812336A60F21828742973AA604346EE
S11320401B0700D46DE75078137891780002D2789A
S11320500904034312060B43524C13439846637A14
S1132060DB0900D0F7E0E37CDB0999D1637FDB096E
S113207000D003E12723E35CDB0900D0F4E0312343
S1132080E35CDB0900D021E13B23E35CDB0900D006
S113209012E14523E35CDB0900D003E14F23E35C59
S11320A0DB0900D01CE15923E35CDB0900D021E10A
S11320B06323E35CDB0900D0EAE02B7BA868053BE3
S11320C0DBB22B73C3185978374A053011709978ED
S11320D0364C5170D97891701B792900D3704E22F7
S11320E03B7891465343F3185B780C3100936A684C
S11320F04346A047002800D08DE03B78132B00D93D
S1132100C2E64A465A43B054BEE662469279FF2A72
S113211000D101E180222878524202432A70012230
S1132120EA734A46002A1AD14E325A43B018077A43
S1132130407A0F39687410000C320A303018B21823
S11321402F7468602973AA60E8E603222B7813438E
S11321502B70F8E603222B7893432B70F3E64E2280
S11321605A43B018077940790D39687410000A325F
S113217008303018B2182F7468602973AA60CDE64D
S113218010090020A600002000000020DC0200202E
S11321907C09002095020020C8020020F5260000DA
S11321A098090020180900200809002009140000DB
S11321B04E225343F2181079527913396A741A0073
S11321C00832B21810336A60F21828742973AA60AE
S11321D035E76046407B039A28746046807B123260
S11321E06874039815390F303018B2186860297371
S11321F0AA6093E663469B7B039A2B746346DB7B5E
S113220018326B74039B1B391033F318B2186B60CC
S11322102973AA6013E70822AB683C780533AB60E6
S11322202B7813432B704B466343F3185A780723D8
S11322301340012B8ED0002B87D0032B00D17CE6DA
S1132240132C00D920E64E235C43002333551BE6B0
S11322504146995031E769682000374B9847002878
S113226000D100E70023A3E6200069681E30324B4A
S11322709847002800D102E7032399E62000696803
S113228014302D4B9847002800D1F3E602238FE643
S1132290200069685A30284B9847002800D10CE781
S11322A0092385E6200069683C30234B98470028C1
S11322B000D1F3E606237BE62000696832301E4B2A
S11322C09847002800D1E4E6052371E620006968F8
S11322D02830194B9847002800D1D5E6042367E637
S11322E0200069684630144B9847002800D1DAE68C
S11322F007235DE62000696850300F4B984700289B
S113230000D1D5E6082353E66246D279FF2A00D0ED
S113231026E6FB3A2A7023E66246D279FF2A00D0E9
S1132320F8E6FB3A2A70F5E66246D279FF2A00D035
S11323306CE6FB3A2A7069E6F5260000F0B5D6464D
S11323404F464646C0B5504C82B02378022B09D084
S11323500F204E4DA847030704D52378012B32D014
S1132360032B05D002B01CBC90469946A246F0BD92
S11323700220A8470421464B40091A78C0B28A4378
S11323801A701A7802398A431A70052863D01F27F5
S1132390404E03210220B0470120A84738400828B6
S11323A0F7D11F2708210220B0470120A847384051
S11323B00828F7D10730A847374B1B78002B4FD19B
S11323C001232370CEE7354B002699461A00137873
S11323D0002B3ED001364E32142EF8D114239846E9
S11323E0EB360720A8472E4B5B3818706B46DF1D71
S11323F02C4B012138009A46984739782A4C0531EC
S11324002000C9B2D0474E235E434B463878023091
S1132410C2B29A554C2A0BD94346023BE25C1F24B4
S1132420224B1A700120A84720401628FAD199E7B8
S11324302021174A4E4413780B43137001220123C1
S1132440A15C0133DBB2B1541A008342F8DD023BD4
S1132450E4E7B046C5E704211A780A431A7096E700
S11324601F2703210220B0470120A847384008282D
S1132470F7D11F2716210220B0470120A847384072
S11324801628F7D19CE7C04629010020B954000062
S113249010090020B555000028010020DC020020AE
S11324A0C8020020C1560000A800002095020020A8
S11324B0134B587ADA7CC009D20980185A7FD209A2
S11324C0801827229A5CD209801831229A5CD2099A
S11324D080183B229A5CD209801845229A5CD20962
S11324E080184F229A5CD209801859229A5CD2092A
S11324F0801863229B5CDB09C018C0B27047C046D9
S113250018090020002270B5554B04001A70554B71
S1132510554D1868554B060A1968554B36181A68F4
S1132520544B84B01B682E70060C000E3018687073
S1132530080A4018A870080C090E4118E970110A1D
S113254089182971110C120E8A186A711A0AD21884
S1132550AA711A0C1B0ED318EB71002C42D127223E
S1132560454B9C54073A9C77DC779C5411329C541D
S1132570093A9C5401329C5401329C5411329C54AB
S1132580093A9C5401329C5401329C5411329C549B
S1132590093A9C5401329C5401329C5411329C548B
S11325A0093A9C5401329C5401325C721C705C7078
S11325B09C70DC749C72DC721C735C771C755C759B
S11325C09C759C5411329C54093A9C5401329C547D
S11325D001329C5411329C54093A9C5401329C544B
S11325E001329C540022254B00211A7024482832C1
S11325F0244B98470221244E244B02AA338013789B
S113260001200B4387210B40402104400B43A100D0
S1132610C3241C400C438443147029001C4B0298AF
S113262098476B46981D01235B4203803100194B88
S11326309847194C00212578184B28009847002802
S113264000D025700922164B00211B7800201B01A5
S11326501343144A1370144B9847012004B070BDFF
S1132660C40900200CA08000F009002040A08000D4
S113267044A0800048A0800018090020C50900205B
S113268098090020BF7E0000940900201111000069
S113269081180000290F00002B0100204D180000B4
S11326A014000020900900205D33000070B50D4B2C
S11326B000251988012386B003AA0B4C1840137215
S11326C0C0007D3B184323785572107051810398E4
S11326D000930021054B059A054EB047257006B0BE
S11326E070BDC04694090020C5090020C809002017
S11326F0611A00000A7803789A421ED142784B7816
S11327009A421AD182788B789A4216D1C278CB78C1
S11327109A4212D102790B799A420ED142794B79BD
S11327209A420AD182798B799A4206D1CB79C079BF
S1132730C01A43425841C0B270470020FCE7C0466B
S1132740082110B5034A13788B431370024B984742
S113275010BDC046C4090020251E000010B500218C
S1132760034B04009847002801D0024B1C7010BD95
S11327704D1800002B010020F0B54F46D6464646C2
S11327806D4B6E4DC0B5994629000022FF275C6849
S113279093009B185B00EB185B7AD6B2DB0900D17F
S11327A0A3E020780B78984200D0A1E060784B78C1
S11327B0984200D09CE0A0788B78984200D097E0B3
S11327C0E3789C46CB789C4500D091E023799C46E5
S11327D00B799C4500D08BE063799C464B799C45F2
S11327E000D085E0A3799C468B799C4500D07FE09E
S11327F0E3799C46CB799C4500D079E00122504B8B
S11328001B78002B6BD14F49B7000E70B9194900E2
S1132810681884461800043169188C42584182466D
S1132820201D80466046414688425B4151460B4329
S1132830DBB2002B6BD0634623439B0767D121682F
S1132840016061684160BB195B009A46AA44544622
S11328508021637A494219434B469868012398467C
S1132860617281780B409C464346617A9943634682
S113287019436172C1782172C378B12B43D000210E
S11328801020314BD9513149314B1E700B788343A1
S11328900B706B7AE97CDB09C9095B18697FC9098C
S11328A05B182721695CC9095B183121695CC90976
S11328B05B183B21695CC9095B184521695CC9093E
S11328C05B184F21695CC9095B185921695CC90906
S11328D05B186321695CC9095B181E490B70100001
S11328E01CBC90469946A246F0BDFF2F00D137008C
S11328F001320A310A2A00D04AE7E732FF2FEED02C
S11329003E0000227BE74146134B1970B7E721785C
S1132910BB195B00E9546178EB185970A178997080
S1132920E178D9702179197161795971A179997115
S1132930E179D97187E7C046F80900201809002019
S113294014000020C009002098090020C4090020B8
S113295014090020970900202A010020F0B54746F9
S1132960CE4680B5A648A74A017801254B07DB0F60
S11329701370032213400A40013A984653425341CC
S11329805A014346CE082E40F6003343CE09354063
S11329909D4CAD0113432B4349B287B023700029EA
S11329A02EDB058A81686580027BA1602273837BAC
S11329B0A373437B637323789B0608D50B787E331C
S11329C0DBB2152B03D891489B00C3589F460821BE
S11329D08F4D2B780B432B70002A02D02B78DB060B
S11329E00AD508222B7893432B708A4B984707B05B
S11329F00CBC90469946F0BD2B789B06F1D4F6E7C3
S1132A0043686360CDE7824D2B789B0603D5202273
S1132A102B7893432B707F4B9847227BDCE74B78D2
S1132A20002B35D17C4F00213A0065688B005B1880
S1132A305B00FB18587AC00900D1D2E02E781078D8
S1132A40864200D0CDE06E785078864200D0C8E04F
S1132A50AE789078864200D0C3E0EE78D078864293
S1132A6000D0BEE02E791079864200D0B9E06E79AC
S1132A705079864200D0B4E0AE799079864200D095
S1132A80AFE0EE79D079864200D0AAE000225A72F3
S1132A90604B9847227B5E4D9EE7604B1B78022B70
S1132AA0F6D85F4B4A781B789A42F1D197235D4F51
S1132AB05D4D3B70953B2B705C4B00261B787B7007
S1132AC0544B98470820237803AA0340273803432C
S1132AD013706368618804932B785181567216725F
S1132AE00093059A3B0003986168514FB8472E70D4
S1132AF0227B474D70E74B78012BC9D84D494E4B8B
S1132B000A889A4273D04D4B9847C1E70123464D3A
S1132B10414F2B70434B0021994692234A46137030
S1132B203A0066688B005B185B00FB18587AC00992
S1132B3049D0107880463078804544D170788046FA
S1132B40507880453FD1B0788046907880453AD11E
S1132B50F0788046D078804535D130798046107938
S1132B60804530D170798046507980452BD1B07939
S1132B7080469079804526D1F0798046D079804589
S1132B8021D100225A7202232B704B465A70214BDA
S1132B9098472B7808260027217803AA3140273E3E
S1132BA060883143117061685081577217720093C5
S1132BB00491059A4B46039861681D4EB0472F70E7
S1132BC0227B134D08E701310A320A29AAD1114B9D
S1132BD09847F02148462A78531CDBB22B70815465
S1132BE0D8E701310A320A2900D01FE750E7012350
S1132BF003A85B420380124B0D80984783E7C046CD
S1132C007C09002096090020F8090020888F000024
S1132C10C4090020251E000018090020140000200B
S1132C202B010020C8090020C509002090090020BC
S1132C30611A000094090020FFFF000079270000BA
S1132C40290F000010B5074C23781B0703D5207803
S1132C500007C00F10BD044B98470028F7D0034B62
S1132C609847F4E7C4090020411E00005D290000D4
S1132C70F0B5DE4657464E464546E0B5FF2089B0DE
S1132C80012906D109B03CBC90469946A246AB4600
S1132C90F0BD374B00261B780393364B9946984773
S1132CA00023334A344C1370102223787C381343A6
S1132CB0237003239A467E3B07009B462378DB065A
S1132CC03FD5C8470500C31B7C2B2BD9002E3FD111
S1132CD05346013BDBB298465346002B42D0812237
S1132CE00421264B01271A70254A06961278C246FB
S1132CF05A70244A12789A70234A1170A222DA7008
S1132D00224A108805AA17725F46567217705081BE
S1132D101F4F009105980021079AB8471A4B2F00BE
S1132D201E70012623781B0715D523781B07C5D5EC
S1132D300822237893432370164B98472378DB06A5
S1132D40BFD46A460A4B127B1A70134B187899E762
S1132D5007000026B2E7114B98470028E5D0104B36
S1132D609847E2E710222378FF209343237089E7F2
S1132D701400002031310000C4090020C8090020DB
S1132D802B01002090090020C5090020940900208F
S1132D90611A0000251E000014090020411E0000D5
S1132DA05D290000032808D8044B054A18700F2336
S1132DB0117800010B401843107070471400002074
S1132DC09009002010B50248024B984710BDC04638
S1132DD00C0A0020BD020000FA218900414310B50D
S1132DE00D4C89B20D4B200098470A220C490D4B1B
S1132DF0200098470A2120000B4B98470B4B2000DA
S1132E00984780220523D20553705378052BFCD1B3
S1132E10BFF34F8F30BF10BD0C0A00202104000007
S1132E20C52D000045040000810400009502000047
S1132E3010B584B000236A466946D370012200208D
S1132E400A710021A022029003916946094CD20024
S1132E500A808B706A4608492000084B98470A226A
S1132E6007492000074B98470A212000064B984742
S1132E7004B010BD0C0A002000200040F102000044
S1132E80C52D00004504000081040000F0B557463C
S1132E904546DE464E46E0B5140085B007000D00F9
S1132EA0002818D000224D4B01001A704C4B0232FE
S1132EB01A704C4E0E324C48B0474C4B3900984671
S1132EC0102342461370501C1022B0471122414671
S1132ED08320474B9847002C42D0012C38D1404FD7
S1132EE03B78012B1DD0414B984610239B4643460B
S1132EF05A461A70394B99461B789A46002B41D092
S1132F003B4B384E9A463B4B9B4643461022581C3B
S1132F105946B047112241468320D04701234A46EF
S1132F2013703C70002D01D0022D11D170232D019E
S1132F301D40E400683B1C402C43802501222B4BA0
S1132F406D421C702C435C742B4B01201A7000E002
S1132F50002005B03CBC90469946A246AB46F0BD65
S1132F601F4F3B78012BDCD1204E0F333370701C84
S1132F7010221D491B4B98471122310083201C4B02
S1132F809847CEE7434652461A7080225A741A4B29
S1132F9069461C7043461022581C124EB0474146E5
S1132FA012228320154B98475246134B18201A704F
S1132FB0434680225A74124B984743465A461A7025
S1132FC00B4B4146012283209A469847094B102215
S1132FD09B46190084200B4B984796E73E0100203E
S1132FE015000020AD7E0000500100202C010020BF
S1132FF0395900004001002060010020515C0000AC
S113300085310000C15A0000F8B5CE464746164C3B
S113301080B5671C0E0010220100144D3800A8472B
S1133020637C9946124B98461B78002B16D01222CB
S1133030104B210083209847002342461370002E32
S113304003D0611C10223000A8474B46182063743B
S1133050094B98470CBC90469946F8BD112239009B
S11330608420044B9847EAE72C010020AD7E000041
S113307060010020515C00008531000010B50100A2
S113308010228420014B984710BDC046C15A00004D
S113309010B5224C8EB0224B2000984700236A467C
S11330A0002000219371D371537093701372537283
S11330B09372D372137393735373137413770890C7
S11330C009911385694653859385002205930693D8
S11330D03433CA542C3BCB70073B0B70A023DB006A
S11330E08B806A460F4920000F4B9847226813696A
S11330F0002BFCD10221136820000B431360002134
S11331000A4B984723681A69002AFCD11A711A6974
S1133110002AFCD120325A710EB010BD5C0A002086
S1133120F54F000000080043214C0000854F0000CB
S113313010B50248024B984710BDC0465C0A0020F7
S1133140B54F000070B5094B00209847FA21084C90
S113315089000500A047074B074918602800A047CD
S11331600522064B1860064B1A6070BD9948000092
S1133170F56000001800002040420F001C000020F1
S113318010E000E0802130B50025084B084A1C6897
S11331904902013808D3002CFBD0546095601368B1
S11331A00B42FCD00138F6D230BDC0461C000020D2
S11331B010E000E0802130B50025084B084A1C6867
S11331C04902013808D3002CFBD054609560136881
S11331D00B42FCD00138F6D230BDC04618000020A6
S11331E010E000E00B4B1A68002A05D1EFF31081C0
S11331F0002905D008490A701A6801321A6070471C
S113320072B6BFF35F8F054A1170034A0131117022
S1133210F2E7C0466401002068010020200000207D
S1133220084B1A68013A1A601B68002B09D1064B37
S11332301B78002B05D00122044B1A70BFF35F8F5B
S113324062B670476401002068010020200000205D
S1133250F0B5C64600B582B001256B4600262E4C5B
S1133260694613205D709E701D70A0472B4B694604
S11332709846802342461B0393616B4612208027A5
S11332801D70A0474346FF029F616B4669461C20A0
S11332901E705D70A0476B46694652205D709E703B
S11332A01D70A04769463E20A04769463F20A047BD
S11332B069462F20A04769461420A0478022184B56
S11332C0D2059F61174B80279A6180223F02120624
S11332D09A619F61802342465B0393616B46694612
S11332E053201E70A047104B01ACDA69210017432C
S11332F00422DF610D4B09201A800523A570657037
S11333000B4D2370E670A84721000C20A84702B09B
S113331004BC9046F0BDC0461135000000280040B2
S1133320002900408028004000040040003C004286
S1133330014A00001723002A01D018007047064AEA
S113334089008B58002B03D0834203D01D23F4E75C
S11333508850F2E70023F0E77C0A002017230029B5
S113336001D0180070471F2805D8163B8340034A34
S113337013610023F5E70961FFDEC0460024004025
S11333801723002901D0180070471F2805D8163BC1
S11333908340034AD3600023F5E7C960FFDEC046DB
S11333A000240040F8B5002301260B4C0B4D0C4FB4
S11333B0237032009A406969114206D06A619B0009
S11333C0DB59002B00D0984723780133DBB22370FC
S11333D00F2BEED9F8BDC046780A00200024004027
S11333E07C0A0020802310B5154A9B005169154CB6
S11333F00B435361012201212378134323700132CB
S113340063681A42FCD163681942F9D11022237807
S113341000211343237040220B4B0C489847082289
S1133420022101200A4B1A602378063A13432370C1
S1133430044B5A681142FCD15A681042F9D110BDAC
S11334400004004000240040BF7E00007C0A0020ED
S113345000E100E0012200230272013203604360B4
S11334608372C27243727047F0B50C0002210500EA
S11334700120254A83B013788B4313705368194293
S1133480FCD153680340F9D101A94B70CB70237967
S113349020780B70237A8B701C4B984700211F2DCA
S11334A000D819490722A37A2A409200E77A002B10
S11334B001D008231F430F26974096403A00EB089B
S11334C09B00CB18D869B0430243DA61637A8A69F6
S11334D0002B14D10123AB40DB431B041B0C134012
S11334E08B6102210120084B1A780A431A705A682A
S11334F01142FCD15A681042F9D103B0F0BD012346
S1133500AB4013438B61ECE700240040014A000008
S1133510802200B583B001AB1A700A785A704A78D9
S11335209A708A781900DA70014B984703B000BD8D
S1133530014A000010B5490840230024814202D208
S1133540180010BD1C00631C091A9BB28842F9D9EB
S11335504023FF2CF4D814800023F1E7F0B545464E
S1133560DE4657464E46E0B5050087B0049210AAE1
S11335700C00117840224D43A54207D9100007B032
S11335803CBC90469946A246AB46F0BD002B53D1B5
S113359002006A4D08000021A8470023202181462B
S11335A0984600278A461F390193C3460094C846AB
S11335B0002200233F208C46B94607E0BD424ED08E
S11335C01400190022000B00013831D32021494294
S11335D041183ED464468C402100644684409218CD
S11335E05B410294664644461643214200D03200B1
S11335F014001D0016001F00009A019BA41A9D418F
S113360022004C462B00029D25432C005D46294395
S1133610019DBD421AD816D0A146009C019D8B463F
S1133620BD42CBD93400390022000B000138CDD281
S11336304F467F423F0C02E00027012B15D0049B2C
S113364000221F809AE7009DB542E5D94C465946B1
S1133650E2E751466446091ACC402100BDE70099CF
S1133660B142ADD934003900DEE7630F9846E30078
S11336700A009A4600210023304CA04700230593FA
S113368001339C460023002299463F27002319E07A
S113369014001D0022002B00241A8D414E46029472
S11336A00395009C34432600994238D835D0B1465E
S11336B0994220D81DD0029B039C9B4623005A4666
S11336C0013F1ED3202464423C192AD46546A540F8
S11336D092185B41644666461443BE40A346544672
S11336E000963440464635402C43D1D05C461D00FC
S11336F0D0E79042DFD993461C005A462300013F8D
S1133700E0D2059B0E4AF61AF60896420ED901330A
S11337100593082BB6D1402230E79042C7D94E46D4
S1133720C5E720246546E41BE540D1E75F03FF239A
S11337305B031F403743BFB281E7C0460D62000000
S1133740FF1F000030B50E4C83B023780500002B1A
S113375006D0002904D1637883420FD01D200BE0EA
S113376001A91120074B0D7098471120064B98476B
S1133770012300206570237003B030BD0020FBE7F7
S11337806C01002005490000454900003A4B98426D
S113379044D00AD9394B984218D0394B984233D087
S11337A0384B98421CD0002070478423DB05984294
S11337B020D0354B9842F6D1012943D000293FD07F
S11337C002293BD00329EED13048EDE7012931D05D
S11337D000292DD002292FD00329E4D12C48E3E776
S11337E001293FD000293BD0022937D00329DAD15F
S11337F02848D9E701293DD0002939D002292BD006
S11338000329D0D12448CFE7012923D000291FD090
S113381002291BD00329C6D12048C5E7012925D098
S1133820002921D002290FD00329BCD11C48BBE7B1
S11338301C48B9E71C48B7E71C48B5E71C48B3E780
S11338400320B1E71B48AFE71B48ADE71B48ABE7D4
S11338501B48A9E71B48A7E71B48A5E71B48A3E7A4
S11338601B48A1E71B489FE71B489DE71B489BE7B4
S11338701B4899E71B4897E70008004200100042E4
S113388000040043000C00420004004203001F0037
S113389003000F00030013000300070003001900D6
S11338A003000B0003000C0003000D0003000E00D6
S11338B003001E000300010003000A0003001800B7
S11338C003001600030017000300060003001200A3
S11338D003001000030011000300080003000900A6
S11338E0030004000300050070B586B001006846BB
S11338F0154B70CB70C070CB70C0009B8B4211D045
S1133900019B8B4211D0029B8B4211D0039B8B42B3
S113391011D0049B8B4211D0059B00208B4210D008
S113392006B070BD0020C0B2FAE70120C0B2F7E7CC
S11339300220C0B2F4E70320C0B2F1E70420C0B211
S1133940EEE70530C0B2EBE7E08F00007047C046F9
S1133950F8B50C4E050033780F000B4C002B0DD13D
S11339600A4B182223606360A360E36023616361F0
S11339700021074B0748984701233370AD00675176
S1133980F8BDC0466E010020700100204D390000D2
S1133990BF7E0000BC0A002000B583B06A4608233D
S11339A0137001335370013393700133D3700133B7
S11339B0137101335371034B98476B46185603B088
S11339C000BDC046E938000010B5024B00201B685A
S11339D0984710BD7001002010B5024B01205B68B0
S11339E0984710BD7001002010B5024B02209B685F
S11339F0984710BD7001002010B5024B0320DB680E
S1133A00984710BD7001002010B5024B04201B69BB
S1133A10984710BD7001002010B5024B05205B696A
S1133A20984710BD70010020F0B545464E46DE466D
S1133A305746E0B505001400022229600B6887B0E0
S1133A400E0090461A420CD101270B6805201F4234
S1133A5000D1DFE007B03CBC90469946A246AB4695
S1133A60F0BD236BA06A9846636BE76A9946002809
S1133A7000D1BFE0431C1ED00204000C130CC0B2E2
S1133A809B46C1094309002900D0BEE01F31014013
S1133A908C46CE49DB018A4661465344591840316D
S1133AA009788A4601215246114200D03EE1802322
S1133AB05B4500D09AE0002F00D1A0E07B1C19D018
S1133AC03A043F0C130CF8B29A46C1094309002981
S1133AD000D09AE0BD491F278C460122DB01074034
S1133AE06344D919403109780A4200D02EE1802379
S1133AF053457BD14346002B00D13FE1434601337C
S1133B0019D043461A04130C9A464346180CC0B203
S1133B104309C10979D1AD491F278C460122DB0134
S1133B2007406344D919403109780A4200D019E1A9
S1133B3080239A455AD14B46002B00D124E14B46B1
S1133B40013327D04B4619040B0C9A464B46180CEC
S1133B50C0B24309C20958D19C4A1F279446DB01CD
S1133B6063440740DA1940321278904601229446A1
S1133B707F32914661464246114209D07F08DB19E3
S1133B8030331A78D2B2014200D103E113099946C5
S1133B90CA452BD111208E4B984722780027012A41
S1133BA000D127E1A2686368617C1343E268134390
S1133BB03B43227C002901D080210B43A17C0029B6
S1133BC002D0802189020A43E17C002902D08021AD
S1133BD089000A43217D002902D0802189010A43FA
S1133BE00220316803438B4200D1D7E000231C201C
S1133BF02B602FE700213000764B98473AE70121EC
S1133C003000744B9847070058E71F231840403092
S1133C100378FFDE0800704B9847052800D1CDE0FB
S1133C2087406E4B1230DA691743DF61C7B2242331
S1133C306A469846E35C694613703800684B9847B7
S1133C403800684B984743460021E05C664B984730
S1133C502378012B00D1ABE02A6869469146802283
S1133C600A71002268464A710121C2718171002BD8
S1133C7000D18371A36A02AF0293E36A00267B60DA
S1133C80236BBB60636BFB60524B9B46574B9A465E
S1133C90B300F858F1B2002845D0431C05D06B4658
S1133CA01871000CC0B201A9D0470136042EEFD11F
S1133CB023786A466B71237CAB71A37CEB71237D03
S1133CC02B72002353802378012B00D1A5E0A26836
S1133CD06368217C1343E2681343627C002A1FD18A
S1133CE0434A927892071BD4A27C002A02D08022F5
S1133CF092021143E27C002A02D0802292001143F6
S1133D00227D002A02D08022920111434A46126881
S1133D10002013434A46136053680B43536099E6EB
S1133D2080221343E0E74846D847B6E76246520884
S1133D309446634430331B78DBB29C461B09014232
S1133D4000D0B5E60F2362461340B1E67F08DB19C5
S1133D5030331978C9B20B09024200D0C8E60F23E8
S1133D600B40C5E67F08DB1930331978C9B20B095B
S1133D70024200D0DDE60F230B40DAE602213000D8
S1133D80144B98478046B9E603213000114B9847FD
S1133D908146D4E60F231A409146F9E673689342AC
S1133DA000D023E7237800206B71237CAB7151E6AC
S1133DB00C2233681343336023784DE74146074AA6
S1133DC01827136A0B43136231E7C04600280040EA
S1133DD07D4900008D370000E938000000040040F0
S1133DE0054900004549000045370000014A00002C
S1133DF0002000410100144B02AAA0699847030067
S1133E001720002B00D025E66A46337B127A053052
S1133E109A4200D01EE60C37C4E60C4B286898473B
S1133E2012300B4BC0B298476B4601009A1CA06934
S1133E30054B984703001720002B00D00AE66B4679
S1133E404A469B78137342E735350000E938000091
S1133E507D49000070B543791524012B01D0200061
S1133E6070BD047A002C3AD1002A3AD04A78002A4C
S1133E7046D00268127E1A400DD108784109C4095F
S1133E803CD11F3202409340CA01264905348C4676
S1133E9062449361E3E70D786A09EE093FD11F2478
S1133EA02C401D00A5402C001E4DD201AC4662449E
S1133EB0546102688C78117E0B4200D09462C379FD
S1133EC0002B0CD104210268137E1942FCD0137E0E
S1133ED0194204D0538B5B0700D55183936A0024A5
S1133EE0BDE708784109C40908D11F220240934064
S1133EF0CA010C498C4662449361B0E79261FFDECB
S1133F0008784109C40908D11F2202409340CA011C
S1133F1004498C4662445361A1E75261FFDE646147
S1133F20FFDEC04600280040F0B54546DE464E465A
S1133F3057460300E0B51960B64B91B080460800BF
S1133F4099460C00150098470300052800D108E1A4
S1133F500600070012360122216805200A4206D015
S1133F6011B03CBC90469946A246AB46F0BD2168D0
S1133F7017308907F4D4052B00D119E1BA40A64BB8
S1133F80D9690A43DA612D27EB5D0AA9F6B20B70F1
S1133F903000A24B98473000A14B98470021A14B19
S1133FA0E85D98474246EB7A0CAE53712423EB5CF0
S1133FB093712523EB5CD371EB7E13722B7F5372C9
S1133FC0136818009A46C8470023338080232A8A3E
S1133FD012300292DB019A4200D1EFE000D8DEE019
S1133FE0C023DB019A4200D1BEE080231B029A4227
S1133FF000D0E8E003230993002308932B6803937C
S1134000EB6804936B6905932B7E06932623EB5C84
S113401007936B689B46002B00D1AFE080235B05C0
S11340209B4500D0A8E02723EB5C0021002B00D1A6
S1134030E4E06B7E002B02D05246AB7E9373434682
S1134040029F1A68D369002BFCD15346049A9981C4
S1134050039B1343059A13435A4613431F43069B7A
S11340601B021F43079B5B071F432723EB5C002BAB
S113407001D104331F436B7E2A7F9B0252021343F8
S11340806A7FE97A120213432422AA5C520413437E
S11340902522AA5C120413432A891943FF2A00D15A
S11340A096E080235B041F4311432C22AA5C002A60
S11340B003D15D4B9B789B0701D580231F43434667
S11340C01A68D369002BFCD15346596043461A68D9
S11340D0D369002BFCD1524617600BAF7B70FB7089
S11340E0BB702B6B80220C936B6B3A707360AB6B61
S11340F0B360EB6B0025F3604C4B9B464C4B9A46EC
S1134100AB00F058E9B2002833D0431C04D0387017
S1134110000CC0B23900D0470135042DF0D140461F
S113412018220021434B0C30984700224346414655
S11341309A625A620023CA858A8530328B540132CE
S11341408B5401328B5401328B540868C8473A4B64
S113415004003A4998474246394BA400E2500020F3
S1134160FEE618260127F6E608230993073B089381
S113417044E72000D847C8E700215AE72723EB5C2F
S1134180002B2DD0099B32000093A96A089B286A52
S11341902C4FB847002800D0E2E6318849E7802355
S11341A09B019A420FD1102309930F3B089325E7F3
S11341B0BA40194B196A0A431A62E4E608230993C0
S11341C0002308931AE7102309930023089315E7A3
S11341D0EB7E002B00D168E78023DB041F4364E7F8
S11341E02B6AC0B21F00184B9847099B010000932B
S11341F03200089B3800134FB847CBE72B6AC0B294
S11342001F00114B984732000100104B38009847AB
S1134210C0E7C046E938000000040040054900003A
S11342204549000045370000002000418D3700005B
S1134230014A0000BF7E000051390000F94300002C
S1134240BC0A00205D3500007D49000035350000C2
S1134250C2791C23002A01D118007047C28D173B74
S1134260002AF9D10368DA69002AFCD119850221F0
S11342701A7E1142FCD00023EEE7C0468279030087
S11342801C20002A00D170479A8D1738002AFAD1D1
S11342901A68137E5B07F6D5D369002BFCD1538BC8
S11342A0DBB2980605D00220184206D0508318309D
S11342B0E9E7138D00200B80E5E70420184202D0C3
S11342C050831A30DFE70120184202D050831230A5
S11342D0D9E71020034202D050833230D3E72020A4
S11342E00342E6D050832130CDE7C046F0B5DE4628
S11342F057464E464546E0B5172383B0002A07D1FA
S1134300180003B03CBC90469946A246AB46F0BDAB
S11343108379002B01D11C23F2E70225AB46013D32
S1134320AA460F35A946334D00260423A846013A70
S1134330046892B2257E2B4207D12E4D02E0013D46
S1134340002D0AD0277E3B42F9D08579002DE2D09A
S1134350858D002D03D00523D2E71223D0E705680D
S11343602F7E3B42F7D0EF69002FFCD16F8BAC4618
S11343703F25FFB23D4207D05D463D421BD05B4620
S113438065466B831A23BBE765462D8D771CBFB248
S1134390ADB201978D554779012F06D0019E013AA0
S11343A092B24245C6D10023AAE7019F02362D0AE4
S11343B0B6B2CD55F3E73B4203D065466B831E236B
S11343C09EE755463D4204D0534665466B8313230E
S11343D096E74D462F4204D04B4665466B834223F5
S11343E08EE720252F42CFD0202365466B834123BF
S11343F086E7C046FFFF0000F8B5624B8000C55851
S11344002C68E369002BFCD1237EA67D31221E405B
S11344103023AF5CEB5C1F400123334219D0EA8D9B
S1134420002A4DD0AA6A511C1378A9626979DBB2BB
S1134430012900D175E09BB2DB05DB0D2385EB8DF3
S1134440013B9BB2EB85002B03D101332375013370
S1134450A3750223334205D0002223753133EA5475
S1134460FB073BD40423334212D0AA8D002A25D063
S1134470638BDBB21A0735D53722134035D00222BD
S11344801A4254D01A213223E95462837B0759D447
S11344901023334203D0237523763B4216D12023C5
S11344A0334203D0237523763B0713D408233342C6
S11344B003D023752376BB0604D4F8BD2375E7E740
S11344C02375C6E72B6A28009847F6E72800EB69AE
S11344D09847E4E72800AB699847E7E72800EB68CA
S11344E09847BFE73F221340C9D1238D696ADB0592
S11344F0DB0DDAB20A706A6A511C696269790129B2
S113450029D0AB8D013B9BB2AB85002BC0D10422DB
S113451022752E32AB54BB07BAD528002B699847B5
S1134520B6E75178023209020B43AA6284E70422F7
S11345301A420BD101221A4213D013213223E95417
S11345406283A3E728006B699847A1E71E21322301
S1134550E95462839AE71B0A53706B6A01336B62F6
S1134560CFE710221A4204D042213223E954628355
S11345708CE720221A4200D188E741213223E954F2
S1134580628383E7BC0A002010B508282DD81C4B91
S113459080001B589F468020000210BD194B5869AB
S11345A0FBE7194B187D0007800F431C174858433D
S11345B0F3E7144C002023689B07EED580221249B0
S11345C05200CB681342FCD023685B070FD4104819
S11345D0E3E70C4B1869E0E728230B4A0020D35C7F
S11345E09B07DAD5074BD868D7E70020D5E7094BF6
S11345F000209847A3681B041B0C5843CDE7C04612
S1134600F88F000088010020000C004000093D00E4
S1134610006CDC027D490000F0B58022D6464F468E
S113462046461E214C4BC0B552009A604B4BFD3A96
S11346309A604B4A84B053688B4353608022D205FE
S11346409378022B06D001239371013393709379ED
S1134650002BFCD00C21434A4026936901AC0B4348
S1134660F021B343C9000B433F4900200B40022112
S11346709361936988460B4393610123636000232C
S11346802100637023726372384F03332370B84779
S11346904246314D2B7D93432B752B7D0A32934338
S11346A0042213437F22B34313402B752B7D7D3AA1
S11346B013432B750E32EB681A42FCD001230026FB
S11346C09846210000206360053399462370667084
S11346D026726672B84780222B7D13432B75244BB8
S11346E098474346210063600120033323706670BA
S11346F026726672B8471F4B01209A469847434674
S11347001D4D2100AB716B712B71434663604B46A9
S113471000202370667026726672B8470020D04766
S1134720164B002098472979154BC9B29847154B69
S1134730984204D88022D2059378002B05D104B086
S11347401CBC90469946A246F0BD434693719670B0
S11347509379002BFCD0F2E7000C004000140040D9
S11347600040004100100040FFEFFFFFAD47000094
S1134770894700005948000000040040994800009F
S1134780F5600000001BB7004021064A53690B4343
S113479053610123044A3F39137013781942FCD141
S11347A07047C046000400400018004070B54B78C4
S11347B004000D78002B02D08023DB001D434B7ACC
S11347C0002B02D080231B011D43486801280FD908
S11347D0431E18422FD1022833D002230022013273
S11347E05B009842FBD8120480235B011D431543F0
S11347F00B7A002B02D080239B011D430426A64084
S11348001149124A4B6813401E42FBD1104B984782
S11348100D4B80229C466146A4006444236A5200E6
S113482013401D43094A25624B6813401E42FBD1C5
S1134830084B984770BD802300049B001843054330
S1134840D6E70022D0E7C04600180040FC0700006D
S1134850E531000021320000042210B5824004003A
S113486009490A4843680B401A42FBD1084B984750
S1134870064BA0009C4680236044026A5B001343FD
S11348800362044B984710BDFC0700000018004069
S1134890E5310000213200000422F8B58240040012
S11348A0124E134973680B401A42FBD10834A4001A
S11348B0104B9847A059104B0007000F9847A55973
S11348C0A459ED040D4BED0F0700240C9847002D5F
S11348D003D00134E7403800F8BD012CFBD938007F
S11348E02100074B98470700F5E7C0460018004031
S11348F0FC070000E531000089450000213200007A
S1134900F560000070B50C4B04000E0098470B4B8B
S113491080229C4640218025A4006444A3588B43F4
S1134920A350403A63591A42FCD1054B98470F23D0
S113493032781340635170BDE53100000018004027
S11349402132000010B50A4B04009847094B80221D
S11349509C464021A000604483580B43835040315F
S1134960403A43581A42FCD0034B984710BDC04606
S1134970E53100000018004021320000F0B5C646C1
S1134980040000B5184E194D2034B047A400184F48
S11349906459B84704222407240FA24015496B68C0
S11349A00B401A42FBD10834A400B0476059124BA3
S11349B00007000F984766596459F604F60F8046BD
S11349C0240CB847002E07D043460134E3409846F0
S11349D0404604BC9046F0BD012CF9D94046210064
S11349E0064B98478046F3E7E53100000018004085
S11349F021320000FC07000089450000F56000003A
S1134A0070B5C2090023002A04D12F4A43099446F1
S1134A10DB0163441F2210401E3A8240C8780028FC
S1134A2031D10878802847D08024000664022043CE
S1134A304C7802252600AE4307D18C78002C37D160
S1134A408024A40220435A604C78013C012C35D9BF
S1134A50A02415042D0CE4052C4304439C62D024AB
S1134A60150C24062C4304439C62CC78002C09D1F9
S1134A70400303D58878012823D05A614978013945
S1134A80012913D970BDA0201404240CC0052043AF
S1134A905A609862D020140C000620439862C878AB
S1134AA00028EFD1497801390129EBD89A60E9E768
S1134AB0C024E4022043C6E70020B9E7034C2040A9
S1134AC0C6E79A61DAE7C04600280040FFFFFBFF13
S1134AD07047C04610B5054B9847054B9847054BA2
S1134AE09847054B9847054B984710BD1946000059
S1134AF051320000D14A0000E5330000D14A0000E1
S1134B0070B50126154B1D682B682A7E6C7E9B7A36
S1134B1014401C4026421AD10226264211D11026E6
S1134B20264208D12026264204D06B6928009847E3
S1134B302B689E7270BD2B69280098472B689E7263
S1134B40F0E7EB68280098472B689E72E7E7AB68AC
S1134B50280098472B689E72DEE7C046D40A0020DE
S1134B6070B50126154B5D682B682A7E6C7E9B7A96
S1134B7014401C4026421AD10226264211D1102686
S1134B80264208D12026264204D06B692800984783
S1134B902B689E7270BD2B69280098472B689E7203
S1134BA0F0E7EB68280098472B689E72E7E7AB684C
S1134BB0280098472B689E72DEE7C046D40A00207E
S1134BC070B50126154B9D682B682A7E6C7E9B7AF6
S1134BD014401C4026421AD10226264211D1102626
S1134BE0264208D12026264204D06B692800984723
S1134BF02B689E7270BD2B69280098472B689E72A3
S1134C00F0E7EB68280098472B689E72E7E7AB68EB
S1134C10280098472B689E72DEE7C046D40A00201D
S1134C20F0B54546DE4657464E46E0B58BB004AB7C
S1134C309B46C84B0F00904619005A46040061C9B0
S1134C4061C2049ABA4200D133E15A68BA4200D12F
S1134C5034E10022914692469A68974200D12FE1AE
S1134C601B2202AE327072700232B2705A460C339A
S1134C7023CB23C223CB23C20023A360E36023619D
S1134C806361237663764B46B34A9B009C5042464D
S1134C9034232760D35CA376D378082B0CD02371FC
S1134CA001233A68052013420BD00BB03CBC90465C
S1134CB09946A246AB46F0BD52461720D207F4D41B
S1134CC0EDE70222F97A17300A42EED139680A4038
S1134CD0EBD14146097C002900D0F6E043461B7F16
S1134CE0002B00D0FDE04B4659465A00531C9B0054
S1134CF0C9584B465846DB00C35C042B07D8974879
S1134D009B00C3589F469648036A19430162434671
S1134D10DB78082B00D1F6E043461B7801A90B7021
S1134D204B46F55C8F4B280098478F4B28009847DB
S1134D3043464246DB78D279134342469288134372
S1134D404246527A002A02D080225202134342463B
S1134D50927A002A02D08022920213434246D27AE7
S1134D60002A02D08022520313434246127B002AB7
S1134D7002D08022920313434246517892788901EB
S1134D80D2011143226819431369002BFCD1396005
S1134D9022681369002BFCD143469B793B7343463D
S1134DA05B7B002B00D08DE00121002243469B7BDE
S1134DB0002B00D1110022681369002BFCD1FF33B2
S1134DC03B71002904D022681369002BFCD179714E
S1134DD043461B7A7B7322681369002BFCD1237929
S1134DE0042B1BD0082B3AD01720002B00D05CE7F3
S1134DF01369002BFCD143461B8DBB8222681369C7
S1134E00002BFCD143465B8DBB8322681369002BC6
S1134E10FCD143469B8D0020FB8346E71369002B9E
S1134E20FCD142462833D35C3B7522681369002BBE
S1134E30FCD142462933D35CFB7622681369002BEC
S1134E40FCD142462A33D35C3B7722681369002B9A
S1134E50FCD142462B33D35C00207B7725E71369D2
S1134E60002BFCD143469B6A7B6122681369002BAB
S1134E70FCD14346DB6AFB6122681369002BFCD139
S1134E8043461B6B00203B620FE73548C369194357
S1134E90C1613CE7324883691943816137E730488F
S1134EA043691943416132E72D4B586A0143596202
S1134EB02DE70022D1B28A469146D1E60122F9E7D4
S1134EC00222F7E70521042270E703A9CA704246CB
S1134ED08B704B704346127E187D244B0A709847A2
S1134EE0FCE6002203A9CA702420424601231218BA
S1134EF012788B700A704B70202243469B181878E6
S1134F001A4B9847EFE65346022B00D104E7594663
S1134F10D31C023292008A5C9B00CB58042A00D92D
S1134F20FAE6134992008A5897460D4A516A0B4390
S1134F305362F1E60A490A6A13430B62ECE6084934
S1134F40CA691343CB61E7E605498A6913438B6158
S1134F50E2E6C04644900000D40A00201C90000001
S1134F60000400400549000045490000014A0000D2
S1134F703090000002494A6913434B61CCE6C046B5
S1134F800004004002681369002BFCD10379042B50
S1134F900CD0082B07D01720002B00D0704789B203
S1134FA091820020FAE751610020F7E7C9B2117538
S1134FB00020F3E702681369002BFCD11371016828
S1134FC00B69002BFCD18033537102681369002BE9
S1134FD0FCD10379042B0AD0082B06D00020002B27
S1134FE000D07047908A80B2FBE75069F9E7107DE2
S1134FF0C0B2F6E7022110B503681522DC7A21421B
S113500001D0100010BD1A6811420DD01A69002A8F
S1135010FCD1022133321A729A721A688A431A60D6
S113502001680A69002AFCD101211A680A431A603E
S11350300022E6E77047C0461449154810B581427E
S113504009D0144B984206D2C243D21892080132B6
S11350509200114B98471148114B984207D2C24312
S1135060D21892080132920000210E4B9847FF217A
S11350700D4B0E4A8B4393600D4A7F3953680B43A3
S113508053600C4B98470C4B9847FEE7AC920000DA
S11350900000002088000020AD7E00008800002071
S11350A0480C0020BF7E00000000000000ED00E07E
S11350B000400041657E00007D5E0000F0B5C646FC
S11350C00C0000B59046002812D1002A0DDD0A4ECE
S11350D00A4D8F18210030682B6801349847BC4270
S11350E0F8D1404604BC9046F0BD00239846F8E74A
S11350F001235B429846F4E7E80A0020E00A002016
S1135100F0B5C646013800B50E001500022810D8C7
S11351100024002A0FD00A4B0A4F984602E00134BB
S1135120A54208D04346315D18683B68984700287B
S1135130F5DA01246442200004BC9046F0BDC04668
S1135140E80A0020E40A0020044A1368002B03D074
S11351501818106018007047014BF9E7A0010020EF
S1135160482C0020012040427047C04680239B0108
S113517000204B607047C0460120704700207047F4
S1135180F0B583B06B469C1D002306000F00054D4F
S1135190238021003000A8470028FAD123883B70DF
S11351A003B0F0BD7D42000070B50600034D8CB223
S11351B021003000A8470028FAD170BD51420000F8
S11351C010B582B06B46DC1D012221000D4B0E4848
S11351D0984772B6BFF35F8F00230C4A0C491370D3
S11351E024780B780B48C4549B2B09D00133DBB2D1
S11351F00B7001231370BFF35F8F62B602B010BD52
S11352000023F5E7ED420000A40100202000002067
S113521074020020D801002070B590B06946FF22C6
S113522080230A810222DB0500930023FF320992C6
S1135230D53A8B5401328B548B72CB720B8201930F
S11352400A93059313238B7680235B030393324BDA
S113525000220C93314BCA760D9301235B420E93CB
S11352600F93E1230A760A774A764A7784215B0210
S11352702B4C08932B4B2C4A1C602C4BC9051A60F1
S11352802B4A2C4B20001A606A462B4B98472B4E16
S11352902B4D336800219868A8473368002158686B
S11352A0A8472568274B280098471F2318401E3B12
S11352B08340254A13602268D369002BFCD1022263
S11352C02B6813432B602368DA69002AFCD18022FF
S11352D0596852020A435A600122E271DA69002ACB
S11352E0FCD1DA69002AFCD18022596892020A436F
S11352F05A600122A271DA69002AFCD11349002004
S1135300134B984784230422DB059A750E4BFC3219
S11353101A6010B070BDC04603000400030005000D
S1135320A4010020E80A0020A9510000E40A00209A
S113533081510000E00A0020293F000024000020E1
S1135340D97F00009939000000E100E0C15100005C
S113535051390000012210B5024B5A61024B9847A3
S113536010BDC046002400403D23000070B53F221C
S11353700024344B84B01A705C709C7001256B4619
S1135380314E5D709C701D703F20304B6946327009
S11353907470B470984730784209C30950D11F2102
S11353A0014028008840010029482A4C8446D20143
S11353B062449161200024226360A354A360237497
S11353C063742375183A0021234B18302570A57493
S11353D0E574984780235B02E360204B204DA36172
S11353E0204B2200A36201235B42E3621E4B1F4950
S11353F023631F4B280063631E4B98472B68DC69AB
S1135400002CFCD102251A6868462A431A601A4BFC
S11354109847802320229B03009201936B466A469F
S11354201D725C729C7201236946D3720020134B77
S1135430984700220021124B1248984704B070BDCF
S1135440A461FFDEF00A0020F40A002011350000F8
S113545000280040F80A0020BF7E000000093D003B
S1135460300B00200500530005003E0000100042F0
S113547005005200293A0000553400006934000048
S1135480353300005553000070B580228025A520D7
S1135490064C074B2D025203A561064E5A6140008B
S11354A0B04765610A20B047A56170BD80280040FF
S11354B00028004085310000F0B5CE46474680B54F
S11354C083B0EFF310835A425341019372B6BFF392
S11354D05F8F0023324F334C3B70019B324E984612
S11354E08023184331008146012220002F4DA84714
S11354F0012123681A7E1142FCD01A7E114201D088
S11355004A469A6202211A7E1142FCD004211A7E74
S11355101142FCD01A7E11420AD05A8B520700D590
S11355205983A279012A34D09A6A2149D2B20A80D5
S113553001211A7E1142FCD01A7E114201D00022B0
S11355409A6202211A7E1142FCD004211A7E114271
S1135550FCD000201A7E8146114205D05A8B520796
S113556015D49B6ADBB29946002231002000A8477B
S1135570FF234246134204D0FE3B3B70BFF35F8FD0
S113558062B6484603B00CBC90469946F0BD5983B8
S1135590E7E79A6A0649D205D20D0A80C8E7C046F1
S11355A020000020300B0020F40A0020553E0000AB
S11355B0EC0A0020F0B54F46D6464646C0B58946AB
S11355C082B0EFF310835A425341019372B6BFF392
S11355D05F8F0023354F364C3B70019B354E984608
S11355E0C02318433100824601222000324DA847CF
S11355F0012123681A7E1142FCD01A7E114201D087
S113560052469A6202211A7E1142FCD004211A7E6B
S11356101142FCD01A7E11420AD05A8B520700D58F
S11356205983A279012A3AD09A6A2449D2B20A80CB
S113563001211A7E1142FCD01A7E114201D04A4641
S11356409A6202211A7E1142FCD004211A7E114270
S1135650FCD01A7E11420AD05A8B520700D55983C6
S1135660A2799B6A012A15D0144ADBB21380002266
S113567031002000A847FF234246134204D0FE3BDA
S11356803B70BFF35F8F62B602B01CBC9046994674
S1135690A246F0BDDB05094ADB0D1380E7E79A6AF1
S11356A00649D205D20D0A80C2E7C0462000002078
S11356B0300B0020F40A0020553E0000EC0A0020C4
S11356C0F0B54546DE4657464E46E0B5040085B083
S11356D08846EFF310835A425341039372B6BFF3E3
S11356E05F8F0023404A414D1370039B404901934F
S11356F0404B012228009A46984701212B681A7EC4
S11357001142FCD01A7E114201D020229A62022159
S11357101A7E1142FCD004211A7E1142FCD01A7E5A
S113572011420AD05A8B520700D55983AA79012A0B
S113573053D09A6A3049D2B20A8042464146013A6D
S1135740D2B2002934D00132914620229046002260
S113575001219346022704200426A1441A7E114203
S1135760FCD01A7E114201D05A469A621A7E174220
S1135770FCD01A7E1042FCD01A7E164209D05A8BF5
S1135780104200D05883AA799B6A012A08D0DBB260
S113579098464346237001344C4509D02B68DDE715
S11357A0DB05DB0D98464346237001344C45F5D1A7
S11357B000220F492800D047FF23019A134205D045
S11357C00123094A1370BFF35F8F62B605B03CBC76
S11357D090469946A246AB46F0BD9A6A0649D20560
S11357E0D20D0A80A9E7C04620000020300B00201B
S11357F0F40A0020553E0000EC0A0020F0B54E46A5
S1135800DE4657464546E0B5040085B00E00EFF38A
S113581010835A425341039372B6BFF35F8F002340
S1135820404A41481370039B012201933F4B1900E6
S113583098463F4B984701213B4B1B681A7E114207
S1135840FCD01A7E114201D060229A6202211A7E93
S11358501142FCD004211A7E1142FCD01A7E11425E
S11358600BD05A8B520700D559832F4A9279012ABB
S113587051D09A6A2F49D2B20A802B4A04219279D4
S1135880894692462B49013EF6B2200001220225A8
S113589004248B46D446FF2E21D0197E0A42FCD024
S11358A0197E07780A4200D09F62197E0D42FCD00F
S11358B0197E0C42FCD04F46197E0F420AD0598BF8
S11358C00C4200D05C83614601291DD05F46996A71
S11358D0C9B239800130013EF6B2FF2EDDD1144B3E
S11358E00022414610489847019B1E4205D00123DF
S11358F00C4A1370BFF35F8F62B605B03CBC904690
S11359009946A246AB46F0BD996A0A4FC905C90D2E
S113591039800130DFE79A6A0649D205D20D0A8040
S1135920ABE7C04620000020300B0020F40A002022
S1135930553E0000EC0A0020F0B54E464546DE46D2
S11359405746E0B50C0085B005001600EFF3108350
S11359505A425341039372B6BFF35F8F0023534AF5
S113596053481370039B01220193524B190098462C
S1135970514B984701214E4B1B681A7E1142FCD0B3
S11359801A7E114201D040229A6202211A7E1142EB
S1135990FCD004211A7E1142FCD01A7E11420CD094
S11359A05A8B520700D55983414A9279012A00D172
S11359B076E09A6A4149D2B20A8001211A7E1142E4
S11359C0FCD01A7E114200D09D6202211A7E11423F
S11359D0FCD004211A7E1142FCD01A7E11420BD055
S11359E05A8B520700D55983314A9279012A51D0F2
S11359F09A6A3249D2B20A802D4A013E9279F6B2AD
S1135A009246042291462D4A2100012002250424B5
S1135A109346D446FF2E21D01A7E1042FCD01A7E23
S1135A200F78104200D09F621A7E1542FCD01A7E75
S1135A301442FCD04F461A7E17420AD05A8B1442A5
S1135A4000D05C836246012A1DD05F469A6AD2B2B6
S1135A503A800131013EF6B2FF2EDDD1164B002211
S1135A60414613489847019B1E4205D001230F4A23
S1135A701370BFF35F8F62B605B03CBC9046994685
S1135A80A246AB46F0BD9A6A0C4FD205D20D3A80BD
S1135A900131DFE79A6A0949D205D20D0A80ABE7E2
S1135AA09A6A0649D205D20D0A8086E720000020B2
S1135AB0300B0020F40A0020553E0000EC0A0020C0
S1135AC0F0B5DE464E4645465746E0B55A4B85B0DE
S1135AD0060001200C0090469847EFF310835A42C9
S1135AE05341039372B6BFF35F8F0023534A544D5F
S1135AF01370039B53490193534B012228009A4688
S1135B00984701212B681A7E1142FCD01A7E11425B
S1135B1001D000229A6202211A7E1142FCD0042193
S1135B201A7E1142FCD01A7E11420BD05A8B5207B6
S1135B3000D55983AA79012A00D176E09A6A4349AB
S1135B40D2B20A8001211A7E1142FCD01A7E11427F
S1135B5000D09E6202211A7E1142FCD004211A7EDA
S1135B601142FCD01A7E11420AD05A8B520700D53A
S1135B705983AA79012A52D09A6A3449D2B20A8046
S1135B8042464146013AD2B2002933D0013291460D
S1135B900022012190469346022704200426A144B2
S1135BA01A7E1142FCD01A7E114201D05A469A62E2
S1135BB01A7E1742FCD01A7E1042FCD01A7E16427E
S1135BC009D05A8B104200D05883AA799B6A012AC3
S1135BD008D0DBB298464346237001344C4509D0C3
S1135BE02B68DDE7DB05DB0D984643462370013463
S1135BF04C45F5D1002213492800D047FF23019AD0
S1135C00134205D001230D4A1370BFF35F8F62B6B0
S1135C1005B03CBC90469946A246AB46F0BD9A6A94
S1135C200A49D205D20D0A80AAE79A6A0749D20521
S1135C30D20D0A8086E7C04685310000200000208E
S1135C40300B0020F40A0020553E0000EC0A00202E
S1135C50F0B5DE464E4657464546E0B57C4B83B02C
S1135C60060001209146019198470021794B0020BC
S1135C709847794B794C19009A46794B01222000B8
S1135C8098469847012123681A7E1142FCD01A7E57
S1135C90114201D040229A6202211A7E1142FCD0A4
S1135CA004211A7E1142FCD01A7E11420BD05A8B69
S1135CB0520700D55983A279012A00D1B7E09A6A24
S1135CC06849D2B20A8001211A7E1142FCD01A7EA0
S1135CD0114200D09E6202211A7E1142FCD004219E
S1135CE01A7E1142FCD01A7E11420BD05A8B5207F5
