:1000000018260020B50C0000B10C0000B10C000057
:1000100000000000000000000000000000000000E0
:10002000000000000000000000000000B10C000013
:100030000000000000000000B10C0000B10C000046
:10004000B10C0000B10C0000B10C0000F910000070
:10005000B10C0000B10C0000B10C0000B10C0000AC
:10006000F115000001160000111600002116000015
:100070003116000041160000B10C0000B10C000068
:10008000B10C0000B10C0000B10C00000000000039
:1000900000000000B10C0000B10C0000B10C000029
:1000A00000000000B10C0000000000000000000093
:1000B0000000000010B5064C2378002B07D1054B3B
:1000C000002B02D0044800E000BF0123237010BDC4
:1000D0007000002000000000B4410000084B10B583
:1000E000002B03D00749084800E000BF0748036819
:1000F000002B00D110BD064B002BFBD09847F9E731
:100100000000000074000020B4410000B441000071
:100110000000000010B5064B9847041E01D02000D7
:1001200010BD044B98470122034B1A70F7E7C046F5
:10013000B90400003D0100008C00002000B583B030
:100140000023019301A91148114B9847002801D0C1
:1001500003B000BD80214900019B194301910B4868
:100160000C4B98470028F3D101A9D0204001084B3F
:1001700098470028ECD180214902019B1943019145
:10018000D0204001034B9847E2E7C0460814000026
:10019000D1030000DD03000010B582B0284B1C68BD
:1001A000002C04D0264B1C68200002B010BD1900A2
:1001B00080204001234B9847002803D00022204B89
:1001C0001A60F1E701A920481E4B9847002803D088
:1001D00000221B4B1A60E7E7194B1B681B4A93422E
:1001E0000ED01B4A934212D01A4A93421CD0144993
:1001F000194A0B681A40A023DB0213430B60D1E7B6
:10020000019B012BF3D0154A0D4B1A60EFE7019BC0
:10021000032BECD0042B03D0114A094B1A60E6E7FC
:10022000104A074B1A60E2E70549EC208003054BB2
:1002300098470028DBD00022014B1A60B4E7C04683
:1002400090000020D1030000F4130000A002100071
:10025000B0021000F0001000FFFFF0FFA10210003C
:10026000B2021000B1021000F0B583B00023019378
:10027000009301A90B201B4B9847041E24D1019920
:10028000CB0706D4012319430B20174B9847041EB4
:100290001AD101A90120134B9847041E14D10199CA
:1002A0008B0714D505250F4F104E69460F20B84710
:1002B000041E09D1009B5B0711D40220B047013D09
:1002C000002DF2D104246442200003B0F0BD0223CB
:1002D00019430120044B9847041EE3D0F4E7044B74
:1002E0009847F1E7D1030000DD030000B90D0000DD
:1002F000B903000070B582B000230193154E01A927
:100300003000154DA84704000121019B19430191BC
:100310003000124B98470419E4B201A9A020400113
:10032000A8472418E4B201994B0502D460B202B088
:1003300070BD0B4B19400191A02676013000074B90
:100340009847050001A93000034B9847281820184A
:1003500040B2ECE718110000D1030000DD030000FB
:10036000FFFBFFFF10B50021A0204001034B984781
:1003700004003220024B9847200010BDDD0300002E
:10038000B90D000010B5064B9847002800D010BDED
:10039000044B98470028FAD1034B9847F7E7C0462B
:1003A0006902000065030000F502000010B5014B72
:1003B000984710BD690E000010B5014B984710BD5D
:1003C0003909000010B5014B984710BD61090000C4
:1003D00010B5014B984710BD7509000010B5014BD1
:1003E000984710BD8D090000F0B5D6464F464646E9
:1003F000C0B582B0804689461500134B1F88083F60
:10040000BBB201931E0004009A421AD90F4B9A46C0
:10041000371A4346E11A4944019A2000D047002880
:1004200009D1AD1B3919A419B542F2D8AAB2494471
:100430002000064B984702B01CBC90469946A24645
:10044000F0BD0021F2E7C04608000020410A00008C
:10045000F0B5D6464F464646C0B582B0804689467E
:100460001500134B1F88083FBBB201931E00040008
:100470009A421AD90F4B9A46371A4346E11A494411
:10048000019A2000D047002809D1AD1B3919A419C1
:10049000B542F2D8AAB249442000064B984702B0B0
:1004A0001CBC90469946A246F0BD0021F2E7C0462A
:1004B00008000020010B000010B50020094B9847F0
:1004C000041E01D0200010BD074B9847000D0328E3
:1004D00001D0064B9847064B984700210548064B2C
:1004E0009847EFE7AD030000990100008503000085
:1004F000A509000000030200DD03000000B585B07F
:1005000001AB019000220292198119000320024BD5
:10051000984705B000BDC0466D0F000070B584B0AF
:1005200008AC257801AC20703F30C4B20E2C76D8D0
:10053000A000484C2058874601AB0A0C5A700A0AA2
:100540009A70D9700521444B1B78002B69D0013972
:10055000C9B275E00B0ADBB2002D07D101AA5370B6
:1005600001AB99700022DA700521ECE7802252423B
:10057000134301AA5370F3E701AB00225A709A703B
:10058000DA700521DFE701AB00225A709A70DA7049
:100590000521D8E701ABFF225A709A70DA70052165
:1005A000D1E701AA080C5070080A9070D170190A9E
:1005B000117153710721C6E701AA080C5070080A8F
:1005C0009070D170190C1171190A51719371082131
:1005D000B9E70B0ADBB2002D0CD101A8437001ABC7
:1005E0009970110ED970110C1971110A59719A7103
:1005F0000821A8E780204042034301A84370EEE7AA
:1006000001AB080C5870080A9870D970110E197156
:10061000110C5971110A9971DA71092193E70020BF
:1006200015E04E1E01AA95197F230C4C5B00107833
:100630004340E35C0132AA42F8D15B0001AA935522
:1006400089B201A8064B98474342584140B204B0D2
:1006500070BDC046FC3E0000940000203C3F0000FE
:10066000FD04000000B585B001AB002201920290AC
:10067000198119000320024B984705B000BDC04600
:100680006D0F0000F0B5C64600B582B00700CF2858
:100690002BD003003B33DBB2012B26D90B246B4656
:1006A000DE1D194B984601213000C047051E27D199
:1006B0003378BB4222D0013CE4B2002CF3D10B349E
:1006C0006B46DE1D104F01213000B847002807D1CE
:1006D0003378002B16D0013CE4B2002CF3D1012575
:1006E000280002B004BC9046F0BD01216B46D81D25
:1006F000054B984700250028D0D0F1E70B24DFE711
:100700000025EDE70125EBE765060000F0B5DE46C4
:1007100057464E464546E0B587B00190894602925D
:1007200000239A4680239B019B466A46D381244B33
:1007300098461AE0002C2EDD019B53441800390026
:100740001F4B9847041E26D1029B002B03D11D4B43
:100750001B78002B27D05346FB181BB29A464B46FA
:10076000DF1BBBB29946002B25D04F46D94501D996
:100770006B46DF89BFB20A2404ABDE1C01213000C6
:10078000C047051E19D133781B090F2BD2D0013C6D
:1007900024B2631CF2D1280007B03CBC90469946B5
:1007A000A246AB46F0BD022105A8054B984700289C
:1007B000D1D02500EFE70125EDE70025EBE7C046A6
:1007C0006506000094000020F0B5D6464F46464628
:1007D000C0B586B003900591302831D81D4B1E78E6
:1007E000F3B204930023302203998A425B41DBB2C7
:1007F0009A460A24184B9946184E534600930423F0
:10080000059A03990498C847050001281BD00120C8
:10081000B0470023009300220021CF200E4FB8479D
:10082000CF200F4B98470120B047013CE4B2002C89
:10083000E3D1280006B01CBC90469946A246F0BD04
:10084000084B1E78CCE70498054B98470500012813
:10085000DDD1EEE7383F00001D050000B90D0000B6
:1008600085060000393F0000F0B5D6464F464646A3
:10087000C0B588B003900591FF280ED8284B1E788C
:10088000F3B204930023FF2203998A425B41DFB253
:100890000A24244B9846BA4615E0234B1E78EFE70E
:1008A0000120224EB0470023009300220021CF20D8
:1008B0001C4FB847CF201E4B98470120B047013C42
:1008C000E4B2002C24D05346009304230022039961
:1008D0000498C04705000128E2D10498144B9847BA
:1008E00005000128DCD15246042107A8114B984786
:1008F00005000128D4D107AA53781B029178090476
:100900000B4311780B43D27812061343059A1360F8
:10091000280008B01CBC90469946A246F0BDC046CF
:100920003A3F00001D0500003B3F0000B90D0000EC
:10093000850600000D07000010B582B0002300936B
:1009400000220021CF20044CA047CF20034B984722
:10095000002002B010BDC0461D0500008506000045
:1009600000B583B001A9024B9847019803B000BDC0
:100970006908000010B5044B98470023012801D1F5
:10098000180010BD063BFBE76908000010B5044BDA
:1009900098470023012801D1180010BD063BFBE752
:1009A000C907000010B582B0002300931E4A1370DF
:1009B00069461E481E4B9847002827D01A4B1B78C3
:1009C000002B0DD17C33009999432C3B19430091A6
:1009D0001648184B9847002816D00122124B1A705F
:1009E00001A980204001124B9847002818D00F4CD5
:1009F0002000114B98477023010099435020014378
:100A000020000E4B9847002002B010BD0122064B7B
:100A10001A7069460548064B98470028CED1F3E77F
:100A200006204042F0E7C0469400002024E8000081
:100A300069080000C9070000610900008D09000075
:100A4000F0B5DE4657464E464546E0B587B00290C3
:100A5000039117000A2500239B460024244B984647
:100A60001BE000943B0022000299C820C0470128E7
:100A700019D001201F4B9A4698470094230022006A
:100A80002100CF201A4EB047CF201B4B98470120A2
:100A9000D047013DEDB2002D20D0012FE1D101233F
:100AA0009B460137DDE7C730134B98470128E0D15B
:100AB0005B46002B0CD005AE2200390030000F4BF6
:100AC00098473378039A13700128D2D1002007E0A9
:100AD000220039000398094B9847F5E70620404269
:100AE00007B03CBC90469946A246AB46F0BDC04616
:100AF0001D050000B90D0000850600000D0700006F
:100B0000F0B5DE4657464E464546E0B587B0029002
:100B10008B4617000A2480239B019A466A46D3819C
:100B20001CE0002300933B0000220299C7204B4D9C
:100B3000A847012816D00120494DA847002300935B
:100B400000220021CF20454EB047CF20454B98478B
:100B50000120A847013CE4B2002C50D0012FE0D185
:100B60000137DEE7C6303F4B98470128E3D100222A
:100B700005AB1A803D000023A046B9461C0022E0C8
:100B800000235246AA425B4102330B2002AA94463C
:100B9000604410225242134303700121324B9847A4
:100BA000002826D15B46181931002F4B9847071EA5
:100BB00022D12E4B1B78002B12D0341924B2AD1B3E
:100BC000ADB2002D24D02E1C554501D96B46DE89CF
:100BD000B6B2002CD4D103235545D6D9023BD4E775
:100BE000022105A8204B98470028E6D044464F46EE
:100BF000A1E744464F469EE744464F469BE7062002
:100C0000404207B03CBC90469946A246AB46F0BD78
:100C100044464B46B9461F00144B1D786B1E9D4140
:100C20000235A9B205A8124B9847002810D106AB8F
:100C30005B19053B1B788146002B09D106AB9C460E
:100C40006544063D2878C3384342584143B299462B
:100C50004B46012B00D06EE70020D2E71D050000B7
:100C6000B90D000085060000FD040000940000207E
:100C700065060000F0B583B001AC01256570002366
:100C8000A370257021001320074FB847074E80231B
:100C90001B03B361257021001220B8478023DB02BB
:100CA000B36103B0F0BDC046ED1100000028004064
:100CB000FEE7000010B51A4A1A4B9A4211D01A00EA
:100CC000194B9A420DD2194A03339B1A9B080133E0
:100CD0009B000022134812498C58845004329A42D7
:100CE000FAD1134A134B9A420AD2D34311495B18E3
:100CF00003218B4304339B18002102C29342FCD191
:100D00000D4AFF210D4B8B4393600D4A53687F3989
:100D10000B4353600B4B98470B4B9847FEE7C0467D
:100D2000B4410000000000207000002004000020FA
:100D3000700000201806002000ED00E00000000018
:100D400000400041BD330000192D000070B50020A7
:100D5000084B98470500084CFA218900A047074B2B
:100D6000186007492800A047064B18600522064B6B
:100D70001A6070BDF527000051320000000000200D
:100D800040420F000400002010E000E030B5084BA6
:100D90001C68084A002580214902013807D3002C2D
:100DA000FBD05460956013680B42FCD0F5E730BD72
:100DB0000000002010E000E070B5441E002804D0C0
:100DC000024D0120A847013CFBD270BD8D0D0000F3
:100DD000F8B5084C80273F0467618026B60166613C
:100DE0006420054DA847A7610A20A847A6610A20EC
:100DF000A847F8BD00280040B90D000070B582B0CA
:100E00000023134A136001AC01256570A37025709F
:100E100021000D200F4EB04721001720B0472100C0
:100E20001C20B0470C4B1B681D4203D00A4B1B68AB
:100E30009B0701D4094B9847094B98470122094B5E
:100E40001A70BFF35F8F62B6002002B070BDC0465B
:100E500098000020ED11000010E000E04D0D0000B2
:100E6000D10D00000A00002030B591B0304C232392
:100E7000237000236370A37001A901224A708B7054
:100E80000A7023202B4B98472278D1090023002990
:100E900004D15309DB0128498C4663441F211140CA
:100EA000012210008840986102AC22700023039355
:100EB000049323746374A274E27423752332A354DD
:100EC000183A002108A81D4B984780235B02E36075
:100ED0001B4BA36201235B42E3621A4B23631A4B51
:100EE00063631A4BA361220019491A481A4B9847A9
:100EF00000281AD1174D2C682000184B98471F2343
:100F000018401E3B8340164A13602A68D369002BA1
:100F1000FCD12368022213432360124B984701201F
:100F2000114B9847002011B030BD06204042FAE72F
:100F300068050020ED110000002800402B3400005F
:100F4000030022000300360003003700001BB70037
:100F5000000400436C05002051160000C11500007C
:100F600000E100E0D10D0000B90D0000F0B5DE4653
:100F700057464E464546E0B583B0032800D074E09E
:100F80000E684D680C8900226B46DA71002D26D060
:100F9000002C64D0002E6BD00023984600239B4683
:100FA000012236493648374B9847354B9A46012738
:100FB0000422994659464B4259418B463078534654
:100FC0001B68197E3942FCD0197E3942FCD09862E8
:100FD000197E1142FCD0494689798C4611E0002ED9
:100FE0003AD0002C3ED00023984601339B466B46F6
:100FF000DD1DD5E7604601280DD0986AC0B20029F2
:101000000DD0197E1142FCD0588B00211042F1D036
:101010005A831E31EEE7986AC005C00DEFE72870CD
:10102000013CA4B25D44434659424B41F618002CA2
:10103000C4D1134B196802220B7E1342FCD000224C
:101040000E490F480F4B9847002003B03CBC904618
:101050009946A246AB46F0BD0F204042F5E70F206F
:101060004042F2E70F204042EFE701204042ECE728
:10107000012398466B46DE1D90E7C04668050020B8
:101080006C0500203D1800000C4B1B68002B06D19E
:10109000EFF31083002B07D00022094B1A70074A88
:1010A000136801331360704772B6BFF35F8F00227D
:1010B000044B1A700132024B1A70F0E79C000020BA
:1010C000A00000200A000020084B1A68013A1A60AC
:1010D0001B68002B09D1064B1B78002B05D0012281
:1010E000044B1A70BFF35F8F62B670479C000020FC
:1010F000A00000200A00002070B50022104B1A70DA
:10110000002310491F25104E0D4C0AE00D4908E040
:1011100023780133DBB223700F2B10D800211F2B53
:10112000F4D9280018400122824048691042EFD0CB
:101130004A619B009B59002BEAD09847E8E770BDB5
:10114000A805002000240040AC050020064A1378C2
:1011500002210B431370012053681942FCD15368DC
:101160001842F9D17047C0460024004000B583B052
:10117000174A516980239B000B43536101A9002347
:101180000B700320134B98470320134B9847134AC7
:10119000137801210B431370013101205368194268
:1011A000FCD153681842F9D10C4A137810218B43B3
:1011B00013700B4B19004031002204C38B42FCD149
:1011C0000822084B1A60084B984703B000BDC04680
:1011D00000040040D12800006128000000240040E5
:1011E000AC05002000E100E04D11000000B583B027
:1011F00001AB80221A700A785A704A789A708A78FD
:10120000DA701900014B984703B000BDCD290000EA
:10121000F0B5DE4657464E464546E0B587B08046B7
:10122000049116001F000022002300218B463F245A
:1012300001202100009601975C46039444460594E2
:1012400013E02024641A0500E540A84614E0009C41
:10125000019D121BAB415C464D462C43A346039CAB
:1012600045462C430394013925D3202464420C19AC
:10127000E7D40500A540A84604008C40A14692187A
:101280005B4114001D00059E4F463E40B446049E3F
:1012900047463E40B246664657463E4303D00600A8
:1012A000264332002B00009C019D9D42DBD8CED10D
:1012B0009442D8D8CBE7039B5846190007B03CBCF2
:1012C00090469946A246AB46F0BD10B5490840236A
:1012D0000024814202D2180010BD1C00091A631CB0
:1012E0009BB28842F9D94023FF2CF4D81480002304
:1012F000F1E70000F0B583B00F00160008AA1178DE
:1013000004004C434022BC4202D9100003B0F0BD9F
:10131000002B14D1020008000021194CA047010045
:101320003A0000230020174CA04700220123121A84
:101330008B41120C1B041A4332800022E5E7002285
:10134000012BF9D10A00002300210D4CA047020017
:101350000B0000920193380000210A4CA0470500C1
:1013600080239B0140229842CFD8790FF800009A41
:10137000019BA047EA00821AD2B252032A43DBE75C
:10138000693300001112000010B582B004000E4B4A
:101390001B78002B07D0002905D10B4B5B788342CB
:1013A00010D01D200CE001A90C701120074B9847AC
:1013B0001120074B9847044B5C7001221A700020E3
:1013C00002B010BD0020FBE7A4000020D1280000DF
:1013D00061280000404B984232D00AD93F4B9842D6
:1013E0004ED03F4B98425BD03E4B984238D00020C5
:1013F00070478423DB0598420CD03B4B9842F6D1D2
:10140000012917D000295DD0022915D0032915D054
:101410000020EDE7012907D0002951D0022905D08D
:10142000032905D00020E3E73048E1E73048DFE753
:101430003048DDE73048DBE73048D9E73048D7E7C8
:10144000012907D000293FD0022905D0032905D062
:101450000020CDE72B48CBE72B48C9E72B48C7E74F
:10146000012907D0002931D0022905D0032905D050
:101470000020BDE72648BBE72648B9E72648B7E77E
:10148000012907D0002923D0022905D0032905D03E
:101490000020ADE72148ABE72148A9E72148A7E7AD
:1014A000012907D0002915D0022905D0032905D02C
:1014B00000209DE71C489BE71C4899E71C4897E7DC
:1014C0001C4895E7032093E71B4891E71B488FE7EB
:1014D0001B488DE71B488BE70008004200100042C4
:1014E00000040043000C0042000400420300050019
:1014F00003000600030007000300010003001E00B4
:1015000003001F000300090003000A0003000B0092
:1015100003001100030012000300130003000D007C
:1015200003000E0003000F00030017000300180063
:10153000030019000300040003000800030010006A
:1015400003000C000300160030B587B00B4B6A4651
:1015500032CB32C232CB32C2009B83420BD001234A
:101560009A0069465258824206D00133062BF7D1C1
:10157000002007B030BD0023D8B2FAE73C4000009D
:1015800070470000F0B50A4B1B78002B0CD1094FB7
:10159000094E0A4D0024DE515A1914600433182BE9
:1015A000F9D10122024B1A708000024BC150F0BDEC
:1015B000A6000020A800002081150000EC050020F6
:1015C00000B583B008236A461370013353700133AA
:1015D00093700133D3700133137101335371034B93
:1015E00098476B46185603B000BDC0464915000029
:1015F00010B5024B1B680020984710BDA8000020C2
:1016000010B5024B5B680120984710BDA800002070
:1016100010B5024B9B680220984710BDA80000201F
:1016200010B5024BDB680320984710BDA8000020CE
:1016300010B5024B1B690420984710BDA80000207C
:1016400010B5024B5B690520984710BDA80000202B
:10165000F0B58BB005000C00160029600B681C204B
:101660009B0701D50BB0F0BD0B681738DB07F9D429
:101670000800654B9847052800D1BEE003001233EF
:101680006249CF69012282403A43CA6109A92427ED
:10169000F25D0A70DBB2019318005D4B9847019828
:1016A0005C4B9847F05D00215B4B98473378012BEA
:1016B00038D02B000C3329002831002204C3994272
:1016C000FCD10023EB62AB620024AB862B86363361
:1016D000EC540133EC540133EC54353B6B722C71F8
:1016E0002868494B984707004C494D4B9847BF0025
:1016F0004C4BFD502F6804AB80221A705C707F3A0F
:101700009A70DC703378002B02D1002204AB9A70FF
:10171000B36A0593F36A0693336B0793736B08936D
:1017200000240BE023680C2213432360C1E7380038
:101730003D4B98470AE00134042C10D0E1B2A300DD
:1017400002AA0C201218D0580028F0D0431CF2D066
:1017500004A90870000CC0B2344B9847EBE733780B
:101760006B71337CAB71B37CEB71337D2B720022D8
:1017700002ABDA803378012B28D07368B268134348
:10178000F2681343317C727C002A03D1284A927894
:10179000920701D580221343B27C002A02D0802216
:1017A00092021143F27C002A02D08022920011435F
:1017B000327D002A02D08022920111433A681343FD
:1017C0003B607B680B437B6000204BE728680E4B37
:1017D00098471230C0B2174B9847010002AB9A1DD0
:1017E000B069154B984703001720002B00D039E74C
:1017F00002AB06331B783B73BFE7044A136A02212E
:101800000B431362182341E7491500000004004010
:10181000D128000061280000891300003119000060
:1018200085150000EC050020D5130000CD2900002F
:1018300000200041F5280000CB12000010B54479CB
:101840001523012C01D0180010BD047A0023002CB0
:10185000F9D1002A58D04B78002B44D003681B7E66
:10186000DB0710D40A78D1090023002904D15309D9
:10187000DB012E498C4663441F21114001228A401E
:101880009A610523DFE70A78D4090023002C04D1EC
:101890005309DB01254CA44663441F241440012254
:1018A000A2405A6103681A7ED20701D58A789A62EB
:1018B000C2790023002AC6D102680421137E0B429C
:1018C000FCD0117E00234907BDD5538B5B0701D5A2
:1018D000042353838379012B02D0936A0023B2E758
:1018E000936A0023AFE70A78D1090023002904D1C5
:1018F0005309DB010D498C4663441F21114001222D
:101900008A405A6100239EE70A78D1090023002902
:1019100004D15309DB0105498C4663441F21114062
:1019200001228A409A6100238DE7C04600280040CA
:10193000F8B58000704BC45826683723E75C362220
:10194000A25C1740337EB57D1D40EB0702D563795D
:10195000012B1ED06B0711D5738B5B075AD5637AA9
:10196000012B08D01E223823E254353B6372023328
:1019700033753B074AD4B36A04237383AB0703D59B
:101980006379012B00D197E06DB2002D00DAA9E058
:10199000F8BD637A002B22D0637A002BDAD021685D
:1019A000E26A1378DBB2501CE062A079012827D0EC
:1019B0009BB2DB05DB0D8B62A38E013B9BB2A38642
:1019C000A38E9BB2002BC5D101333375637A012BF3
:1019D000C0D1E379002BBDD10233B375BAE7474BD1
:1019E0001B88B362638E013B9BB26386638E9BB29E
:1019F000002B01D1013333756379012BCCD0A9E7DA
:101A00005078000203430232E262D2E72000A36969
:101A10009847B0E7637A012B28D023689B6ADB05DF
:101A2000DB0DDAB2A16A0A70A26A511CA162A17927
:101A3000012934D0238E013B9BB22386238E9BB297
:101A4000002B00D09AE700223833E254343B337540
:101A5000637A022B29D0637A002B00D08EE7BB0774
:101A600000D48BE720002369984787E723689B6AA7
:101A7000638E013B9BB26386638E9BB2002B00D0CA
:101A80007CE70433337500223433E254353B637210
:101A9000FB0700D472E72000E36898476EE71B0A53
:101AA0005370A36A0133A362C4E77B0700D465E7E0
:101AB00020006369984761E7637A012B00D063E7F0
:101AC000E379002B00D05FE7023333750133637293
:101AD00000223533E254FB0700D455E72000E368C9
:101AE000984751E78023337533767B0600D44FE760
:101AF000636A200098474BE7EC05002004060020AD
:101B0000F0B5DE4657464E464546E0B591B0050075
:101B10000C00160029600800C44B984702000528F5
:101B20000DD007001237030021680520C90709D529
:101B300011B03CBC90469946A246AB46F0BD182772
:101B40000123F1E7216817308907F1D4052A47D02E
:101B5000B749C86901229A4013000343CB610FA91A
:101B60002D239846F35C0B70FFB23800B14B9847B9
:101B70003800B14B98474346F05C0021AF4B984783
:101B8000F37A6B712423F35CAB712523F35CEB7167
:101B9000F37E2B72337F6B722B6898461800A34B31
:101BA0009847123000220E2306A98C4663441A80FF
:101BB000328A02928023DB019A4200D1A9E017D930
:101BC000C023DB01029A9A4200D19DE080231B02D0
:101BD0009A4200D025E1032306930023079310E0E7
:101BE0009349086A043A9A40130003430B62B6E72C
:101BF00080239B019A4200D013E1102306930F3BF0
:101C0000079333680593F368039373690493337EF2
:101C10009B462623F35C9A4673689946002B00D1B5
:101C20009FE080235B05994504D12723F35C002BBB
:101C300000D184E0737E002B02D0B37E42469373C2
:101C40002A68029FD369002BFCD10E3306AA944662
:101C500063441B8842469381059B039A1343049A6D
:101C600013434A4613431F435B461B021F4353461D
:101C70005B071F432723F35C002B01D104331F4371
:101C8000737E9B02327F52021343727F1202134310
:101C90002422B25C520413432522B25C1204134383
:101CA000B17AF27A114319433389FF2B7DD0802218
:101CB0005204174319432C23F35C002B03D1604BD0
:101CC0009B789B0701D580231F432A68D369002B8B
:101CD000FCD1434659602A68D369002BFCD14346A6
:101CE0001F600EAB80221A7000225A70DA709A7050
:101CF000336B0A93736B0B93B36B0C93F36B02937D
:101D00000D9300270AAE5EE008230693073B079376
:101D100077E733680593F368039373690493337E1D
:101D20009B462623F35C9A4673689946002B14D091
:101D300080235B05994500D177E7002020E0336AD6
:101D40001F00C0B23F4B984701000E2206AB9C46D5
:101D5000624438003C4B984712E008230693002366
:101D600007932723F35C002B0ED0069B0093079B61
:101D70000E2206A98C466244B16A306A334FB847D6
:101D8000002800D0D4E655E7336A1F00C0B22D4BBF
:101D900098470100069B0093079B0E2206A88446E5
:101DA00062443800294FB847EAE7F37E002B82D01F
:101DB0008023DB041F437EE72000254B984707E084
:101DC0000137042F0DD0F9B2BB0098590028F3D089
:101DD000431CF5D00EA90870000CC0B21D4B9847EB
:101DE000EEE70023EB602B616B61AB61EB612B6273
:101DF000AB626B620022EB85AB853033EA54013372
:101E0000EA540133EA540133EA542868074B9847EF
:101E100004001149114B9847A400114BE5500020D4
:101E200086E61023069300230793EAE6491500008F
:101E300000040040D1280000612800008913000040
:101E400000200041F5280000CB120000F512000030
:101E5000D5130000CD2900001120000085150000D9
:101E6000EC050020C2791C23002A01D1180070471C
:101E7000C28D92B2173B002AF8D10368DA69002AB2
:101E8000FCD1198502211A7E0A42FCD00023EDE71D
:101E900082791C23002A01D118007047828D92B2EA
:101EA000173B002AF8D10268107E4007F4D5D369A9
:101EB000002BFCD1538BDBB298061DD0980703D5BD
:101EC000022353831833E7E7580703D504235383CA
:101ED0001A33E1E7D80703D5012353831233DBE735
:101EE000D80603D5102353833233D5E79B0603D599
:101EF000202353832133CFE7138D0B800023CBE7BF
:101F0000F8B506000C00150007680A4B9847F38DDA
:101F10009BB2002B03D0084B98470520F8BDF585F0
:101F2000054B9847B46205223323F254323BBB750C
:101F30000020F3E789100000C9100000F8B5040084
:101F40000D00160007680F4B9847A38D9BB2002B1E
:101F500003D00D4B98470520F8BDA6850A4B98473E
:101F6000656205223223E2542E3BBB75237A002B97
:101F700001D02023BB75637A0020002BECD008230E
:101F8000BB75E9E789100000C9100000931C9B0095
:101F9000C31859603021012393401A00435C134356
:101FA0004354704710B5C2791C23002A01D1180090
:101FB00010BD0122014B98470300F8E7011F000004
:101FC00010B50122014B984710BDC0463D1F0000CF
:101FD00010B51723002A01D1180010BDC4790533AC
:101FE000002CF9D0014B98470300F5E7011F0000D2
:101FF00010B51723002A01D1180010BD84790533CC
:10200000002CF9D0014B98470300F5E73D1F000075
:10201000F8B58000624BC5582C68E369002BFCD1F1
:10202000237EA67D1E403023EB5C3122AF5C1F4037
:10203000F30722D5EB8D9BB2002B1CD0AA6A137834
:10204000DBB2511CA962697901290ED09BB2DB0574
:10205000DB0D2385EB8D013B9BB2EB85002B0CD177
:10206000013323750133A37507E0517809020B434F
:102070000232AA62EBE701232375B30706D50223D8
:10208000237500223133EA54FB071AD4730765D550
:10209000AB8D9BB2002B5FD0638BDBB21A0714D4DD
:1020A0003F221340002B34D09A0711D51A22322335
:1020B000EA54303B63837B0750D528006B6998470F
:1020C0004CE02800EB689847E0E737221340E9E747
:1020D0005A0705D51E223223EA542E3B6383EAE7D2
:1020E000DA0705D513223223EA54313B6383E2E752
:1020F000DA0605D542223223EA54223B6383DAE72B
:1021000020221A42D7D021323223EA54123B638371
:10211000D1E7238DDB05DB0DDAB2696A0A706A6AE2
:10212000511C69626979012910D0AB8D013B9BB2CA
:10213000AB85002B12D10433237500222E33EA54D1
:10214000BB070BD528002B69984707E01B0A537083
:102150006B6A01336B62E8E704232375F30604D549
:10216000102323752376FB060ED4B30604D5202353
:10217000237523763B070BD4330704D50823237537
:102180002376BB0608D4F8BD2800EB699847ECE736
:102190002800AB699847EFE72B6A28009847F2E7D9
:1021A000EC05002010B5082803D880001D4B1B58F3
:1021B0009F46002034E01C4B186931E01B4B187D12
:1021C0000007800F431C1A48584329E0164B5869F2
:1021D00026E0154B1B6800209B0721D51349802260
:1021E0005200CB681342FCD00F4B1A6824231340D3
:1021F000042B01D00F4813E000200F4B98470A4BE7
:102200009B681B041B0C58430AE02823074AD35C35
:1022100000209B0704D5044BD86801E08020000211
:1022200010BDC04654400000C0000020000C00401B
:1022300000093D00006CDC02F528000070B50B4C75
:10224000237D8578467802780321114089000C228D
:1022500093430B430B3A3240920140218B4313438B
:10226000ED017F2213402B43237570BD000C00400D
:10227000F0B5D6464F464646C0B5204B9A465B69F8
:10228000457801784C424C41A14681788C46C17812
:102290008846467A077A847A40681949486101215C
:1022A0004846800004229343034340460840C00050
:1022B00004329343034360460840000108329343CD
:1022C00003430F40BF01402083433B430E40F601D0
:1022D000403083433343793805402D020948034099
:1022E0002B4321400903084803400B4352465361E6
:1022F0001CBC90469946A246F0BDC0460010004066
:10230000C0000020FFF8FFFFFFEFFFFF10B5837A4A
:102310009B061B0C82899205920D13431A494B6050
:10232000037A427A13438288C48822431343427853
:10233000D20113438278920113430B600378042B7C
:1023400011D0202B0ED1837B9B06428A1343028A35
:1023500012040E490A4013430B4A936011680C4B58
:102360000B43136010BD837B9B06428A1343028A92
:10237000120406490A401343034A93601368042178
:102380000B431360EEE7C046C00000200000FF03CF
:1023900024040000082803D880002D4B1B589F46BA
:1023A000172054E02B4A137D02210B4313750020A4
:1023B0004DE0294A936902210B439361002046E0D6
:1023C000244A138A02210B43138200203FE0224A51
:1023D000536902210B435361002038E01F490B6809
:1023E000022213430B601B4B1A831900FE32CB6889
:1023F0001342FCD0194B9A68164B1A6202221A83B8
:102400001900FE32CB681342FCD0144B5A68114BB2
:10241000DA6100221A8319000132FF32CB681342BD
:10242000FCD00E4B1B689BB20A4A138300200EE0BF
:10243000084928228B5C022003438B540800382172
:10244000263A435C1342FCD1002000E00020704794
:1024500078400000000C004000100040C000002048
:10246000082832D880001A4B1B589F46194A137D02
:1024700002218B43137500207047174A936902218C
:102480008B4393610020F7E7124A138A02218B43A2
:1024900013820020F0E7104A536902218B435361F5
:1024A0000020E9E70D4B1A6802218A431A601B6875
:1024B0009BB2084A13830020DEE7064928228B5C82
:1024C000022083438B540020D6E71720D4E7C04670
:1024D0009C400000000C004000100040C0000020A4
:1024E00030B58DB0802252006A4B9A60FD3A6A4B3B
:1024F0009A606A4A53681E218B431A390B43536012
:102500008023DB059B78022B09D08023DB05012289
:102510009A7101329A701A009379002BFCD009A8A5
:102520000023037080221202426083700122C27075
:102530000372837242704372594B98470520594B7E
:10254000984759490122CB681A42FCD0564A536930
:1025500080210B43536101A901234B6000244C707F
:102560000C724C7203250D700020504B98470620CA
:102570004F4B98476B465C701D709C7068464D4B86
:1025800098470620474B984742491022CB681A4289
:10259000FCD001A901234B6000244C7005330B7063
:1025A0000C724C720020414B98473A4A137D8021AF
:1025B0000B43137504AB00229C80DC801A725A72A4
:1025C0009A70413999813B3919705A703A4B1B689E
:1025D0009B0E3F2B5BD004A88372384B43820723AA
:1025E000837338330382364B9847364B984701AC98
:1025F00001250295002363702372637205332370F3
:1026000021000120294B984701202F4B9847257026
:10261000210000202D4B984700202D4B9847072084
:10262000204B98471B49D0221201CB68134093429C
:10263000FBD1284C0123A3716371237101A94B6065
:1026400000234B700B724B7207330B700020174B3B
:10265000984700201C4B984700201F4B9847217932
:10266000C9B21E4B98471E4B98420ED88023DB05FB
:102670009B78002B09D08023DB0501229A71002270
:102680009A701A009379002BFCD00DB030BD203B1E
:10269000A1E7C046000C004000140040004000418B
:1026A000712200009523000000100040092700005F
:1026B000612400003D22000020608000B905000078
:1026C0000D230000E5260000B5270000D1280000FA
:1026D0006128000000040040F5270000513200008E
:1026E000001BB700064A536940210B435361012286
:1026F000044B1A7019000B781342FCD17047C04686
:10270000000400400018004070B504000D784B78BC
:10271000002B02D08023DB001D434B7A002B02D01C
:1027200080231B011D43486801280FD9431E18420E
:1027300031D102282DD90223002201325B009842B8
:10274000FBD880235B011D43120415430B7A002B39
:1027500002D080239B011D430426A6401149124A42
:102760004B6813401E42FBD1104B9847A4000D4B01
:102770009C466444226A80235B001A402A432262FA
:102780006146094A4B6813401E42FBD1084B9847EB
:1027900070BD0022D5E7000480239B001843054349
:1027A000D4E7C04600180040FC0700008910000074
:1027B000C910000010B504000422824009480A49EB
:1027C00043680B401A42FBD1084B9847A400054BC5
:1027D0009C466444226A80235B0013432362044BBB
:1027E000984710BD00180040FC0700008910000049
:1027F000C9100000F8B504000422824012481349B1
:1028000043680B401A42FBD1114B98470E4F0834D6
:10281000A400E0590007000F0E4B98470600E55949
:10282000ED04ED0FE459240C0B4B9847002D07D114
:10283000012C07D921003000084B9847060001E021
:102840000134E6403000F8BD00180040FC070000ED
:1028500089100000A5210000C910000051320000BD
:1028600010B50400094B9847A000094B9C466044F2
:102870008022835840210B4383504031403A4358D3
:102880001A42FCD0034B984710BDC0468910000087
:1028900000180040C910000010B50400094B98470B
:1028A000A000094B9C4660448022835840218B4302
:1028B00083504031403A43581A42FCD1034B984769
:1028C00010BDC0468910000000180040C91000006B
:1028D00070B504000D00054B98472A780F2313406C
:1028E0002034A400024AA35070BDC04699280000BD
:1028F0000018004010B50400064B98472034A4008F
:10290000054BE4582407240F044B98472000044B40
:10291000984710BD8910000000180040C910000041
:10292000F527000030B5D378002B35D11378802BF4
:1029300029D01B0680246402234354780225AC432B
:1029400006D19478002C20D18024A4022343416036
:102950005478013C012C1CD90D042D0CA024E40555
:102960002C431C4384620D0CD02424062C431C43AE
:102970008462D478002C22D15B031CD59378012B80
:102980001ED0416117E00023D7E7C024E4022343AF
:10299000DDE70D4C2340DFE741600C04240CA0234D
:1029A000DB05234383620C0CD0231B062343836285
:1029B000D378002B03D15378013B012B02D930BDD2
:1029C0008161F8E78160FAE7FFFFFBFF10B50A00BD
:1029D000C1090023002904D14309DB0105498C46C4
:1029E00063441F242040012181401800024B984776
:1029F00010BDC04600280040252900007047000097
:102A000010B5054B9847054B9847054B9847054B24
:102A10009847054B984710BDE1240000750C000055
:102A2000FD2900006D110000FD290000F0B5C6462B
:102A300000B50C00904600280FD1002A11DD8F1838
:102A4000094E0A4D306821002B6898470134BC427A
:102A5000F8D1404604BC9046F0BD01235B42984645
:102A6000F7E78046F5E7C04610060020080600207C
:102A7000F0B5C64600B50E0015000138022810D882
:102A8000002A11D000240C4B98460C4F434618687E
:102A9000315D3B689847002808DB0134A542F5D139
:102AA00006E00124644203E0140001E001246442D2
:102AB000200004BC9046F0BD100600200C0600204B
:102AC0000300064A1268002A04D0044A1068C3189A
:102AD000136070470249014A1160F6E7D8000020F0
:102AE0001826002001204042704780239B014B6044
:102AF00000207047012070470020704701220A4BD8
:102B00001A700A4B1A88436A9B1A094A1360094BC8
:102B10001B78002B06D0084B1A78084B1A7000223D
:102B2000044B1A707047C0464C0500201C01002061
:102B30004805002010010020110100204D05002053
:102B400010B5104B1B78002B0AD00F4B1A88012AA6
:102B500012D00E4B19680E4B98470022094B1A7081
:102B60000C4B1B78002B06D00B4B1A780B4B1A70B2
:102B70000022084B1A7010BD044B1968084B984787
:102B8000EBE7C046140100201C01002018010020C2
:102B9000F11F000010010020110100204D05002050
:102BA000C11F000070B582B005000E0000226B4608
:102BB000DA80064C6B46991D2800A0470028F9D101
:102BC0006B4606331B88337002B070BD911E000047
:102BD00070B505008CB2034E21002800B0470028D4
:102BE000FAD170BD651E0000F0B591B08023DB0501
:102BF000009300230193FF2269460A8100228B7211
:102C0000CB72012524216C46655401316554013194
:102C10006354013163540A930531635401316354A1
:102C200005932382E3762276227762761323A376B6
:102C3000627780235B030393244B0C93244B0D9307
:102C400001235B420E930F930890224C224B1C6091
:102C5000224A234B1A60234A234B1A606A46842176
:102C6000C9052000214B9847214F3B6898680021F7
:102C7000204EB0473B6858680021B04701221E49EA
:102C800020001E4EB04700221D492000B0473122CF
:102C9000A35C03210B43A35426683000194B9847CB
:102CA0001F2318408540184B1D602268D369002BF4
:102CB000FCD13368022213433360013A134B1A806C
:102CC00013490448134B984711B0F0BD03000400AA
:102CD00003000500DC00002010060020D12B0000BE
:102CE0000C060020A52B000008060020011B000098
:102CF0000C00002085360000FD2A00008D1F00001A
:102D0000412B0000C115000000E100E01C01002083
:102D100034010020C11F0000F0B5C64600B584B0E4
:102D2000C84B9847E1204002C74B9847C74B98478C
:102D3000C74B9847002800D052E2C64DC64B984674
:102D400004330193D1E10022C24B1A70C34B1A78AD
:102D5000042A00D917E19300C14AD3589F46C14BBA
:102D60001B88012B11D0BC4BFF221A80BE4A136076
:102D70000122BC4B1A80BD4B1A7002AB991DEA238D
:102D80000B80BB48BB4B9847B3E1BB4B1B681B7820
:102D9000122B0ED0B049B44A11600121B14A118002
:102DA000B24A117002AA911D0B80B148B14B9847ED
:102DB0009FE1113BA94A1370A74AFF211180AA493C
:102DC0000A60A84A1380A94B01221A7002AB991D10
:102DD0005B230B80A648A74B98478AE1A64B1B684C
:102DE0001B78A52B17D0122B23D0A44B1B78002BBC
:102DF00031D102AB991D5A230B80974BFF221A80C9
:102E0000994A13600122974B1A80984B1A70984880
:102E1000984B98476DE10222904B1A70FF2342466F
:102E2000137101228F4B1A8001999148944B984756
:102E30005FE102AB991D5B230B80874BFF221A8059
:102E4000894A13600122874B1A80884B1A70884880
:102E5000884B98474DE10122824B1A807E49844875
:102E6000874B984745E103227C4B1A70824B1A68C6
:102E7000844B1A600B227B4B1A807D48416A824B3F
:102E8000984736E17F4B1C68230021000C3100205D
:102E900000E010001F783A004240D2B201338B426A
:102EA000F7D187421BD1794F0C2221003800784B93
:102EB00098473A683B78032B26D0012B3AD0012360
:102EC000744A1370744A13700522744B1A7002AB63
:102ED000991DAC230B806648664B984709E1012396
:102EE0005E4A13705C4AFF2111805F490A605D4AA7
:102EF00013805E4B01221A7002AB991D5A230B807E
:102F00005B485C4B9847F4E00421544B1970120C59
:102F1000634B1A800339554B19706249524B196043
:102F2000504B1A8002AB991DAC230B805048514B7B
:102F30009847DEE00122574B1A700432474B1A7053
:102F4000D7E0484B1A88564B1B889A4214D001226E
:102F5000424B1A7002AB991D5A230B803E4BFF2047
:102F6000188040480280404A1360404B01221A708A
:102F70003F48404B9847BCE00122464B1A70043250
:102F8000364B1A70B5E00122344B1A70B1E00022C2
:102F9000454B1A70314B1A78042A4ED89300434A95
:102FA000D3589F462C4BFF221A802F4A13600122D0
:102FB0002C4B1A802D4B1A7002AB991DEA230B8003
:102FC0002B482C4B984799E00123244A137022493F
:102FD000254A1160254A1370224A138002AB991DBD
:102FE000EA230B802248234B984787E001231B4AA2
:102FF000137019491C4A11601C4A1370194A138036
:1030000002AB991DEA230B8019481A4B984775E0CB
:103010000122124B1A7002AB991DEA230B800E4B52
:10302000FF2018800F4802800F4A13600F4B0122C7
:103030001A700F480F4B984760E00122074B1A7037
:103040005CE0C046012A0000E92B0000FD0D0000F5
:10305000150100004C050020340100204D05002022
:10306000C04000001C0100201801002014010020B5
:10307000DC000020A51F00004805002030010020D2
:10308000C11F00002C010020F11F000020010020C2
:10309000193400001E010020100100201101002041
:1030A000120100204801002044010020D44000000B
:1030B0004F4B58684F4B98474F4A504B1A6001226C
:1030C0004F4B1A804F4B1A704F4B1A704F49030EDB
:1030D0000B70C870030C4B70000A887004224C48B7
:1030E0004C4B984700224C4B1A702B78002B00D089
:1030F00029E64A4B1B78002B00D048E7464B1B784B
:10310000002BF2D0404B1B78052BEED1384B1A68C0
:103110001B78052BE6D89B004149CB589F46344B82
:10312000996858683F4B9847334A344B1A600122DC
:10313000334B1A80334B1A7003A9AC230B80324BEC
:103140001A703348384B9847CCE7120C374F284C4D
:1031500039006068364B9847274A284B1A6001228D
:10316000274B1A80274B1A70274B1A706288390038
:103170002748284B9847B5E7120C1D4B58682B4938
:103180002C4B98471C4A1D4B1A6001221C4B1A807D
:103190001C4B1A7003A9AC230B801B4B1A701C48E4
:1031A000214B98479EE70127174B1F70224B1F703A
:1031B000174E34682000214B98471F231840874042
:1031C00061331F4AD7503268D369002BFCD1236882
:1031D000022293432360064B98681A4B984781E775
:1031E00019481A4B9847002004B004BC9046F0BD23
:1031F00020010020C5030000340100201801002038
:103200001C010020140100204D0500205005002065
:10321000DC000020D11F00001E010020440100201E
:10322000E8400000DD030000A51F00004801002069
:10323000E90300005104000030010020C115000026
:1032400000E100E0E92B0000004100004D360000E5
:10325000002243088B4274D303098B425FD3030AD5
:103260008B4244D3030B8B4228D3030C8B420DD3E8
:10327000FF22090212BA030C8B4202D31212090276
:1032800065D0030B8B4219D300E0090AC30B8B42B4
:1032900001D3CB03C01A5241830B8B4201D38B0362
:1032A000C01A5241430B8B4201D34B03C01A524107
:1032B000030B8B4201D30B03C01A5241C30A8B424A
:1032C00001D3CB02C01A5241830A8B4201D38B0235
:1032D000C01A5241430A8B4201D34B02C01A5241D9
:1032E000030A8B4201D30B02C01A5241CDD2C3094B
:1032F0008B4201D3CB01C01A524183098B4201D3C7
:103300008B01C01A524143098B4201D34B01C01AB1
:10331000524103098B4201D30B01C01A5241C30829
:103320008B4201D3CB00C01A524183088B4201D398
:103330008B00C01A524143088B4201D34B00C01A84
:103340005241411A00D20146524110467047FFE7F0
:1033500001B5002000F006F802BDC0460029F7D0F4
:1033600076E770477047C046F0B5CE46474615042D
:103370002D0C2E0080B50704140C3F0C9946030C4D
:103380007E435D43674363437F19340CE4199C46D5
:10339000A54203D980235B029846C4444B4651435F
:1033A00043433604360C250C24046544A4195918EB
:1033B000491920000CBC90469946F0BD70B5002616
:1033C0000C4D0D4C641BA410A64209D1002600F040
:1033D000E1FE0A4D0A4C641BA410A64205D170BD43
:1033E000B300EB5898470136EEE7B300EB58984727
:1033F0000136F2E7A0410000A0410000A04100001A
:10340000A441000010B5034B0100186800F060F8FB
:1034100010BDC0460C000020002310B59A4200D118
:1034200010BDCC5CC4540133F8E70300821893420A
:1034300000D1704719700133F9E7000070B505003D
:10344000002910D00C1F2368002B00DAE418280094
:1034500000F094FC1D4A1368002B05D163601460D2
:10346000280000F08CFC70BDA34209D921686018C7
:103470008342F3D118685B6841182160EEE71300BE
:103480005A68002A01D0A242F9D919685818A042F6
:103490000BD120680918581819608242E0D11068D1
:1034A0005268411819605A60DAE7A04202D90C2329
:1034B0002B60D5E721686018824203D110685268FA
:1034C0004118216062605C60CAE7C0466005002068
:1034D000032370B5CD1C9D43083506000C2D1ED26C
:1034E0000C25A9421DD8300000F048FC254A14687C
:1034F0002100002919D1244C2368002B03D130006E
:1035000000F0AEF820602900300000F0A9F8431C5C
:103510002CD10C233000336000F031FC03E0002D8F
:10352000DFDA0C233360002070BD0B685B1B1AD4FC
:103530000B2B03D90B60CC18256003E08C420ED115
:1035400063681360300000F01AFC200007220B3083
:10355000231D9043C31AE7D05A42E250E4E74B6878
:1035600063600C00EEE70C004968C2E70323C41C4B
:103570009C43A042E0D0211A300000F071F8431CB7
:10358000DAD1C6E7600500206405002070B50500AB
:103590000E00002804D08369002B01D100F0ECFA62
:1035A000AB69AC68002B02D1280000F0E5FA244B8F
:1035B0009C420FD16C68A3891B0702D52369002B9D
:1035C00020D12100280000F069F900281AD001203C
:1035D000404270BD1B4B9C4201D1AC68EBE71A4BDB
:1035E0009C42E8D1EC68E6E7013B0136A360002B82
:1035F00004DAA269934216DB0A2914D023685A1C04
:10360000226019703178A3680029EDD1013BA360D5
:10361000002B0FDA22000A31280000F0E9F8431CE1
:10362000D5D00A20D5E72200280000F0E1F8431C9D
:10363000E8D1CCE70A2023685A1C22601870C8E73A
:1036400054410000744100003441000010B5034BA8
:1036500001001868FFF79AFF10BDC0460C0000205B
:10366000002370B5064C050008002360FFF728FA18
:10367000431C03D12368002B00D02B6070BDC046D3
:10368000140600204A424A41802310B55200DB0054
:1036900000F002F810BD0000F0B51D004F4B85B0E2
:1036A0001E6804000F000092002E05D0B369002BA5
:1036B00002D1300000F060FA494B9C4250D174684E
:1036C000009B022B05D0012B00D984E0002D00DAED
:1036D00081E02100300000F0E1F9616B002908D0A1
:1036E00023004433994202D03000FFF7A7FE0023A5
:1036F00063630023A3616360A3891B0603D521696B
:103700003000FFF79BFEA389364A1340A381009B3C
:10371000022B5AD003AB02AA2100300000F0C2FAFB
:10372000A3891843A081002D24D1029D2800FFF712
:1037300069FE0195071E42D1029B0193AB4239D12C
:10374000012040420223A2891343A3810023A360E6
:1037500023004733236023610123636105B0F0BD7B
:10376000214B9C4201D1B468AAE7204B9C42A7D1CF
:10377000F468A5E7002FD9D0B369002B02D130003F
:1037800000F0FAF9009B012B03D1A389009A1A4398
:10379000A2810820A389276027616561184018D09D
:1037A000012018400023984211D06D42A360A5610A
:1037B0001800D3E70198FFF725FE071EC0D080232D
:1037C000A289019D1343A381D6E70020BAE7A56033
:1037D000C4E7A060C2E701204042BFE70C00002020
:1037E000544100005CF3FFFF7441000034410000CD
:1037F000F8B505000E001400002804D08369002BE2
:1038000001D100F0B9F9224B9C422DD16C68A3691B
:10381000A360A3891B0731D52369002B2ED0236811
:103820002269F7B2981A6369F6B2984205DB210063
:10383000280000F033F9002826D1A3680130013BAD
:10384000A36023685A1C22601F706369984204D0E9
:10385000A389DB071AD50A2E18D12100280000F011
:103860001DF9002812D00FE00A4B9C4201D1AC6830
:10387000CDE7094B9C42CAD1EC68C8E7210028007B
:1038800000F00CF80028CAD0012676423000F8BDBE
:10389000544100007441000034410000364B70B5C3
:1038A0001D6806000C00002D05D0AB69002B02D16D
:1038B000280000F061F9314B9C420FD16C680C2359
:1038C000E25E93B219072DD4D90611D40923012041
:1038D000336037331343A381404270BD284B9C4271
:1038E00001D1AC68EBE7274B9C42E8D1EC68E6E7F6
:1038F0005B0713D5616B002908D02300443399423C
:1039000002D03000FFF79AFD002363632422A389CD
:103910009343A38100236360236923600823A28962
:103920001343A3812369002B0BD1A0218022A389FB
:10393000890092000B40934203D02100300000F038
:10394000D9F90123A289134011D00023A360636930
:103950005B42A361002023698342BED10C23E25E57
:103960001306BAD540231343A3810138B5E7920764
:1039700000D46369A360EDE70C000020544100000F
:103980007441000034410000F7B58A8905000C003D
:10399000130760D44B68002B04DC0B6C002B01DC9C
:1039A0000020FEBDE76A002FFAD000232E682B60AE
:1039B00080235B011A4034D0606DA3895B0706D574
:1039C0006368C01A636B002B01D0236CC01A02001D
:1039D000216A00232800E76AB847A189431C06D161
:1039E0002B681D2B31D82C4ADA40D3072DD5002364
:1039F000636023692360CB0405D5431C02D12B6887
:103A0000002B00D16065616B2E600029C8D02300B7
:103A10004433994202D02800FFF710FD0020606374
:103A2000BFE70123216A2800B847431CC5D12B6892
:103A3000002BC2D01D2B01D0162B01D12E60AFE779
:103A40004023A2891343A381ABE740230B4301200A
:103A5000A3814042A5E70F69002FA1D00B680F603A
:103A6000DB1B01930023920700D14B69A360019BEC
:103A7000002B00DC94E7019B3A00216A2800A66A2B
:103A8000B047002803DC4023A2891343DFE7019BF2
:103A90003F181B1A0193EAE7010040200B6970B53B
:103AA00005000C00002B01D1002070BD002804D0BF
:103AB0008369002B01D100F05FF80B4B9C4209D1C8
:103AC0006C680C22A35E002BEED021002800FFF7CB
:103AD0005BFFEAE7054B9C4201D1AC68F1E7044B80
:103AE0009C42EED1EC68ECE75441000074410000C8
:103AF0003441000010B5024900F0B2F810BDC046D4
:103B00009D3A0000002310B5040003604360836009
:103B100081814366C2810361436183611900082288
:103B20005C30FFF782FC054B24626362044BA362A6
:103B3000044BE362044B236310BDC046813D00008B
:103B4000A93D0000E13D00000D3E000070B5682574
:103B50004A1E55430E0029007431FFF7B9FC041EBC
:103B600008D000212A00016046600C30A060683255
:103B7000FFF75BFC200070BD836913B50400002BC8
:103B800028D18364C3640365134B144A1B688262A3
:103B90000193984201D101238361200000F020F8B5
:103BA0006060200000F01CF8A060200000F018F811
:103BB0000022E06004216068FFF7A4FF01220921D0
:103BC000A068FFF79FFF02221221E068FFF79AFF2B
:103BD0000123A36113BDC04630410000F53A000047
:103BE000F8B51E4B07001E68B369002B02D13000E8
:103BF000FFF7C2FF4836B4687368013B04D53368E9
:103C0000002B07D03668F6E70C22A55E002D0DD0FC
:103C10006834F2E704213800FFF798FF306000288D
:103C2000F0D10C2304003B602000F8BD01232000EC
:103C30005B42E3810233A38165662560A560656010
:103C400025616561A561082229005C30FFF7EDFB65
:103C50006563A563A564E564E6E7C04630410000FE
:103C6000F7B504000700002601914834002C01D16B
:103C70003000FEBD6368A5680093009B013B009384
:103C800001D52468F2E7AB89012B08D90E22AB5E7F
:103C9000013304D029003800019B9847064368355A
:103CA000EBE7000070B50E001D000E23C95E90B05A
:103CB0001400002907DA00232B60B3891B0611D4F6
:103CC0008023DB000FE001AA00F0CCF80028F2DB33
:103CD000F022029B12021340054A9B185A4253419C
:103CE0002B60EDE740230020236010B070BDC0467C
:103CF00000E0FFFFF7B502268B8905000C00334278
:103D000006D0230047332360236101236361F7BD9D
:103D100001AB6A46FFF7C6FF009907002800FFF7CE
:103D2000D7FB002808D10C22A35E9A05EFD403220A
:103D300093431E43A681E4E70F4BAB628023A28925
:103D400020601343A381009B20616361019B002BD2
:103D50000DD00E23E15E280000F096F8002806D072
:103D60000322A38993431A0001231343A381A0894B
:103D70003843A081CBE7C046F53A00007047704752
:103D800070B50C000E25495F00F0A4F8002803DB95
:103D9000636D1B18636570BDA389024A1340A3813C
:103DA000F9E7C046FFEFFFFFF8B51F008B8905005C
:103DB0000C001600DB0505D50E23C95E0022022388
:103DC00000F074F8A389054A28001340A38132004B
:103DD0000E23E15E3B0000F01FF8F8BDFFEFFFFF90
:103DE00070B50C000E25495F00F060F8A389421CF5
:103DF00003D1054A1340A38170BD802252011343B1
:103E0000A3816065F8E7C046FFEFFFFF10B50E2302
:103E1000C95E00F015F810BD70B50500080011006E
:103E20000022064C22601A00FEF722FE431C03D13A
:103E30002368002B00D02B6070BDC0461406002004
:103E4000002370B5064C050008002360FEF74AFE0B
:103E5000431C03D12368002B00D02B6070BDC046EB
:103E600014060020002370B5064C05000800110060
:103E70002360FEF73AFE431C03D12368002B00D0D9
:103E80002B6070BD14060020002370B5064C0500A1
:103E900008002360FEF72EFE431C03D12368002B8D
:103EA00000D02B6070BDC0461406002070B5050020
:103EB000080011000022064C22601A00FEF71CFECA
:103EC000431C03D12368002B00D02B6070BDC0467B
:103ED0001406002070B50500080011000022064CF1
:103EE00022601A00FEF7A2FD431C03D12368002BB9
:103EF00000D02B6070BDC04614060020A205000053
:103F0000A2050000D205000054050000780500005D
:103F100086050000B8050000B80500000006000096
:103F2000380500001E0600001E0600001E060000E8
:103F30001E06000094050000C3C9C4CA0009121B74
:103F4000242D363F48415A536C657E7719100B0279
:103F50003D342F265158434A757C676E323B2029E9
:103F6000161F040D7A7368615E574C452B22393059
:103F70000F061D14636A7178474E555C646D767F39
:103F80004049525B2C253E3708011A137D746F6639
:103F900059504B42353C272E1118030A565F444DA9
:103FA000727B60691E170C053A3328214F465D5419
:103FB0006B627970070E151C232A31384148535A19
:103FC000656C777E09001B122D243F3658514A43F9
:103FD0007C756E671019020B343D262F737A616869
:103FE000575E454C3B3229201F160D046A637871D9
:103FF0004E475C55222B3039060F141D252C373EB9
:104000000108131A6D647F7649405B523C352E27B8
:1040100018110A03747D666F5059424B171E050C28
:10402000333A21285F564D447B7269600E071C1598
:104030002A233831464F545D626B7079000000428C
:104040000004004200080042000C00420010004240
:1040500000040043B6210000B2210000B22100009C
:104060001C2200001C220000CC210000BC2100000A
:10407000D22100000A220000C0230000A02300007B
:10408000A02300004C240000B2230000CE23000037
:10409000A4230000DC23000030240000882400005A
:1040A000CA240000CA240000CA2400007A240000A8
:1040B000962400006C240000A4240000BA24000010
:1040C0005E2D0000DC2D0000662E0000842E000016
:1040D000422F0000A42F0000FC300000C82F000079
:1040E000EC2F000010300000B03000001E31000046
:1040F0004A31000078310000E4300000A6310000B1
:104100004661696C656420746F20707574207468F2
:10411000652057694669204368697020696E20648C
:104120006F776E6C6F6164206D6F6465210A0000AB
:10413000100000200000000000000000000000004F
:10414000000000000000000000000000000000006F
:10415000000000000000000000000000000000005F
:10416000000000000000000000000000000000004F
:10417000000000000000000000000000000000003F
:10418000000000000000000000000000000000002F
:1041900000000000F8B5C046F8BC08BC9E46704759
:1041A000DD000000F8B5C046F8BC08BC9E4670476C
:0441B000B500000056
:1041B400401F000008000000000101001000002062
:1041C400000000005441000074410000344100002C
:1041D40000000000000000000000000000000000DB
:1041E40000000000000000000000000000000000CB
:1041F40000000000000000000000000000000000BB
:1042040000000000000000000000000000000000AA
:10421400000000000000000000000000000000009A
:0400000300000CB538
:00000001FF
