S01700004578616D706C655F50726F6A6563742E737265630B
S1130000E8250020A13B00009D3B00009D3B000033
S113001000000000000000000000000000000000DC
S11300200000000000000000000000009D3B0000F4
S113003000000000000000009D3B00009D3B00000C
S11300409D3B00009D3B00009D3B0000E11E000025
S11300509D3B00009D3B00009D3B00009D3B00003C
S11300601925000029250000392500004925000034
S113007059250000692500009D3B00009D3B0000C0
S11300809D3B0000AD370000BD37000000000000BC
S113009000000000CD3700009D3B00009D3B0000A8
S11300A0000000009D3B0000000000000000000074
S11300B00000000010B5064C2378002B07D1054B37
S11300C0002B02D0044800E000BF0123237010BDC0
S11300D09400002000000000B0570000084B10B549
S11300E0002B03D00749084800E000BF0748036815
S11300F0002B00D110BD064B002BFBD09847F9E72D
S11301000000000098000020B0570000B057000025
S11301100000000010B5134B1A6A80235B051340DE
S113012019004A1E9141104A1170002B0DD10F4B3A
S11301301B780020002B13D101220C4B1A700C4B9E
S113014098470C4B186001200AE0094B9847094B6B
S11301501B68C31A0020042B02D90022034B1A7017
S113016010BDC046002800408B02002088020020F9
S11301709D1C00009002002070B5441C00780028EB
S113018006D0044DA8470134631E18780028F9D11D
S113019070BDC046313F000070B50400044E030931
S11301A0F05C044DA8470F231C40305DA84770BD88
S11301B000000020313F000070B5214B1B781B0765
S11301C002D52048204B98471D4B1B789B0703D032
S11301D01E481D4B984702E01D481B4B9847184B7F
S11301E01B785B0618D51B48174B9847144B1B7894
S11301F0DB090724002B08D0114D6B685878164C86
S1130200A0476B681878A04706E00D4E124D73683E
S1130210185DA847013CFAD210480B4B9847084B8D
S11302201B7B002B0AD00024054D0D4EAB68185DD6
S1130230B0470134E4B22B7BA342F7D870BDC0466B
S1130240F4040020F454000079010000005500007B
S11302501455000024550000990100002C5500009D
S1130260313F0000F8B504000B4F0C4E1F2503214D
S11302700220B8470120B04728400828F7D1064F8C
S1130280064E1F2521000220B8470120B047284010
S11302908442F7D1F8BDC046AD410000B140000032
S11302A010B50820064B98470F20064B9847064B7D
S11302B01B78002B02D01620014B984710BDC04676
S11302C065020000B1400000B100002010B5040038
S11302D019200C4B98470F200B4B984761788B1CC7
S11302E063700131C9B2601C084B98470322084B64
S11302F01A70084B802252039A61C046C0465A6164
S113030010BDC04665020000B1400000DD4300009E
S1130310B000002000280040F0B5474680B4062015
S11303200D4B9847002400250C4F0D4E032398468F
S11303300120B8470620B047400943461840A04072
S1130340284385B20234102CF2D1064B984728007A
S113035004BC9046F0BDC04665020000F11C0000DC
S1130360B1400000A102000070B50F4B98470F4B3D
S1130370984700220E4B1A70FF210E200D4B984710
S11303800C4E0D4D1F2408210220B0470120A84720
S113039020400828F7D12E210438064CA047A0217C
S11303A00C20A04770BDC046653F0000814000009E
S11303B0B1000020AD410000B140000010B50400C0
S11303C00820064B98471F23010099432000084347
S11303D0C1B20820024B984710BDC046B14000008E
S11303E0AD41000030B583B06B469D1DD880C1B2CD
S11303F02220034CA04769782320A04703B030BDD6
S1130400AD41000070B582B06B469C1DD880C5B26A
S113041029002020054EB047647821002120B047F0
S11304202C19E1B22D20B04702B070BDAD410000DF
S113043010B50400080000220021054B9847002154
S11304402000044B98472000034B984710BDC0463A
S1130450B11A0000451A0000E91B000010B502782B
S1130460084B1A7042785A700A78074B1A704A7807
S11304705A700120054B98470548064B98470120C0
S113048010BDC0469802002090030020050400001F
S113049034120000E5030000F0B5474680B4A6B06E
S11304A006000C009C462C992509230700D0013531
S11304B0424B1A70002302A803700D3343708270FC
S11304C000223E4B8F5CD0184770100002AFB84634
S11304D040448F5CC7710132082AF3D163466A46EF
S11304E0D371D379354843724246D37063461B04B3
S11304F01B0E8372137163461B021B0EC37253716E
S113050063461B0E037393710023D3730422427357
S11305108373C4732A492B4B9847002302AA995C1E
S113052006AA99540133102BF8D127001037102F45
S11305300ADD1021F218103A107806AA505401333B
S1130540DBB2191EB942F5DB23001033DBB21A000B
S113055001352801834207DA002406A98C540133AB
S1130560DBB21A1E8242F8DB00230027002D14DCC4
S113057017E0991906AA1219D05C0A7842400A7049
S11305800133102BF5D10E490C480E4B9847013717
S1130590FFB23B1EAB4201DB03E0084E1C0100230B
S11305A0E7E7002308480549CA5CC2540133102B0D
S11305B0FAD126B004BC9046F0BDC046A802002083
S11305C010000020310400007C030020F0B55F46D9
S11305D056464D464446F0B48BB004008946150097
S11305E01A0009780E090B0700D00136384B5B68F6
S11305F000932B002000374FB8474B461B78370039
S11306003201934205DA0021E1540133DBB2934213
S1130610FADB012202AB1A702D4B5868002302AAA0
S1130620D218C15C51700133082BF8D102AB5D7252
S11306302A0A9A722A0CDA722D0E1D7304225A7336
S113064000229A73DA737B1C984600239A469B46D1
S11306504346002B2FDC33E002AA995C06AA995486
S11306600133102BF8D11C491000C84702ABD87BCA
S11306705346013B1F010023184A9446002806D123
S113068006AA995C6246D25C4A40F25405E0E1193C
S113069006AA9A5CCD5C6A40CA540133102BEDD192
S11306A0013002ABD8735F460137FBB29B469A46D2
S11306B0434503DB04E00A4B99460A4E0023CBE78B
S11306C001200BB03CBC90469946A246AB46F0BD17
S11306D0A002002099040000100000207C030020E8
S11306E031040000CC0200200D4B1A780D4B1B780E
S11306F000209A4213D10A4B5A780A4B5B789A42EB
S11307000DD1074B9A78074B9B789A4207D1044B3B
S1130710DB78044AD078181A43425841C0B2704773
S1130720CC0200208C030020F0B55F4656464D46AF
S11307304446F0B48FB00400049191469A4618AB35
S11307401B7805930B781A09190700D0013217009A
S11307501201934205DA0021E1540133DBB29342E2
S1130760FADB012206AB1A700023484606AAD21807
S1130770C15C51700133082BF8D1814606AB524657
S11307805A725246120A9A725246120CDA7252463F
S1130790120E1A7304225A7300229A73DA737B1CA2
S11307A0191E039229DC2FE006AA995C0AAA99541F
S11307B00133102BF8D124491000C04706ABD87B75
S11307C07B1E1F010023002803D10AAA9A5CEA5465
S11307D005E0E2190AA95E5CD15C7140D154013391
S11307E0102BF0D1013006ABD873039E0136F3B25F
S11307F003931F1E5F4505DB06E0144B9846144D1A
S113080017008B460023CFE7049B19780439C9B23B
S113081019704B4600935346059A20000D4CA0478F
S113082000230D4D0A4C0D48E15CC25C4A40EA5479
S11308300133102BF8D10A4B98470FB03CBC9046BB
S11308409946A246AB46F0BD1000002031040000DA
S1130850B802002099040000CC0200207C03002090
S1130860E906000010B502000B3A00230F2A04D851
S1130870034B1870034B98470123180010BDC04662
S113088092030020BD030000F0B55F4656464D4676
S11308904446F0B4A7B003900D0004911600360A44
S11308A005920293C0B28406E40FAA46D3B2F6B20C
S11308B0420700D5012308210A0002405142514158
S11308C049420E4003210140012904D04A424A41D1
S11308D0D2B2914601E00322914603AA5289A24D65
S11308E02D8895420AD1A14DAA420BD040224D46F3
S11308F01543A9463F3A9346043206E00022934644
S1130900073202E000229346073298461700083760
S1130910002B00D0971C002E03D00237FBB20193AA
S113092002E00837FBB2019324230340202B02D1B9
S11309304A461A439146032906D10126002400237E
S11309409B4699460733019303AA63011578202136
S11309508D431D4315702B0700D4DDE008234A4660
S11309601A439146824B1A684B4630A90298814F2C
S1130970B84706AA0199117030AB1B780933CF1818
S1130980577006AB4A469A70EB439B0709D106ABF6
S11309908022DA7078490A78501C08701A7105228E
S11309A040E04346002B0BD0002E03D0882206AB38
S11309B0DA70B9E0002E09D1C82206ABDA70B3E0D0
S11309C0002E03D08C2206ABDA7002E0CC2206ABF8
S11309D0DA70694B1A78511C197006AB1A7103AAA4
S11309E0917A5971D27A9A716B0705D506ABFF22B9
S11309F0DA711A72F63A15E0002342465046002A8C
S1130A0008D006AB52461278DA71524652781A72FE
S1130A10092207E006AAD218C15CD1710133082B60
S1130A20F8D10F225B46002B09D1531CDBB206A977
S1130A304D4805788D540232D2B24078C854002E05
S1130A400AD006A94D4803788B54931CDBB20132BB
S1130A50D2B2407888540CE0494B596813000833EB
S1130A60DBB2501C0E7806ADAE540131C2B29342D3
S1130A70F7D103A962010C782020844314430C703D
S1130A80220714D519000022394F481CBE5C06AD5C
S1130A906E540132C1B2042AF7D11A1DD2B23448BD
S1130AA00168013101600533DBB20020A85430AA8B
S1130AB0117800290BD0029AC918C9B2581C1678AB
S1130AC006ADEE540132C3B29942F7D100E01900E9
S1130AD006AA2C4B18785054481CC0B25D781554A3
S1130AE0881CC0B29D7815540331C9B2DB785354C5
S1130AF0254A117801230B43137024231C40202C16
S1130B0004D1117802230B4313701CE01E4A13789E
S1130B1002218B43137016E006AA0199117030ABC1
S1130B201B78CF1857702CE7134B1A78511C197087
S1130B3006AB1A7103AA917A5971D27A9A716B072A
S1130B4000D553E75DE706A8104B98470E4B18787D
S1130B504007C00F0123584027B03CBC904699463B
S1130B60A246AB46F0BDC04690030020FFFF000044
S1130B7078030020CD050000940200209802002094
S1130B80A0020020CC02002094030020CD0200002B
S1130B9070B505002424054E29782000B04701359E
S1130BA00134E4B22C2CF7D170BDC046AD41000035
S1130BB030B583B06C4600900191104B9847104BB0
S1130BC006CC06C30F4B9847050001240E4B1C703E
S1130BD00E4B98470E4B1D700B220E4B1A700E488D
S1130BE00E4B984700230E4A13700E4A13704E2181
S1130BF053540D4B1C60012003B030BD6903000049
S1130C00A002002019030000B1000020A10200008E
S1130C109402002092030020EC040020910B0000B9
S1130C2094030020DC02002078030020044B1B788E
S1130C30012B04D84E2253430021024A9954704791
S1130C4020000020DC020020F0B557464646C0B420
S1130C5083B0D14B1B78DB0712D5D04B1B889BB2DA
S1130C60052B08D90022CD4B1A80CB4A13780121D9
S1130C708B43137004E0C94A138801339BB2138079
S1130C80FF22C74B1A70C74B1B78002B00D00FE212
S1130C904E33C44AD35C0020002B00D10DE2012264
S1130CA0BF4B1A70012528004E236B43BD4AD3184D
S1130CB05A7840241440BC4A00211170D1739B78A7
S1130CC033229343DAB2882A00D197E005D8082B5F
S1130CD000D106E1802A75D020E1DAB2C82A05D015
S1130CE0CC2A42D08C2A00D018E1CAE04E236B43B0
S1130CF0AC4AD3189B79FF2B0AD1B13B6B43D31871
S1130D00DB79FF2B04D1A84A117804230B43137019
S1130D10A54A1378802149420B431370002C11D04B
S1130D20A0494E2358430B181C7914745B795374EF
S1130D300B1808335360435C133B137308181030CB
S1130D409060AAE1984A97494E2358430B181C7A9D
S1130D5014745B7A53740B180A335360435C153B69
S1130D60137308181230906097E18F4A137880212A
S1130D7049420B431370002C11D08A494E23584327
S1130D800B181C7914745B7953740B180E3353606D
S1130D90435C193B13730818163090607DE1824A56
S1130DA080494E2358430B189C7B1474DB7B53748B
S1130DB00B1810335360435C1B3B13730818183033
S1130DC090606AE1784A117804230B4380214942F8
S1130DD00B4313700123D37372494D3358430B18DB
S1130DE01C7914745B7953740B1806335360435C99
S1130DF00B3B137308180830906044E14E235D43A5
S1130E00684B5D19AB79FF2B0BD1B13B4343654A6A
S1130E10D318DB79FF2B04D1634A117804230B43E5
S1130E201370614B1A78802149420A431A700122D7
S1130E30DA73002C12D11A005A494E2358430B1866
S1130E401C7A14745B7A53740B180A335360435C32
S1130E500F3B137308180C30906014E1524A514947
S1130E604E2358430B181C7914745B7953740B1874
S1130E7008335360435C0D3B137308180A309060C9
S1130E8001E1494B1A78802149420A431A70012230
S1130E90DA73002C12D01A0042494E2358430B181F
S1130EA01C7914745B7953740B180D335360435CD1
S1130EB0133B1373081810309060E4E03A4A394940
S1130EC04E2358430B185C7B14749B7B53740B1890
S1130ED00F335360435C153B137308181230906052
S1130EE0D1E04E236B432F4AD3189B79FF2B0AD1B1
S1130EF0B13B6B43D318DB79FF2B04D12A4A117819
S1130F0004230B431370284A26494E235843435C59
S1130F100A3B1373081808309060B4E0234B9847D9
S1130F200020CAE0214B98477AE01F4B9B685A780F
S1130F3012021978114388469A7812041C494046D3
S1130F4001401143DB781B060A02120A1A43904639
S1130F50184D00242F00144B9A46E6B2E3001B19E7
S1130F60FB181B7ADB0906D0534659682800124B3C
S1130F709847002804D101340935142CEDD123E01D
S1130F80132E21D8FF231C40A2000C4BD3584345F9
S1130F9016D9064B984743E09403002034010020FF
S1130FA020000020DC020020500400202D0C000052
S1130FB0FFFF00FF9C0300200D1300006C040020C1
S1130FC0A400404B4246E2503F490B7B053BDBB259
S1130FD00B738868C3185C783C4A14709C7854700E
S1130FE0DC7894701B79D3704A680C310530384B27
S1130FF01C784E236343374CE3185B7800934346D5
S1131000354CA047002802D1344B984708E02E4BBA
S11310109A6805329A60197808220A431A7001E026
S113102000204AE02A4B1A784E235343294AD31806
S11310305B7807221340012B04D0002B10D0032B24
S113104006D013E0204A137803218B43137011E078
S11310501D490B7803229343012213430B7009E0CB
S1131060194A117803230B43137003E01B4B984771
S1131070002022E0144B1A4A12789A73194A127803
S11310805A73012019E0124B1A784E235343114A24
S1131090D3185B781B07C5D544E70D4B1A784E234C
S11310A053430C4AD3185B781B0700D53DE7B9E7D7
S11310B00022074B1A700025F5E503B00CBC9046DE
S11310C09A46F0BD6C040020500400208C030020DC
S11310D020000020DC020020290700002D0C000065
S11310E095020020C8020020F0B583B03A4B1B786B
S11310F0022B6FD00F20394B984703076AD5364B24
S11311001B78012B4AD1364B1B78002B07D04E237A
S1131110334AD35C002B05D00224FF2604E00024CC
S1131120002601E00124012607202C4B98475B3858
S11311302C4B18706B46DD1D012128002A4FB8473F
S113114029780531C9B22948B84729788B1CDBB204
S11311504E204643224833544C2B11D8244804785B
S11311602023234303700231012301241C4A9019D4
S11311701E4DEA5CC2540134E4B2231E8B42F8DDF6
S11311801A4B1C19023C22781A4B1A70134D1F2457
S11311900120A84720401628FAD11BE0032B19D1BF
S11311A002200E4B9847124B1A7804218A431A7076
S11311B01A7802398A431A704009C0B2052804D14A
S11311C01A00197804230B4313700B4B9847012220
S11311D0014B1A7003B0F0BDB0000020B140000014
S11311E0DC020020C8020020AD420000B400002050
S11311F09403002095020020A10200000022002098
S11312000649D3009B18CB181B7ADB0901D00130A7
S1131210C0B20132142AF4D17047C0469C030020A6
S1131220F0B54F464646C0B489B0039210AC277857
S113123005AD0024A046013444400126B1463440A3
S1131240620102361E404B4603409B0032434E4629
S11312503740FF00134346466E722872A0013B4399
S11312601C00044380235B421C432C706981074C9F
S113127023780093064B05980399079A054DA847D0
S1131280267009B00CBC90469946F0BDC1040020FC
S1131290C40400208908000010B582B0044B1988EA
S11312A00090002300220120024CA04702B010BD90
S11312B0680400202112000010B582B0044B198884
S11312C00092002302000020024CA04702B010BD8F
S11312D0680400202112000010B5C3001B18094A3D
S11312E0D3181B7ADB090022002B08D0C30018187E
S11312F0044BC0180A000121034B98470200100058
S113130010BDC0469C030020B912000010B502783D
S11313100B789A420CD1431C013108301C780A78AE
S1131320944207D1013301318342F7D1012002E015
S1131330002000E0002010BD00B583B000280BD1D0
S11313400749084B0B806B46981D01235B420380C1
S1131350054B9847012000E0002003B000BDC046C3
S113136068040020341200005D04000010B5044A33
S1131370137808218B431370024B984710BDC04665
S1131380C00400202D0C000010B504000021034B04
S11313909847002801D0024B1C7010BD650800005E
S11313A03601002070B584B00022384B1A70384BD7
S11313B01D68384B1C68384B1968384B1A68384B11
S11313C02E0A76191E702E0C2D0E75195D70250AC5
S11313D02D199D70250C240E2C19DC700C0A641830
S11313E01C710C0C090E61185971110A8918997134
S11313F0110C120E8A18DA7100280AD1294B19002F
S1131400B43100221A721A705A709A7009338B42DE
S1131410F8D10022244B1A70244B1900503104C314
S11314209942FCD1224C234B238002AA1578022333
S11314301D4387231D4040231D430123184083007F
S1131440C3212800084018430123984310700298D0
S11314501349194B98476B46981D01235B4203803F
S11314602100164B9847164B1878164B9847164B85
S11314701B781B0109221343144A13700021002016
S1131480134B9847012004B070BDC046C00400202F
S11314900CA0800040A0800044A0800048A08000F0
S11314A0EC0400209C030020C10400206C040020F4
S11314B06804002034120000B10B00005D04000039
S11314C0360100208913000021000020640400205C
S11314D0A11E0000F0B557464E46C0B483B02F4B52
S11314E05B6801932E4D0024FF26A9462D4B9A4696
S11314F0E7B2E3001B194B441B7ADB0905D0290032
S11315000198D047002803D008E0FF2E00D13E0008
S113151001340935142CEBD1002401E03E000124F0
S1131520F120FF2E34D0204B1B782000002B2FD12C
S11315301E4B1E70F0008019194BC0180023019A2D
S1131540D25CC2540133082BF9D1F3009B19144A1D
S1131550D3181A7A8020404202431A720F4A9268C2
S11315609278813010401A7A0125AA4302431A72F4
S1131570B10000220E4BCA500E4B1E700E4A137857
S113158010218B4313700D4B98470D4B187020009E
S113159003B00CBC91469A46F0BDC046F40400204A
S11315A09C0300200D13000021000020BC04002037
S11315B06C04002098030020C0040020FD110000EA
S11315C06B040020F0B5474680B486B0BC4B1B7852
S11315D01B0700D570E1BB4B9847002800D16BE195
S11315E0B94B19784A07D20FB84B1A700323CC08A9
S11315F001252C40E400100018400B401A00013A69
S113160053425A412A40520103002343C809284047
S1131610800113430343AE4A1370C90903D0AA4B94
S11316205A68AB4B5A60A84A108AA94B5880147B5D
S11316301C7391689960957B9D73527B5A731B78D8
S11316409B0600D40AE10B787F33DAB2162A00D95C
S1131650FEE093009F4AD3589F464A789E4B1B78DE
S11316609A4202D09D4B9847FDE09D4B1B78032B7B
S113167002D19A4B9847F6E09A4B984206D09A4B7F
S11316801B88834202D0022C00D90CE1974B984767
S11316900200934B1B78012B04D10138C0B20128FE
S11316A000D9F4E0924B912119705A7003209149AA
S11316B00870914909789970012A06D804228D4B43
S11316C01A708E4B1A788A4BDA70844B9847804B89
S11316D05A6859881B781B07DB0F009301230020ED
S11316E0874CA047BFE07E4B1B78022B02D97B4B73
S11316F09847B8E04A78784B1B789A4202D0774BE7
S11317009847B0E07A4B97221A700221794A1170F7
S11317107A4A12785A70714B98476D4B5A685988B7
S11317201B781B07DB0F009301230020744CA04798
S113173099E001226F4B1A7091326D4B1A70644B11
S11317405B6803936F4E0024002735006E4B984668
S11317500294E3001B19EB181B7ADB0915D0310046
S11317600398C047002810D0029AD3009D18654BF7
S11317705D1900232B7202215E4A11705C4A53707A
S1131780564B9847142F0ED106E00137FFB20134AF
S11317900936142FDCD18CE0564A1378591C117089
S11317A0F021534AD1544A4B5A6859881B781B0775
S11317B0DB0F009301230020514CA04753E04B78EA
S11317C0012B11D8484B1A88464B9A420AD14649F4
S11317D008800E2002AB9C46604401235B420380D8
S11317E04A4B9847414B98473C4B98473BE0344B16
S11317F01B789B0604D5324A137820218B4313703F
S1131800364B98472FE04B78002B1ED1304B5B684A
S113181003933C4F00263C003B4D0296F3009B197A
S1131820E3181B7ADB090CD039000398A847002879
S113183007D0029AD3009C18324B1C190023237240
S113184003E001360937142EE7D1244B98470AE008
S11318501B4A117808230B43137004E0184A1178CB
S113186008230B4313701A4B1B7B002B07D0144B1C
S11318701B78DB0603D4124B1B789B061CD5104A3D
S1131880137808218B431370144B984714E0184BBA
S113189091221A7062325A700321164A1170164A44
S11318A012789A7011E70E4B1B78012BEFD0F222BD
S11318B0F8E60A4B98476FE706B004BC9046F0BDC3
S11318C0C0040020490C0000500400206A040020D9
S11318D0F404002030550000360100202D0C0000D7
S11318E021000020FFFF000068040020D514000040
S11318F0C4040020C1040020BC04002064040020AF
S1131900211200009C0300200D1300005D04000060
S113191010B5034B9847034B18780007C00F10BD50
S1131920C5150000C0040020F0B55F4656464D467C
S11319304446F0B483B0FF20012953D02D4C2378C2
S11319409B462D4B98477C380600002323702B4A76
S1131950117810230B431370002503279046264B60
S11319609946274B9A4634E0C8470400831B7C2BD6
S113197028D9002D03D0013DEDB2060029E07D1EDB
S1131980EDB2002F06D11D4A137810218B4313703A
S1131990FF2027E01B4B81221A701B4A12785A70D1
S11319A003211A4A11701A4A12789A70194B19882D
S11319B000230093013300220120174EB047260074
S11319C02F000125D0470D4B1B781B0701D5134B66
S11319D0984743461B78DB06C6D4064B5A461A7012
S11319E00F4B187803B03CBC90469946A246AB46D0
S11319F0F0BDC046210000209D1C0000C004002052
S1131A00C5150000C404002036010020C1040020D4
S1131A106404002068040020211200006D130000FB
S1131A2098030020032808D8044B1870044A13783C
S1131A300F210B4000011843107070472100002053
S1131A406404002070B503000D00144C601C1022C7
S1131A501900134B9847647C124B1B78002B08D059
S1131A6012220E498320104B984700220D4B1A7006
S1131A7005E011220949013184200B4B9847002DC0
S1131A8005D01022054901312800054B9847034B26
S1131A905C741820054B984770BDC046580100205F
S1131AA03D4D00006A010020E9470000F11C0000E0
S1131AB0F0B5474680B484B006000D001400002839
S1131AC017D000223E4B1A7002323E4B1A700E326F
S1131AD001003D483D4B984698473D4F10233B70CD
S1131AE0781C10223100C047112239008320394B61
S1131AF09847002C02D0012C12D05AE0314B1B78AD
S1131B00012B3DD1324E0F333370701C10222E49FD
S1131B102E4B98471122310083202E4B98472FE0FB
S1131B20284B1B78012B2BD01022294B1A70244BE5
S1131B301B78002B16D1264E3370803373740F3A02
S1131B40254B1A7000216846244B984710233370A4
S1131B500122310083201F4B984710222049842002
S1131B60204B98471A4E701C10221D49174B98475A
S1131B70112231008320174B9847114B01221A7010
S1131B80104B1C70002D02D00020022D13D12D010A
S1131B9070231D40E30008241C402C430C4B1C7094
S1131BA08022524214435C7481320B4B1A70012020
S1131BB001E00020FFE704B004BC9046F0BDC0463D
S1131BC03701002022000020480100203D4D000084
S1131BD058010020F94400006A010020451A000061
S1131BE0380100206146000010B501001022842055
S1131BF0014B984710BDC0466146000010B58EB039
S1131C00214C2000214B984700236A469371D371DD
S1131C1053709370137253729372D37213739373DA
S1131C2053731374059306931377089309931385D9
S1131C3053859385343300226946CA542C3B6A4643
S1131C40CB70073B0B70C023DB008B801049200056
S1131C50104B984722681369002BFCD1116802339A
S1131C600B431360084C002120000B4B984723685A
S1131C701A69002AFCD11A711A69002AFCD120328F
S1131C805A710EB010BDC04604050020613B00002F
S1131C900008004315380000ED3A000010B5024872
S1131CA0024B984710BDC04604050020213B0000AC
S1131CB070B50020084B98470500084CFA218900AC
S1131CC0A047074B186007492800A047064B186037
S1131CD00522064B1A6070BD19350000814B0000C7
S1131CE02800002040420F002400002010E000E003
S1131CF030B5084B1C68084A00258021490206E0DB
S1131D00002C04D05460956013680B42FCD0013859
S1131D10F6D230BD2400002010E000E00C4B1B681C
S1131D20002B10D1EFF31083002B09D172B6BFF34F
S1131D305F8F0022074B1A700132074B1A7002E0C2
S1131D400022054B1A70024A13680133136070476E
S1131D506C0100202C00002070010020084B1A6840
S1131D60013A1A601B68002B09D1064B1B78002B23
S1131D7005D00122044B1A70BFF35F8F62B670471F
S1131D806C010020700100202C000020F0B54F46AB
S1131D904646C0B483B001AC012666700027A77024
S1131DA02670210013202D4DA8472D4B98468023E3
S1131DB01B0342469361267021001220A84780230A
S1131DC0DB02994643464A469A61277066702100B1
S1131DD01C20A8476670A770267021005220A847CF
S1131DE021003E20A84721003F20A84721002F20A2
S1131DF0A84721001420A8471A4B4A469A61803B01
S1131E008022D2059A61802212069A6180221202EF
S1131E1091469A6180235B034246936127702100B7
S1131E205320A847104AD36949460B43D36104227F
S1131E300E4B1A806B469E70DF7005236A46137042
S1131E405670694609200A4CA04769460C20A047F1
S1131E5003B00CBC90469946F0BDC0468D200000EE
S1131E60002800400029004000040040003C0042DB
S1131E70F13600001723002A0DD18B00074A9B5826
S1131E80002B03D189008850002304E0834201D051
S1131E901D2300E0002318007047C04624050020DD
S1131EA01723002907D100221F2800D8034A012341
S1131EB083401361002318007047C046002400408B
S1131EC01723002907D100221F2800D8034A012321
S1131ED08340D360002318007047C04600240040AC
S1131EE070B50022154B1A7000231F25144E134C95
S1131EF01F2B19D90FE0002100E012494A619B0011
S1131F009B59002B00D0984723780133DBB2237010
S1131F100F2BEDD911E02900194001228A4000213C
S1131F2049691142E7D1EFE72900194001228A40AB
S1131F30044949691142E0D1E6E770BD200500205B
S1131F402405002000240040064A117802230B4394
S1131F5013700221012053681942FCD153681842BE
S1131F60F9D1704700240040064A137802218B43BC
S1131F701370012053681942FCD153681842F9D1F7
S1131F807047C0460024004010B5144A53698021AC
S1131F9089000B435361124A117801230B431370D8
S1131FA00221012053681942FCD15368184209D018
S1131FB0F8E704C38B42FCD108220A4B1A600A4B8F
S1131FC0984709E0064A117810230B431370074B16
S1131FD0190040310022ECE710BDC0460004004067
S1131FE00024004000E100E0491F00002405002017
S1131FF00023036043600122027283720132C272C1
S113200043727047F0B583B005000C001B4B984732
S113201001A900234B70CB7023790B70237A8B704A
S11320202078174B984700201F2D00D8154807210A
S113203029408900E27AA37A002B01D008231A43AD
S1132040EB089B00C318DE690F278F40BE438A400C
S11320503243DA61637A002B05D082690123AB40F5
S11320601343836106E083690122AA401B041B0C0D
S113207093438361044B984703B0F0BD691F00008C
S1132080F136000000240040491F000000B583B071
S113209001AB80221A700A785A704A789A708A784A
S11320A0DA701900014B984703B000BDF136000007
S11320B010B5490840230024814201D20AE01C00E3
S11320C0091A631C9BB28842F9D94023FF2C01D81A
S11320D014800023180010BDF0B55F4656464D46E7
S11320E04446F0B489B00C00059212AA117802009B
S11320F04A434025A24200D9C6E0002B51D1020038
S113210008000021644DA8478346260000270023C9
S1132110002400930194002200233F2020218C46B8
S11321201F390296039720246442041903D40D0036
S1132130A540A84604E06446241A0D00E540A846DC
S11321400C008440A14614001D00A4185D41220027
S11321502B0046465F463E4203D00E002643320023
S11321602B00029C039D9D420FD801D194420CD8B0
S1132170029C039D121BAB414D46009E019F3543BB
S11321803C0046463443009501940138CBD20022EA
S1132190012300980199121A8B41120C1B041A4353
S11321A06FE00022012B6CD1630F0493E300984687
S11321B00A0000230021384CA04704000D0000232E
S11321C09C46069320339B460126634607930023CF
S11321D00293002200233F21009401950F00202147
S11321E04942791803D430008840844604E05946B3
S11321F0C91B3000C84084463100B94089461000EC
S113220019008018594102000B0044464D462C40E9
S1132210A2466446049D2C40A446544665462C437D
S113222003D03400044322000B0000980199994222
S11322300AD801D1904207D800980199121A8B410B
S11322400299484601430291013FC8D2009C019D76
S11322500299079A8B1ADB0810498B420BD9069B0B
S11322600133DBB2190006931300013307930829E5
S1132270ADD1402508E04025069A082A04D052032F
S11322801A43059B1A800025280009B03CBC9046DF
S11322909946A246AB46F0BD994C0000FF1F0000D2
S11322A010B582B004000E4B1B78002B01D000291E
S11322B00DD001A90C7011200A4B984711200A4B2C
S11322C09847074B5C7001221A70002006E0044B0B
S11322D05B78834201D01D2000E0002002B010BDD5
S11322E074010020F535000085350000444B984208
S11322F034D007D88423DB0598420DD0414B984253
S11323001BD06FE0404B98424AD0404B984258D083
S11323103F4B984266D132E0012906D0002963D0B0
S1132320022906D0032906D001E03A4867E00020DC
S113233065E0394863E0394861E0012906D00029A5
S113234054D0022906D0032906D001E0344856E0CF
S1132350002054E0334852E0334850E0012906D0CD
S1132360002945D0022906D0032906D001E02F48D0
S113237045E0002043E02E4841E02E483FE001299B
S113238006D0002936D0022906D0032906D001E060
S1132390294834E0002032E0284830E028482EE084
S11323A0012906D0002927D0022906D0032906D006
S11323B001E0244823E0002021E023481FE02348D3
S11323C01DE0012906D0002918D0022906D00329CE
S11323D006D001E01E4812E0002010E01D480EE087
S11323E01D480CE000200AE01C4808E0032006E039
S11323F01B4804E01B4802E01B4800E01B487047F0
S1132400000800420004004200100042000400439F
S1132410000C00420300050003000600030007004F
S11324200300010003001E0003001F000300090055
S113243003000A0003000B00030011000300120054
S11324400300130003000D0003000E0003000F003F
S11324500300170003001800030019000300040020
S1132460030008000300100003000C000300160022
S113247030B587B00C4B6A4632CB32C232CB32C253
S1132480009B834206D001239A0069465258824237
S113249003D100E00023D8B203E00133062BF3D1CB
S11324A0002007B030BDC0468C5500007047C046C0
S11324B0F0B50A4B1B78002B0CD1094F094E0A4D7D
S11324C00024DE515A1914600433182BF9D1012267
S11324D0024B1A708000024BC150F0BD76010020FF
S11324E078010020AD2400006405002010B582B0FE
S11324F00400062205496846054B98472000054B11
S113250098476B46185602B010BDC046A45500004B
S11325103D4D00007124000010B5024B1B680020E3
S1132520984710BD7801002010B5024B5B6801206C
S1132530984710BD7801002010B5024B9B6802201B
S1132540984710BD7801002010B5024BDB680320CA
S1132550984710BD7801002010B5024B1B69042078
S1132560984710BD7801002010B5024B5B69052027
S1132570984710BD78010020F0B557464E464546B1
S1132580E0B488B080460E001400030019600B68A4
S11325909B0700D48CE0936A0393D36A0493136B70
S11325A00593536B069300271F239946F9B2BB008A
S11325B003AA9858002802D13000964B9847431C30
S11325C027D00204130C9C46000CC1B2002503065C
S11325D003D44B09DB01904A9D184B460B40E81885
S11325E040300078824680205246D2070AD55B08E4
S11325F0EB1830331878C0B2CB0701D5000901E0DD
S11326000F231840844504D00023424613601C2045
S1132610F9E00137042FC9D11120804B9847227863
S11326200025012A12D102AA0100A0697C4B984717
S113263003001720002B00D0E5E0337BDBB202AAB5
S1132640127805309A4200D0DDE00C356368A26848
S11326501343E26813432B43217C627C002A01D09C
S113266080221343A27C002A02D0802292021143CA
S1132670E27C002A02D0802292001143227D002AAB
S113268002D0802292011143306802221343834214
S113269009D173688B4206D1237842465371237C57
S11326A093710020AFE00023424613601C20AAE08F
S11326B00B680520DB0700D5A5E00800594B9847B7
S11326C0052800D198E003001233574DE96901222F
S11326D082400A43EA6107A92427E25D0A70DDB259
S11326E02800524B98472800514B9847E05D002141
S11326F0504B98472378012B03D132680B33134393
S1132700336043461E6802AB80221A7000225A705E
S113271001219970DA702378002B01D102AB9A70F1
S1132720A36A0393E36A0493236B0593636B069391
S1132730002702ADF9B2BB0003AA9858002802D1C1
S11327403000344B9847431C05D02870000CC0B2AD
S11327502900394B98470137042FEBD1237842469F
S11327605371237C9371A37CD371237D1372002254
S11327706B46DA802378012B15D143461868294B20
S113278098471230C0B2254B984701006B469A1DFA
S1132790A069234B984703001720002B33D16B46C5
S11327A006331B7833736368A2681343E2681343E8
S11327B0227C617C002903D120498978890701D5CD
S11327C080210B43A17C002902D0802189020A4385
S11327D0E17C002902D0802189000A43217D00295F
S11327E002D0802189010A4331680B433360736846
S11327F013437360002006E00B4A116A02230B4363
S11328001362182367E708B01CBC90469946A24699
S1132810F0BDC046ED22000000280040193600003B
S1132820B12000007124000000040040F5350000D0
S113283085350000A1220000F1360000002000418F
S113284010B544791523012C6ED1047A0023002C91
S11328506AD1002A58D04B78002B44D003681B7EE1
S1132860DB0710D40B78D9090022002904D15A09B6
S1132870D2012E498C4662441F210B401E399940D7
S11328809161052350E00B78DC090022002C04D16F
S11328905A09D201254CA44662441F2423401E3CFD
S11328A09C40546103681A7ED20701D58A789A62E3
S11328B0C2790023002A37D102680421137E0B4217
S11328C0FCD0117E002349072ED5538B5B0701D51D
S11328D0042353838379012B02D1936A002323E0D9
S11328E0936A002320E00B78D9090022002904D13F
S11328F05A09D2010D498C4662441F210B401E39EE
S11329009940516100230FE00B78D9090022002976
S113291004D15A09D20105498C4662441F210B4057
S11329201E39994091610023180010BD0028004011
S1132930F0B55F4656464D464446F0B491B00500A6
S11329400C00160029600800C44B9847021E052A93
S113295003D007001237030001E018270123216880
S11329600520C90700D571E121681730890700D512
S11329706CE1052A07D1BA48026A012199400B008B
S11329801343036206E0B648C269012199400B0073
S11329901343C3610FA92D239846F35C0B70FFB258
S11329A03800B04B98473800AF4B98474346F05C2B
S11329B00021AE4B9847F37A6B712423F35CAB711F
S11329C02523F35CEB71F37E2B72337F6B722B68E0
S11329D099461800A14B9847123000220E2306A9ED
S11329E08C4663441A80328A02928023DB019A4225
S11329F01AD004D880239B019A420BD007E1C0234C
S1132A00DB01029A9A420AD080231B029A4200D127
S1132A1002E1FCE0102306930F3B079300E1082337
S1132A200693073B0793FBE033680493F3689B46E4
S1132A3073690393337E98462623F35C0593736886
S1132A409A46002B16D080235B059A4539D127235B
S1132A50F35C002B39D1336A1F00C0B2844B984712
S1132A6001000E2206AB9C4662443800814B984715
S1132A70030027E008230693002307932723F35C2E
S1132A80002B0CD0069B0093079B0E2206A98C46B4
S1132A906244B16A306A784FB847030012E0336A7F
S1132AA01F00C0B2724B98470100069B0093079B1E
S1132AB00E2206A88446624438006F4FB8470300CC
S1132AC000E00023181E00D0C0E0737E002B02D06B
S1132AD0B37E4A4693732A68029FD369002BFCD1C4
S1132AE00E3306AA944663441B884A469381049B8A
S1132AF05A461343039A1343524613433B434246F5
S1132B0012021343059A57071F432723F35C002B34
S1132B1001D104331F43717E8902337F5B02194361
S1132B20737F1B0219432423F35C5B04194325239D
S1132B30F25C12041143F37A19433389FF2B04D056
S1132B40802252041743194305E0F37E002B02D080
S1132B508023DB041F432C23F35C002B03D1474B5E
S1132B609B789B0701D580231F432A68D369002BD8
S1132B70FCD14B4659602A68D369002BFCD14B46E3
S1132B801F600EAB80221A7000225A70DA709A709D
S1132B90336B0A93736B0B93B36B0C93F36B0293CA
S1132BA00D9300270EAEF9B2BB000AAA985800286C
S1132BB002D12000324B9847431C05D03070000CE2
S1132BC0C0B231002F4B98470137042FEBD10023BB
S1132BD0EB602B616B61AB61EB612B62AB626B628F
S1132BE00022EB85AB853033EA540133EA540133D8
S1132BF0EA540133EA542868184B984704002249E0
S1132C00224B9847A400224BE55000201EE01023DD
S1132C1006930023079303E00323069300230793FB
S1132C2033680493F3689B4673690393337E984631
S1132C302623F35C059373689A46002B00D11DE7A5
S1132C4080235B059A4500D101E73EE711B03CBC07
S1132C5090469946A246AB46F0BDC046712400009A
S1132C6000040040F535000085350000A122000075
S1132C7019360000B1200000D920000000200041D6
S1132C80ED220000F13600007D2E0000B12400008A
S1132C9064050020C2791C23002A0ED0C28D92B292
S1132CA0173B002A09D10368DA69002AFCD1198587
S1132CB002211A7E0A42FCD0002318007047C04645
S1132CC082791C23002A30D0828D92B2173B002ACD
S1132CD02BD10268107E400727D5D369002BFCD185
S1132CE0538BDBB298061DD0980703D50223538378
S1132CF018331AE0580703D5042353831A3314E016
S1132D00D80703D50123538312330EE0D80603D525
S1132D1010235383323308E09B0603D520235383C7
S1132D20213302E0138D0B80002318007047C04646
S1132D30F0B54F4680B482B0040001911720002AF8
S1132D4049D0E3790530002B45D02768FB69002B77
S1132D50FCD191460025012620E03A7E324204D17E
S1132D60012B2AD0013B002BF7D16A1C92B2019BA4
S1132D705B5D6179012902D099B2150005E0A91CB7
S1132D808DB20199895C090219432000144B9847BC
S1132D904A46013A93B29946002B16D03B7E334201
S1132DA0E3D1104BD9E73A7E0A4208D1012B08D06F
S1132DB0013B002BF7D100200DE012200BE0002096
S1132DC009E0122007E0002005E03B7E9B07FAD4CF
S1132DD0044B0221E7E702B004BC9146F0BDC046B3
S1132DE0952C0000FFFF0000F0B5574680B484B076
S1132DF0040001911720002A38D0A3790530002B54
S1132E0034D026689246002504272AE0327E3A42CE
S1132E1004D1012B23D0013B002BF7D1002302AABC
S1132E20D380911D2000134B984700281ED16B1CA2
S1132E309BB202AAD28801994A556179012905D128
S1132E40A91C8DB2120A0199CA5400E01D00524611
S1132E50013A93B29A46002B03D1002006E01220D7
S1132E6004E0337E3B42D9D1034BCFE704B004BC2A
S1132E709246F0BDC12C0000FFFF0000F8B58000B1
S1132E80604BC5582C68E369002BFCD1237EA67DDA
S1132E901E403023EB5C3122AF5C1F40F30722D588
S1132EA0EB8D9BB2002B1CD0AA6A1378DBB2511CA9
S1132EB0A9626979012901D09BB204E05178090221
S1132EC00B430232AA62DB05DB0D2385EB8D013B4C
S1132ED09BB2EB85002B06D1013323750133A37517
S1132EE001E001232375B30709D5022323750022CA
S1132EF03133EA54FB0702D52800EB68984773077F
S1132F0060D5AB8D9BB2002B5AD0638BDBB21A0712
S1132F1002D43F22134001E037221340002B2DD06E
S1132F209A0705D51A223223EA54303B63831FE003
S1132F305A0705D51E223223EA542E3B638317E039
S1132F40DA0705D513223223EA54313B63830FE0B9
S1132F50DA0605D542223223EA54223B638307E092
S1132F6020221A4204D021323223EA54123B6383D2
S1132F707B0727D528006B69984723E0238DDB0561
S1132F80DB0DDAB2696A0A706A6A511C696269798E
S1132F90012904D11B0A53706B6A01336B62AB8D38
S1132FA0013B9BB2AB85002B0CD10433237500226B
S1132FB02E33EA54BB0705D528002B69984701E056
S1132FC004232375F30607D5102323752376FB0604
S1132FD002D52800EB699847B30607D5202323754B
S1132FE023763B0702D52800AB699847330707D5FA
S1132FF0082323752376BB0602D52B6A280098473D
S1133000F8BDC0466405002010B5082803D8800028
S11330101C4B1B589F46002032E01B4B18692FE0C5
S11330201A4B187D0007800F0130194B584327E0D5
S1133030154B586924E0144B1B68022018401FD01C
S1133040124980225200CB681342FCD00E4B1B68FD
S11330505B0714D500200F4B98470B4B9B681B0450
S11330601B0C58430CE02823084AD35C00209B0720
S113307006D5054BD86803E08020000200E006482E
S113308010BDC046AC55000090010020000C00406B
S113309000093D0019360000006CDC0230B50C4C10
S11330A0237D85784178007803221040800009321E
S11330B0934303430B3A114089013F3293430B433B
S11330C01A00E9017F2313400B43237530BDC0462A
S11330D0000C0040F0B557464E464546E0B41C4E41
S11330E0B3699C46417805780779C3789946447951
S11330F08378012003409B009A460422904662464E
S113310043469A43130052461A4313000140C90030
S1133110082293430B434A460240920140218B43C9
S113312013430740FF01802293433B43793A154000
S11331302D02084F3B402B4304402003064C1C4007
S11331400443B4611CBC90469946A246F0BDC046F7
S113315000100040FFF8FFFFFFEFFFFF082803D82F
S11331608000294B1B589F4617204BE0274A117DAE
S113317002230B431375002044E0254A916902237E
S11331800B43936100203DE0204A118A02230B4344
S11331901382002036E01E4A516902230B43536117
S11331A000202FE01B490B68022213430B60174BCE
S11331B01A831900FE32CB681342FCD0154A916879
S11331C0124B19625268DA6100221A831900013223
S11331D0FF32CB681342FCD00E4B1B689BB20B4AE8
S11331E0138300200EE009492822885C022303434C
S11331F08B5408003821263A435C1342FCD100204A
S113320000E000207047C046D0550000000C00408C
S11332100010004090010020082832D880001A4B8A
S11332201B589F46194A137D02218B4313750020B6
S113323028E0174A936902218B439361002021E01F
S1133240124A138A02218B43138200201AE0104A87
S1133250536902218B435361002013E00D4B1A681C
S113326002218A431A601B689BB2084A1383002018
S113327008E0064928228B5C022083438B540020FB
S113328000E017207047C046F4550000000C0040D1
S11332900010004090010020F0B557464E464546C8
S11332A0E0B486B080225200494B9A60FD3A494B03
S11332B09A60494A53681E218B4353608023DB057F
S11332C09B78022B09D08023DB0501229A710132FD
S11332D09A701A009379002BFCD004A8012545703C
S11332E085700024C47005710723037044713B4B3F
S11332F0984704203A4EB04701A94D604C700C72B7
S11333004C7203230B700020364B98470620364B33
S113331098476B465C701D709C706846334B9847A9
S11333200620B0472A491022CB681A42FCD001ACCF
S11333300126666000256570062399462370257270
S1133340657221000020274B98469847204A117D3A
S113335080230B431375264B98476660657025726E
S113336065720423237021000120C0470120214BF2
S11333709A469847204FBE717E713E7166606570B3
S11333804B4623702572657221000020C04700203F
S1133390D0470020194B98473979C9B2184B984740
S11333A0184B98420ED88023DB059B78002B09D05C
S11333B08023DB0501229A7100229A701A00937906
S11333C0002BFCD006B01CBC90469946A246F0BD2A
S11333D0000C00400014004000400041D5300000C3
S11333E05D3100002D340000193200009D300000D2
S11333F009340000D93400000004004019350000ED
S1133400814B0000001BB700064A516940230B435F
S113341053610122044B1A7019000B781342FCD13A
S11334207047C046000400400018004070B5050015
S11334300C784B78002B02D08023DB001C434B7AA2
S1133440002B02D080231B011C434A68012A17D990
S1133450531E1A420FD1022A06D90223002001303A
S11334605B009A42FBD800E0002080235B011C43F0
S11334700004044304E0120480239B001A43144311
S11334800B7A002B02D080239B011C430426AE4000
S11334900D490E4A4B6813401E42FBD10C4B984712
S11334A0AD00094B9C466544286A80235B001840A4
S11334B0204328626146054A4B6813401E42FBD1F3
S11334C0044B984770BDC04600180040FC0700003C
S11334D01D1D00005D1D000010B504000422824083
S11334E009480A4943680B401A42FBD1084B9847E4
S11334F0A400054B9C466444236A80225200134373
S11335002362044B984710BD00180040FC070000DC
S11335101D1D00005D1D0000F8B50400042282405A
S11335201248134943680B401A42FBD1114B984788
S11335300E4F0834A400E0590007000F0E4B9847C3
S11335400600E559ED04ED0FE459240C0B4B9847A4
S1133550002D07D1012C07D921003000084B9847D2
S1133560060001E00134E6403000F8BD00180040D8
S1133570FC0700001D1D0000093000005D1D000057
S1133580814B000010B50400094B9847A000094B7B
S11335909C4660448022815840230B438350802101
S11335A0403A43581A42FCD0034B984710BDC046DA
S11335B01D1D0000001800405D1D000010B5040032
S11335C0094B9847A000094B9C46604480228358CD
S11335D040218B4383504031403A43581A42FCD136
S11335E0034B984710BDC0461D1D00000018004045
S11335F05D1D000070B504000D00054B98472B7845
S11336000F2213402034A400024AA35070BDC046C8
S1133610BD3500000018004010B50400064B984763
S11336202034A400054BE4582407240F044B984786
S11336302000044B984710BD1D1D000000180040D9
S11336405D1D00001935000030B5D378002B1ED164
S11336501378802B04D01B0680246402234300E0EB
S1133660002354780225AC430AD19478002C03D16A
S11336708024A402234302E0C024E40223434160E3
S11336805478013C012C12D8184C23400FE04160BF
S11336900B041B0CA024E405234383620B0CD024ED
S11336A0240623438362D378002B18D01CE00C0437
S11336B0240CA025ED052C431C4384620C0CD0255E
S11336C02D062C431C438462D478002C0CD15B035C
S11336D005D59378012B01D1816100E041615378D4
S11336E0013B012B00D8816030BDC046FFFFFBFFCA
S11336F010B503000A00C1090020002904D15809AB
S1133700C00105498C4660441F210B401E39994075
S1133710024B984710BDC0460028004049360000BF
S11337207047C04610B5054B9847054B9847054B65
S11337309847054B9847054B984710BD99320000B0
S11337408D1D000021370000891F00002137000073
S113375070B58000144BC5582B689C7A2B7E1C4096
S11337606B7E1C40E30705D52800AB68984701230E
S11337702A689372A30705D52800EB6898470223AB
S11337802A689372E30605D528002B69984710230D
S11337902A689372A30605D528006B6998472B689D
S11337A020229A7270BDC0467C05002010B500200E
S11337B0014B984710BDC0465137000010B5012099
S11337C0014B984710BDC0465137000010B5022088
S11337D0014B984710BDC0465137000030B585B045
S11337E001AA0B4B32CB32C2019B98420AD0029BF6
S11337F0984205D00023039A824205D1023302E0A5
S1133800012300E00023DBB2180005B030BDC04640
S113381040560000F0B5474680B48AB005000E005B
S113382017000800A74B98478046A74C21000C318D
S1133830032209A8A54B984703A9230010330A00C3
S113384013CB13C213CB13C20023AB60EB602B6109
S11338506B612B766B7643469A009D4BD5502E6058
S11338603423FB5CAB76FB78082B04D1172042464B
S1133870D20700D522E12B7133680520DB0700D580
S11338801CE1F37A17309B0700D517E133689B07D7
S113389000D513E13B7C002B0AD002A901238B70D5
S11338A00022CA703A7E0A704B70387D894B984763
S11338B03B7F002B0BD002A901238B700022CA701E
S11338C07A6A0A704B703B6AD8B2824B9847434677
S11338D05A0003A9531C9B0058584346DB005B580D
S11338E0D9B204291BD88B007B49CB589F467B490E
S11338F04B691843486112E078498B691843886121
S11339000DE07649CB691843C86108E073490B6A36
S11339101843086203E071494B6A18434862FB7814
S1133920082B29D143460133022B25DC03A9D31CE0
S11339309B005858931C9B005B58DAB2042A1BD88E
S11339409300674AD3589F46644A536918435061A9
S113395012E0624A9369184390610DE05F4AD369AB
S11339601843D06108E05D4A136A1843106203E00B
S11339705A4A536A1843506201A93B780B7009AB49
S113398042469C5C2000574B98472000564B984772
S1133990FA78FB791343BA8813437A7A002A02D05F
S11339A0802252021343BA7A002A02D08022920261
S11339B01343FA7A002A02D08022520313433A7B3B
S11339C0002A02D080229203134379788901BA78BD
S11339D0D201114319432A681369002BFCD13160C9
S11339E02A681369002BFCD1BB793373797B4B1E96
S11339F099418900BB7B002B01D0012319432A681C
S1133A001369002BFCD1FF333371002904D02A68D9
S1133A101369002BFCD171713B7A73732A681369A3
S1133A20002BFCD12B79042B05D0082B33D0172085
S1133A30002B43D11CE01369002BFCD12833FB5C21
S1133A4033752A681369002BFCD12933FB5CF376A8
S1133A502A681369002BFCD12A33FB5C33772A686C
S1133A601369002BFCD12B33FB5C7377002025E01A
S1133A701369002BFCD13B8DB3822A681369002B98
S1133A80FCD17B8DB3832A681369002BFCD1BB8DD9
S1133A90F383002012E01369002BFCD1BB6A73612D
S1133AA02A681369002BFCD1FB6AF3612A68136945
S1133AB0002BFCD13B6B33620020FFE70AB004BC4F
S1133AC09046F0BDDD370000405600003D4D00003B
S1133AD07C050020F1360000185600000004004068
S1133AE02C560000F5350000853500000268136986
S1133AF0002BFCD10379042B05D0082B0BD0172005
S1133B00002B0BD103E0C9B21175002006E089B285
S1133B109182002002E051610020FFE77047C04617
S1133B2002681369002BFCD1137101680B69002B27
S1133B30FCD18033537102681369002BFCD10179E5
S1133B40042904D0082908D0002907D102E0137DF4
S1133B50DBB203E0938A9BB200E05369180070471C
S1133B600368D97A1522890715D41A6892070DD5E6
S1133B701A69002AFCD133321A729A721A68022125
S1133B808A431A6001680A69002AFCD11968012273
S1133B900A431A60002210007047C0467047C046AE
S1133BA010B51D4B1D4A9A4203D01D4B1A4A9A4226
S1133BB004D31C4B1C4A9A4210D31EE01B4A184BD8
S1133BC003339B1A9B0801339B00002212481349BC
S1133BD08C58845004329A42FAD1EAE7144A114BC1
S1133BE003339B1A9B0801339B0000220E480021DB
S1133BF01418216004329A42FAD10E4AFF210E4B66
S1133C008B4393600D4A516880230B4353600C4BE4
S1133C1098470C4B9847FEE700000020B05700007F
S1133C2094000020E80500209400002004000020F7
S1133C309800002000ED00E000000000004000417A
S1133C40F14C0000F1490000F0B5474680B40C0087
S1133C50904600280DD1002A0EDD8F18084E094D1C
S1133C60306821002B6898470134A742F8D14046B8
S1133C7003E00120404200E0002004BC9046F0BD77
S1133C809005002088050020F0B5474680B40E005A
S1133C9015000138022811D8002A12D000240C4B38
S1133CA098460C4F43461868315D3B689847002896
S1133CB009DB0134A542F5D1200006E00120404291
S1133CC003E0002001E00120404204BC9046F0BD26
S1133CD0900500208C0500200300064A1268002A83
S1133CE002D10549034A1160024A1068C3181360DF
S1133CF07047C046A8010020E8250020012040426A
S1133D007047C04680239B014B6000207047C0462B
S1133D100020704770B582B005000E0000226B468B
S1133D20DA80064C6B46991D2800A0470028F9D17B
S1133D306B4606331B88337002B070BDC12C000083
S1133D4070B505008CB2034E21002800B04700284E
S1133D50FAD170BD952C000010B582B06B46DC1D05
S1133D60012221000F48104B984772B6BFF35F8FB2
S1133D7000220E4B1A700E4B1B7821780D4AD15439
S1133D809B2B03D100220A4B1A7002E00133084A2C
S1133D9013700122054B1A70BFF35F8F62B602B035
S1133DA010BDC04648020020E92D00002C00002070
S1133DB07C020020AC010020F0B591B08023DB052B
S1133DC0009300230193FF2269460A8100228B722B
S1133DD0CB72962189010891012424216846445418
S1133DE00131445401314354013143540A930531A0
S1133DF043540131435405930382C3760276027718
S1133E00427613238376427780235B0303932E4BFE
S1133E100C932E4B0D9301235B420E930F932C4D69
S1133E202C4B1D602C4A2D4B1A602D4A2D4B1A60C9
S1133E306A468421C90528002B4B98472B4F3B68C1
S1133E40986800212A4EB0473B6858680021B04763
S1133E502E683000274B98471F2318408440264B78
S1133E601C602A68D369002BFCD1326802331343E7
S1133E703360174B1B68DA69002AFCD15A68802129
S1133E8049020A435A600121114AD171DA69002AB0
S1133E90FCD1DA69002AFCD15A68802189020A43DC
S1133EA05A6001210A4A9171DA69002AFCD1134946
S1133EB00020134B984704228423DB059A75FC32B7
S1133EC00D4B1A6011B0F0BD03000400030005009F
S1133ED04802002090050020413D00008C05002090
S1133EE0153D0000880500203129000090000020C5
S1133EF05F4D0000ED24000000E100E0593D0000AA
S1133F00B1240000F0B583B0060001916B469D8892
S1133F10054C064F2A0031002000B8470028F9D18B
S1133F20019803B0F0BDC04648020020312D0000C6
S1133F3000B583B06B46D871073301211800024BDA
S1133F40984703B000BDC046053F000010B50122EC
S1133F50024B5A61024B984710BDC04600240040F2
S1133F60E910000030B585B0344A002353709370D3
S1133F703F211170324C21706370A3700122694695
S1133F804A708B700A703F202E4B98472378DA09C9
S1133F900021002A04D15909C9012B4A94466144DD
S1133FA01F2213401E3A100098408861274C22704B
S1133FB000236360A36023746374A274E2742375A2
S1133FC02332A35420001830183A0021204B98477C
S1133FD080235B02E3601F4BA3611F4BA362012399
S1133FE05B42E3621D4B23631D4B63631D4D220043
S1133FF01D4928001D4B98472A68D369002BFCD122
S1134000136802252B43136001AC2000184B98471A
S11340102023019380239B03636025720023637232
S1134020A3720133E37221000020124B984700224F
S113403000211148114B984705B030BD9805002068
S11340409C0500208D20000000280040A0050020D1
S11340504F4D000000093D000500530005003E00DF
S113406005005200D8050020001000427925000008
S1134070F11F0000052000004D3F0000751E0000E8
S113408070B5094B1C00803480252D02A561802267
S113409052035A61A5204000044EB04765610A20CE
S11340A0B047A56170BDC04600280040F11C000067
S11340B070B582B00500EFF310835A425341019367
S11340C072B6BFF35F8F0022334B1A70019C334EDC
S11340D0013233493000334B9847336801211A7E4B
S11340E00A42FCD01A7ED20702D5802215439D6273
S11340F002211A7E0A42FCD004211A7E0A42FCD014
S11341001A7E520712D55A8B520701D504225A83BC
S1134110224A9279012A05D19A6AD205D20D2249FE
S11341200A8003E09A6AD2B21F490A8001211A7EEA
S11341300A42FCD01A7ED20701D500229A620221DB
S11341401A7E0A42FCD004211A7E0A42FCD01A7E4E
S1134150002552070ED55A8B520701D504225A83E3
S11341600E4A9279012A03D19D6AED05ED0D01E015
S11341709D6AEDB200220A4908480A4B9847FF237A
S1134180234205D00122044B1A70BFF35F8F62B63D
S1134190E8B202B070BDC0462C000020D805002053
S11341A09C0500204128000094050020F0B583B050
S11341B006000C00EFF310835A425341019372B688
S11341C0BFF35F8F0022344B1A70019D334F0132CD
S11341D033493800334B98473B6801211A7E0A4221
S11341E0FCD01A7ED20702D5C02216439E62022159
S11341F01A7E0A42FCD004211A7E0A42FCD01A7E9E
S1134200520712D55A8B520701D504225A83234AE6
S11342109279012A05D19A6AD205D20D22490A80DF
S113422003E09A6AD2B220490A8001211A7E0A4226
S1134230FCD01A7ED20700D59C6202211A7E0A4263
S1134240FCD004211A7E0A42FCD01A7E520712D5F1
S11342505A8B520701D504225A83104A9279012AB3
S113426005D19B6ADB05DB0D0F4A138003E09B6AD3
S1134270DBB20D4A1380002209490848094B9847CC
S1134280FF232B4205D00122034B1A70BFF35F8F2B
S113429062B603B0F0BDC0462C000020D805002053
S11342A09C0500204128000094050020F0B55746E5
S11342B04E464546E0B482B005000C00EFF310838F
S11342C05A425341019372B6BFF35F8F00223E4BB3
S11342D01A70019B98463D4F01323D4938003D4BD1
S11342E098473B6801211A7E0A42FCD01A7ED20705
S11342F001D520229A6202211A7E0A42FCD00421AE
S11343001A7E0A42FCD01A7E520712D55A8B5207E3
S113431001D504225A832D4A9279012A05D19B6A38
S1134320DB05DB0D2C4A138003E09B6ADBB22A4ACF
S11343301380631EDBB2002C30D001339C46AC44A6
S11343402027224E012000239A4602240421B1464C
S113435022E01A7E0242FCD01A7E024201D052466A
S11343609A621A7E2242FCD01A7E0A42FCD01A7E3D
S11343700A420DD05A8B0A4200D059834A46927998
S1134380012A03D19F6AFF05FF0D01E09F6AFFB276
S11343902F700135AC4501D03368DAE700220C49AF
S11343A00A480C4B9847FF234246134205D001228A
S11343B0054B1A70BFF35F8F62B602B01CBC904607
S11343C09946A246F0BDC0462C000020D805002026
S11343D09C0500204128000094050020F0B54746C4
S11343E080B482B004000D00EFF310835A425341AD
S11343F0019372B6BFF35F8F00223A4B1A70019B90
S11344009846394F013239493800394B98473B684F
S113441001211A7E0A42FCD01A7ED20701D56022FD
S11344209A6202211A7E0A42FCD004211A7E0A42B0
S1134430FCD01A7E520712D55A8B520701D504229A
S11344405A83294A9279012A05D19A6AD205D20D52
S113445028490A8003E09A6AD2B226490A80224A8D
S113446092799446210001270220042422E01A7E36
S11344703A42FCD01A7E3A4201D00A789A621A7EF5
S11344800242FCD01A7E2242FCD01A7E224210D074
S11344905A8B224200D05C836246012A05D19A6A73
S11344A0D205D20D134E328003E09A6AD2B2114E75
S11344B032800131013DEDB2FF2DD8D100220B49EC
S11344C009480B4B9847FF234246134205D001226B
S11344D0044B1A70BFF35F8F62B602B004BC9046FF
S11344E0F0BDC0462C000020D80500209C0500200B
S11344F04128000094050020F0B5474680B482B0FE
S113450006000D001400EFF310835A425341019347
S113451072B6BFF35F8F00224C4B1A70019B984612
S11345204B4F01324B4938004B4B98473B680121B4
S11345301A7E0A42FCD01A7ED20701D540229A6222
S113454002211A7E0A42FCD004211A7E0A42FCD0BF
S11345501A7E520712D55A8B520701D504225A8368
S11345603B4A9279012A05D19A6AD205D20D3B4978
S11345700A8003E09A6AD2B238490A8001211A7E7D
S11345800A42FCD01A7ED20700D59E6202211A7E0E
S11345900A42FCD004211A7E0A42FCD01A7E520739
S11345A012D55A8B520701D504225A83284A92798C
S11345B0012A05D19A6AD205D20D28490A8003E05E
S11345C09A6AD2B225490A80214A927994462800EF
S11345D001260225042122E01A7E3242FCD01A7EF2
S11345E0324201D002789A621A7E2A42FCD01A7EA4
S11345F00A42FCD01A7E0A4210D05A8B0A4200D0DA
S113460059836246012A05D19A6AD205D20D134F05
S11346103A8003E09A6AD2B2104F3A800130013CEA
S1134620E4B2FF2CD8D100220A4909480A4B984722
S1134630FF234246134205D00122044B1A70BFF3F4
S11346405F8F62B602B004BC9046F0BD2C0000201F
S1134650D80500209C050020412800009405002076
S1134660F0B557464E464546E0B482B004000D000E
S113467017000120564B9847EFF310835A425341D9
S1134680019372B6BFF35F8F0022524B1A70019BE5
S11346909846514E013251493000514B9847336886
S11346A001211A7E0A42FCD01A7ED20701D50022CB
S11346B09A6202211A7E0A42FCD004211A7E0A421E
S11346C0FCD01A7E520712D55A8B520701D5042208
S11346D05A83414A9279012A05D19A6AD205D20DA8
S11346E040490A8003E09A6AD2B23E490A80012115
S11346F01A7E0A42FCD01A7ED20700D59C6202219F
S11347001A7E0A42FCD004211A7E0A42FCD01A7E88
S1134710520712D55A8B520701D504225A832E4AC6
S11347209279012A05D19B6ADB05DB0D2D4A1380A2
S113473003E09B6ADBB22B4A13807B1EDBB2002FA3
S113474030D001339C46AC440027234E0120002383
S11347509A4602240421B14622E01A7E0242FCD089
S11347601A7E024201D052469A621A7E2242FCD03C
S11347701A7E0A42FCD01A7E0A420DD05A8B0A4293
S113478000D059834A469279012A03D19F6AFF05D2
S1134790FF0D01E09F6AFFB22F700135AC4501D0D7
S11347A03368DAE700220D490B480D4B9847FF2385
S11347B04246134205D00122064B1A70BFF35F8FA5
S11347C062B602B01CBC90469946A246F0BDC046F3
S11347D0F11C00002C000020D80500209C050020BE
S11347E04128000094050020F0B557464E46454642
S11347F0E0B406008A4614000120764B9847002155
S11348000020754B9847754F012275493800754B48
S113481098473B6801211A7E0A42FCD01A7ED207CF
S113482001D540229A6202211A7E0A42FCD0042158
S11348301A7E0A42FCD01A7E520712D55A8B5207AE
S113484001D504225A83654A9279012A05D19A6ACC
S1134850D205D20D64490A8003E09A6AD2B2624951
S11348600A8001211A7E0A42FCD01A7ED20700D5A2
S11348709E6202211A7E0A42FCD004211A7E0A4258
S1134880FCD01A7E520712D55A8B520701D5042246
S11348905A83524A9279012A05D19A6AD205D20DD5
S11348A051490A8003E09A6AD2B24F490A80012131
S11348B01A7E0A42FCD01A7ED20702D552461278DA
S11348C09A6202211A7E0A42FCD004211A7E0A420C
S11348D0FCD01A7E520712D55A8B520701D50422F6
S11348E05A833E4A9279012A05D19B6ADB05DB0D86
S11348F03D4A138003E09B6ADBB23B4A1380002CE1
S113490031D05646013CE4B20134A244D0460027DB
S1134910324D012002240421A94622E01A7E0242DB
S1134920FCD01A7E024201D072789A621A7E224228
S1134930FCD01A7E0A42FCD01A7E0A420DD05A8B51
S11349400A4200D059834A469279012A03D19F6AC8
S1134950FF05FF0D01E09F6AFFB23770013646453F
S113496002D02B68DAE700271C4B1B6801211A7E52
S11349700A42FCD01A7ED20701D500229A62022193
S11349801A7E0A42FCD004211A7E0A42FCD01A7E06
S113499052070ED55A8B520701D504225A830F4A67
S11349A09279012A03D19F6AFF05FF0D01E09F6AF6
S11349B0FFB253461F70002209490848094B984723
S11349C000210020094B98471CBC90469946A246FA
S11349D0F0BDC046F11C0000C11E0000D805002037
S11349E09C0500204128000094050020A11E000021
S11349F0F0B557464E464546E0B4494B9847494BB7
S1134A009847494B9847494B98470020484B98474B
S1134A101920484B98470020474B98470021002015
S1134A20464B98470122464B1A70BFF35F8F62B61C
S1134A300021FF20434B9847FF2804D08022120313
S1134A40414B5A6108E000220A2100203F4B98475D
S1134A508022D2023C4B5A613D4B98478246002645
S1134A6000243C4F3C4B99463C4B9846B8470028A1
S1134A7005D08022D202344BDA61C847C047344B98
S1134A8098470500364B9847002820D0802212030F
S1134A902D4BDA6106213000324B9847CBB2990096
S1134AA0C9184900CB183049C91800232F480A787F
S1134AB0C2540133DBB201310B2BF8D10B222C4B46
S1134AC01A700136F6B2012100202A4B984753464A
S1134AD0EB1A9B2292009342C8D9802212031A4BEC
S1134AE0DA61062120001F4B9847C9B24A005218C8
S1134AF0D000831A204AD21800231C481178C154CC
S1134B000133DBB20132152BF8D11522184B1A7080
S1134B100134E4B20120194B9847AA46A6E7C046DF
S1134B2025370000B11C0000B93D0000FD1B00004A
S1134B30A513000089130000251A0000A11E00001F
S1134B402C0000202919000000280040391300001F
S1134B509D1C000011190000B90100006D13000034
S1134B60150100008D4C000068560000C4040020AC
S1134B70C1040020D9120000AC56000099120000B4
S1134B80002243088B4274D303098B425FD3030A88
S1134B908B4244D3030B8B4228D3030C8B420DD39B
S1134BA0FF22090212BA030C8B4202D31212090229
S1134BB065D0030B8B4219D300E0090AC30B8B4267
S1134BC001D3CB03C01A5241830B8B4201D38B0315
S1134BD0C01A5241430B8B4201D34B03C01A5241BA
S1134BE0030B8B4201D30B03C01A5241C30A8B42FD
S1134BF001D3CB02C01A5241830A8B4201D38B02E8
S1134C00C01A5241430A8B4201D34B02C01A52418B
S1134C10030A8B4201D30B02C01A5241CDD2C309FD
S1134C208B4201D3CB01C01A524183098B4201D379
S1134C308B01C01A524143098B4201D34B01C01A64
S1134C40524103098B4201D30B01C01A5241C308DC
S1134C508B4201D3CB00C01A524183088B4201D34B
S1134C608B00C01A524143088B4201D34B00C01A37
S1134C705241411A00D20146524110467047FFE7A3
S1134C8001B5002000F006F802BDC0460029F7D0A7
S1134C9076E770477047C046F0B54F464646C0B405
S1134CA01604360C9946330005042C0C070C150C1D
S1134CB063437E436F4365431C0CAD1964199C46E2
S1134CC0A64203D980235B02984647446346250CD9
S1134CD0EF191D044B464A4343432D0C2404641925
S1134CE09918C91920000CBC90469946F0BDC046DD
S1134CF00E4B70B500251E000D4CE41AA410A542FD
S1134D0004D0AB00F35898470135F8E700F040FDB4
S1134D10084B00251E00084CE41AA410A54204D038
S1134D20AB00F35898470135F8E770BD9C57000075
S1134D309C5700009C570000A0570000002310B5AA
S1134D409A4203D0CC5CC4540133F9E710BD03008C
S1134D508218934202D019700133FAE770474A422D
S1134D604A41802310B55200DB0000F001F810BD69
S1134D70F0B51D00514B85B01E6804000F00009271
S1134D80002E05D0B369002B02D1300000F094F955
S1134D904B4B9C4201D1746808E04A4B9C4201D1C0
S1134DA0B46803E0484B9C4200D1F468009B022B9A
S1134DB005D0012B00D97CE0002D00DA79E0210038
S1134DC0300000F00BF9616B002908D02300443354
S1134DD0994202D0300000F033FA002363630023C9
S1134DE0A3616360A3891B0603D52169300000F029
S1134DF027FAA289354B1340A381009B022B21D0B3
S1134E0003AB02AA2100300000F0EAF9A389184399
S1134E10A081002D01D1029D01E0002F25D12800A1
S1134E2000F004FA0195071E1AD1029B0193AB42CC
S1134E3002D10120404206E0019800F0F7F9071E74
S1134E400ED1F6E700200222A3891343A381002395
S1134E50A3602300473323602361012363612AE0B5
S1134E608022A389019D1343A381B369002B02D13E
S1134E70300000F021F9009B012B03D1A389009A93
S1134E801A43A2810823A289276013402761656120
S1134E90181E0CD001231A400023101E984204D07F
S1134EA06D42A360A561180005E0A56003E0A3605E
S1134EB001E00120404205B0F0BDC0469000002052
S1134EC03057000050570000705700005CF3FFFF9C
S1134ED0F7B58A8905000C0013075AD44B68002BD8
S1134EE002DC0B6C002B19DDE76A002F16D00023BF
S1134EF02E682B6080235B011A4001D0606D14E0A2
S1134F000123216A2800B847431C0ED12B68002BCB
S1134F100BD01D2B01D0162B02D12E6000205AE09D
S1134F204022A3891343A38155E0A3895B0706D5D7
S1134F306368C01A636B002B01D0236CC01A002372
S1134F400200216A2800E76AB847A389421C06D1F7
S1134F5029681D293AD8204ACA40D20736D50022EA
S1134F60626022692260DB0405D5431C02D12B68F0
S1134F70002B00D16065616B2E600029CED0230028
S1134F804433994202D0280000F05AF900206063AB
S1134F9021E00F69002FC1D00B680F60DB1B019368
S1134FA00023920700D14B69A36003E0019B3F18E3
S1134FB01B1A0193019B002BB0DD019B3A00216A6F
S1134FC02800A66AB0470028F0DCA389402201200B
S1134FD01343A3814042FEBD010040200B6970B51C
S1134FE005000C00002B01D100201CE0002804D097
S1134FF08369002B01D100F05FF80B4B9C4201D177
S11350006C6808E0094B9C4201D1AC6803E0084B92
S11350109C4200D1EC680C22A35E002BE4D021005A
S11350202800FFF755FF70BD3057000050570000AF
S11350307057000010B5024900F0B0F810BDC0462A
S1135040DD4F0000002310B504000360436083605B
S113505081814366C281036143618361190008222F
S11350605C30FFF774FE054B24626362044BA36259
S1135070044BE362044B236310BDC0469D53000000
S1135080C5530000FD5300002954000070B5682585
S11350904B1E5D430E002900743100F017F9041E05
S11350A008D000212A00016046600C30A0606832FC
S11350B0FFF74DFE200070BD836913B50400002B7B
S11350C028D18364C3640365134B144A1B6882624A
S11350D00193984201D101238361200000F020F85C
S11350E06060200000F01CF8A060200000F018F8B8
S11350F00022E06004216068FFF7A4FF0122092177
S1135100A068FFF79FFF02221221E068FFF79AFFD1
S11351100123A36113BDC0462C5700003550000085
S1135120F8B51D4B06001D68AB69002B02D12800A1
S1135130FFF7C2FF4835AC686B68013B05D40C220D
S1135140A75E002F10D06834F7E72B68002B01D03E
S11351502D68F0E704213000FFF798FF286000284D
S1135160F6D10C23336016E0012320005B42E38177
S11351700233A38167662760A76067602761676160
S1135180A7615C3008223900FFF7E1FD2000676366
S1135190A763A764E764F8BD2C570000F7B50400C3
S11351A00700002601914834002C16D06368A568D6
S11351B00093009B013B00930DD4AB89012B08D9CC
S11351C00E22AB5E013304D029003800019B9847BE
S11351D006436835EDE72468E6E73000FEBD0000CD
S11351E070B50E001D000E23C95E90B01400002996
S11351F006DA00232B60B3891B060FD540230FE08A
S113520001AA00F03DF90028F3DBF023029A1B0207
S11352101340054A9B185A4253412B608023DB00FC
S11352200020236010B070BD00E0FFFF10B5034BF9
S11352300100186800F04AF810BDC0469000002034
S113524030B500293ED004390B68002B00DAC918A8
S11352501D4A13681400002B02D14B60116031E029
S11352608B420DD90A688818834203D118685B6899
S113527082180A604B60216024E08A4203D813003C
S11352805A68002AF9D11D685C198C420BD109684F
S1135290691858181960824214D11068526841186C
S11352A019605A600EE08C4202D90C23036009E0B5
S11352B008680C18A24203D11468526820180860C8
S11352C04A60596030BDC04684020020032370B593
S11352D0CD1C9D43083506000C2D01D20C2505E09C
S11352E0002D03DA0C230020336040E0A942F9D8F2
S11352F01F4B1C681A002100002913D00B685B1B8C
S11353000DD40B2B02D90B60CC181EE08C4202D1B9
S1135310636813601AE04B6863600C0016E00C00CD
S11353204968E9E7134C2368002B03D1300000F0EF
S113533023F820602900300000F01EF8431CD1D06F
S11353400323C41C9C43A0420AD1256020000722E9
S11353500B30231D9043C31A09D05A42E25006E091
S1135360211A300000F008F8431CEED1BAE770BDF2
S11353708402002080020020002370B5064C050042
S113538008002360FEF7A8FC431C03D12368002B0C
S113539000D02B6070BDC046E405002070B50C0041
S11353A00E25495F00F092F8002803DB636D1B189B
S11353B0636503E0A289024B1340A38170BDC0461C
S11353C0FFEFFFFFF8B51F008B8905000C001600E6
S11353D0DB0505D50E23C95E0022022300F062F826
S11353E0A289054B28001340A38132000E23E15EFD
S11353F03B0000F01FF8F8BDFFEFFFFF70B50C0095
S11354000E25495F00F04EF8A389421C03D1054ADA
S11354101340A38104E0802252011343A3816065F9
S113542070BDC046FFEFFFFF10B50E23C95E00F04C
S113543015F810BD70B50500080011000022064CD7
S113544022601A00FEF720FC431C03D12368002BC2
S113545000D02B6070BDC046E4050020002370B569
S1135460064C050008002360FEF748FC431C03D1EA
S11354702368002B00D02B6070BDC046E4050020DB
S1135480002370B5064C0500080011002360FEF7E8
S113549039FC431C03D12368002B00D02B6070BD62
S11354A0E405002070B50500080011000022064C38
S11354B022601A00FEF72CFC431C03D12368002B46
S11354C000D02B6070BDC046E405002070B5050017
S11354D0080011000022064C22601A00FEF7B4FBFB
S11354E0431C03D12368002B00D02B6070BDC04641
S11354F0E4050020536563757265642000000000B4
S113550042726F616463617374205061636B65748C
S113551020000000556E6963617374205061636BF1
S1135520657420002066726F6D2000003A20000030
S11355305A160000321700005018000050180000DE
S11355405018000050180000E61600005018000023
S113555050180000501800005018000050180000A7
S11355605018000050180000501800005018000097
S1135570BE17000006180000501800005018000064
S11355805018000050180000EE1700000000004200
S11355900004004200080042000C004200100042D7
S11355A00004004308090A0B0C0D00001A30000027
S11355B0163000001630000078300000783000000B
S11355C0303000002030000036300000663000002B
S11355D088310000683100006831000002320000A8
S11355E07A310000963100006C310000A4310000D3
S11355F0E6310000403200008232000082320000B6
S113560082320000323200004E32000024320000A8
S11356105C32000072320000EE380000F8380000FE
S1135620023900000C390000163900004839000026
S1135630523900005C3900006639000070390000FE
S11356400020004200240042000800431B1B1D00F0
S1135650020000000001000002000000000200003F
S11356600300000004000000B2B2B22020B2B2B2C3
S1135670B20D0AB22020B220B22020200D0AB2209E
S113568020B220B2B2B2B20D0AB22020B220B220AF
S113569020200D0AB2B2B22020B2B2B2B20D0A205A
S11356A020202020202020200D0A000020B22020CD
S11356B020B22020B220B22020202020B220B20D1F
S11356C00AB220B220B220B2202020B22020B22080
S11356D020B220200D0AB22020B22020B220B22015
S11356E0B22020B22020B220B20D0AB22020B22073
S11356F020B220B22020B220B220B22020B20D0A63
S1135700B22020B22020B220B2202020B220B22029
S11357102020B20D0A20202020202020202020201C
S113572020202020202020200D0A430030000020CB
S11357300000000000000000000000000000000065
S11357400000000000000000000000000000000055
S11357500000000000000000000000000000000045
S11357600000000000000000000000000000000035
S11357700000000000000000000000000000000025
S11357800000000000000000000000000000000015
S1135790F8B5C046F8BC08BC9E467047DD00000062
S11357A0F8B5C046F8BC08BC9E467047B50000007A
S11357B03031323334353637383941424344454643
S11357C0000102030405060708090A0B0C0D0E0F5D
S11357D0FF03020008000000401F00000100000059
S11357E000000000305700005057000070570000C0
S11357F000000000000000000000000000000000A5
S11358002A57000000000000000000000000000013
S11358100000000000000000000000000000000084
S11358200000000000000000000000000000000074
S11358300000000000000000000000000000000064
S10758403000002010
S9033BA120
