S0160000415050535F57534E5F44454D4F392E73726563C6
S21400000050470020E97501007D7601007D760100ED
S21400001000000000000000000000000000000000DB
S2140000200000000000000000000000007D760100D7
S21400003000000000000000007D7601007D760100D3
S2140000407D760100E96D000011660000BD2B010001
S2140000507D7601007D7601007D7601007D760100CB
S214000060114501002945010041450100594501009F
S21400007071450100894501007D7601007D7601000D
S2140000807D760100896D01009D6D01000000000075
S21400009000000000B16D01007D7601007D76010054
S2140000A0000000007D760100000000000000000057
S2140000B00000000010B5064C2378002B07D1054B36
S2140000C0002B02D0044800E000BF0123237010BDBF
S2140000D0A0060020000000007CF40100084B10B5CC
S2140000E0002B03D00749084800E000BF0748036814
S2140000F0002B00D110BD064B002BFBD09847F9E72C
S21400010000000000A40600207CF401007CF401003E
S2140001100000000080B584B000AF0200FB1D1A701E
S2140001200F23FB18FA1D1278D2091A700E23FB183B
S214000130FA1D127852091A700D4BBB600F23FB187C
S2140001401B78002B0FD10F23FB181B789B00102267
S2140001509446BC446344083B1A680E23FB181B787D
S214000160DB01D31800E000231800BD4604B080BDB4
S2140001700028004080B582B000AF0200FB1D1A7058
S214000180FB1D1B781800034B984703001800BD465C
S21400019002B080BD1501000080B582B000AF786067
S2140001A07B6800221A707B6801225A707B680022E6
S2140001B09A70C046BD4602B080BD000080B584B0CF
S2140001C000AF0200FB1D1A70BB1D0A1C1A70FB1D37
S2140001D01B7818000D4B98470300FB60FB1D1B782F
S2140001E01F22134001229A401300BB60BB1D1B78E0
S2140001F0002B03D0FB68BA689A6102E0FB68BA6815
S2140002005A61C046BD4604B080BDC04675010000B8
S21400021080B500AF044B01221A70BFF35F8F62B641
S214000220C046BD4680BDC046B805002080B500AFBC
S214000230044B1B68002B02D0024B1B689847C04635
S214000240BD4680BDBC06002080B582B000AF3B1D19
S21400025018000C4B98473B1D01221A703B1D1900D5
S2140002600D20094B98473B1D19001720064B984751
S2140002703B1D19001C20044B9847C046BD4602B0E3
S21400028080BDC046990100000131010080B500AF75
S2140002900C4B00221A600C4B98470C4B1B68012233
S2140002A0134004D0094B1B680222134001D1084BAF
S2140002B09847084B9847084B984700231800BD46B8
S2140002C080BDC046BC0600204902000010E000E0E9
S2140002D075260100DD0200001102000080B500AFA7
S2140002E0002117200C4B984700210D200A4B9847F9
S2140002F064200A4B984701211720074B98470A208D
S214000300064B984701210D20034B98470A20034BC4
S2140003109847C046BD4680BDBD01000021030000D1
S21400032080B582B000AF786002E00120054B9847A8
S2140003307B685A1E7A60002BF7D1C046BD4602B0D5
S21400034080BDC046FD26010080B586B000AF78604F
S214000350194B7A681A600C23FB181800174B98473D
S2140003600C23FB1816221A600C23FB1800225A6076
S2140003700C23FB1801221A720C23FB1800225A7257
S2140003800C23FB1800229A720C23FB180222DA7246
S2140003900C23FB1819000620094B9847094B00222E
S2140003A006211800084B984700210620074B98475F
S2140003B0C046BD4606B080BDBC060020912F010099
S2140003C0C52F01002D020000C92A01002D2B0100B7
S2140003D080B582B000AF0200FB1D1A70FB1D1B78B3
S2140003E0002B04D000210620054B984703E000218F
S2140003F00620044B9847C046BD4602B080BDC046A6
S2140004002D2B0100752B010080B584B000AF0200D3
S214000410FB1D1A700F23FB18FA1D1278D2091A70EA
S2140004200E23FB18FA1D127852091A700D4BBB608A
S2140004300F23FB181B78002B0FD10F23FB181B78FC
S2140004409B0010229446BC446344083B1A680E2363
S214000450FB181B78DB01D31800E000231800BD460C
S21400046004B080BD0028004080B582B000AF020016
S214000470FB1D1A70FB1D1B781800034B98470300E2
S2140004801800BD4602B080BD0904000080B582B0E9
S21400049000AF78607B6800221A707B6801225A7071
S2140004A07B6800229A70C046BD4602B080BD000040
S2140004B080B584B000AF0200FB1D1A70BB1D0A1C7D
S2140004C01A70FB1D1B7818000D4B98470300FB6045
S2140004D0FB1D1B781F22134001229A401300BB60AD
S2140004E0BB1D1B78002B03D0FB68BA689A6102E03C
S2140004F0FB68BA685A61C046BD4604B080BDC046B7
S2140005006904000080B584B000AF78607B681B6823
S214000510FB60FB68DB695A1E9341DBB21800BD46E0
S21400052004B080BD80B582B000AF78607B680122E1
S2140005301A707B6800225A607B6800229A607B688B
S214000540C0229203DA607B6800221A747B6800225D
S2140005505A747B6801229A747B680122DA747B687D
S21400056000221A757B682422002199547B68183370
S2140005700C22002118000A4B98477B68094A9A61AA
S2140005807B6800229A627B680022DA627B6800221F
S2140005901A637B6800225A63C046BD4602B080BD1F
S2140005A0E9BA0100A086010080B582B000AF78608D
S2140005B07B680A221A707B6800225A707B680022C9
S2140005C09A70C046BD4602B080BD000080B584B0BB
S2140005D000AF786039603B681A787B681A703B68B1
S2140005E05A787B685A703B689A787B689A700C23B6
S2140005F0FB1818000B4B98470C23FB1801221A70A7
S2140006007B681B780C22BA1811001800064B984716
S2140006107B681B7801211800044B9847C046BD46EE
S21400062004B080BD8D04000001310100B10400005B
S21400063080B584B000AF78607B681B68FB60C046FE
S2140006407B681800064B9847031EF9D1FB681B68A9
S21400065002221A43FB681A60C046BD4604B080BD3D
S2140006600505000080B584B000AF78607B681B6825
S214000670FB60C0467B6818000A4B9847031EF9D1FA
S214000680FB688F221A75FB688F221A76FB681B6838
S214000690022293431A00FB681A60C046BD4604B0A7
S2140006A080BDC0460505000080B584B000AF786008
S2140006B07B681B68FB60FB681B7EDBB21A000223AC
S2140006C013405A1E9341DBB21800BD4604B080BDED
S2140006D080B584B000AF78607B681B68FB60FB6801
S2140006E01B7EDBB21A00012313405A1E9341DBB275
S2140006F01800BD4604B080BD80B584B000AF7860F9
S2140007007B681B68FB60FB681B7EDBB21A00042359
S21400071013405A1E9341DBB21800BD4604B080BD9C
S21400072080B584B000AF78600A00BB1C1A807B6876
S2140007301B68FB607B6818000A4B984703001A008A
S21400074001235340DBB2002B01D0052306E0BB1C7F
S2140007501B88DB05DA0DFB689A6200231800BD468D
S21400076004B080BDD106000080B584B000AF7860CC
S21400077039607B681B68BB607B6818001B4B98471A
S21400078003001A0001235340DBB2002B01D01023D4
S21400079027E00F23FB1800221A70BB685B8B9BB206
S2140007A01A000423134006D00F23FB181E221A70CB
S2140007B0BB6804225A837B689B79012B08D1BB68EF
S2140007C09B6A9BB2DB05DB0D9AB23B681A8005E09C
S2140007D0BB689B6ADBB29AB23B681A800F23FB1891
S2140007E01B781800BD4604B080BDC046F906000060
S2140007F080B586B000AFF860B960BB1D1A801323C1
S214000800FB1800221A701723FB1800221A701623F2
S214000810FB1800221A701423FB1800221A801023DB
S214000820FB1800221A80FB68002B07D11323FB1845
S214000830FB601723FB1801221A700DE0BB68002B23
S21400084007D11323FB18BB601623FB1801221A706E
S21400085002E006235B426AE03749384B0122180063
S214000860374B98474CE0FB681A781423FB181A801D
S214000870C046324B1800334B984703001A0001233A
S2140008805340DBB2002BF4D1C0461423FB181A8861
S2140008902A4B110018002C4B9847031EF5D1C04672
S2140008A0264B1800294B984703001A000123534093
S2140008B0DBB2002BF4D1C0461023FA181F4B1100F0
S2140008C01800234B9847031EF6D11023FB181B88ED
S2140008D0DAB2BB681A70BB1D1A88BB1D013A1A80B3
S2140008E01623FB181B78002B02D1BB680133BB60B4
S2140008F01723FB181B78002B02D1FB680133FB6023
S214000900BB1D1B88002BAED1C0460C4B1800114BEC
S214000910984703001A0001235340DBB2002BF4D1A2
S2140009200549064B00221800054B9847002318007F
S214000930BD4606B080BDC046841900208819002038
S214000940ED4D0100D106000021070000F906000069
S21400095069070000A906000080B592B000AF786075
S2140009604723FB1800221A700823FB181800294B8F
S21400097098470823FB1823221A700823FA18264BD8
S21400098011001800254B98470C23FB181800244B21
S21400099098470C23FB181800214B98470C23FB188C
S2140009A080225202DA600C23FB181E4A9A620C233D
S2140009B0FB1801225242DA620C23FB181A4A1A6309
S2140009C00C23FB18194A5A630C23FB1800221A75CD
S2140009D00C23FB18164A9A610C23FA181549164B75
S2140009E01800164B9847031E02D006235B420CE005
S2140009F0114B1800124B9847124B98470120124B88
S214000A0098474723FB181B785BB21800BD4612B008
S214000A1080BDC046A905000084190020CD05000051
S214000A2025050000030022000300360003003700FF
S214000A30001BB7000004004388190020D54C0100B5
S214000A4031060000DD0200002103000090B585B0ED
S214000A5000AF02003960FB1D1A700F23FB1800223E
S214000A601A70FB1D1B78032B0FD13B68BB60BB685D
S214000A701868BB685968BB681B890F22BC181A0027
S214000A80104B98470300237013E00F23FB18FF2238
S214000A901A700E23FF331A000B490C4B18000C4B30
S214000AA098470C4B18000C4B98470D200B4B98475B
S214000AB0C0460F23FB181B785BB21800BD4605B076
S214000AC090BDC046F1070000B0D0010088D00100FC
S214000AD049BC01009CD0010065BD01007DBC010041
S214000AE080B582B000AFFB1D00221A703B1D1800B7
S214000AF0094B98473B1D00221A703B1D00225A7076
S214000B00064B1800064B9847FB1D1B785BB2180077
S214000B10BD4602B080BDC0468D0400008819002086
S214000B206506000080B584B000AFF860B9607A60F2
S214000B307B68002B10D0BB681A78FB681A70FB68BD
S214000B400133FB60BB680133BB607B68013B7B60A5
S214000B507B68002BEFD100E0C046BD4604B080BDE8
S214000B6080B584B000AFF8607A600B23FB180A1CCF
S214000B701A707B68002B0ED0FB680B22BA1812780E
S214000B801A70FB680133FB607B68013B7B607B6807
S214000B90002BF1D100E0C046BD4604B080BD80B554
S214000BA084B000AF78600E23FB1800221A8009E09C
S214000BB00E23FB181A880E23FB1801321A807B6856
S214000BC001337B607B681B78002BF1D10E23FB186A
S214000BD01B881800BD4604B080BD000080B500AF7D
S214000BE0044BDB78DBB20133DAB2024BDA70C04674
S214000BF0BD4680BD9419002090B583B000AFFB1DA4
S214000C0000221A70144B00229A700120134B98474A
S214000C10FC1D3B00124A19001000124B98470300B7
S214000C202370FB1D1B785BB2002B0DD13B680222A4
S214000C3013433B603B68FC1D094A190010000A4B31
S214000C4098470300237000E0C046FB1D1B785BB28C
S214000C501800BD4603B090BD94190020D1030000D3
S214000C607010000095300000B930000080B582B0EA
S214000C7000AF3A60FB1D021C1A703B1D0A1C1A804E
S214000C80C046BD4602B080BD90B583B000AFFB1D28
S214000C9000221A70164B9B78DBB2002B03D0FB1D8C
S214000CA01B785BB21FE0124B5B78DBB2002B0ED1D9
S214000CB00F4B1B78DBB2002B09D0FC1D0D4B984761
S214000CC003002370FB1D1B785BB2002B07D1084B7B
S214000CD05B78DBB20133DAB2054B5A7000E0C046EF
S214000CE0FB1D1B785BB21800BD4603B090BDC04626
S214000CF094190020692B000080B500AF074B5B7885
S214000D00DBB2002B06D0054B5B78DBB2013BDAB2D8
S214000D10024B5A7000231800BD4680BD941900206F
S214000D2090B583B000AFFB1D00221A70104B5B78A5
S214000D30DBB2002B06D00E4B5B78DBB2013BDAB29F
S214000D400B4B5A700A4B5B78DBB2002B09D1084B71
S214000D501B78DBB2002B04D0FC1D064B9847030023
S214000D602370FB1D1B785BB21800BD4603B090BD18
S214000D7094190020912A000080B582B000AF7860F8
S214000D80094B282200211800084B9847084B1800EA
S214000D90084B9847084B19000320084B9847002338
S214000DA01800BD4602B080BD94190020610B0000FB
S214000DB0DD0B0000490300006D0C00003518000034
S214000DC090B589B000AF040008003A601900FB1D1A
S214000DD0221C1A70BB1D021C1A703B1D0A1C1A80AE
S214000DE01F23FB18FF221A70BB1D1B787F2213409F
S214000DF0DAB21823FB185A701823FB18FA1D12785B
S214000E001A701823FB1808225A803B6B002B11D04F
S214000E101823FB185B889AB23823F9183423FB187A
S214000E2009881B88CB189BB2D3189AB21823FB18D4
S214000E305A800AE01823FB185B889AB23B1D1B8871
S214000E40D3189AB21823FB185A801F23FC18B04BED
S214000E509847030023701F23FB181B785BB2002BF8
S214000E6000D027E100233B610E23FB1800221A80E6
S214000E7000237B61FB1D1A787B6913437B61BB1DD6
S214000E801B781A027B6913437B611823FB185B8867
S214000E909BB21A047B6913437B617B691F22BC18D3
S214000EA09C4A190010009C4B9847030023701F2390
S214000EB0FB181B785BB2002B00D016E100237B6189
S214000EC07B69022213437B617B691F22BC18934A0D
S214000ED019001000904B9847030023701F23FB183F
S214000EE01B785BB2002B00D001E100233B610E2390
S214000EF0FB1800221A804FE01F23FC181423FB184F
S214000F00864A19001000864B9847030023701F235B
S214000F10FB181B785BB2002B46D10E23FB181B88F0
S214000F209AB2F423FF339A4215D90E23FB181B8876
S214000F309AB2FA235B009A420AD87A4B18007A4B88
S214000F4098477A4B18007A4B98470D20794B98476C
S214000F500120794B98477B690222134013D11F2347
S214000F60FC181023FB18754A190010006C4B9847A4
S214000F70030023701F23FB181B785BB2002B15D0D1
S214000F8000233B61BAE00E23FB181B889BB201339B
S214000F909AB20E23FB181A800E23FB181B889BB2EE
S214000FA0674A9342A8D902E0C04600E0C0463B69C3
S214000FB0002B00D173E03B69BB601823FB185B88ED
S214000FC09AB21823FB185A80BB681F22BC18182236
S214000FD0B918082218005B4B9847030023701F239C
S214000FE0FB181B785BB2002B00D082E0BB6808338E
S214000FF0BB603B68002B15D0B8683B1D1A881F23C2
S214001000FC183B6819004F4B9847030023701F23BA
S214001010FB181B785BB2002B6DD13B1D1A88BB6892
S214001020D318BB603B6B002B21D03823FB181A88E3
S2140010303B1D1B88D31A1A00BB68D318BB60B86860
S2140010403423FB181A881F23FC183B6B19003D4BF2
S2140010509847030023701F23FB181B785BB2002BF6
S2140010604BD13423FB181A88BB68D318BB603B6986
S2140010709B007B617B69022213437B617B691F2295
S214001080BC18314A19001000234B98470300237000
S2140010901F23FB181B785BB2002B1BD02EE01F23F0
S2140010A0FC182A4B9847030023701F23FB18FD22C9
S2140010B01A7025E09823FF331A002549254B18009F
S2140010C0194B9847244B1800194B98470D20194B7D
S2140010D0984715E01F23FC181C4B98470300237005
S2140010E01F23FB181B785BB20EE0C04606E0C04626
S2140010F004E0C04602E0C04600E0C046174B9847F2
S2140011001F23FB181B785BB21800BD4609B090BDC4
S214001110890C00008C100000B93000007810000028
S21400112095300000C0D0010049BC0100CCD00100C1
S21400113065BD01007DBC0100210300000004150010
S214001140E7030000013200006C100000210D0000D3
S214001150D4D30100DCD00100F0D00100F90C00006F
S21400116090B587B002AF0F23FB1800221A700F232A
S214001170FC180823FB18D84A19001000D74B9847CC
S214001180030023700F23FB181B785BB2002B00D0E4
S21400119015E2BB680122134000D1FCE10020D04BD1
S2140011A09847BB6801229343BB60BB680F22BC18FC
S2140011B0C94A19001000CB4B9847030023700F2331
S2140011C0FB181B785BB2002B00D006E2C64B012250
S2140011D09A70BB689B089AB20C23FB181205120D76
S2140011E01A800C23FB181B88002B00D1C1E10023BA
S2140011F03B600F23FC183B00BC4A19001000B74B9D
S2140012009847030023700F23FB181B785BB2002B54
S21400121011D0E4235A00B649B64B1800B64B98478F
S214001220B64B1800B64B98470D20B64B9847012092
S214001230AB4B9847D2E13A68AB4B5A600C23FB188D
S2140012401A88A94B9A603B680F22BC18391D0422E5
S2140012501800AD4B9847030023703B1D5B889AB27D
S2140012603B1D5A800F23FB181B785BB2002B11D056
S214001270E9235A009E499F4B18009F4B9847A34B63
S21400128018009F4B98470D209E4B98470120944B83
S2140012909847A3E13B1D5B889BB20C22BA181288C4
S2140012A09A422ED00C23FB181B883A1D528892B205
S2140012B09B1A042B25DDDC23FF331A008C498D4B4B
S2140012C018008D4B98470C23FB1819883B1D5B882C
S2140012D09BB21A003B1D1B78DBB21C003B1D5B78E3
S2140012E0DBB28B4800932300834CA0470D20854B30
S2140012F0984701207A4B98470F23FB18FA221A705A
S2140013006CE13B1D1B78DBB2012B21D1764BDB68F1
S214001310002B0DD0744BDB683A1D5278D0B23A1DC4
S214001320528892B2083A91B23A6808329847FFE07B
S214001330E823FF331A006E496E4B18006E4B984731
S214001340744B18006E4B98470D206E4B9847EFE095
S2140013503B1D1B78DBB2022B21D1634B1B69002B94
S2140013600DD0614B1B693A1D5278D0B23A1D528897
S21400137092B2083A91B23A6808329847D8E0F02319
S214001380FF331A005A495B4B18005B4B9847624B79
S21400139018005B4B98470D205A4B9847C8E03B1DFA
S2140013A01B78DBB2042B21D14F4B5B69002B0DD091
S2140013B04D4B5B693A1D5278D0B23A1D528892B2B4
S2140013C0083A91B23A6808329847B1E0F823FF33FA
S2140013D01A004749474B1800474B98474F4B180091
S2140013E0474B98470D20474B9847A1E03B1D1B787D
S2140013F0DBB2062B20D13C4B1B6A002B0DD03A4BA0
S2140014001B6A3A1D5278D0B23A1D528892B2083AF8
S21400141091B23A68083298478AE080239A003449A5
S214001420344B1800344B98473D4B1800344B9847C4
S2140014300D20344B98477BE03B1D1B78DBB2072B17
S2140014401FD1294B9B69002B0DD0274B9B693A1D5A
S2140014505278D0B23A1D528892B2083A91B23A689F
S2140014600832984764E02F4A2149224B1800224B45
S21400147098472D4B1800224B98470D20214B984734
S21400148056E03B1D1B78DBB2052B11D1164B5B6A71
S214001490002B4DD0144B5B6A3A1D5278D0B23A1DE1
S2140014A0528892B2083A91B23A68083298473FE0BA
S2140014B084239A000E490F4B18000F4B98471B4B7E
S2140014C018000F4B98470D200E4B98470F23FB181C
S2140014D0FA221A7082E0C0467010000095300000B4
S2140014E0D1030000B93000009419002084100000D9
S2140014F0E0D30100DCD0010049BC01000CD10100A2
S21400150065BD01007DBC01000931000030D101003D
S21400151048D1010088D10100A8D10100CCD101003A
S214001520ECD101000702000010D2010034D2010005
S2140015302E4B9B78DBB2002B50D02D4A2D492E4BDC
S21400154018002E4B98473B1D1B78DBB219003B1D3D
S2140015505B78DBB21A002A4B1800284B98470D2000
S214001560284B98470F23FC18274B984703002370F7
S21400157034E0264A1F49204B1800204B9847244B3E
S2140015801800244B98470D201E4B98470F23FB1836
S214001590FE221A7022E0204A1649174B1800174BF5
S2140015A09847BA681D4B11001800144B98470D2039
S2140015B0144B98470F23FB18F4221A700EE0184AB3
S2140015C00C490D4B18000D4B9847164B1800114B45
S2140015D098470D200B4B984700E0C0460F23FB189A
S2140015E01B785BB21800BD4605B090BD941900206C
S2140015F016020000E0D30100DCD0010049BC010067
S2140016004CD201007DBC0100F90B00001D02000059
S21400161078D2010065BD0100250200008CD20100D1
S2140016202E020000A8D2010090B583B000AFFB1DCB
S21400163000221A7023E0184BDB78DBB2013BDAB2EB
S214001640154BDA70FC1D154B984703002370FB1DE5
S2140016501B785BB2002B00D111E0114A1149124BE6
S2140016601800124B9847FB1D00229A56104B11008B
S21400167018000E4B98470D200E4B9847E2E7064B96
S214001680DB78DBB2002BD6D1FB1D1B785BB21800D3
S214001690BD4603B090BDC0469419002061110000FD
S2140016A04B020000E8D30100DCD0010049BC010079
S2140016B0CCD201007DBC010090B587B000AFF860C9
S2140016C0B9601900BB1D1A807B1D0A1C1A701723EF
S2140016D0FB1800221A70FB68002B06D0BB68002B94
S2140016E003D0BB1D1B88002B1DD17B1D1B78002B38
S2140016F006D01723FC18434B98470300237079E065
S2140017001723FB18F4221A709B239A003E493F4B7E
S21400171018003F4B98473F4B18003F4B98470D200B
S2140017203E4B984766E0BB1D1A883D4B9B689A4225
S21400173016D91723FB18F4221A709D239A003249F3
S214001740324B1800324B9847BB1D1988344B9A68A9
S214001750344B18002E4B98470D20304B984749E0E5
S2140017602F4B5A68FB689A420AD8BB1D1A88FB683A
S214001770D2182B4B59682A4B9B68CB189A4211D922
S2140017801723FB18F4221A70274A1F491F4B18000C
S2140017901F4B9847254B18001F4B98470D201F4B93
S2140017A0984727E0BB1D1A881723FC18B968FB6802
S2140017B018001F4B9847030023701723FB181B784D
S2140017C05BB2002B15D1164B5A68154B9B68D21886
S2140017D0BB1D1988FB68CB189A4203D07B1D1B786B
S2140017E0002B07D01723FC18064B984703002370DE
S2140017F000E0C0461723FB181B785BB21800BD46F6
S21400180007B090BDF90B0000F8D30100DCD0010052
S21400181049BC0100FCD2010065BD01007DBC010091
S214001820941900201CD301007A02000064D3010042
S2140018300931000080B584B000AF02003960FB1D9E
S2140018401A700F23FB1800221A70FB1D1B78072B3B
S21400185020D89A001E4BD3181B689F461D4B3A682B
S2140018601A612CE01B4B3A68DA6028E0194B3A689C
S2140018705A6124E0174B3A68DA6120E0154B3A6863
S2140018801A621CE0134B3A689A6118E0114B3A68EA
S2140018905A6214E0104A1149114B1800114B984730
S2140018A0FB1D1A78104B110018000E4B98470D20A0
S2140018B00E4B98470F23FB18F4221A70C0460F23CE
S2140018C0FB181B785BB21800BD4604B080BDC0464E
S2140018D0B4D3010094190020B202000004D4010021
S2140018E0DCD0010049BC0100A8D301007DBC01008A
S2140018F0B0B5A0B000AF3A60FB1D021C1A703B1DCD
S2140019000A1C1A807F23FB1800221A70FB1D1B7806
S214001910012B02D0062B22D041E07F23FC1808239F
S214001920F918386800237022284DA8470300237052
S2140019307F23FB181B785BB2002B2DD1244B1B6832
S214001940002B29D03B6870331A00224B1A60204BBC
S2140019501B680822BA181100012098471CE07F2354
S214001960FC187823F918386800230422174DA84776
S214001970030023707F23FB181B785BB2002B0DD16E
S214001980134B1B68002B09D0114B1B687822BA1822
S21400199011000620984701E0C04600E0C0467F23BD
S2140019A0FB181B785BB2002B0CD00B490B4B6B2241
S2140019B018000B4B98470B4B18000B4B98470D2005
S2140019C00A4B9847C046BD4620B0B0BDB9160000C9
S2140019D0C0060020C406002074D4010014D4010000
S2140019E049BC010028D4010065BD01007DBC010092
S2140019F0B0B58AB004AFF860B960BB1D1A80172373
S214001A00FB1800221A701723FC18FA68702302933A
S214001A10BB1D1B880193BB680093702382210520A1
S214001A20054DA847030023701723FB181B785BB2ED
S214001A301800BD4606B0B0BDC10D000090B587B019
S214001A4000AFF860B9607A603B601723FB1801228C
S214001A501A701623FB1800221A70774B1B68002B8F
S214001A6002D10C235B42E3E0734B1868F96800234D
S214001A700222724CA047031E00D0B9E06E4B1B68D2
S214001A809A1C6D4B1A606C4B18681023F9180023CB
S214001A9002226A4CA047031E00D0ABE0664B1B68D0
S214001AA09A1C654B1A60644B18681423F9180023B7
S214001AB00222624CA047031E00D09DE05E4B1B68CE
S214001AC09A1C5D4B1A605C4B18681223F9180023A9
S214001AD002225A4CA047031E00D08FE0564B1B68CC
S214001AE09A1C554B1A60FB681B881B021AB2FB68CF
S214001AF01B881B0A9BB21BB213431BB29AB2FB682D
S214001B001A801023FB181B881B021AB21023FB181E
S214001B101B881B0A9BB21BB213431BB299B23B68CD
S214001B20402299521423FB181B881B021AB2142356
S214001B30FB181B881B0A9BB21BB213431BB29AB23C
S214001B401423FB181A801223FB181B881B021AB2D8
S214001B501223FB181B881B0A9BB21BB213431BB233
S214001B609AB21223FB181A80334B186839683B6800
S214001B7040229B5ADB189AB20023304CA047031E23
S214001B803ED13B6840229B5A5B001A002A4B1B68DA
S214001B90D218294B1A60284B18681423FB181A8889
S214001BA0B9680023254CA047031E2BD11423FB182D
S214001BB01B881A00204B1B68D2181F4B1A601E4B3E
S214001BC018681223FB181A88796800231B4CA04754
S214001BD0031E19D11223FB181B881A00164B1B680C
S214001BE0D218154B1A601723FB1800221A700CE047
S214001BF0C0460AE0C04608E0C04606E0C04604E02C
S214001C00C04602E0C04600E0C0461723FB181B781B
S214001C10002B09D01623FB18F4221A700123002289
S214001C2000210020054CA0471623FB181B785BB24A
S214001C301800BD4607B090BDC4060020B9160000C7
S214001C4090B585B000AF78600A00BB1C1A800F23E1
S214001C50FB1801221A700E23FB1800221A70174B6D
S214001C601B68002B02D10C235B4222E0134B186842
S214001C70BB1C1A8879680023114CA047031E04D1A8
S214001C800F23FB1800221A7000E0C0460F23FB1833
S214001C901B78002B09D00E23FB18F4221A700123A0
S214001CA0002200210020064CA0470E23FB181B78BC
S214001CB05BB21800BD4605B090BDC046C406002005
S214001CC0B916000080B500AF024B00221A60C0466D
S214001CD0BD4680BDC4060020B0B588B004AF7860AD
S214001CE00F23FB1800221A707B68BB600F23FC18BA
S214001CF00823FA180023029300230193002300937D
S214001D00042305210520064DA847030023700F2352
S214001D10FB181B785BB21800BD4604B0B0BDC046C9
S214001D20C10D000090B585B000AF78600F23FB189A
S214001D3000221A70184B7A681A60184B00221A6034
S214001D400F23FC18164B19000520164B9847030066
S214001D5023700F23FB181B785BB2002B13D03023A5
S214001D60FF331A001049114B1800114B98470F23E8
S214001D70FB1800229A560F4B110018000C4B984780
S214001D800D200D4B98470F23FB181B785BB21800ED
S214001D90BD4605B090BDC046C0060020C406002063
S214001DA0F11800003518000080D4010014D401009A
S214001DB049BC01004CD401007DBC010090B5ADB01B
S214001DC002AF3A60FB1D021C1A703B1D0A1C1A80EB
S214001DD0FB1D1B782C2B16D19C23F9183868002382
S214001DE00422C64CA047031E00D0AAE1C44B1B68C1
S214001DF0002B00D1A5E1C24B1B689C22BA1811002B
S214001E002C2098479DE1FB1D1B781B2B16D1942395
S214001E10F918386800230822B84CA047031E00D0E3
S214001E208FE1B74B1B68002B00D18AE1B44B1B68CF
S214001E309422BA1811001B20984782E1FB1D1B78DC
S214001E40062B16D10823F918386801233322AB4C29
S214001E50A047031E00D074E1A94B1B68002B00D1DD
S214001E606FE1A74B1B680822BA1811000620984796
S214001E7067E1FB1D1B780E2B00D162E1FB1D1B7872
S214001E80322B16D18023F9183868002314229B4C75
S214001E90A047031E00D054E1994B1B68002B00D1CD
S214001EA04FE1974B1B688022BA18110032209847E2
S214001EB047E1FB1D1B782F2B1DD10823FB1864223E
S214001EC0002118008F4B98470823F918386800231C
S214001ED064228A4CA047031E00D032E1884B1B6860
S214001EE0002B00D12DE1864B1B680822BA18110082
S214001EF02F20984725E1FB1D1B78342B2ED17C2301
S214001F00F9183868002304227C4CA047031E00D032
S214001F1017E17D4B18007D4B9847FB6F1B0EDBB21D
S214001F201900FB6F1B0CDBB21A00FB6F1B0ADBB23F
S214001F301C00FB6FDBB2764800932300734CA0476F
S214001F400D20744B98476E4B1B68002B00D1F8E0B1
S214001F506B4B1B68002134209847F2E0FB1D1B7872
S214001F60112B1ED16C4B00221A707823F918386892
S214001F7000230422614CA047031E00D0E1E0782332
S214001F80FB181A78654B1A705D4B1B68002B00D146
S214001F90D7E05B4B1B687822BA18110011209847CF
S214001FA0CFE0FB1D1B78132B16D10823F9183868D1
S214001FB000232C22514CA047031E00D0C1E0504BFA
S214001FC01B68002B00D1BCE04D4B1B680822BA18DA
S214001FD0110013209847B4E0FB1D1B78042B16D184
S214001FE0A023F918386800230422444CA047031E97
S214001FF000D0A6E0424B1B68002B00D1A1E0404B6E
S2140020001B68A022BA1811000420984799E0FB1D0F
S2140020101B78652B16D1A023F918386800230422F4
S214002020364CA047031E00D08BE0354B1B68002BB8
S21400203000D186E0324B1B68A022BA18110065203A
S21400204098477EE0FB1D1B78092B16D10823F9184C
S214002050386801236422294CA047031E00D070E094
S214002060274B1B68002B00D16BE0254B1B68082212
S214002070BA1811000920984763E0FB1D1B782A2B2D
S21400208014D17423F9183868012304221B4CA04786
S214002090031E56D11A4B1B68002B52D0184B1B68D8
S2140020A07422BA1811002A2098474AE0FB1D1B78B4
S2140020B0202B35D16C23F9183868002308220F4CE2
S2140020C0A047031E3DD13B68083318006C23FB185D
S2140020D019686C23FB189A880123084CA047031E36
S2140020E02FD1074B1B68002B2BD0054B1B686C228F
S2140020F0BA1811002020984723E0C046B916000001
S214002100CC060020610B000090D4010049BC010001
S2140021109CD401007DBC0100C9060020C806002032
S21400212092235A0009490A4B18000A4B9847FB1D90
S2140021301A78094B11001800064B98470D20074BDC
S2140021409847C046BD462BB090BDC04644D8010057
S214002150BCD4010049BC0100D0D401007DBC010004
S21400216090B591B002AF78603723FB1800221A7042
S2140021700B23FB1801221A707B68002B04D137232F
S214002180FB18F4221A70ADE07B681A68594B1A6087
S214002190594B00221A703723FC180B23FB18180023
S2140021A0564B9847030023703723FB181B785BB207
S2140021B0002B00D093E03723FC180020504B9847A4
S2140021C0030023703723FB181B785BB2002B00D06C
S2140021D080E04C4B190001204B4B98473723FC18E6
S2140021E00C23FB181800494B984703002370484BF4
S2140021F01800484B98470C23FB181B7919000C2332
S214002200FB185B791A000C23FB189B791C000C2327
S214002210FB181B8C4048009323003E4CA0470D2023
S2140022203E4B98473A4B18003A4B98470C23FB18FE
S21400223016331A000C23FB180A331900384B180003
S214002240344B98470D20354B9847314B1800314B8F
S21400225098470C23FB18DB7919000C23FB181B7A14
S2140022601A000C23FB185B7A2E482A4CA0470D2038
S2140022702A4B9847264B1800264B98472A48042393
S21400228005221321234CA0470D20244B9847204BB2
S2140022901800204B9847254A2549264B18001D4B09
S2140022A098470D201D4B98473723FB181B785BB2C9
S2140022B00D3316D1E823FF331A001F491F4B1800B1
S2140022C0144B98471E4B18001E4B98470D20134B77
S2140022D0984706E0C04600201B4B984702E0C046E1
S2140022E000E0C0463723FB181B785BB21800BD46DB
S2140022F00FB090BDCC060020C9060020993400001F
S214002300790D0000BD1D000035180000CD3200001C
S21400231090D4010049BC010024D601007DBC010018
S2140023204CD6010068D601008CD60100A4D6010068
S214002330B0D60100BCD6010050D80100BCD40100C4
S214002340D4D6010065BD01002D36000080B582B0F0
S21400235000AF7860034B984703001800BD4602B0F4
S21400236080BDC0462916000090B587B002AFF86061
S214002370080011007B600B23FB18021C1A700A234E
S214002380FB180A1C1A707C680A23FB181A780B23A1
S214002390FB181978F868002301932023FB181B8884
S2140023A000932300034CA04703001800BD4605B069
S2140023B090BDC046B9230000B0B5AAB004AFF8601F
S2140023C0080011007B600B23FB18021C1A700A23FE
S2140023D0FB180A1C1A709723FB1800221A700A238F
S2140023E0FB181B78012B00D183E07B68002B11D1F2
S2140023F0DB4ADC49DC4B1800DC4B9847DC4B18000A
S214002400DC4B98470D20DC4B98479723FB18F422AB
S2140024101A70F5E10A23FB181B78022B69D17B683A
S2140024201800D64B98470300402B62D19623FB1822
S21400243000221A707B689022BA18136054E0962324
S214002440FB181B789022BA181268D3181B782F2B0B
S21400245031D99623FB181B789022BA181268D31825
S2140024601B78392B09D99623FB181B789022BA18AB
S2140024701268D3181B78402B1DD99623FB181B789F
S2140024809022BA181268D3181B78462B09D99623BF
S214002490FB181B789022BA181268D3181B78602B8A
S2140024A009D99623FB181B789022BA181268D318FD
S2140024B01B78662B11D9B24AAA49AB4B1800AB4B16
S2140024C09847B04B1800AB4B98470D20AA4B98473F
S2140024D09723FB18F4221A7092E19623FB181A78B9
S2140024E09623FB1801321A709623FB181B783F2B95
S2140024F0A5D90B23FB181B78002B04D00B23FB1845
S2140025001B78202B11D9A04A9649974B1800974B59
S21400251098479E4B1800974B98470D20964B984728
S2140025209723FB18F4221A706AE1A823FB181B886D
S214002530002B04D0A823FB181B880E2B17D9A82322
S214002540FB181B88FF2B12D08D239A008549864BDB
S2140025501800864B98478E4B1800864B98470D20E0
S214002560854B98479723FB18F4221A7048E10B23F3
S214002570FB181A78F9681423FB1846331800854BA5
S21400258098470B23FB181B781422BA184621D31839
S2140025905B1800221A701423FB18A822BA184421CC
S2140025A012885A52AC23FB181B785A1E9341DBB292
S2140025B019001423FB18672299541423FB188C2245
S2140025C0BA1813608C23FB181B680A22BA1841211C
S2140025D012785A540A23FB181B78032B00D07AE093
S2140025E07B688822BA1813608C23FB181B68842229
S2140025F0BA1813608823FB181B681B78013BDAB2F5
S2140026008423FB181B681A708423FB181B681B782E
S214002610032B17D9604A5349534B1800534B98471E
S2140026208423FB181B681B781A005C4B11001800EB
S2140026304E4B98470D20504B98479723FB18F42293
S2140026401A70DDE08823FB181B685B78013BDAB262
S2140026508423FB181B685A708423FB181B685B785E
S2140026600A2B1DD08423FB181B685B781A2B17D007
S2140026704B4A3C493C4B18003C4B98478423FB187C
S2140026801B685B781A00474B11001800374B9847B9
S2140026900D20394B98479723FB18F4221A70AFE0A9
S2140026A08423FB181B68981C8823FB181B68991C3E
S2140026B08823FB181B685B781A00364B98478823DC
S2140026C0FB181B685B781A008423FB181B689B1892
S2140026D000229A7083E00A23FB181B78022B30D165
S2140026E08223FC187B681800244B9847030023803D
S2140026F08223FB181B88002B04D08223FB181B8820
S214002700402B11D9284A1749174B1800174B9847E2
S214002710264B1800174B98470D20174B98479723C2
S214002720FB18F4221A706BE08C23FB1818688223BF
S214002730FB181B8801331A007B681900154B984755
S2140027404DE00A23FB181B78042B31D18C23FB1891
S2140027501B6879683E2218000E4B98473FE0C0463B
S2140027601502000060D80100BCD4010049BC01007D
S214002770F0D6010065BD01007DBC01009F0B000086
S2140027802102000004D701002B02000010D7010030
S21400279024D70100250B00004B02000030D70100B3
S2140027A0520200004CD701006102000068D7010009
S2140027B00A23FB181B78012B11D0154A1549164B16
S2140027C01800164B9847164B1800164B98470D20C6
S2140027D0154B98479723FB18F4221A7010E097239E
S2140027E0FC181423FA1800230293002301930023F5
S2140027F000936C23282101200C4DA847030023706A
S2140028009723FB181B785BB21800BD4626B0B0BDF8
S2140028107102000060D80100BCD4010049BC010070
S21400282084D7010065BD01007DBC0100C10D00001C
S21400283080B500AF00231800BD4680BD90B585B0BA
S21400284004AF002302930023019300230093002388
S21400285000221A210120034CA04703001800BD46A1
S21400286001B090BDC10D000090B587B000AF786094
S2140028701723FB1800221A707B683B613B69802295
S214002880520013433B613A69A5235B01110018000F
S214002890124B98473B69002B18D00023FB60172388
S2140028A0FC180C23FA18A5235B01110018000C4B2A
S2140028B09847030023701723FB181B785BB2002B86
S2140028C0E1D1FA683B699A4202D0DCE7C04600E0F4
S2140028D0C04600231800BD4607B090BDB9300000C2
S2140028E09530000090B583B000AF00233B60FB1D21
S2140028F000221A70FC1D3B00244A19001000244BCD
S214002900984703002370FB1D1B785BB2002B31D168
S2140029103B688022520013433B603B68FC1D1B4A09
S214002920190010001B4B984703002370FB1D1B78F3
S2140029305BB2002B20D1FC1D3A00D0235B011100B6
S2140029401800134B984703002370FB1D1B785BB2DF
S214002950002B13D13B688022520213433B603A6837
S214002960FC1DD0235B01110018000A4B984703009A
S214002970237004E0C04602E0C04600E0C046FB1DEF
S2140029801B785BB21800BD4603B090BD081400006B
S21400299095300000B930000080B582B000AF324BF1
S2140029A01B68002B59D1304A80235B0111001800A8
S2140029B02E4B9847031E04D02B4B00221A60002390
S2140029C04DE03B1D2A4A19001000284B9847031E6D
S2140029D004D0254B00221A60002340E0224B1B68DF
S2140029E0244A934206D17B68012B29D01E4B224AEB
S2140029F01A6025E01C4B1B68204A93420DD17B6869
S214002A00032B1DD07B68042B03D1174B1C4A1A607E
S214002A1016E0154B1B4A1A6012E0134B1B681A4A45
S214002A2093420DD1104AEC239B03110018000F4B64
S214002A309847031E04D00C4B00221A6000230EE0B9
S214002A40094B1B68114A1A40074B1A60064B1B6855
S214002A50A022D2021A43044B1A60034B1B681800CC
S214002A60BD4602B080BDC046D006002095300000AE
S214002A70F4130000A0021000A1021000B002100023
S214002A80B1021000B2021000F0001000FFFFF0FFCD
S214002A9090B583B000AFFB1D00221A70FC1D3B00F2
S214002AA0190010202E4B984703002370FB1D1B783F
S214002AB05BB2002B45D13B680122134000D0EDE706
S214002AC0C046FC1D3B0019000120254B984703001B
S214002AD02370FB1D1B785BB2002B34D13B680222AF
S214002AE0134010D03B68022293433B603B68FC1DBA
S214002AF0190001201B4B984703002370FB1D1B7811
S214002B005BB2002B21D1FC1D3B0019000B20144B9F
S214002B10984703002370FB1D1B785BB2002B16D171
S214002B203B680122134013D03B68012293433B606D
S214002B303B68FC1D19000B200A4B984703002370C6
S214002B4006E0C04604E0C04602E0C04600E0C046DC
S214002B50FB1D1B785BB21800BD4603B090BDC04697
S214002B6095300000B930000090B585B000AF0F2357
S214002B70FB1800221A7000237B6000233B600023B2
S214002B80BB600F23FC183B1D19000B204C4B9847CD
S214002B90030023700F23FB181B785BB2002B00D0BA
S214002BA07FE07B680122134010D17B68012213432B
S214002BB00F22BC1819000B20424B984703002370C5
S214002BC00F23FB181B785BB2002B6CD10F23FC186D
S214002BD03B1D190001203A4B9847030023700F2332
S214002BE0FB181B785BB2002B5FD17B680222134078
S214002BF010D17B68022213430F22BC181900012053
S214002C00304B9847030023700F23FB181B785BB2EA
S214002C10002B4CD10F23FC183B0019000F20284B2B
S214002C209847030023700F23FB181B785BB2002B1A
S214002C3013D0AA235A002449244B1800244B984743
S214002C400F23FB18002159563A68224B1800204BD8
S214002C5098470D20204B98472AE03B6804221340F3
S214002C601BD102201D4B9847BB680133BB60BB6875
S214002C70042BCFD9AF235A001349144B1800144B1A
S214002C809847174B1800174B98470D20124B98473C
S214002C900F23FB18FC221A700AE0C046124B984716
S214002CA006E0C04604E0C04602E0C04600E0C0467B
S214002CB00F23FB181B785BB21800BD4605B090BD0D
S214002CC095300000B9300000F8D8010074D8010033
S214002CD049BC010088D801007DBC0100210300002A
S214002CE0A0D8010065BD01005530000080B588B051
S214002CF000AF0200FB1D1A701323FB1800221A7087
S214002D000023FB610023BB6100237B614A4BFB6011
S214002D100023FB61494B1800494B98470300FB61B1
S214002D20FB69002B03DB0120464B9847F2E7C046C1
S214002D30454B1800424B98470300FB61FB69012294
S214002D401340FB61FB69002B12D10023FB610BE0F3
S214002D5001203C4B98473D4B1800394B98470300E1
S214002D60FB61BB690133BB61FB69394A9342EFD112
S214002D70FB1D1B78022B0DD1364A374B110018006D
S214002D80364B984780235B03354A19001000334BB7
S214002D90984722E0FB1D1B78032B0BD12D4A2E4BA8
S214002DA0110018002D4B98472D4B002118002B4B77
S214002DB0984712E0FB1D1B78042B08D180237B610B
S214002DC0FB68274A19001000244B984705E0FB686B
S214002DD0234A19001000214B9847224B98470300BE
S214002DE01B051B0D204A934206D97B69022213431A
S214002DF018001E4B984703E07B6918001B4B98474A
S214002E001B4B18001B4B9847FA681B4B1100180009
S214002E10184B98470D20194B9847194A0B4B110031
S214002E2018000E4B98471323FB181B785BB218004C
S214002E30BD4608B080BDC04654135413141000009D
S214002E407530000021030000BC0702000C000C00D7
S214002E509ED0AD107DD51C3CAC070200B9300000FA
S214002E608C100000992900009F03000069280000CC
S214002E70BCD8010049BC0100C8D801007DBC0100D7
S214002E80612F52EF80B588B000AF0200FB1D1A70AC
S214002E901F23FB1800221A700023BB6100237B61EE
S214002EA001235B423B611D4BFB601D4BBB60FB1D62
S214002EB01B78022B03D0FB1D1B78032B19D1194B53
S214002EC0FB60194BBB6014E00220184B9847FB6868
S214002ED01800174B98470300BB617B6901337B6181
S214002EE07A693B699A4204D31F23FB18FB221A70A7
S214002EF00CE0BA68BB699A42E6D1BB68084A9342BE
S214002F0004D1064B002118000A4B98471F23FB18D4
S214002F101B785BB21800BD4608B080BD8C10000060
S214002F2036265302AC070200C3C15DD7210300005A
S214002F3075300000B930000090B583B000AF0023B4
S214002F403B60FC1D3A00A0235B01110018001F4BDC
S214002F50984703002370FB1D1B785BB2002B0DD037
S214002F601B4A1C491C4B18001C4B98471C4B18004E
S214002F701C4B98470D201C4B984720E03B681B4A8B
S214002F8013403B603A68FC1DA0235B01110018004B
S214002F90174B984703002370FB1D1B785BB2002B72
S214002FA00DD0144A0B490C4B18000C4B98470C4B91
S214002FB018000C4B98470D200B4B9847C046FB1D3E
S214002FC01B785BB21800BD4603B090BD953000007C
S214002FD00502000004D9010074D8010049BC0100B4
S214002FE0E0D8010065BD01007DBC0100FFFBFFFFCE
S214002FF0B93000000B02000090B585B000AF7860D5
S2140030000F23FB1800221A700F23FC187B68180089
S214003010054B9847030023700F23FB181B785BB201
S2140030201800BD4605B090BD5909000090B583B0A4
S21400303000AFFB1D00221A70FC1D054B98470300CD
S2140030402370FB1D1B785BB21800BD4603B090BD15
S214003050E10A000080B582B000AFFB1D00221A70A6
S214003060034B984703001800BD4602B080BDC0461B
S2140030706D49000080B582B000AF78607B681800AC
S214003080034B984703001800BD4602B080BDC046FB
S2140030900549000080B582B000AF786039603A68B4
S2140030A07B6811001800034B984703001800BD46C4
S2140030B002B080BD014B000080B582B000AF7860E2
S2140030C039603A687B6811001800034B9847030084
S2140030D01800BD4602B080BD514B000080B584B0DC
S2140030E000AFF860B960BB1D1A80BB1D1A88B968AE
S2140030F0FB681800034B984703001800BD4604B051
S21400310080BDC046A14B000080B586B000AFF86019
S214003110B9607A602D4B1A881023FB18083A1A807B
S21400312000237B611323FB1800221A701023FB1860
S2140031301A887B689A4213D3BA687B69D1187B6871
S2140031409AB2FB681800224B98470300DAB21323A2
S214003150FB181B78D318DAB21323FB181A702DE06D
S214003160BA687B69D1181023FB181A88FB68180008
S214003170174B98470300DAB21323FB181B78D318B3
S214003180DAB21323FB181A701323FB181B785BB2F2
S214003190002B12D11023FB181B887A68D31A7B6089
S2140031A01023FB181B887A69D3187B611023FB1841
S2140031B01B88FA68D318FB60B8E7C0461323FB18D1
S2140031C01B785BB21800BD4606B080BD000000202C
S2140031D0DD30000080B584B000AFF860B960BB1D7C
S2140031E01A80BB1D1A88B968FB681800034B9847FD
S2140031F003001800BD4604B080BDC046F94B000071
S21400320080B586B000AFF860B9607A602D4B1A883A
S2140032101023FB18083A1A8000237B611323FB183F
S21400322000221A701023FB181A887B689A4213D360
S214003230BA687B69D1187B689AB2FB681800224B83
S21400324098470300DAB21323FB181B78D318DAB2B8
S2140032501323FB181A702DE0BA687B69D118102367
S214003260FB181A88FB681800174B98470300DAB259
S2140032701323FB181B78D318DAB21323FB181A7023
S2140032801323FB181B785BB2002B12D11023FB18FC
S2140032901B887A68D31A7B601023FB181B887A6910
S2140032A0D3187B611023FB181B88FA68D318FB60C1
S2140032B0B8E7C0461323FB181B785BB21800BD4660
S2140032C006B080BD00000020D531000090B589B062
S2140032D000AF786000237B611F23FB1800221A7062
S2140032E00C23FB18180008231A000021644B98478B
S2140032F07B68002B00D1BAE07B68282200211800EA
S214003300604B98471F23FC181423FB185E4A1900CD
S21400331010005E4B9847030023701F23FB181B7892
S2140033205BB2002B00D0A2E07B69002B00D19AE0B4
S2140033307B69C022920213431F22BC180C22B918C4
S21400334008221800524B9847030023701F23FB18CF
S2140033501B785BB2002B00D089E00C23FB185B685F
S2140033607B617B691B041B0C7B617B69002B00D196
S21400337074E07B69C022920213431F22BC1879684E
S21400338028221800424B9847030023701F23FB187F
S2140033901B785BB2002B6AD17B681B791B021AB2C2
S2140033A07B685B791B011BB2FF210B401BB21343EA
S2140033B01AB27B689B791BB20F210B401BB21343DA
S2140033C01AB21C23FB181A801A23FB18314A1A80DB
S2140033D07B68DB791B021AB27B681B7A1B011BB267
S2140033E0FF210B401BB213431AB27B685B7A1BB2F9
S2140033F00F210B401BB213431AB21823FB181A8076
S2140034001C23FB181B88002B09D01823FB181B88CD
S214003410002B04D01823FB181B88002B04D11F2375
S214003420FB18F4221A7022E01A23FA181823FB1845
S21400343012881B889A4204D21F23FB18F3221A70A4
S21400344015E01A23FA181C23FB1812881B889A42C8
S2140034500DD91F23FB18F3221A7008E01F23FB1850
S214003460F4221A7003E01F23FB18F4221A701F239D
S214003470FB181B785BB21800BD4609B090BDC0466D
S214003480E9BA0100610B000008000C00953000004E
S214003490093100005413000090B585B000AF786085
S2140034A00F23FB1800221A707B68002B13D00E2304
S2140034B0FB187A6812781A700E23FB181B78002BFC
S2140034C004D00E23FB181B78042B08D90E23FB18F8
S2140034D001221A7003E00E23FB1801221A700F2334
S2140034E0FC180020414B9847030023700F23FB185D
S2140034F01B785BB2002B0FD02823FF331A003C4901
S2140035003C4B18003C4B98473C4B18003C4B9847AC
S2140035100D203C4B984760E03B4B1800364B9847D5
S2140035203A4B984702003A4B11001800324B984726
S2140035300D20344B9847374B98470F23FC180E2323
S214003540FB181B781800344B9847030023700F2392
S214003550FB181B785BB2002B3AD10F23FC180E2306
S214003560FB181B7818002D4B9847030023700F2379
S214003570FB181B785BB2002B2CD10E23FB181B7894
S214003580022B2AD00E23FB181B78032B25D00F23E3
S214003590FC18234B9847030023700F23FB181B7857
S2140035A05BB2002B0FD05623FF331A001049114B85
S2140035B01800114B98471B4B1800114B98470D20CD
S2140035C0104B984707E00F23FB181B785BB208E008
S2140035D0C04600E0C046144B98470F23FB181B78E4
S2140035E05BB21800BD4605B090BDC046F92F00007E
S2140035F0DCD9010010D9010049BC010024D9010022
S21400360065BD01007DBC010040D90100992900007C
S2140036104CD901009D490000ED2C0000852E0000CD
S214003620E52800005CD901002D30000090B585B07B
S21400363000AF78600F23FC182D4B984703002370CB
S2140036400F23FB181B785BB2002B0ED0B6235A0054
S2140036502849294B1800294B9847294B1800294B15
S21400366098470D20284B98473AE00F23FC18002077
S214003670264B9847030023700F23FB181B785BB27A
S214003680002B0FD07423FF331A001A491A4B180068
S2140036901A4B98471E4B18001A4B98470D201A4B8A
S2140036A098471DE00F23FC181A4B98470300237019
S2140036B00F23FB181B785BB2002B0FD07A23FF3347
S2140036C01A000C490C4B18000C4B9847124B18006C
S2140036D00C4B98470D200C4B984701E00F4B984732
S2140036E00F23FB181B785BB21800BD4605B090BDD3
S2140036F0392F0000E8D9010010D9010049BC0100AB
S2140037007CD9010065BD01007DBC01001D5E000086
S2140037109CD901002D300000C0D90100E94A000004
S21400372080B586B000AF78600A00BB1C1A800C23F8
S214003730FB1800221A600C23FB187A685A600C23C8
S214003740FB18BA1C12881A810C23FB1819000320D8
S214003750034B984703001800BD4606B080BDC04620
S2140037604D0A000080B586B000AF78600A00BB1C2A
S2140037701A800C23FB187A681A600C23FB180022A8
S2140037805A600C23FB18BA1C12881A810C23FB18EB
S21400379019000320034B984703001800BD4606B0E7
S2140037A080BDC0464D0A000080B582B000AF020062
S2140037B0FB1D1A70BB1D0A1C1A70FB1D1B785A00D5
S2140037C0BB1D1B785340034AD35C1800BD4602B0AD
S2140037D080BDC046F8D9010090B585B000AFB9608D
S2140037E07A600F23FB18021C1A700EE0BB685A1C86
S2140037F0BA601A780F23FC180F23FB181B781100E9
S2140038001800084B9847030023707B685A1E7A609E
S214003810002BEBD10F23FB181B781800BD4605B014
S21400382090BDC046A937000090B589B000AFB9601A
S2140038307A603B600F23FB18021C1A701F23FB18CC
S21400384005221A701E23FB1801221A701423FB1877
S2140038500F22BA1812781A700F23FB181B78C13B78
S2140038600E2B00D91BE19A00B64BD3181B689F4657
S214003870BB681B0CDAB21423FB185A70BB681B0A11
S214003880DAB21423FB189A70BB68DAB21423FB185A
S214003890DA701F23FB1805221A7005E1BB681B0AA5
S2140038A0DAB21423FB185A703023FB181B78002B4F
S2140038B009D01423FB185B78802252421343DAB2F5
S2140038C01423FB185A70BB68DAB21423FB189A70DC
S2140038D01423FB180022DA701F23FB1805221A7027
S2140038E0E2E01423FB1800225A701423FB1800226F
S2140038F09A701423FB180022DA701F23FB18052287
S2140039001A70D1E01423FB1800225A701423FB18F7
S21400391000229A701423FB180022DA701F23FB186B
S21400392005221A70C0E01423FB18FF225A701423D5
S214003930FB18FF229A701423FB18FF22DA701F234D
S214003940FB1805221A70AFE0BB681B0CDAB2142312
S214003950FB185A70BB681B0ADAB21423FB189A705D
S214003960BB68DAB21423FB18DA703B681B0ADAB2BB
S2140039701423FB181A713B68DAB21423FB185A7129
S2140039801F23FB1807221A708EE0BB681B0CDAB2E6
S2140039901423FB185A70BB681B0ADAB21423FB18F0
S2140039A09A70BB68DAB21423FB18DA703B681B0CFB
S2140039B0DAB21423FB181A713B681B0ADAB2142316
S2140039C0FB185A713B68DAB21423FB189A711F234E
S2140039D0FB1808221A7067E0BB681B0ADAB21423C9
S2140039E0FB185A703023FB181B78002B09D01423C1
S2140039F0FB185B78802252421343DAB21423FB187A
S214003A005A70BB68DAB21423FB189A707B681B0ED8
S214003A10DAB21423FB18DA707B681B0CDAB21423B4
S214003A20FB181A717B681B0ADAB21423FB185A714A
S214003A307B68DAB21423FB189A711F23FB1808223E
S214003A401A7031E0BB681B0CDAB21423FB185A70EC
S214003A50BB681B0ADAB21423FB189A70BB68DAB28A
S214003A601423FB18DA707B681B0EDAB21423FB18DB
S214003A701A717B681B0CDAB21423FB185A717B6828
S214003A801B0ADAB21423FB189A717B68DAB2142385
S214003A90FB18DA711F23FB1809221A7004E01E2394
S214003AA0FB1800221A70C0461E23FB181B785BB258
S214003AB0002B3FD0244B1B78002B15D11F23FB185F
S214003AC01B785C1E1F23FB181B78013B1A0014236F
S214003AD0FB1819007F201D4B98470300DB18DAB24D
S214003AE01423FB181A5506E01F23FB181F22BA18CA
S214003AF01278013A1A701F23FB181B789AB2142307
S214003B00FB1811001800124B9847031E12D02823EA
S214003B10FF331A000F49104B1800104B9847104BF4
S214003B201800104B98470D200F4B98471E23FB1884
S214003B3000221A701E23FB181B785BB21800BD46C5
S214003B4009B090BD50E00100D4060020D93700002F
S214003B50653700008CE00100F8DA010049BC01007E
S214003B600CDB010065BD01007DBC010090B585B091
S214003B7000AF0200FB1D1A700E23FB1801221A70FC
S214003B80314B1B78002B04D10F23FB1802221A702E
S214003B9003E00F23FB1803221A700F23FB181B7871
S214003BA09AB20823FB1811001800284B9847031EEA
S214003BB012D09D235A002649264B1800264B9847BC
S214003BC0264B1800264B98470D20264B98470E2369
S214003BD0FB1800221A702FE00F23FB181B78013BFE
S214003BE00822BA18D35C002B08D10F23FB181B78C9
S214003BF0023B0822BA18D35CC32B1DD04223FF33E6
S214003C001A001349134B1800134B98470823FB1848
S214003C101B7819000823FB185B781A000823FB188A
S214003C209B7811480C4CA0470D200E4B98470E234E
S214003C30FB1800221A70C0460E23FB181B785BB2D6
S214003C401800BD4605B090BDD40600202137000000
S214003C5094E00100F8DA010049BC010038DB0100FD
S214003C6065BD01007DBC010058DB010080B584B055
S214003C7000AF0200FB1D1A700F23FB1801221A70FA
S214003C80FB1D1B78CF2B07D0FB1D1B78C52B03D045
S214003C90FB1D1B78C62B0CD10D23FB180121180029
S214003CA03A4B9847031E04D00F23FB1800221A70C5
S214003CB063E00E23FB180A221A700D23FB1801215D
S214003CC01800324B9847031E13D06223FF331A00A6
S214003CD02F49304B1800304B9847304B1800304B6C
S214003CE098470D202F4B98470F23FB1800221A7079
S214003CF043E00D23FB181B78FA1D12789A420BD06E
S214003D000E23FB181B785BB2DAB2013AD1B20E2250
S214003D10BA181170002BD0DC0E23FB180A221A707A
S214003D200D23FB1801211800184B9847031E13D0CB
S214003D307023FF331A001649164B1800164B984787
S214003D40164B1800164B98470D20164B98470F2316
S214003D50FB1800221A7010E00D23FB181B78002BAE
S214003D600BD00E23FB181B785BB2DAB2013AD1B245
S214003D700E22BA181170002BD2DC0F23FB181B780A
S214003D805BB21800BD4604B080BDC04621370000B7
S214003D90A4E00100F8DA010049BC010088DB01005C
S214003DA065BD01007DBC010080B586B000AF7860BF
S214003DB008001100BB1C021C1A807B1C0A1C1A700F
S214003DC01123FB1801221A701423FB1800221A80F4
S214003DD0BB1C1A8880239B019A4205D81223FB1825
S214003DE0BA1C12881A8004E01223FB188022920163
S214003DF01A801623FB180A221A800B23FB180121AF
S214003E0018005B4B9847031E11D05A4A5A495B4B21
S214003E1018005B4B98475B4B18005B4B98470D2090
S214003E205A4B98471123FB1800221A7017E00B23F1
S214003E30FB181B781B09DBB21A000F2313400F2B4D
S214003E400CD01623FB1800229B5E9AB2013A91B260
S214003E501622BA181180002BCFD100E0C0461123DD
S214003E60FB181B785BB2002B00D178E01623FB18FA
S214003E7000229B5E002B16DC454A3F493F4B18004C
S214003E803F4B98470B23FB181B781A00414B110039
S214003E9018003B4B98470D203C4B98471123FB18C6
S214003EA000221A705CE01423FB1800229B5E7A68DE
S214003EB0D2181223FB181B88190010002C4B9847A9
S214003EC0031E11D0344A2C492C4B18002C4B984713
S214003ED0324B18002C4B98470D202C4B984711233B
S214003EE0FB1800221A703BE07B1C1B78002B1DD1B0
S214003EF02B4B1B78002B19D10C23FB180221180022
S214003F001B4B9847031E11D0264A1B491B4B180013
S214003F101B4B9847244B18001B4B98470D201B4BF8
S214003F2098471123FB1800221A7019E01423FB1877
S214003F301A881223FB181B88D3189AB21423FB186E
S214003F401A801223FB181A88BB1CB91C09888A1A07
S214003F501A80BB1C1B88002B00D039E700E0C04647
S214003F601123FB181B785BB21800BD4606B080BD57
S214003F7021370000FE020000B0E00100F8DA010080
S214003F8049BC0100BCDB010065BD01007DBC010031
S214003F900A030000F0DB01001303000020DC010030
S214003FA0D40600201E03000050DC010080B586B059
S214003FB000AF78600A00BB1C1A801323FB1801228E
S214003FC01A700C23FB1800221A801623FB180022F6
S214003FD01A80BB1C1A8880239B019A4205D814239A
S214003FE0FB18BA1C12881A8004E01423FB188022DF
S214003FF092011A801123FB18F0221A701623FB1860
S21400400000229B5E002B0FD1BB1C1A8880239B01CD
S2140040109A4204D81223FB1803221A7013E01223C4
S214004020FB1801221A700EE0BB1C1A8880239B0125
S2140040309A4204D81223FB1803221A7003E01223B4
S214004040FB1802221A701123FB181A781223FB1889
S2140040501B781343DAB21123FB181A701123FB18CE
S214004060012118003A4B9847031E11D0394A3A49A5
S2140040703A4B18003A4B98473A4B18003A4B984739
S2140040800D203A4B98471323FB1800221A7057E06E
S2140040901623FB1800229B5E7A68D2181423FB189E
S2140040A01B88190010002A4B9847031E12D0D623EF
S2140040B09A002949294B1800294B98472C4B180081
S2140040C0294B98470D20294B98471323FB180022AD
S2140040D01A7035E0274B1B78002B19D10C23FB18E0
S2140040E0022118001A4B9847031E11D0224A1A497B
S2140040F01A4B18001A4B9847204B18001A4B984733
S2140041000D201A4B98471323FB1800221A7017E04D
S2140041101623FB181A881423FB181B88D3189AB288
S2140041201623FB181A80BB1CB91C1422BA1809885F
S21400413012888A1A1A80BB1C1B88002B00D048E7FE
S2140041401323FB181B785BB21800BD4606B080BD73
S214004150653700004F030000C0E00100F8DA0100F8
S21400416049BC010084DC010065BD01007DBC010086
S214004170BCDC0100D406002062030000F0DC010075
S214004180B0B586B002AF786039600F23FB180A22FC
S2140041901A700E23FB1801221A700D23FB18C92271
S2140041A01A700C23FB1800221A707B68302B08D874
S2140041B00D23FB18C3221A700C23FB1801221A7059
S2140041C007E00D23FB18C9221A700C23FB180022E7
S2140041D01A700E23FC183A6879680D23FB181878B5
S2140041E00C23FB181B78009304233B4DA8470300C1
S2140041F023700E23FB181B785BB2012B0FD0374AB7
S2140042003749384B1800384B98477A68374B1100B7
S2140042101800354B98470D20354B98471FE00E2366
S214004220FC180D23FB181B781800324B9847030028
S21400423023700E23FB181B785BB2012B0FD02E4A7F
S2140042402749284B1800284B98477A682B4B1100B3
S2140042501800254B98470D20254B9847C0460E233F
S214004260FB181B785BB2012B2ED00120244B9847FD
S21400427000230093002300220021CF20164CA047E5
S214004280CF201C4B98471F4A1549164B1800164B53
S21400429098470F23FB1819783B687A681A48124C1F
S2140042A0A0470D20124B98470120154B98470F2327
S2140042B0FB181A780F23FB18013A1A700F23FB1805
S2140042C01B78002B00D070E70E23FB181B785BB220
S2140042D01800BD4604B0B0BD2938000095030000A4
S2140042E0D0E00100F8DA010049BC010028DD010039
S2140042F07DBC01006D3C00009B03000054DD010006
S21400430021030000AE0300008CDD0100B0B588B0CC
S21400431002AFF860B960BB1D1A801623FB180A228C
S2140043201A701523FB18C7221A70BB1D1B88012B99
S21400433002D1BB1D02221A80BB1D1A881723FC1847
S214004340F9681523FB181878002300931300002241
S2140043505A4DA847030023701723FB181B785BB23F
S214004360012B0FD0564A5749574B1800574B9847C2
S214004370FA68574B11001800544B98470D20554BC0
S21400438098475CE01723FC181523FB181B781800C9
S214004390514B9847030023701723FB181B785BB21A
S2140043A0012B0FD04D4A4749474B1800474B9847BB
S2140043B0FA684B4B11001800444B98470D20454BAC
S2140043C098473CE01723FC18BB1D1A88BB681100F1
S2140043D01800444B9847030023701723FB181B78DC
S2140043E05BB2012B0DD0404A3649374B1800374B8D
S2140043F098473E4B18003E4B98470D20354B984744
S2140044001DE01723FC181523FB181B781800394BE2
S2140044109847030023701723FB181B785BB2012B09
S2140044200DD0354A2749284B1800284B98472F4B64
S21400443018002F4B98470D20264B9847C046172349
S214004440FB181B785BB2012B2FD001202B4B984713
S21400445000230093002300220021CF20174CA04702
S214004460CF201D4B9847264A1649174B1800174B66
S21400447098471623FB181978BB1D1B88FA68214835
S214004480124CA0470D20134B984701201B4B984712
S2140044901623FB181A781623FB18013A1A701623EF
S2140044A0FB181B78002B00D03FE71723FB181B7860
S2140044B05BB21800BD4606B0B0BDC0462938000045
S2140044C0C9030000E0E00100F8DA010049BC010081
S2140044D0A8DD01007DBC01006D3C0000CF0300009C
S2140044E0D8DD0100AD3F0000DF03000010DE010054
S2140044F065BD01006D3B0000E703000021030000DE
S214004500F103000038DE0100B0B586B002AF786077
S21400451039600F23FB180A221A700E23FB1801229B
S2140045201A700D23FB18CA221A700C23FB180022DF
S2140045301A707B68FF2B08D80D23FB18C4221A704C
S2140045400C23FB1801221A7007E00D23FB18CA2261
S2140045501A700C23FB1800221A700E23FC187968B8
S2140045600D23FB1818780C23FB181B7800930423E4
S2140045700022564DA847030023700E23FB181B7815
S2140045805BB2012B0FD0524A5249534B1800534B83
S21400459098477A68524B11001800504B98470D20E8
S2140045A0504B984755E00E23FC180D23FB181B783C
S2140045B018004D4B9847030023700E23FB181B78FA
S2140045C05BB2012B0FD0494A4249434B1800434B7C
S2140045D098477A68464B11001800404B98470D20C4
S2140045E0404B984735E00E23FC180C23FB181A782E
S2140045F00823FB18042118003E4B9847030023703D
S2140046000E23FB181B785BB2012B0DD03A4A3149BA
S214004610314B1800314B9847384B1800384B9847A9
S2140046200D20304B984714E00823FB181B781A001F
S2140046300823FB185B781B021A430823FB189B7899
S2140046401B041A430823FB18DB781B061A433B6837
S2140046501A600E23FB181B785BB2012B2ED00120AC
S214004660284B984700230093002300220021CF20E8
S214004670164CA047CF201C4B9847234A1549164B8B
S2140046801800164B98470F23FB1819787A681F4BAB
S2140046901800124B98470D20124B98470120194BD3
S2140046A098470F23FB181A780F23FB18013A1A7045
S2140046B00F23FB181B78002B00D03AE70E23FB18BD
S2140046C01B785BB21800BD4604B0B0BD29380000A8
S2140046D015040000F0E00100F8DA010049BC010012
S2140046E054DE01007DBC01006D3C00001B04000090
S2140046F080DE0100A93D000022040000B4DE0100B7
S21400470065BD0100210300003A040000D4DE01006C
S214004710B0B588B002AFF860B960BB1D1A8014232C
S214004720FB18C8221A701623FB180A221A701523C3
S214004730FB1800221A70BB1D1B88012B06D1BB1D5F
S21400474002221A801523FB1801221A70BB1D1A8834
S2140047501723FC18F9681423FB1818780023009315
S21400476013000022564DA847030023701723FB189A
S2140047701B785BB2012B0FD0524A5349534B18009B
S214004780534B9847FA68534B11001800504B984704
S2140047900D20514B984755E01723FC181423FB189F
S2140047A01B7818004D4B9847030023701723FB18FF
S2140047B01B785BB2012B0FD0494A4349434B180084
S2140047C0434B9847FA68474B11001800404B9847F0
S2140047D00D20414B984735E01523FB181B78002B1E
S2140047E011D01723FC18BB1D19881023FB180022B4
S2140047F018003D4B9847030023701023FB181A78C7
S214004800BB681A700AE01723FC18BB1D1988BB6822
S21400481000221800344B9847030023701723FB1818
S2140048201B785BB2012B0DD0304A2749274B180066
S214004830274B98472E4B18002E4B98470D20264B9B
S2140048409847C0461723FB181B785BB2012B2FD066
S2140048500120294B984700230093002300220021C3
S214004860CF20174CA047CF201C4B9847234A164909
S214004870164B1800164B98471623FB181978BB1DC5
S2140048801B88FA681E48124CA0470D20124B98470A
S2140048900120194B98471623FB181A781623FB1885
S2140048A0013A1A701623FB181B78002B00D042E73B
S2140048B01723FB181B785BB21800BD4606B0B0BDC8
S2140048C0293800005B04000000E10100F8DA01006E
S2140048D049BC0100ECDE01007DBC01006D3C00001F
S2140048E0610400001CDF0100A93D00007104000007
S2140048F054DF010065BD01002103000082040000B2
S21400490038DE010080B584B000AF78600C23FA185A
S2140049107B6811001800034B9847FB681800BD46DB
S21400492004B080BD0945000080B582B000AF0C4BD6
S21400493018000C4B984703007B607B6870229343FB
S2140049407B607B68502213437B60C0467B68044ACA
S21400495019001000044B9847C046BD4602B080BD03
S21400496024E8000005490000514B000090B583B0D4
S21400497002AF00230093002300220021CF20054C25
S214004980A047CF20044B984700231800BD4601B02F
S21400499090BDC046293800006D3C000080B582B04E
S2140049A000AF00233B603E4B00221A703B003D4A9E
S2140049B0190010003C4B9847031E26D1384B0122A5
S2140049C01A703A4A3A493B4B18003B4B98473B4BC8
S2140049D018003B4B98470D203A4B98473B00314A0E
S2140049E019001000304B9847031E0ED1364A304946
S2140049F0304B1800304B9847344B1800304B9847D4
S214004A000D20304B9847002345E0254B1B78002BA4
S214004A1025D13B680C2293433B603B68702293434E
S214004A203B603B68502213433B603B681D4A1900BD
S214004A301000274B9847031E0ED1264A1C491D4BD3
S214004A4018001D4B9847244B18001D4B98470D2007
S214004A501C4B984700231EE0114B01221A703A1D8A
S214004A6080235B01110018000F4B9847031E0FD1DF
S214004A701A4A0F490F4B18000F4B9847184B18004F
S214004A800F4B98470D200F4B984706235B4202E0DA
S214004A90144B984700231800BD4602B080BDC046A0
S214004AA0D406002024E8000009450000CC040000DD
S214004AB00CE10100F8DA010049BC01007CDF0100CE
S214004AC065BD01007DBC0100CF040000CCDF010005
S214004AD081410000D9040000F8DF0100E304000073
S214004AE02CE001002949000080B500AF034B0022EE
S214004AF01A7000231800BD4680BDC046D4060020AC
S214004B0090B585B000AF786039600F23FC183A681E
S214004B107B68110018000D4B9847030023700F2385
S214004B20FB181B785BB2012B04D10F23FB18002265
S214004B301A7003E00F23FB18FA221A700F23FB18D3
S214004B401B785BB21800BD4605B090BD0945000055
S214004B5090B585B000AF786039600F23FC183A68CE
S214004B607B68110018000D4B9847030023700F2335
S214004B70FB181B785BB2012B04D10F23FB18002215
S214004B801A7003E00F23FB18FA221A700F23FB1883
S214004B901B785BB21800BD4605B090BD8141000091
S214004BA090B587B000AFF860B960BB1D1A801723B8
S214004BB0FC18BB1D1A88B968FB6818000D4B98478F
S214004BC0030023701723FB181B785BB2012B04D15C
S214004BD01723FB1800221A7003E01723FB18FA228B
S214004BE01A701723FB181B785BB21800BD4607B077
S214004BF090BDC0461147000090B587B000AFF86082
S214004C00B960BB1D1A801723FC18BB1D1A88B9682B
S214004C10FB6818000D4B9847030023701723FB18FA
S214004C201B785BB2012B04D11723FB1800221A70E5
S214004C3003E01723FB18FA221A701723FB181B78B9
S214004C405BB21800BD4607B090BDC0460D430000DD
S214004C5090B589B000AFB96011007B600F23FB18D8
S214004C60021C1A700E23FB180A1C1A703023FB183D
S214004C701B88002B00D1D6E00F23FB1800229A5683
S214004C806B4B1201D358002B00D1CCE00F23FB183E
S214004C901B785BB2664A1B01D31804331B889BB291
S214004CA0002B00D1BFE00F23FB181B785BB2604AD5
S214004CB01B01D3180A331B78DBB2012B00D0B2E0FD
S214004CC07B68FB61BB683022BA181288DA80192329
S214004CD0FB1801221A701A23FB183022BA18128801
S214004CE01A800F23FB181B785BB2514A1B01D3189E
S214004CF004331B889BB21A22BA181288D31A9AB2A7
S214004D001623FB181A801623FB1800229B5E002B26
S214004D100FDD1923FB1800221A700F23FB18002240
S214004D209A561A23FB18424912018A18043212882E
S214004D301A800F23FB1800229A563D4B1201D158B9
S214004D401923FB181C781A23FB181A88F869230005
S214004D50384CA047031E4FD10F23FB1800229A564B
S214004D60334B1201D258BB681A601A23FB18002274
S214004D709A5EBB689A80BB68DA881A23FB181B8881
S214004D80D31A9AB2BB68DA802B4B1B68002B0BD069
S214004D90294B1B68BC680E22BA1811780F22BA1865
S214004DA000201056220098473023F9183023FA18AE
S214004DB01A23FB1812881B88D31A0B801A23FB1899
S214004DC01B88FA69D318FB610F23FB181B785BB2AC
S214004DD0174A1B01D3180A331B78DBB2002B1BD1F2
S214004DE03023FB181B88002B16D00123002200213D
S214004DF00020104CA04716E0104B1800104B9847A8
S214004E003023FB181A880F4B110018000C4B9847DC
S214004E100D200D4B984706E03023FB181B88002B0F
S214004E2000D054E7FFE7C046BD4609B090BDC04677
S214004E30C0190020B9160000701A002018E1010001
S214004E4049BC010024E101007DBC010090B5BBB067
S214004E5002AF3A60FB1D021C1A703B1D0A1C1A802A
S214004E60FB1D1B78412B03D0FB1D1B78542B20D138
S214004E70CC23F918386800230422984CA047031E58
S214004E8000D075E2CC23FB1801229A56C823FB18E3
S214004E901A70934B1B68002B00D169E2904B1B687D
S214004EA0CC22BA1800201056C822BA1801219847FA
S214004EB05EE2FB1D1B78422B20D1C423F91838680C
S214004EC000230422854CA047031E00D057E2C423CB
S214004ED0FB1801229A56C023FB181A70804B1B68D9
S214004EE0002B00D14BE27E4B1B68C422BA18002070
S214004EF01056C022BA180221984740E2FB1D1B78C4
S214004F00432B00D086E0B423F918386800230C221F
S214004F10724CA047031E00D031E2B423FB185B7A24
S214004F205BB2002B4FDBB423FB185B7A5BB2180036
S214004F30B423FB181B7A5BB26A4A1B01D3180B33E7
S214004F401B78D9B2674A0301D3180B330A1C1A70B0
S214004F50B423FB185B7A5BB2624A1B01D3180A3390
S214004F6001221A70B423FB185B7A5BB21800B423D4
S214004F70FB185B89083B99B25A4A0301D3180833D9
S214004F800A1C1A80584B1B889BB201339AB2564BA8
S214004F901A80554B1B889BB2002B06D1524B1B88A0
S214004FA09BB201339AB2504B1A80B423FB185B7A3B
S214004FB05BB218004C4B1B8899B24A4A0301D318BF
S214004FC006330A1C1A80B423FB1809229A56A0231B
S214004FD0FB181A70A023FB1802229A80B423FB1831
S214004FE05A88A023FB18DA80B423FB185A68A0233B
S214004FF0FB189A603A4B1B68002B00D1BFE1384B78
S2140050001B68B422BA1808201056A022BA18042129
S2140050109847B4E1FB1D1B78442B03D0FB1D1B787F
S2140050204B2B3DD19C23F9183868002304222B4CC7
S214005030A047031E00D09DE19C23FB1800229A5631
S2140050409823FB181A709C23FB1801229A56982363
S214005050FB185A709C23FB185B785BB2002B0FD1B1
S2140050609C23FB181B785BB218009C23FB185B88FC
S214005070083B99B21B4A0301D31808330A1C1A804E
S214005080174B1B68002B00D174E1154B1B689C2244
S214005090BA18002010569822BA180521984769E1D8
S2140050A0FB1D1B784A2B23D10C23F91838680023E4
S2140050B044220A4CA047031E00D060E10B4B1B683D
S2140050C0002B00D15BE1094B1A680C23FB18196C06
S2140050D00C23FB181800904751E1C046B916000093
S2140050E0701A0020C0190020D6060020781A00206A
S2140050F0FB1D1B78462B08D0FB1D1B78482B04D0C5
S214005100FB1D1B784D2B00D0B4E0DF23FB180622D6
S2140051101A70FB1D1B78482B03D1DF23FB180922CE
S2140051201A70D823FB1810221A80D823FB181A8866
S2140051308823F91838680023934CA047031E00D034
S2140051401AE1D623FB1800221A80D523FB188822E2
S214005150BA18127B1A70D623FB188822BA18D2897E
S2140051601A80D523FB181B785BB2884A1B01D3181C
S2140051700C3300221A70D223FB188822BA18128920
S2140051801A80D023FB188822BA1852891A808823DE
S214005190FB185A887023FB185A818823FB185A6814
S2140051A07023FB18DA60D523FB181B785BB2774AAE
S2140051B01B01D31806331B889BB2D622BA18128856
S2140051C09A4248D1D223FB1800229B5E002B25DD95
S2140051D0D223FB1800229A5E3B1D1B889A421DDADA
S2140051E0D023FB181B883A68D3183B60D823FB18DB
S2140051F0D222BA1812881A803C68DF23FB181A7865
S2140052007023F918D523FB1800201856D823FB184E
S2140052101B88009323005E4CA047ADE07023FB186C
S214005220D222BA1812889A807023FB1800221A60BD
S214005230584B1B68002B00D19EE0564B1B68702213
S214005240BC18DF22BA181178D522BA1800201056DA
S2140052502200984790E0D823FA183B1D12881B8836
S2140052609A4200D388E00123002200210020464C09
S214005270A04781E0FB1D1B78452B07D0FB1D1B7844
S214005280472B03D0FB1D1B784C2B4CD1DE23FB1881
S21400529007221A70FB1D1B78472B03D1DE23FB1851
S2140052A008221A706423F918386800230822364C3E
S2140052B0A047031E62D1DC23FB1800221A80DB23E2
S2140052C0FB186422BA1812781A70DC23FB186422C2
S2140052D0BA1892881A806423FB1802229A5E6E23FC
S2140052E0FB181A80DB23FB181B785BB2274A1B01CE
S2140052F0D31806331B889BB2DC22BA1812889A424F
S2140053003CD1244B1B68002B38D0224B1B686E22E6
S214005310BC18DE22BA181178DB22BA180020105604
S214005320220098472AE0FB1D1B78522B27D15023DA
S214005330F918386801231422134CA047031E1ED107
S2140053405023FB185B681A00134B1A60124B1B683D
S214005350002B14D0104B1C685023FB1818685023E1
S214005360FB1899685023FB181B7C1A00A04706E020
S214005370C04604E0C04602E0C04600E0C046C04664
S214005380BD4639B090BDC046B9160000C019002011
S214005390514C0000701A0020741A002080B500AF2F
S2140053A00C4B1B78DBB2002B10D10B4BB02200212C
S2140053B018000A4B98470A4B19000220094B9847D9
S2140053C0044B01221A70084B00221A80C046BD46C4
S2140053D080BDC046D8060020C0190020610B000022
S2140053E04D4E000035180000D606002080B582B06D
S2140053F000AF78603960054B7A681A60044B3A68EB
S2140054001A60C046BD4602B080BDC046701A002075
S214005410781A002090B58DB004AF04000800110083
S214005420BB1D221C1A807B1D021C1A703B1D0A1C09
S2140054301A701F23FB18FF221A70BB1D1B88022B35
S21400544000D0CDE07B1D1B78012B35D11E23FB1829
S21400545000221A702AE01723FB18654A12781A7081
S214005460634B1B78DBB21A01624BD318BB61604BEF
S2140054701B78DBB25A1C604B0721100098470B00C4
S214005480DAB25B4B1A70BB699B7ADBB2002B06D193
S2140054901F23FB181722BA1812781A704CE01E2326
S2140054A0FB181A781E23FB1801321A701E23FB18ED
S2140054B01B78062BCFD93FE07B1D1B78022B3BD1F8
S2140054C04E4B3B611E23FB1800221A702FE0172359
S2140054D0FB184B4A12781A70494B1B78DBB21B013B
S2140054E03A69D318BB61464B1B78DBB20133454A99
S2140054F0134004D5013B0422524213430133DAB26F
S2140055003F4B1A70BB699B7ADBB2002B08D117237E
S214005510FB181B780733DAB21F23FB181A700BE050
S2140055201E23FB181A781E23FB1801321A701E233E
S214005530FB181B78032BCAD91F23FB181B787F2B5D
S2140055404ED8BB691022002118002F4B9847BB6924
S21400555001229A722D4B1B889BB201339AB22B4BB9
S2140055601A802A4B1B889BB2002B06D1274B1B8820
S2140055709BB201339AB2254B1A80244B1B889AB2F1
S214005580BB69DA80224B1800224B98471F23FB1872
S214005590002159561D4B1B889BB21A001E4B180043
S2140055A01C4B98470D201D4B98473B1D1B7801222E
S2140055B0134015D00C23FB181F22BA1812781A7045
S2140055C0BB692122DA720C23FA1800230293002307
S2140055D0019300230093042350210220104CA0477F
S2140055E01F23FB181B785BB21800BD4609B090BDA0
S2140055F0D9060020C0190020C59D0100301A0020E1
S214005600DA06002003000080610B0000D6060020AA
S21400561018E1010049BC010038E101007DBC010031
S214005620C10D0000B0B58AB004AF39601100FB1D93
S214005630021C1A70BB1D0A1C1A701723FB18FA22CC
S2140056401A703B68002B5CD0FB1D1B787F2B58D84C
S214005650FB1D1B785BB22F4A1B01D3180A331B783D
S214005660DBB2012B4DD1BB1D1B78002B49D0162376
S214005670FB1841221A70FB1D1B785BB2254A1B01E2
S214005680D3180B331B78DBB21A000123134003D068
S2140056901623FB1854221A700823FB18FA1D1278DA
S2140056A01A7239680823FB18082218001A4B984704
S2140056B0FB1D1B785BB2174A1B01D31806331B88E9
S2140056C09AB20823FB185A811723FC180823FA18E5
S2140056D01623FB1819780023029300230193002356
S2140056E000930C2302200D4DA847030023701723B8
S2140056F0FB181B785BB2002B03D01723FB18F7228E
S2140057001A701723FB181B785BB21800BD4606B04C
S214005710B0BDC046C0190020250B0000C10D00001A
S21400572080B586B000AFB9607A600F23FB18021C04
S2140057301A701723FB18FA221A700F23FB181B780F
S2140057407F2B0FD80F23FB181B785BB2094A1B016F
S214005750D3180A331B78DBB2012B03D11723FB18AF
S21400576000221A701723FB181B785BB21800BD4680
S21400577006B080BDC0190020B0B58AB004AF39604D
S2140057801100FB1D021C1A70BB1D0A1C1A70172381
S214005790FB18FA221A70FB1D1B787F2B67D83B6814
S2140057A0002B64D0FB1D1B785BB2354A1B01D31857
S2140057B00A331B78DBB2012B59D1BB1D1B78002B9B
S2140057C055D01623FB1844221A70FB1D1B785BB2BB
S2140057D02B4A1B01D3180B331B78DBB21A000123AC
S2140057E013400FD01623FB184B221A70FB1D1B7894
S2140057F05BB2234A1B01D3180B331B78DAB208239B
S214005800FB185A720823FB18FA1D12781A723968A8
S2140058100823FB18082218001A4B9847FB1D1B7814
S2140058205BB2174A1B01D31806331B889AB20823AB
S214005830FB185A811723FC180823FA181623FB189E
S21400584019780023029300230193002300930C236E
S21400585002200D4DA847030023701723FB181B7862
S2140058605BB2002B03D01723FB18F7221A701723FE
S214005870FB181B785BB21800BD4606B0B0BDC0462C
S214005880C0190020250B0000C10D000090B58FB098
S21400589004AF0400B960100019000F23FB18221C87
S2140058A01A700C23FB18021C1A80BB1D0A1C1A80D7
S2140058B02623FB18062252421A800F23FB181B7859
S2140058C07F2B00D987E0BB68002B00D183E00C2338
