:10000000D8480020ADDE0000A9DE0000A9DE000017
:1000100000000000000000000000000000000000E0
:10002000000000000000000000000000A9DE000049
:100030000000000000000000A9DE0000A9DE0000B2
:10004000A9DE000059B50000F9C30000FDC500009D
:10005000A9DE0000A9DE0000A9DE0000ADC100009D
:1000600051CC000061CC000071CC000081CC0000BC
:1000700091CC0000A1CC0000A9DE0000A9DE0000A8
:10008000A9DE000039DB000049DB000000000000B1
:100090000000000059DB000079AC0000A9DE000080
:1000A000A9DE0000E5F60000A9DE0000A9DE0000E0
:1000B0000000000010B5064C2378002B07D1054B3B
:1000C000002B02D0044800E000BF0123237010BDC4
:1000D000A401002000000000B4C10100084B10B5CD
:1000E000002B03D00749084800E000BF0748036819
:1000F000002B00D110BD064B002BFBD09847F9E731
:1001000000000000A8010020B4C10100B4C101003A
:100110000000000010B51F4A916904230B4393614E
:100120001D4B198B2022FF320A431A831A7D0523A7
:10013000D2072CD501780902C022920011404278E2
:10014000D201FA3313401943827852001E231A4019
:100150000B001343C27892048021C9020A40134362
:1001600002791204C02189020A4013430A4A5360EB
:1001700093685B035B0F094908249C400C809368DB
:100180004B8043780B71138BDB05DB0F1B011800D1
:1001900010BDC0460004004000400041C0010020E6
:1001A00030B50400224A1088538843438B420BD257
:1001B000802292011F4BCB18934205D918201E4A6A
:1001C0001E4BCB18934231D81D4B5D688022D20262
:1001D0002A435A60188B2022FF3202431A831B7D68
:1001E0000520DB0722D5452C1FD8A300154AD3587C
:1001F0009F46134B1B8B1020DB0517D48908490041
:100200000F4BD96103E0890849000D4BD961A52046
:10021000000204430A4B1C80190001220B7D13428B
:10022000FCD0074B5D60002000E0172030BDC046C9
:10023000C001002000C07FFFFF1F00000000C0FFC2
:1002400000400041782D0100F8B52E4B1C885B88DA
:100250006343834207D218252B4E2C4BC31801272A
:10026000B34201D94CE00027631E1825184247D13C
:10027000013D944244D3264B1B7D123DDB073FD505
:10028000244C234B1C801D0001242B7D2342FCD0D9
:100290001F4C258B2023FF332B4323834608002A42
:1002A00029D076000023541EA446CD5C634501DBB3
:1002B000ACB203E0CC18647824022C4334800233BF
:1002C0009BB202369A42F0D80E4B1B790025002BC8
:1002D00016D13F2A14D8002F06D0002201001C207E
:1002E0000D4B984705000BE00022010004200A4B4B
:1002F0009847050004E0034B1B790025002BEAD04A
:100300002800F8BDC0010020FF1F00000000C0FF52
:100310000040004144A5FFFFA101000070B51C4B47
:100320001C885B886343834205D21825194E1A4BFB
:10033000C318B34229D8631E1825184225D1013DA0
:10034000944222D3154B1B7D123DDB071DD5134C68
:10035000258B2023FF332B4323834008002A13D00F
:1003600040000025561E2B181C88A4B22B041B0C21
:10037000CC54B34202DACB18240A5C700235ABB21B
:100380009A42F0D8002500E00025280070BDC04644
:10039000C0010020FF1F00000000C0FF004000411E
:1003A00010B5184A138852885A43824207D218223D
:1003B000154C16494118A14222D8012100E0002124
:1003C0009B00013B182218421AD1114B1B7D133A96
:1003D000DB0715D50E4B1C8B2022FF3222431A83DC
:1003E00080084000D861002901D10A4A00E00A4A89
:1003F000074B1A80190001220B7D1342FCD000220A
:10040000100010BDC0010020FF1F00000000C0FF51
:100410000040004102A500001AA50000164B198BF0
:100420002022FF320A431A839B685903490F08228E
:100430008A40027043801B0D8381104B1B885B0632
:100440005B0F9AB2072A02D10023436004E0062220
:10045000D21A042393404360084B1A8807231340A1
:10046000072B02D10023836004E00722D21A042361
:10047000934083607047C0460040004100408000C8
:1004800030B583B001AC00232370A37002336370D6
:1004900021000B20044DA84721002A20A847210055
:1004A0002B20A84703B030BDC5C70000F8B5264BC8
:1004B0001B6A5B0504D503210120244B9847FEE706
:1004C000234B1B6A1B0506D50620224B9847224862
:1004D000224B984736E02248204B9847214C200079
:1004E000214B98476378013BDBB2FD2B2AD81D4C8A
:1004F0002227E25D661C31001C481D4DA847E25DC5
:1005000031001C481C4EB0474237E25D1B491C4875
:10051000A847E25D19491B48B0470137E15D1A4819
:10052000A847E25D194B1A7066342000184FB8478F
:10053000020021001748A8472000B8470200210008
:100540001548B047F8BDC04680280040192B000070
:1005500000280040E1390000902E0100AD1A010092
:10056000A02E010044020020252E0000B42E010020
:100570008D190100A4080020331801006702002033
:10058000CC2E0100F8010020E02E0100E80200203E
:10059000751D0100F02E010068080020F0B54746E7
:1005A00080B4002803D10800411E88412FE00029B3
:1005B0002AD0184B1B68984603239C4603E0002B67
:1005C00024D00130013103784246D2185478624673
:1005D00014401F00012C00D120370D7842465219DB
:1005E0005278664632402E00012A00D12036B742AA
:1005F000E5D01900012C01D1203319002800012A6F
:1006000000D12030081A02E0012000E0002004BCE4
:100610009046F0BD3C01002010B5010003781A009F
:10062000303A092A01D813000BE01A00413A052A92
:1006300001D8373B05E000201A00613A052A42D86C
:10064000573B1B014A7810003038092801D8C318DD
:100650000DE010004138052802D8373AD31806E0DB
:1006600000201400613C052C2DD8573AD3181B01EB
:100670008A7810003038092801D8C3180DE010001E
:100680004138052802D8373AD31806E00020140074
:10069000613C052C17D8573AD3181B01CA781100B2
:1006A0003039092901D8C8180DE011004139052950
:1006B00002D8373AD01806E0002011006139052928
:1006C00001D8573AD01810BDF8B55F4656464D468A
:1006D0004446F0B407004C1C0B78222B0AD0684B20
:1006E00019600020C6E05C2B01D0013100E002312E
:1006F000013201E02100002210000B78222B04D0EF
:10070000002B02D0501CEED1002001305D4B1B6845
:100710009847061E00D191E005005B4B9A465B4B63
:100720009B460223984679E05C2B03D001342B7062
:10073000013573E0621C61780B00623BD8B213286C
:1007400069D883005248C3589F4608232B7001354F
:1007500063E00C232B7001355FE00A232B70013519
:100760005BE00D232B70013557E009232B70013519
:1007700053E0A01C474B98478146621D464B4B44B3
:1007800053454AD9002848D0444B4B4453451AD8C6
:10079000A3795C2B41D1E379752B3ED12000083041
:1007A0003C4B984722000B323B4BC318534534D87F
:1007B0004B4699023A4B0B408005800D0343802144
:1007C0004902894699444B467F2B39D9D9454DD9A1
:1007D000344B994546D937E04D1E3F2449460C40DD
:1007E000802149420C432C70494689098946013DC4
:1007F0003F214C46214080246442214329704946D0
:10080000890989466C1E2849095C484601432170C4
:10081000013BED1801E029700135541C2378222B8F
:1008200001D0002B80D100232B7020782238434246
:1008300058413E610423FB6020181BE0002019E0B2
:10084000013501230120DDE7E91C3F234846034031
:10085000802040420343EB704B469B09994604239A
:100860008430B9E7E91C03230320B5E7023543468A
:100870004046BCE73CBC90469946A246AB46F8BD14
:10088000C801002004000020FF030000FF07000053
:100890003C2F0100190600000024FFFF0028FFFF85
:1008A00000FC0F00FFFF0000C42F010000280AD049
:1008B0000378013B1F2B06D80130002803D00378B2
:1008C000013B1F2BF8D9704710B5064B1B68282039
:1008D0009847041E03D028220021034B984720008C
:1008E00010BDC0460400002045180100F0B55F4669
:1008F00056464D464446F0B487B005000C1E00D164
:10090000BCE10422CA492000CA4B9847002803D101
:100910000223EB60201DC6E10522C7492000C54B1C
:100920009847002803D10023EB60601DBBE104223F
:10093000C2492000BF4B9847002804D10123EB6037
:100940006B61201DAFE12378222B04D12100280008
:10095000BB4B9847A7E12D2B05D01A00303A092A46
:1009600000D9BFE005E001340022B64B04920593A4
:1009700003E00022B44B049205932378303B5942A4
:10098000594164182378313B082B1DD800220023DD
:10099000AE498A46AE4FAF4E10001900A94600225C
:1009A000AD4BD047009001910134631E1878303868
:1009B000B847009A019BB0472378303B092BEED90A
:1009C000009001914D4603E0002200230092019324
:1009D00023782E2B2DD16378303B092B52D801344C
:1009E0000022002302920393984B9946984B984615
:1009F000984F9A4EAB460022974B00980199C847F2
:100A0000009001910134631E18783038C047009A75
:100A1000019BB8470090019100228B4B02980399EB
:100A2000B047029003912378303B092BE3D95D4610
:100A300003E00022002302920393237820229343B1
:100A4000452B26D163782B2B02D10234012707E0F6
:100A50002D2B02D00134012702E0023401277F420E
:100A600023781A00303A092A16D80026B2009619BF
:100A700076000134303B9E1923781A00303A092A57
:100A8000F4D90AE0002200230292039301270026F2
:100A900003E00127002600E000266C4B9A46009AEE
:100AA000019B04980599D047009001917743380045
:100AB000674B9847029A039B664EB04702000B00B3
:100AC00000206549664EB04702000B00009801996E
:100AD000D047A861E961634B984768610323EB60E5
:100AE0002000E0E05B2B3BD1563BEB60601C5E4B93
:100AF00098470400037801305D2B00D1D3E05B4BB5
:100B00009847061EA86000D1BAE02000564CA047C6
:100B100001003000FFF7EAFEA047041E00D1B1E05B
:100B2000524B9846504F10E0C047051E00D1ABE035
:100B300030604660601CB84701002800FFF7D6FE11
:100B4000B847041E00D1A1E02E0023782C2BEBD057
:100B50005D2B01D1601CA6E0454B1C600020A2E08B
:100B60007B2B00D086E0753BEB60601C3E4B9847CA
:100B70000400037801307D2B00D194E03B4B984773
:100B8000071EA86000D183E02000374CA047010079
:100B900038002B4B9847A047002800D17AE03B69EA
:100BA0003B6200233B6103783A2B03D0304B186043
:100BB000002078E001302C4CA04701003800FFF7FE
:100BC00095FEA047041E67D0284B9946264E1C4B25
:100BD000984622E0C847051E60D038604760601C18
:100BE000B04701002800C047B047002858D02B6903
:100BF0002B6200232B6103783A2B03D01C4B186027
:100C0000002050E00130184CA04701002800FFF7F9
:100C10006DFEA047041E45D02F0023782C2BD9D081
:100C20007D2B01D1601C3EE0114B1C6000203AE09E
:100C3000CC330100831D0100D4330100DC330100FB
:100C4000C90600000000F0BF0000F03F8D0A01005F
:100C5000D5160100EDFB000000002440810F0100CB
:100C6000C5E4000069160100AD080000C9080000D5
:100C7000C80100200F4B1C60002014E0002012E08F
:100C8000002010E000200EE000200CE000200AE030
:100C9000002008E0002006E0002004E0002002E040
:100CA000002000E0002007B03CBC90469946A246D8
:100CB000AB46F0BDC801002070B5041E30D00068FE
:100CC00000282ED0A36859186268C018914228DD08
:100CD00001394D100D43AB101D432B111D432B1239
:100CE0001D432B141D4301350E4B1B6828009847EC
:100CF000061E08D10C4B1B682068984700236360D0
:100D0000236000200DE062682168084B9847064B7D
:100D10001B682068984765602660A068301800E06E
:100D2000002070BD040000200000002033180100E6
:100D300070B50600074B9847441C074B1B68200002
:100D40009847051E03D022003100044B9847280025
:100D500070BDC046751D010004000020331801005D
:100D600010B5002808D00368002B07D08468181934
:100D7000034B9847201802E0002000E0002010BD3F
:100D8000751D0100F0B5474680B482B0070001919F
:100D90008469C5690022002320002900554EB04710
:100DA000002816D0019B002B05D002211800524BC1
:100DB0009847060004E0514B1B6802209847060044
:100DC000002E00D190E002224D4930004D4B984753
:100DD0008AE078694C4B984722002B004B4EB04775
:100DE00006004B009C460022494B300066467108C5
:100DF000484EB047002824D0474A484B20002900DD
:100E0000B04700281DD00022454B20002900454E48
:100E1000B047002815D0019B002B05D015211800E4
:100E2000354B9847060004E0344B1B681520984763
:100E30000600002E58D07A693B4930003B4B98475A
:100E400052E0019B002B05D0402118002A4B984707
:100E5000060004E0294B1B68402098470600002E3E
:100E600042D020002900324B984722002B00274F08
:100E7000B84701904F000022254B01987908254F73
:100E8000B84700280FD06F002A4A2B4B2000790862
:100E90002A4FB847002806D022002B0028493000EE
:100EA000224CA04720E06F007B081F00254A264BFC
:100EB000200001973900214FB847002807D10022B0
:100EC000224B20000199224FB847002806D022006B
:100ED0002B0020493000154CA04705E022002B00D4
:100EE0001D493000114CA047300002B004BC9046B0
:100EF000F0BDC04639FB0000B90C00000400002022
:100F0000E433010033180100D5160100810F010000
:100F10000000B03C59FB00000000C0FFFFFFDF41B4
:100F20000000E0C181FB0000E8330100591C010012
:100F300095E3000044F3C2E4E4E9634C45FB0000A0
:100F4000EC3301008DEDB5A0F7C6B03E65CDCD41C7
:100F50006DFB0000F4330100F8330100F0B55F468B
:100F600080B482B00200009001910678002E0CD06F
:100F700033000021614801329B001B58194313784C
:100F8000002BF8D1002921D100E0009A009BD61A4D
:100F9000019B002B05D0F11C1800594B9847050008
:100FA00004E0F01C574B1B6898470500002D00D14A
:100FB0009BE06F1C22242C7000993800524B9847FC
:100FC000BC55BA1900235370280093E0009B002BF6
:100FD00016D1019B002B05D003211800484B9847E0
:100FE000050004E0474B1B68032098470500002DCF
:100FF0007DD0032245492800454B9847280079E0D9
:10100000009C01250027434B9B4631004248D847AE
:10101000002801D0023703E006371F2E00D92F0029
:1010200001342678002E03D07D1C002DEDD12F0039
:10103000019B002B05D0F91C1800314B9847060086
:1010400004E0F81C2F4B1B6898470600002E50D078
:10105000751C22233370009C5C273CE01F2B06D9B3
:10106000222B04D05C2B02D02B70013532E02F7084
:1010700012780C2A19D006D8092A22D00A2A18D0A8
:10108000082A22D10DE0222A07D05C2A02D00D2A9C
:101090001BD112E06F7002351CE022236B70023509
:1010A00018E062236B70023514E066236B70023522
:1010B00010E06E236B7002350CE072236B7002350A
:1010C00008E074236B70023504E0681C1349144B6C
:1010D00098470635013422002378002BBED12233F5
:1010E0002B7000236B70300004E0280002E0280021
:1010F00000E0002002B004BC9346F0BDCC2F0100FC
:10110000B90C000004000020651D0100FC33010043
:1011100033180100351D01000034010008340100BE
:10112000591C010070B500285FD0002B39D0047B1A
:10113000062C5CD8A400314D2C59A7460521180077
:101140002F4B9847041E54D005222E492E4B98470A
:10115000200052E006211800294B9847041E49D070
:1011600006222A49284B9847200046E0052118000E
:10117000234B9847041E3ED005222549224B984711
:1011800020003AE01900234B984736E00069190027
:10119000214B984731E0214CA0472EE0204CA0473E
:1011A0002BE0037B062B27D89B001E4CE3589F4661
:1011B00014481D4B984720E014481B4B98471CE0EF
:1011C0001348194B984718E00021124B984714E038
:1011D00000690021104B98470FE000230F4CA047F7
:1011E0000BE000230E4CA04707E0002005E00020A4
:1011F00003E002E001E000E0002070BD8C2F010060
:10120000B90C0000CC33010033180100D4330100C5
:10121000DC330100850D00005D0F0000AD170000FC
:101220002D120000A82F0100310D0000F0B55F461F
:1012300056464D464446F0B489B0060001919346A7
:101240001C008368002B08D0002700E02F007D1CC5
:101250001B68002BFAD1002D33D1002C09D00321BB
:101260005B46002B01D0019B191D2000C94B9847FC
:1012700008E0C94B1B6803205A46002A01D0019A96
:10128000101D9847002800D1CDE17B2303705B46F9
:10129000441C002B10D0841C0A234370019A1300B5
:1012A000013B002B08DD2300013AA418210009228C
:1012B0001A7001339942FBD17D23237000236370A0
:1012C0005FE2002C00D1A6E0A36802935B46002BEE
:1012D00000D0CAE102212000AE4B9847002800D17F
:1012E000A3E17B23037000234370A3680133A36051
:1012F000B668019B5F1C002E00D1CAE15B465A42D2
:1013000053410222D31A9846A44B9A46A14B9946C0
:1013100000975D46002D00D1AEE1009F390020000E
:101320009C4B9847002800D181E1002F08DD030085
:10133000BC46604409221A7001338342FBD10097F6
:10134000A368009A94466344A3602100306A944BDA
:1013500098472000914B9847A060414620008D4B54
:101360009847002800D0F5E163E1A3684344A360F7
:1013700023002A00009930008A4FB8472000874B8D
:101380009847A06033685A1E93412A00511E8A4133
:101390009B4693445B46591C20007E4B984700288F
:1013A00000D148E13368002B03D0431C2C2202708B
:1013B00000E00300002D02D00A221A70013300223F
:1013C0001A70A3685B44A3603668002EA2D1002D7A
:1013D00000D15EE1019EB11C20006E4B98470500D4
:1013E0000020002D00D1CCE1002E09DD2B00B446F9
:1013F0006544290009221A7001339942FBD101E0AA
:10140000002301937D232B7000236B702068019BC8
:101410009C466044B5E1AC005F4B1B6820009847D8
:101420000490002800D108E15B4B1B68200098471E
:101430000590002805D15C4B1B6804989847002054
:101440009FE1220000210498584B984698472200BB
:1014500000210598C047B668019B5A1C00920722DC
:1014600010005A46002A01D008331800002E00D17F
:1014700080E100235A46002A01D0019B03330693E2
:10148000059B9A46049B994600230793454B984633
:101490004B46A9465246BA46594603918346170021
:1014A0001D000021306A3E4B98470400386000233D
:1014B000039A00993000C0472860002C10D0002803
:1014C00011D03B4B984702902000394B9847069B20
:1014D00002335B44029A944663449B46834404E08F
:1014E0000123079301E0012307933668043704358D
:1014F000002ED6D158464D465746039B9B46079B28
:10150000002B00D136E1002D15DD00240026264BEE
:1015100098461F00059B1859002802D043461B68B7
:101520009847049B1859002801D03B68984701361A
:101530000434B542EED11C4C0598236898472368C3
:101540000498984700201CE1069A961C0A235370C1
:1015500000239370002D00DCA4E0059B9946049BBA
:10156000984600239A464446029503975B46002B13
:1015700000D1D0E0009B002B00DCABE03300019AEF
:101580000132B618310009221A7001339942FBD199
:10159000A0E0C046B90C000004000020610D00006E
:1015A0005D0F00002511000000000020451801001B
:1015B000751D01006E1C2C232B705B46002B02D086
:1015C0000A23337001360023337043461868704D88
:1015D0002B68984738682B68984701239C46E2445B
:1015E00003339C46E1440434029B5345BEDC684C03
:1015F0000598236898472368049898475B46002B12
:101600000BD0019A002A08DD33009446664431006D
:1016100009221A7001338B42FBD17D2333700023E2
:1016200073700698ADE00020ABE00020A9E0002038
:10163000A7E00020A5E00020A3E00020A1E000201A
:101640009FE000209DE000209BE07B230370713B26
:10165000437000238370A3680233A360B668019BC4
:101660005F1C002E00D049E6B4E603212000494B60
:1016700098470028E9D1E2E72100306A464B9847B5
:101680002000D047A06041462000C847002866D10E
:10169000D7E7022120003F4B9847051ED3D0029B7D
:1016A0000193AFE63A4C059823689847236804985D
:1016B0009847A6E7364C059823689847236804980E
:1016C0009847AAE7069A561C00235370002D00DDA8
:1016D00043E7EFE7C8464B461F6838002F4B984753
:1016E00005000200390030002D4B984776193A2347
:1016F0003370B51C313B7370270021682800294BDB
:1017000098472068254B98472D18039B2E009A4533
:1017100000D155E74EE7C8464B461D6828001F4BD1
:10172000984707000200290030001D4B98477D1C98
:1017300075193A23F355270021682800194B98475B
:101740002068164B98472D18039B2E009A4500D110
:1017500039E72FE73A230370313B437005E63A231C
:10176000037002E67B23069A13705B46002B00D0C1
:10177000EAE6A7E70C4B1B68984706900028F1D1D2
:10178000C1E609B03CBC90469946A246AB46F0BDC6
:1017900000000020B90C00005D0F0000751D010065
:1017A00033180100651D010004000020F0B55F46FC
:1017B00056464D464446F0B485B007008A4600922E
:1017C0001E008368002B08D0002500E025006C1C5B
:1017D0001B68002BFAD1002C16D1002E05D0032156
:1017E0003000914B9847040004E0904B1B680320A5
:1017F00098470400002C00D1E0E003228C4920002F
:101800008C4B9847200008E1002E3DD0B3689946E4
:1018100001213000844B9847002800D1D0E05B23A1
:101820000370B3680133B360BC68002C1ED0824FD4
:10183000824D7D4B9B465346591C3300009A90467F
:101840002000B8473000A847B0602368002B0DD0B7
:101850004346002B00D0C4E0CFE000220A70B268FB
:1018600094466344B3602468002CE4D10221300024
:101870006D4B9847002800D1A4E05D23037000233E
:10188000437030684844C8E0A600684B1B683000CD
:1018900098470290002800D196E03200002106000F
:1018A000674B9847BF68002F25D0B14605265346A1
:1018B00001330193604B9A46624B9B46A0464C46CF
:1018C000A946009D00232A0001993800D0472060D6
:1018D000002800D199E0D8472B005A1E93410233CB
:1018E0009E1936183F68002F00D08CE044464D46C4
:1018F000002F0BD101E0002705264C4B1B68300060
:1019000098470390002801D0002F13D0002C0BDD46
:10191000029E00254C4F3068002801D03B68984754
:1019200001350436AC42F6D1474B1B680298984704
:10193000002072E05B23039A1370571C002353703E
:10194000002C31DD029B9946002398463E4B9B4676
:1019500001944E46AA464546009B9846B1463368D8
:1019600000931800374A904704000200009938009D
:10197000304B98473C19AA450BD02C232370434683
:10198000671C002B02D0A71C2023637000233B7030
:1019900000E027004B4618685B461B6898470135F6
:1019A0000436019BAB42D9D1274B1B68029898475C
:1019B0005D233B7000237B7003982EE020002CE019
:1019C00000202AE0002028E0002026E0002024E07B
:1019D000002022E02C230370811C0C3B43701E3B33
:1019E0003BE703213000104B98470028F2D1EDE788
:1019F000411C2C2303702B3B2FE702213000D847DA
:101A00000028F5D1E4E704345CE744464D463B68E2
:101A1000002B00D07AE701276AE705B03CBC90466E
:101A20009946A246AB46F0BDB90C00000400002068
:101A3000103401003318010025110000610D000071
:101A400045180100751D010000000020014B1868B9
:101A50007047C046C8010020F0B5474680B4041E58
:101A600022D0134B98461F001E002568E368DB0553
:101A70000DD4A068002804D0FFF7EEFFE368DB0573
:101A800005D42069002802D043461B689847E368C4
:101A90009B0504D4206A002801D03B6898472000A9
:101AA000336898472C1EE0D104BC9046F0BDC04678
:101AB00000000020F8B505000E001700164B9847EF
:101AC00004000022154B1A60002821D02800144B76
:101AD000984701002000134B9847051E04D12000B1
:101AE000114B9847002016E0002F0CD00C4B984764
:101AF00005000378002B06D020000B4B9847074BBE
:101B00001D60002007E0002E04D03560200002E0B8
:101B1000002000E02000F8BDC9080000C801002036
:101B2000AD080000ED080000591A000010B50022B1
:101B30000021014B984710BDB51A000010B50023D5
:101B400001220021014CA04710BDC0462511000014
:101B50008368002B05D0002001301B68002BFBD1CF
:101B600000E000207047C0468068002807D00029A8
:101B700005DD01390068002801D00029F9D170473E
:101B800070B50D008468002C04D109E02468002C95
:101B900001D105E0034E2900206AB0470028F5D1A5
:101BA000200070BD9D050000836800290FD0002B28
:101BB00001D181600BE01A68002A01D104E01A000B
:101BC0001368002BFBD100E01A0011604A607047D7
:101BD00070B505000E00141E0DD0106A002802D04A
:101BE000054B1B6898473000044B98472062210042
:101BF0002800034B984770BD00000020310D000005
:101C0000A91B0000D0B506000F00074B9847041E23
:101C100008D00323C3608661C76130003900034BDD
:101C2000984760612000D0BDC90800006916010016
:101C300070B50500054B9847041E05D00423C3600A
:101C40002800034B98472061200070BDC9080000A0
:101C5000310D000010B5034B9847002801D0052333
:101C6000C36010BDC908000010B5034B9847002899
:101C700001D00623C36010BDC908000084B0F0B5D0
:101C800085B00A900B910C920D9303908CB20E9D2F
:101C90000F9F0C480C4EB04700953B00039A210063
:101CA0000A48B0470A48B0470A4B1E682B003A0062
:101CB00003992000B047002005B0F0BC08BC04B078
:101CC0001847C046403401008D190100543401000A
:101CD00060340100CC01002010B50D480D4B984731
:101CE0000D4B9847002803D00C480A4B98470EE04C
:101CF0000B48084B98470B4B9847012803D10A48DB
:101D0000044B984703E001000848024B984710BD78
:101D1000643401008D190100FD7A00007434010063
:101D2000B4340100957A0000F03401000C35010054
:101D300070B52D4D28002D4B98472D4C48222D492C
:101D400020002D4B98472D4A2D4B43CB43C22D4AA3
:101D50002D4B43CB43C21B6813602C492C4B0A000C
:101D600043CB43C203CB03C20A23E38401221E33C5
:101D7000E2540421043BE154264BA3616560264BE9
:101D80001B682381002325316354E3602361636171
:101D9000224BA363E3634023E254214B6364214B52
:101DA0001B780020002B1ED01F4B1B78002B1AD055
:101DB0001E481F4B98470E481E4B9847041E08D0DC
:101DC0000B4A1389526801001B48194DA84720008F
:101DD00009E00120194B9847041E04D0010018485F
:101DE000134B9847200070BD08000020DD710000F3
:101DF0008C1B00202452010033180100801B00209E
:101E000018520100701B0020DC5101005C1B0020F7
:101E1000C8510100441A0020080100208813000066
:101E2000D91C0000F7010020E60200202C3501003B
:101E30008D190100797800003C350100DD7A000041
:101E40005C35010010B5014B984710BD2D7A00009C
:101E5000F8B5060008000F4B984705000E4C00230C
:101E600023700E4B9847421CE260A5600C480300AB
:101E700040C3C2CCC2C31A600A4B9847002803D0A3
:101E800001000948094B98472800094B9847002052
:101E9000F8BDC0463D1B0000701B0020751D0100F1
:101EA0005C1B0020F1790000883501008D190100CC
:101EB0000118010010B50C4B19600C4C0C4BA360C1
:101EC0002060002323710B480B4B984720000B4BDD
:101ED0009847041E02D00A480A4B98470A48094B03
:101EE0009847200010BDC046CC010020801B002078
:101EF0007D1C0000B03501008D190100C179000082
:101F0000C0350100AD1A0100D435010010B582B012
:101F1000009313000A000349034CA047002002B0BD
:101F200010BDC04614340100591C010010B5130047
:101F30000A0003491831034CA047002010BDC046D9
:101F400014340100591C010010B584B004000120B4
:101F5000154B984701AA03A902A8144B9847431CA4
:101F600005D11348134B98471348144B98476B46B9
:101F7000981C134B9847002805D00D480D4B9847E7
:101F800010480E4B9847039B2380642102980E4B08
:101F9000984760806B465A880C4B53436360019BA3
:101FA0009B0A237204B010BD0DBD000071B7000084
:101FB000B0400100AD1A0100EC3501008D1901009F
:101FC0008D2F0000083601002DF80000581B00007E
:101FD00010B584B001AC2000074B98472288074B0E
:101FE0001A80227A064B1A70064B62681A60628861
:101FF000054B1A8004B010BD491F00003C1C002096
:10200000E81B0020381C00203E1C002030B587B0A3
:1020100003AC2000474B9847227A0023E15E638897
:10202000009363684448454DA8470023E25E444B53
:1020300000215B5E934206D00021424B1960404B69
:102040001A80002310E03F4B19680131196000230A
:10205000002909DD3C4B00215B5E934203D03A4BE3
:102060001A80012300E0002303AA127A3749097875
:10207000914205D000203649086034490A700DE0CD
:102080003348016801310160002907DD31490978D1
:10209000914203D02F490A7002221343049A2E4919
:1020A00009688A420BD000202C4908602A490A603E
:1020B0002B490A6801320A60012A0DDC15E0274825
:1020C00001680131016000242548046000290CDD0D
:1020D000244909688A4208D01F4A1168214A1160C0
:1020E0000422134300211E4A116003AA52881E498C
:1020F0000988914205D000201C4908601A490A80CD
:102100000DE01A48016801310160002907DD184916
:102110000988914203D016490A8008221343002BF4
:1021200005D0144A146803980499059AA04707B08B
:1021300030BDC046491F0000243601008D19010042
:10214000F4010020F00100203C1C0020E8010020E8
:10215000E4010020E81B0020EC010020D801002051
:10216000D0010020381C0020D4010020E001002014
:102170003E1C0020DC010020064B00229B5E0380F9
:10218000054B1B780372054B1B684360044B1B888F
:10219000438070473C1C0020E81B0020381C0020B6
:1021A0003E1C0020014B18607047C046DC01002037
:1021B000014B18707047C046F6010020014B18789B
:1021C0007047C046F6010020F8B55F4656464D46BA
:1021D0004446F0B414001D00012900D0D5E06E483B
:1021E0006E4B984714226E4920006E4B984700288A
:1021F00022D16D48694B98476C4B1B78012B00D955
:10220000C3E00122694B1A706948644B98475A230E
:10221000AB704A3BEB7000232B718122AA71EB71EA
:102220002B726B72AB7228000B307B3A6149624BA8
:10223000984713232B80A8E0072260492000594BC0
:10224000984700286FD15E48544B9847574B1B78EE
:10225000012B64D1E6792100083132005948564BF0
:102260009B46984700239A46564B52469A55A319C7
:102270001F7A31000931C9B261183A005248D84773
:10228000514B5246DA55F11963185A7A90469B7AA7
:1022900099460B3161181A004C48D8474B4B4A46B7
:1022A0005146995447494A484A4CA04746494A48EA
:1022B000A04741464948A04744494948A0474346AA
:1022C000023B022B02D8002F05D15AE04346012BD6
:1022D00021D1002F1FD1002E1DD0424B42461A7033
:1022E00041482E4B98475A23AB704D3BEB7000236F
:1022F0002B718122AA71EB712B726B72AB72280069
:102300000B307A3A39492C4B984710232B80022204
:10231000264B1A7039E00122244B1A7035E0012255
:10232000224B1A7031E00722314920001D4B98479B
:10233000002822D11D4B1B78022B1AD15833AB70C9
:102340004D3BEB7000232B718122AA71EB712B7234
:102350006B72AB7228000B307A3A2449164B9847BF
:1023600010232B800322114B1A7022480B4B9847E5
:102370000BE001220D4B1A7007E001220B4B1A7083
:1023800003E04346012BC6D1A5E73CBC90469946E5
:10239000A246AB46F8BDC04668360100AD1A010042
:1023A00084360100151801009C360100F60100205A
:1023B000C43601002822002033180100E83601004D
:1023C000F0360100A4080020F80100206808002071
:1023D0001C3701008D19010030370100443701001E
:1023E00054370100E802002060370100783701000F
:1023F000803701008837010070B5134B9847041EE1
:1024000007D1124B984701001148124B9847002002
:1024100019E01149114B98470500016910480D4B0F
:10242000984728690F49104B98470025002806D186
:102430000E492000094B98470D4B98470500200096
:102440000C4B9847280070BD2D1B00004D1A000052
:10245000A03701008D190100C0370100811B000069
:10246000C8370100DC370100511D0100E4370100CD
:10247000511B0000591A0000F0B583B00D00009206
:102480001E00234B9847041E07D1224B984701009A
:102490002148224B9847022037E02149214B984799
:1024A0000700016920481D4B984738691F49204B98
:1024B0009847002824D11F4920001A4B984707004D
:1024C0001D4B9847A84204DC20001C4B9847012074
:1024D0001BE0290038001A4B98471A490190114F08
:1024E000B847050018490198B84741693160174855
:1024F0000A4B984729690098154B9847002500E03A
:10250000022520000D4B9847280003B0F0BDC046BF
:102510002D1B00004D1A0000A03701008D1901008D
:10252000C0370100811B0000C8370100DC37010003
:10253000511D0100E4370100511B0000591A000031
:10254000691B0000EC370100F8370100003801007A
:10255000651D010070B5324B9847051E07D1314B00
:10256000984701003048314B9847092057E03049DF
:10257000304B9847040001692F482C4B9847266937
:102580002E4930002E4B98470224002843D02D4975
:1025900030002B4B9847002400283CD02A493000BB
:1025A000274B98470134002835D028493000244B68
:1025B0009847023400282ED025493000204B9847F8
:1025C0000134002827D0234930001D4B98470024B0
:1025D000002820D020493000194B984705340028A6
:1025E00019D01E493000164B98470434002812D1E8
:1025F0001B4928000F4B984706691A493000104BB9
:102600009847023C002806D0174930000C4B9847E9
:10261000002800D101342800144B9847200070BDD9
:102620002D1B00004D1A0000A03701008D1901007C
:10263000C0370100811B0000C8370100DC370100F2
:10264000511D0100443801004C3801005038010090
:102650005C3801006C380100783801008C380100CA
:1026600094380100A0380100A8380100591A000070
:10267000F0B55F465646C0B485B007000E00029222
:1026800003932F4B98470090002803D12D482E4BE1
:102690009847FEE72D482E4CA04702002D49009890
:1026A0002D4DA8472D48A04702002D490098A84766
:1026B0003800A04702002B49009F3800A84730008F
:1026C000A0470200284900973800A847274B9847A1
:1026D00001901B4B9B46984706002548A0470200E7
:1026E00024493000A847244B9A4602989847234F24
:1026F000B847020022493000A84731000198214E16
:10270000B047D84702902048A04702001949029CD0
:102710002000A8470398D047B84702001849200076
:10272000A8472100019C2000B04722001749009CC7
:102730002000A847200005B00CBC92469B46F0BD87
:10274000691C0000F83801008D19010014390100DE
:10275000311C000020390100D11B0000503801005D
:10276000C03701002839010010380100551C000055
:1027700030390100EC370100D5160100051C0000BE
:10278000F8370100A91B000038390100E4370100C7
:10279000F0B55F4656464D464446F0B485B0070056
:1027A000019191460393304B984704002F4B984773
:1027B0000290002C01D0002803D12D482D4B9847C2
:1027C000FEE72D482D4EB04702002D4920002D4D2B
:1027D000A8472D48B04702002C492000A8472C48A4
:1027E000B04702002B492000A8473800B04702003C
:1027F00029492000A8470198B04702002749200036
:10280000A8474B46002B21DD039D0026164B9B4617
:102810001A4F234B9846D84701902800B84702002A
:1028200041460198174B9A469847286A1D4B98478E
:102830001D4B984702001D490198D0470199029805
:102840001B4B984701362435B145E4D1029A19490A
:1028500020000C4B9847200005B03CBC90469946A0
:10286000A246AB46F0BDC046691C0000551C0000E6
:10287000F83801008D19010014390100311C0000E5
:1028800020390100D11B0000680800203C390100FC
:102890005C380100C0370100283901001038010000
:1028A000EC370100D5160100051C0000F8370100C7
:1028B000A91B0000E4370100F0B55F4656464D46BF
:1028C0004446F0B485B00700019191460393304B24
:1028D000984704002F4B98470290002C01D0002805
:1028E00003D12D482D4B9847FEE72D482D4EB0477C
:1028F00002002D4920002D4DA8472D48B047020069
:102900002C492000A8472C48B04702002B49200042
:10291000A8473800B047020029492000A84701987D
:10292000B047020027492000A8474B46002B21DD75
:10293000039D0026164B9B461A4F234B9846D847BB
:1029400001902800B847020041460198174B9A466B
:102950009847286A1D4B98471D4B984702001D4910
:102960000198D047019902981B4B984701362435AE
:10297000B145E4D1029A194920000C4B9847200038
:1029800005B03CBC90469946A246AB46F0BDC04659
:10299000691C0000551C0000F83801008D19010069
:1029A00014390100311C000020390100D11B000046
:1029B000680800203C3901006C380100C037010074
:1029C0002839010010380100EC370100D51601004C
:1029D000051C0000F8370100A91B0000E4370100C6
:1029E0001E4B1B78012B0DD100221C4B1A701C4B67
:1029F000802212039A61802212029A618022D201FF
:102A00009A6129E00122154B1A70164B1B78002B96
:102A100004D080221203124B9A6103E08022120339
:102A20000F4B5A61104B1B78002B04D080221202EE
:102A30000B4B9A6103E080221202094B5A610B4B47
:102A40001B78002B04D08022D201054B9A6103E051
:102A50008022D201024B5A617047C046411C0020BF
:102A600000280040421C0020401C0020441C002084
:102A700070B582B01F4E0022327001231E490B70C8
:102A80001E490B701E490A7001AC6370A27023705E
:102A9000210013201B4DA84721000F20A84721002B
:102AA0000E20A8473378002B04D080221203164B47
:102AB0009A6103E080221203134B5A610E4B1B787C
:102AC000002B04D0802212020F4B9A6103E0802277
:102AD00012020D4B5A61094B1B78002B04D0802247
:102AE000D201094B9A6103E08022D201064B5A6160
:102AF00002B070BD421C0020401C0020441C00207D
:102B0000431C0020C5C7000000280040014B187876
:102B10007047C046431C0020062853D88000424B13
:102B20001B589F460023414A1370012240480270FF
:102B300040480270404A137044E001233B4A13703E
:102B400000203B4A10703B4A13703B4A137039E037
:102B50000123364A1370364A13700022354B1A701F
:102B60000232354B1A702DE00122304B1A700023CF
:102B70002F4A13702F4A137003222F4B1A7021E033
:102B800000232A4A13700120294A1070294A137021
:102B90000422294B1A7015E00023244A1370244A9A
:102BA00013700122234B1A700432234B1A7009E070
:102BB00001231E4A13701E4A13701E4A1370062208
:102BC0001D4B1A7000292BD11C4B1B78012B29D1CE
:102BD000164B1B78002B04D080221203184B9A61ED
:102BE00003E080221203164B5A61114B1B78002B15
:102BF00004D080221202124B9A6103E0802212025A
:102C00000F4B5A610B4B1B78002B04D08022D20152
:102C10000B4B9A6106E08022D201094B5A6101E018
:102C2000084B19707047C04658390100421C0020FB
:102C3000401C0020441C0020431C0020411C00209C
:102C400000280040451C00201F4B1870012802D0AE
:102C500002280ED037E000221C4B1A701C4B802239
:102C600012039A61802212029A618022D2019A6133
:102C700029E00122154B1A70164B1B78002B04D04B
:102C800080221203124B9A6103E080221203104B40
:102C90005A61114B1B78002B04D0802212020C4B7E
:102CA0009A6103E080221202094B5A610B4B1B7898
:102CB000002B04D08022D201054B9A6103E08022D0
:102CC000D201034B5A617047451C0020411C002073
:102CD00000280040421C0020401C0020441C002012
:102CE000014B18707047C0464525002030B583B0B1
:102CF000144B1B78002B23D0134D2800134CA047F6
:102D00001348A047134B98472800A047124C0222B3
:102D1000A35E0021625E0620215E0425605F0090B4
:102D20000E480F4DA847074B1A7823886088000487
:102D30001843A388E188090419430A4B1B68984784
:102D400003B030BD45250020B0400100AD1A0100A0
:102D5000743901003D9C0000A8230020883901003F
:102D60008D190100481C0020014B18607047C046B7
:102D7000481C002010B582B000226B461A700B4B25
:102D80005B68DB061B0F69468B70CA700A714A705C
:102D90006846074B984704000648074B98472100B0
:102DA0000648074B9847200002B010BD0040004184
:102DB00015010000B0400100AD1A0100AC3901005E
:102DC0008D190100F8B50E480E4CA0470E48A047DB
:102DD0000E4AFF210E480F4B9847FF24A4020E4FC6
:102DE0000B4E0E4D2000B8470D4BE11889194022BB
:102DF0002000A84740348023DB029C42F2D1F8BD7A
:102E0000B0400100AD1A0100B8390100DC05000036
:102E10004C1C002045180100A103000049020000DD
:102E20000004FCFFF0B587B00190184E3000184C3C
:102E3000A0471848A04702A8174B98473000A04762
:102E400002AB19781548164FB8473000A04702ABBF
:102E500059881448B847144A00211448144B98471D
:102E6000FF24A402114D134F8026F602124BE118E5
:102E7000491940222000B8474034B442F6D1A2227A
:102E80000A4901980D4B984707B0F0BDB0400100CA
:102E9000AD1A0100CC3901001D040000E039010029
:102EA0008D190100F4390100DC0500004C1C0020E4
:102EB000451801001D0300000004FCFF3318010049
:102EC00084B0F8B50690079108920993164B98477D
:102ED000164F174A00213800164B9847164E3000FF
:102EE000164DA847A2211648164CA047A22206A9B3
:102EF0003800154B98473000A847192169441348FA
:102F0000A047FF24A402094F114E8025ED02114B6A
:102F1000E118C91940222000B0474034AC42F6D134
:102F2000F8BC08BC04B01847C52D00004C1C00209C
:102F3000DC05000045180100B0400100AD1A010099
:102F40000C3A01008D19010033180100203A0100EC
:102F5000490200000004FCFF00B585B003AA00236D
:102F60001370537093701021684601800D394180B1
:102F7000019203724372837269460248024B98477A
:102F800005B000BD041C002079B2000010B588B067
:102F900004001F236B4404221A70002107AA118029
:102FA00004A910220A800F3A4A804B6000230022B5
:102FB0000A724B728B720E480E4B9847031E15D146
:102FC00001A910330B800E3B4B8007AB4B600023F5
:102FD0000B724B728B720648074B9847002805D13D
:102FE00007A94B781B0209780B43238008B010BD5A
:102FF000041C002099B2000059B20000F0B5A9B03D
:103000000D006B46D98004AB144A1E0082CA82C6EA
:103010002D141D620DAD124A42CA42C504B25C6451
:1030200016AC104A22CA22C4001498661FA80E4A81
:1030300012CA12C06A46D28811B28C229950883ABC
:103040000A490B480B4CA047040001000A480B4BEF
:10305000984720000A4B984729B0F0BDC43A0100B8
:10306000CC3A0100D43A0100DC3A0100441A0020B5
:10307000E43A0100B9280000541A0020511E000053
:10308000591A000030B5A9B00190029103920022B4
:10309000D9070AD504AA2A49086804900979117148
:1030A00001A90020095E0C91012299070BD504ACFF
:1030B000D10088188000234D2550211801A8007ADE
:1030C0000862013252B2590711D5D1008818800028
:1030D00004ACA44660441C4C25880580A478847008
:1030E00089188900614402980862013252B21B07B4
:1030F00013D5D3009918890004A884466144134865
:1031000030C830C10C00017821709B189B006344CB
:1031100001A949881962013252B204AB0C490D4829
:103120000D4CA047040001000C480D4DA84721009C
:103130000C48A84720000C4B984729B030BDC0462A
:103140003039010068756D0038390100F43A01002A
:10315000441A0020E43A0100B9280000541A002063
:10316000511E0000901A0020591A000010B582B0BC
:10317000284B00201856431C0AD0274B98470200C2
:10318000244C002161562548254B9847FF23237086
:10319000244B1B78002B11D0234B9847002803D0D9
:1031A0002248234B984732E02248214B984700227F
:1031B0001C4B1A70FA2040001F4B98471F4B1B787E
:1031C000082B06D11E481A4B984701221B4B1A7038
:1031D0001DE01C48164B98471B4C20001B4B984782
:1031E0001B4B1A78C1B2FF2300931A4B20001A4CD4
:1031F000A047002803D019480D4B9847FEE700234D
:10320000174A13700D4A13700420164B984702B0EA
:1032100010BDC0460C01002041710000003B0100C0
:103220008D190100E7020020B9530000283B01007E
:10323000AD1A0100503B01006D3E00000D01002061
:103240007C3B0100A03B0100A4080020751D01008B
:10325000E8020020F801002065530000BC3B01009B
:1032600064080020B1210000F0B587B02C2805D0FB
:10327000322839D01B2800D0A5E09BE00B78012B29
:1032800005D15248524B9847524B98479BE0002B30
:1032900000D098E050484E4B9847504B1B78012B7C
:1032A00011D14F4B1B78012B00D08CE009224C4BE5
:1032B0001A704C48464B9847032100204A4B9847C8
:1032C0004A4B98477FE00022494B1A70494C200036
:1032D000494B9847494B1A78C1B2FF230093484B9A
:1032E0002000484CA0476EE08B784A780878C9786F
:1032F000009101004448454CA04701223C4B1A7004
:103300000420434B9847354B1B78012B4FD1414B41
:1033100000201856431C42D10022012103303E4BAD
:1033200098473C4B187000282FDB02A902230B8022
:103330003A4B4B8000234B601022394B9847041EB8
:1033400009D13848314B98473748214B98470D20D1
:10335000364B984727E0334E30002C4DA8472100CC
:103360003348A8470D20314FB8472A4C002020563B
:10337000304B98473000A847002161562E48A84797
:103380000D20B847FF2323700DE026481F4B9847B8
:103390002A480F4B98470D20244B984703E0002202
:1033A0000021274B984708220D4B1A700BE0254B44
:1033B000984708E02448064B98470122234B1A708F
:1033C0000132074B1A7007B0F0BDC046E03B010068
:1033D000AD1A010081530000183C01006408002070
:1033E0000D010020503C0100192B00006D31000040
:1033F000F7010020A4080020751D0100E80200204C
:10340000F801002065530000683C01008D1901009F
:10341000492C00000C010020FD6C000022C3FFFFBE
:10342000816E0000A03C0100AC3C0100C11901000C
:10343000CC3C010041710000F03C0100143D010052
:10344000616F0000015400003C3D0100E6020020D5
:10345000F0B5BFB003900E0017001C005649574846
:10346000574DA84700943B00320003995548A847A0
:103470005548A8472000554B9847022827D12000DF
:10348000534B9847002800DC93E035AB36AA002167
:103490002000504CA047359A36A94F48484B9847D2
:1034A000359B012B09D0022B0CD0002B00D080E0E3
:1034B00000210020494B98477BE000210120474B29
:1034C000984776E000210320444B984771E000289C
:1034D0001CD108AC2000424B98474248424B9847C9
:1034E000227A0023E15E6388009363683F48344D8D
:1034F000A84763680021625E3D493E483E4CA047B4
:10350000040001003D483E4B98474DE0012845D15D
:1035100005AC2000324B98473248334B9847227A0B
:103520000023E15E6388009363683048244DA84718
:1035300008AB344A1168089112791A710021625E51
:103540001092314A1192227A19921AAA2F490888A8
:103550001080897891706268229223A92C4A21CA2E
:1035600021C112780A7061888C229950294B1A68FF
:103570002C921A792CAB1A71274B9847032800D14B
:103580000138349008AB052219491A48234CA0474A
:103590000400010022481A4B984705E0082808D18A
:1035A0000338204B984704E0002C02D020001E4B2B
:1035B00098473FB0F0BDC046A43A0100443901002D
:1035C0008D190100543401006034010055250000BC
:1035D000F9230000792400004C3D0100192B000064
:1035E00079210000B0400100AD1A01006C3D0100DE
:1035F000441A0020E43A010071260000901A0020CD
:10360000511E00003039010068756D003839010025
:10361000F43A0100AC3D01000D2B000091270000A1
:10362000541A0020E12C0000591A0000F0B557464A
:103630004E46C0B4EDB004000D008B781B024A78F2
:103640001343073B9BB23D4A934272D80E798C22BA
:103650005200002126A83A4B98472A00093226AB8F
:1036600031002000374EB04726AEEB787371364FED
:103670003800364DA84731883548364B98473800D2
:10368000A8473548A847328800239A21694420007A
:10369000324CA047324B984703284AD1F230FF30D2
:1036A000304B9847304D2800304B99469847304C66
:1036B0002227E055FF239A46190001402D48254E48
:1036C000B047E25D29002C482C4DA8472A492C48D8
:1036D000B0472C4F3800C84702006423E054200054
:1036E000233053461A403900A847274B1A786523E0
:1036F000E254643B2370254F3800C8470200200085
:1037000066303900A8472100103192226846A84748
:1037100020686168A268E3681D4DA8471D480B4BEF
:10372000984720001C4B984713491C48B0471C4B36
:1037300098476DB00CBC91469A46F0BD6D050000EF
:1037400045180100C9210000B0400100AD1A010078
:10375000B43D01008D190100CC3D01001570000041
:10376000BD2100006D3E0000A4080020751D010071
:1037700044020020D83D010045020020331801001A
:10378000E83D0100F8010020E80200206808002060
:10379000C12E0000F43D0100252E0000083E01006E
:1037A0006D310000F8B505000C0017007248734E2B
:1037B000B04773497348B0470D20734B9847092CA5
:1037C00000D9C3E0A300714AD3589F46704B002430
:1037D0001C57AC4200D0CEE0002F1DD00023FB567A
:1037E000002B1FD1002120006A4B9847051E09DAE3
:1037F0006148624CA04729006748A0470D20624BF2
:103800009847B8E05C485D4DA84721006348A84749
:103810000D205D4B9847AEE000231B785BB2002B78
:1038200000D1A8E05448554CA047002179565C4887
:10383000A0470D20544B98479DE0554B1B785BB239
:10384000AB4200D097E0002F12D00023FB56002B94
:1038500013D1002200212800524B98474648474C7C
:10386000A04729005048A0470D20474B984782E0C9
:1038700000231B785BB2002B7DD03F483F4CA04714
:10388000002179564948A0470D203F4B984772E0E8
:103890003F4B1B785BB2AB426DD1002F14D00020A0
:1038A0003856002806DB0023AF22D2004049414CA5
:1038B000A04760E03048314B98473F483F4B98471E
:1038C0000D20314B984756E02B482C4B98473C48ED
:1038D0003A4B98470D202C4B98474CE0002F24D0B2
:1038E0003968002915D00422BB5E002B11D0354861
:1038F000224B984739680B785A2B02D12800324B5B
:103900009847324BAF22D20029492800294CA047C2
:1039100031E01948194CA0470423FA5E29002C48CD
:10392000A0470D20184B984725E01348134B9847A4
:103930002848224B98470D20134B98470023AF226D
:10394000D2001B4928001B4CA04714E0092C09D9C0
:1039500009480A4DA84721001F48A8470D200A4BD7
:10396000984708E00448054DA84721001B48A84790
:103970000D20054B9847F8BDA03C01008D190100B2
:103980007C3A0100183E0100C11901002C3A0100E7
:103990000C010020096F0000203E0100403E0100A4
:1039A000583E0100616F0000703E0100883E01003A
:1039B000EC020020AD700000A03E0100AD1A010035
:1039C000B43E0100C43E01002D360000C0270900AE
:1039D000D43E0100F03E0100003F0100143F010011
:1039E000014B18707047C0460D010020014B18783C
:1039F0007047C0460D010020014B18787047C04643
:103A000064080020F0B58BB04148424B98474249CA
:103A10004248434B98471822002104A8414B98473D
:103A2000414B049304A8414B9847011E03D04048E2
:103A30003B4B9847FEE73F4E30003F4B984734489A
:103A4000344DA847B3787278317870790290307924
:103A50000190F07800903948314FB8477378327848
:103A6000374C7179039131790291F1780191B178F4
:103A7000009134492000344EB0470023237324487A
:103A8000A84721003148B847314B2200314932481C
:103A9000324EB047324B22002E493248B0471C48C4
:103AA000A8472D493048B8471948A8472D492F48FD
:103AB000B8472F4B1B78013BDBB2FD2B20D92D489B
:103AC000144FB8472A4C2C4B220003CB03C21B785F
:103AD00013702A4D2A4B2A0003CB03C2294E02231E
:103AE0003370002363722B720948B8473378082279
:103AF0000192013200922A0021002348084CA0477D
:103B00002248234B98472348234B98470BB0F0BDDE
:103B1000B0400100AD1A0100703A0100183E0100EA
:103B20008D1901004518010069320000A54F000001
:103B3000383F010028220020D9530000603F0100D7
:103B4000441A002028380100591C0100903F010050
:103B5000B03F0100E43A0100081B00200D1F0000E7
:103B6000BC3F0100541A0020C83F0100E43F01009F
:103B7000A4080020FC3F010010400100F8010020D3
:103B80001C400100E80200202840010085300000B0
:103B9000A5210000FD2F0000692D000070B5A4B024
:103BA0000020814B9847814B1A78062A00D9F9E00A
:103BB00093007F4AD3589F46032102207D4B9847AC
:103BC00002AC8822002120007B4B98477B4B2200CF
:103BD00023CB23C203CB03C21B7813707848794BE5
:103BE00098472000784B98470D284BD924AB1918DB
:103BF0008939734B5B790F221A4014003034092A3B
:103C000001DD373214000C7024AA12188A3A1B09FD
:103C100019003031092B01DD37331900117024AB45
:103C200019188B39664B1B790F221A401400303457
:103C3000092A01DD373214000C7024AA12188C3ABC
:103C40001B0919003031092B01DD373319001170C0
:103C500024AB19188D395A4BDB780F221A40140007
:103C60003034092A01DD373214000C7024AA94463E
:103C700060448E381B091A003032092B01DD3733BE
:103C80001A00027002AC06222123E254203B393292
:103C9000A354C0210232A15418390132A154013277
:103CA000A3540132A3544948494B984749494A48CB
:103CB0004A4B984720004A4B9847002803D0494870
:103CC000434B9847FEE7484B984700214748484BED
:103CD00098470123474A1370474A13700722334B12
:103CE0001A705FE039483A4B9847444D444C2A00DB
:103CF00021004448394B984700263F4B1E70200056
:103D0000414B9847414B1A78C1B2FF2300932B00D7
:103D100020003F4CA047254B1E7043E03D4B984789
:103D2000002806D102303C4B984703221F4B1A70E3
:103D300038E03A48264B984734E0394939483A4BFD
:103D4000984700281FD1394E394C3A4A310020009B
:103D5000394DA847394A31003948A8471B481C4B00
:103D60009847210037481D4B98472D4920002E4B7E
:103D70009847002803D104220C4B1A7012E03248F5
:103D8000134B98470EE03048114B98470AE06420E7
:103D90002E4B9847193005D12D480D4B98470120DF
:103DA0002C4B984724B070BDD55000000D01002069
:103DB000543A0100192B0000451801006040010031
:103DC0003C020020D95300007D420000B0400100B9
:103DD000AD1A0100943A0100784001008D190100EC
:103DE000855300008C400100A56C0000A537000041
:103DF000E96C0000E702002064080020F8010020C0
:103E0000A4080020B4400100751D0100E802002054
:103E100065530000311D0000492C0000D84001000E
:103E200051340000081B0020B51E00006808002067
:103E3000CC1A0020443801002D1F0000503801002A
:103E4000901A0020F040010010410100451E0000C2
:103E500030410100F5C4000010B5034B1B68002B76
:103E600000D0984710BDC046C808002070B5002893
:103E700006D00400034D0120A847013C002CFAD1D4
:103E800070BDC046F5C40000F0B5474680B40B4D88
:103E90002F00803780239B0098467B6108266E6147
:103EA0006420074CA0474346BB616420A047AE6135
:103EB0006420A04704BC9046F0BDC04600280040E6
:103EC0006D3E000070B582B00023174A136001AC4C
:103ED00001256570A370257021000320134EB047A3
:103EE00021002920B04721002820B047104B1A009C
:103EF000803280218900516108225A610D4B1B6874
:103F00001D4203D00B4B1B689B0701D40A4B9847FB
:103F10000A4B984701220A4B1A70BFF35F8F62B6B3
:103F2000002002B070BDC046C8080020C5C7000010
:103F30000028004010E000E0B5C40000893E000009
:103F40003801002010B584B00E4B186001AC200081
:103F50000D4B9847102301930023636001332372B4
:103F60000133E37221000020084B98470022002112
:103F70000748084B984700210020074B984704B09A
:103F800010BDC046C808002029C700003DC700007A
:103F9000593E000091C50000BDC5000010B50028C5
:103FA00004D000210020044B984703E000210020AA
:103FB000024B984710BDC046BDC50000DDC50000DE
:103FC00030B591B0314C0623237000236370A37089
:103FD00001A901224A708B700A7006202C4B984769
:103FE0002378D9090022002904D15A09D20129498C
:103FF0008C4662441F210B401E3908009840906196
:1040000002AC2170002303930493C0229203059213
:1040100023746374A174E17423752422A354183AA1
:10402000002108A81C4B98471C4BA3621C4BE36261
:1040300001235B4223631B4B63631B4BA361220081
:104040008421C90519481A4B9847002819D1174DE2
:104050002C682000174B98471F2318401E3B8340B5
:10406000154A13602A68D369002BFCD122680233F9
:1040700013432360114B98470120114B98470020B0
:1040800001E00620404211B030BDC0463022002081
:10409000C5C70000002800404518010003000400C7
:1040A0000300050003000700001BB70034220020B6
:1040B000FD72000025CC000000E100E0893E000018
:1040C0006D3E0000F0B55F4656464D464446F0B49E
:1040D00085B0032864D10F684E680D89002202ABB9
:1040E000DA71002E02D1002F7AD150E0002D51D08C
:1040F00000230193002F03D10133019302ABDF1D95
:104100000024002E5BD1013402ABDE1D57E03C7869
:1041100053461B68197E0142FCD0197E0142FCD037
:104120009C62197E1142FCD049468C79197E11425D
:10413000FCD0598B0025114205D0598B45462943A7
:1041400089B259831E25012C03D1996AC905C90D6D
:1041500001E0996AC9B2002DE8D13170009D013D9E
:10416000ABB21C0000935E44019B59424B41FF18C7
:10417000002CCCD1204B196802220B7E1342FCD0BC
:1041800000221E491C481E4B984700202DE00F209E
:1041900040422AE00F20404227E00F20404224E026
:1041A0001022FF3217491848184B98471848194BE6
:1041B00098470D20184B98470120404215E00122F6
:1041C0000E490D480E4B98470B4B9A46012004228E
:1041D000994604239846634263419B46009596E7BF
:1041E000002DDAD0002301938AE705B03CBC90464D
:1041F0009946A246AB46F0BD342200203022002072
:104200001D7500006C410100444101008D19010041
:1042100058410100AD1A0100C119010070B50B4DE4
:104220002C6820000A4B98471F2318401E3B8340F0
:10423000802208498B502A68D369002BFCD123685F
:10424000022293432360002070BDC0463422002028
:1042500025CC000000E100E0002A06D082180B788F
:104260000370013001319042F9D17047002A04D027
:104270008218017001309042FBD170470300027830
:10428000002A07D00020013080B201331A78002ABA
:10429000F9D100E000207047024AD3780133DBB245
:1042A000D3707047702200207047C04600B583B0BD
:1042B00000220A4B9A700120094B984701A909482E
:1042C000094B9847002806D10221019B194301910F
:1042D0000448064B984703B000BDC046702200203A
:1042E0009D3F0000701000006559000071590000EA
:1042F00010B50C4B9B780020002B11D1094B5B783B
:10430000002B07D1074B1B78002B03D0064B984797
:10431000002805D1034A53780133DBB253700020E3
:1043200010BDC04670220020E1550000054B5B78AF
:10433000002B04D0034A5378013BDBB253700020BA
:104340007047C0467022002010B50A4B5B78002BE6
:1043500004D0084A5378013BDBB25370054B5B78BD
:104360000020002B05D1034B1B78002B01D0024B02
:10437000984710BD702200207D550000F0B55F46C3
:104380005646C0B48BB083460C000392029312AB26
:1043900080CB1E8814AB1D887F220A4009AB5A705F
:1043A000187008225A80002F05D05A889219AA182E
:1043B00092B25A8006E009AB5A8802998C46624450
:1043C00092B25A80664B98470190002800D0ADE029
:1043D000079004AAD0800690069B5A461A4306927C
:1043E000069A23021343069309AB5B88069A1B04C3
:1043F0001343069306995B485B4B9847041E00D015
:10440000A5E000230693069A023313430693069908
:104410005648554B9847041E00D098E0002207925A
:1044200004ABDA8006331B889BB2514A934238D8DA
:10443000504C514B9A4606A94C48A047002830D111
:1044400004AB06331B889BB2F422FF32934211D98E
:1044500004AB06331B889BB20132934208D847480D
:10446000474B98474748484B98470D20474B98473C
:104470000120D047069B9B0708D407A944483D4B21
:104480009847041E0DD00023079360E004ABDA8840
:10449000013292B2DA8006331B889BB2344A9342CF
:1044A000C9D9079B002B3CD0079B089309A94B88CF
:1044B0009BB24B8008980822364B9847041E46D181
:1044C000089B08330893039B002B0BD00898029A93
:1044D0001900304B9847041E39D1089B029A944624
:1044E00063440893002F0ED0089B029AAD1AED1872
:1044F0000895089832003900264B9847041E26D1AB
:10450000089BF3180893079B9B000693069A0223C7
:104510001343069306992048134B9847041E16D15F
:1045200012E01E4B98470320404213E0CB2252007A
:104530001B491C48124B98471B48134B98470D20AA
:10454000124B9847019805E0144B984702E0174B2F
:10455000984720000BB00CBC92469B46F0BDC0466D
:10456000F14200008C10000071590000781000002A
:10457000E7030000655900006D3E0000A03C01000B
:104580008D190100C8410100AD1A0100C1190100D7
:1045900000041500E55900006C10000049430000BC
:1045A0009C44010044410100D84101002D4300001A
:1045B000F0B54F464646C0B487B0CD4B98469946B5
:1045C000CC4ED9E14B46DB78013BDBB24A46D37097
:1045D00003A9C948B047041E00D06FE1039BDB0765
:1045E00000D45CE10020C54B98470123039999430F
:1045F0000391C148C24B9847041E00D06CE10122D0
:10460000BB4B9A70039B99040F0D00D138E1002336
:10461000059305A9BB48B74B9847041E0FD0C82285
:10462000FF32B949B948BA4B9847BA48BA4B98478C
:104630000D20BA4B98470120B04B98474AE1AC4B4C
:10464000059A5A609F6004AD042229000598B44B76
:10465000984704006B889BB26B8000280FD0D22251
:10466000FF32A949A948AA4B9847AE48AA4B984798
:104670000D20AA4B98470120A04B98472AE104AB94
:104680005B889BB29F421DD004AB5B88FB1A042B56
:1046900018DDED2252009C499C489D4CA04704A97E
:1046A0004A8892B20B78DBB24978009139009E4873
:1046B000A0470D20994B98470120904B984706241E
:1046C000644207E104AB1B78012B1CD1884BDB68EB
:1046D000002B0BD0864BDB6804AA5078C0B25188FF
:1046E000059A0832083989B29847B0E0F32252009F
:1046F00085498648864B98478C48874B98470D20BC
:10470000864B9847A3E004AB1B78022B1CD1784B57
:104710001B69002B0BD0764B1B6904AA5078C0B2E2
:104720005188059A0832083989B298478FE0F722F4
:10473000520075497548764B98477D48764B9847A7
:104740000D20764B984782E004AB1B78042B1CD1DC
:10475000674B5B69002B0BD0654B5B6904AA5078F3
:10476000C0B25188059A0832083989B298476EE07C
:10477000FB22520064496548654B98476D48664B7B
:1047800098470D20654B984761E004AB1B78062BDA
:104790001BD1574B1B6A002B0BD0554B1B6A04AA2D
:1047A0005078C0B25188059A0832083989B29847C2
:1047B0004DE0614A54495548554B98475F48564B20
:1047C00098470D20554B984741E004AB1B78072BC9
:1047D0001BD1474B9B69002B0BD0454B9B6904AA0F
:1047E0005078C0B25188059A0832083989B2984782
:1047F0002DE0534A44494548454B98475148464B5C
:1048000098470D20454B984721E004AB1B78052BBA
:104810000FD1374B5B6A002B19D0354B5B6A04AA6A
:104820005078C0B25188059A0832083989B2984741
:104830000DE0454A34493548354B98474348364B97
:1048400098470D20354B98470624644242E0284B98
:104850009B78002B3ED03E4A2B492C482C4DA84734
:1048600004AB1978C9B25A78D2B23A48A8470D2099
:104870002A4B9847384B984700282BD0040029E052
:104880008722920020492148214B98473348224BE8
:1048900098470D20214B9847022464421CE089224E
:1048A0009200194919481A4CA04703992C48A0476F
:1048B0000D201A4B98470C2464420DE0294A1249F6
:1048C0001248134B98472848134B98470D20134B19
:1048D000984701E0002C4FD0244A25490B480C4D45
:1048E000A84721002348A8470D200C4B98476FE6A6
:1048F0007022002065590000701000009D3F0000EC
:104900007159000084100000A844010044410100D6
:104910008D190100F4410100AD1A0100C119010017
:104920007D59000018420100304201007042010030
:1049300090420100B4420100FF010000D442010096
:1049400006020000F84201000F0200001C430100B3
:104950001502000034430100AD4200006043010035
:10496000744301002D020000904301004A02000040
:104970009C410100B44301004346DB78002B00D08A
:1049800020E6002007B00CBC90469946F0BDC0461A
:10499000F8B514001D00002803D0002901D0002A1A
:1049A00012D1002D02D0274B984749E0264A2749CB
:1049B0002748284B98472848284B98470D20284BD4
:1049C00098470C2040423BE0264B9B689A420FD907
:1049D000254A1E491E481F4DA847224B9A682100B0
:1049E0002248A8470D201E4B98470C20404227E044
:1049F0001C4B5B68984206D386181A4A576893681E
:104A0000FB189E420DD91A4A10491148114B98477C
:104A10001848124B98470D20114B98470C204042E4
:104A20000EE02200144B9847002809D10D4A516826
:104A30009368CB189E4201D0002D01D0014B9847BE
:104A4000F8BDC046AD4200006B020000AC41010061
:104A5000444101008D190100E4430100AD1A010039
:104A6000C1190100702200207302000004440100FB
:104A7000790200004C4401007D59000070B5041E0D
:104A8000072C1FD88300164AD3589F46154B19612F
:104A9000002024E0134BD960002020E0114B596125
:104AA00000201CE00F4BD961002018E00D4B19626B
:104AB000002014E00B4B9961002010E0094B596273
:104AC00000200CE0084A094909480A4DA84721007E
:104AD0000948A8470D20094B98470C20404270BD5B
:104AE0007C41010070220020B1020000B8410100A9
:104AF000444101008D19010090440100C1190100D9
:104B000010B5282200210648064B98470648074B57
:104B1000984707490320074B9847002010BDC0461F
:104B2000702200206D42000099420000453F0000C5
:104B3000A94200007D4A000030B59FB00400150076
:104B40002C2811D10023042203A92800944CA0474B
:104B5000002800D022E1934B1B68002B00D11DE1FF
:104B600003A92C30984719E11B2811D100230822F2
:104B700003A928008A4CA047002800D00EE1894BE9
:104B80001B68002B00D109E103A91B30984705E100
:104B9000062811D10123302203A92800804CA04708
:104BA000002800D0FAE07F4B1B68002B00D1F5E015
:104BB00003A906309847F1E00E2800D1EEE0322834
:104BC00011D10023142203A92800754CA047002806
:104BD00000D0E3E0734B1B68002B00D1DEE003A99B
:104BE00032309847DAE02F2816D16422002103A83A
:104BF0006D4B98470023642203A92800684CA04706
:104C0000002800D0CAE0674B1B68002B00D1C5E02C
:104C100003A92F309847C1E0342822D10023042271
:104C200003A928005E4CA047002800D0B6E05F48EA
:104C30005F4CA0470398030CFF210B40020A0A4077
:104C40000140000E00905B48A0470D205A4B98474A
:104C5000544B1B68002B00D1A0E000213420984762
:104C60009CE0112818D10022544B1A700023043202
:104C700003A928004A4CA047002800D08EE003ABCF
:104C80001A784F4B1A70474B1B68002B00D185E0F8
:104C900003A91130984781E013280FD100232C225B
:104CA00003A928003E4CA047002877D13D4B1B6844
:104CB000002B73D003A9133098476FE004280FD15D
:104CC000002304221CA92800354CA047002865D1E8
:104CD000344B1B68002B61D01CA9043098475DE061
:104CE00065280FD1002304221CA928002C4CA047C2
:104CF000002853D12B4B1B68002B4FD01CA96530CB
:104D000098474BE009280FD10123642203A928000A
:104D1000234CA047002841D1224B1B68002B3DD0DB
:104D200003A90930984739E02A280FD1012304222A
:104D300003A928001A4CA04700282FD1194B1B6843
:104D4000002B2BD003A92A30984727E0202819D11F
:104D50000023082203A92800114CA04700281DD1D8
:104D600003AB9A8828000830012303990C4CA04714
:104D7000002813D10B4B1B68002B0FD003A9203048
:104D800098470BE0922252000E490F48084DA84761
:104D900021000E48A8470D20074B98471FB030BD93
:104DA00091490000CC0800206D420000A03C0100A9
:104DB0008D190100D0440100C1190100D008002064
:104DC000D1080020C444010044410100F044010026
:104DD00010B5041E0ED13E22FF3263496348644B76
:104DE00098476448644B98470D20644B98470C20C3
:104DF0004042B8E0624B9847002804D02000604B46
:104E0000984720280ED9A222520057495748584B9C
:104E100098475C48584B98470D20584B98470C20B2
:104E20004042A0E02123E35C013B0D2B0ED94C2234
:104E3000FF324D494D484E4B984753484E4B98478B
:104E40000D204E4B98470C2040428CE04123E35C00
:104E5000002B16D14233E35C002B12D14333E35CC9
:104E6000002B0ED1AA2252003F494048404B9847A0
:104E70004648414B98470D20404B98470C204042F4
:104E800071E03F23E35C012B6CD0032B44D11F3333
:104E9000E35C013B032B0ED96422FF3232493348D5
:104EA000334B98473A48344B98470D20334B98473B
:104EB0000C20404257E02323E35C102293430A2B4B
:104EC0000ED05D32FF3228492848294B9847314897
:104ED000294B98470D20294B98470C20404242E02F
:104EE00024342000264B9847002806D02000244B6D
:104EF0009847030000201A2B35D97422FF321A4933
:104F00001A481B4B984724481B4B98470D201B4BB6
:104F100098470C20404226E0022B14D12133E35C59
:104F2000083B0020382B1ED97E22FF320E490F4845
:104F30000F4B98471948104B98470D200F4B984737
:104F40000C2040420FE0C222520007490748084B9C
:104F500098471348084B98470D20084B98470C205A
:104F6000404200E0002010BD6448010044410100BF
:104F70008D19010004450100AD1A0100C11901009D
:104F80007D42000014450100244501003045010028
:104F9000484501005C450100744501008845010059
:104FA000A0450100F0B58FB001220F236B441A70A9
:104FB00000285ED00268314B1A600022304B1A7014
:104FC0000F2068442F4B9847041E54D100202E4BCD
:104FD0009847041E49D12D4901202D4B984704AE16
:104FE00030002C4B984704002B482C4DA847B37930
:104FF00072793179308C00902948A8470D20294FCB
:10500000B8472548A84726226A441A2169442648F9
:10501000A8470D20B8472048A847737A327AF1791B
:105020002248A8470D20B8471B48A847022305225D
:1050300013211F48A8470D20B8471748A8471D4A05
:105040001D491E48A8470D20B84723000D3312D133
:10505000E822FF321A491B48104B98471A481B4B4D
:1050600098470D200F4B984705E00020184B9847B4
:1050700001E00C24644220000FB0F0BDCC080020F9
:10508000D0080020315B0000014B0000394B0000CC
:105090007D4A00004D5A0000A03C01008D1901001E
:1050A000BC450100C1190100E445010000460100B2
:1050B000244601003C4601004846010054460100D8
:1050C00080480100444101006C460100AD1A010016
:1050D000055C000010B5014B984710BDB1450000BC
:1050E000F0B54F464646C0B4A3B005900C0015007D
:1050F0001F002AAB1B8899462BAB1B789846012AC8
:1051000040D0002F0DD1804A80498148814B98477B
:105110008148824B98470D20814B98470C20404294
:10512000ECE0022A2ED138007E4B9847402829D146
:105130003B781A00303A362A13D80A3A062A10D990
:10514000473B192B0DD97A1C3800403013781900D1
:105150003039362905D80A39062902D9473B192B97
:105160000DD8714A69496A486A4B98476F486B4B3A
:1051700098470D206A4B98470C204042BEE0013210
:105180008242E3D1631E1F2B0DD9694A5F496048F3
:10519000604B98476748614B98470D20604B984794
:1051A0000C204042AAE04B46013B9BB20D2B11D98B
:1051B0004B46FF2B0ED08D22920054495448554B3C
:1051C00098475D48554B98470D20554B98470C2004
:1051D000404293E007AE220005995A2002AB9C465C
:1051E0006044564B984734194634002323704433A7
:1051F0004A46F25243465A1E93416722B354412312
:10520000F554032D3BD13B78013BDBB207AA137069
:10521000032B0ED94A4A3D493D483E4CA04707ABB7
:1052200019784848A0470D203D4B98470C20404234
:1052300064E07A78511E07AB59701023110099432E
:105240000B290ED0404A31493148324CA04707ABB8
:1052500059783E48A0470D20314B98470C204042DA
:105260004CE0B91C162002AB9C466044334B984777
:105270007B7807AA9446634400229A7034E0022D9A
:105280001AD13800274B9847431E9BB23F2B0DD9AC
:105290002F4A1E491E481F4B98472E481F4B9847C0
:1052A0000D201F4B98470C20404227E0421C39003C
:1052B00007A8224B984717E0042D05D13E2239005C
:1052C00007A81E4B98470FE0012D0DD0224A0F4929
:1052D0000F48104B98472148104B98470D20104B12
:1052E00098470C20404209E0002302930193009369
:1052F0006C3307AA28210120194CA04723B00CBC0D
:1053000090469946F0BDC04615020000B044010029
:10531000444101008D19010088460100AD1A0100C9
:10532000C11901007D420000210200009C460100DD
:105330002B020000A8460100BC46010059420000B3
:105340004B020000C846010052020000E446010082
:105350006102000000470100710200001C470100CB
:105360007D43000030B583B006AC2488002501954C
:105370000094024CA04703B030BDC046E15000008D
:105380000020704710B584B00400094B98470028EE
:105390000AD100230293019300938833220046210F
:1053A0000130044CA04701E00C20404204B010BD85
:1053B000D14D00007D43000010B584B0002302935E
:1053C00001930093002247210120024CA04704B022
:1053D00010BDC0467D43000010B50400054B984742
:1053E000002806D12000044B9847002801D1034B28
:1053F000984710BDF1420000C95800004943000021
:1054000010B584B0002302930193009300221A2167
:105410000120024CA04704B010BDC0467D430000EF
:10542000F0B583B080256D000543A5246401084FC5
:10543000084E29002000B8470023019301A920004D
:10544000B0470028F5D1019B9D42F2D103B0F0BDD9
:10545000715900006559000000B583B00023019325
:1054600001A91048104B9847002819D18021490004
:10547000019B194301910B480C4B984700280FD111
:1054800001A9D0204001084B9847002808D180216D
:105490004902019B19430191D0204001034B9847D9
:1054A00003B000BD081400006559000071590000E8
:1054B00010B582B0274B1C68002C46D11900802003
:1054C0004001254B9847002803D00022214B1A6049
:1054D0003DE001A92148204B9847002803D0002235
:1054E0001C4B1A6033E01B4B1B681D4A934206D1CC
:1054F000019B012B21D01B4A164B1A601DE01A4A52
:1055000093420CD1019B032B17D0042B03D1174AD4
:10551000104B1A6011E0164A0E4B1A600DE0154A46
:1055200093420AD10B49EC2080030B4B984700288B
:1055300003D00022074B1A6009E0064A0E4B11689F
:105540000B40A021C9020B431360024B1C682000D2
:1055500002B010BDD408002065590000F41300000B
:10556000A0021000A1021000B0021000B102100051
:10557000B2021000F0001000FFFFF0FF30B583B062
:10558000154C012501A91020A047002822D1019B1C
:105590002B42F7D101A901300F4B9847002819D1B0
:1055A00001998B0707D502239943019101300B4BD9
:1055B000984700280ED101A90B20074B98470028D7
:1055C00008D10199CB0705D50123994301910B30EF
:1055D000024B984703B030BD655900007159000077
:1055E000F0B583B000230193009301A90B20284B51
:1055F0009847041E48D10199CB0706D401231943CB
:105600000B20244B9847041E3ED101A90120204BBA
:105610009847041E38D101998B0706D402231943F9
:1056200001201C4B9847041E2ED10525184F1A4EF9
:1056300069460F20B847041E0DD0AA225200174910
:105640001748184DA847009A21001748A8470D2071
:10565000164B984718E0009B5B0713D40220B04715
:10566000013D002DE4D1AF2252000C490C480D4BF6
:1056700098470F480F4B98470D200C4B9847042430
:10568000644201E00C4B9847200003B0F0BDC046D7
:1056900065590000715900006D3E0000004901008D
:1056A000444101008D19010090480100C119010019
:1056B000A8480100AD1A01004D590000F8B50700D7
:1056C0002D4D2E4C2E4E2800A047002802DB012035
:1056D000B047F8E72B48294B9847C30709D4284E11
:1056E000294C264D0120B0472000A847274B98425F
:1056F000F8D1022F09D126492648274CA0478021FE
:1057000049032648A047002417E0032F08D1204969
:105710002048214CA04700212048A04700240CE04D
:10572000042F05D11E491D481B4B9847802404E0D7
:105730001B491A48184B984700241A4B98470005F4
:10574000000D194B984204D902202043174B98476B
:1057500002E02000154B98471548164CA047104909
:105760001548A0470D20154B9847154906480A4B88
:1057700098470020F8BDC046141000005959000099
:105780006D3E0000BC0702000C000C009ED0AD1066
:105790007DD51C3CAC070200715900008C10000044
:1057A00052135213B15400009F0300002154000013
:1057B000A03C01008D190100C4480100C11901007D
:1057C000612F52EF70B582B0154B0193154B0093CA
:1057D000023801280CD8144B0193144B009307E0B6
:1057E0000220B0470198A847013C002C05D112E0E7
:1057F0000124644200200E4E0E4D009B9842EFD1D2
:10580000009A0020074B9A4207D1002104480A4B16
:105810009847002001E00520404202B070BDC0461C
:105820008C10000036265302AC070200C3C15DD7BE
:105830006D3E0000595900007159000010B582B04A
:105840000023019301A9A0204001144B9847041E96
:105850000BD0134A13491448144B98471448154B5E
:1058600098470D20144B984714E01449019B1940A8
:105870000191A0204001124B9847041E0AD0114A02
:1058800008490948094B984709480A4B98470D2091
:10589000094B9847200002B010BDC0466559000072
:1058A00005020000F4480100444101008D19010087
:1058B000DC480100AD1A0100C1190100FFFBFFFF28
:1058C000715900000B02000030B587B005000822B6
:1058D000002101A8124B984705A91248124B98477E
:1058E00000281BD1C0208002059B1843082201A973
:1058F0000E4B9847002811D1019B1804000C05900D
:10590000C0239B021843062203A9084B98470400B2
:10591000062203A92800064B9847200007B030BD97
:105920004518010008000C00655900007D59000071
:105930005942000010B5014B984710BDC13F00000F
:1059400010B5014B984710BD1D42000010B5014B2A
:10595000984710BDF162000010B5014B984710BD8B
:105960002963000010B5014B984710BD3D6300004E
:1059700010B5014B984710BD55630000F0B5574670
:105980004E464546E0B482B0804689461500134B2A
:105990001F88083FBBB201931E0004009A4206D83C
:1059A0000021AAB2494420000D4B984710E00C4B4F
:1059B0009A46371A4346E11A4944019A2000D047D3
:1059C000002805D1AD1B3919A419B542F2D8E8E772
:1059D00002B01CBC90469946A246F0BD10010020C2
:1059E00099640000F0B557464E464546E0B482B093
:1059F000804689461500134B1F88083FBBB20193B0
:105A00001E0004009A4206D80021AAB24944200090
:105A10000D4B984710E00C4B9A46371A4346E11A53
:105A20004944019A2000D047002805D1AD1B3919FF
:105A3000A419B542F2D8E8E702B01CBC90469946DA
:105A4000A246F0BD10010020F565000070B584B0DD
:105A50000400002303930822002101A82D4B98473E
:105A6000002C45D02822002120002B4B984703A969
:105A70002A482B4B984700284AD10398002839D050
:105A8000C0239B021843082201A9264B98470028EF
:105A90003ED1029B1804000C03902ED0C0239B0221
:105AA0001843282221001F4B9847002830D1237922
:105AB0001902A3790F252B400B4366793601FF228B
:105AC00016403343E6793602617A0D403543217A38
:105AD000090111402A000A43002B11D0002A12D0DC
